{
	"test.sol": {
		"Example": {
			"abi": [
				{
					"anonymous": false,
					"inputs": [
						{
							"indexed": false,
							"internalType": "uint256",
							"name": "newValue",
							"type": "uint256"
						}
					],
					"name": "ValueUpdated",
					"type": "event"
				},
				{
					"inputs": [
						{
							"internalType": "address",
							"name": "target",
							"type": "address"
						},
						{
							"internalType": "bytes4",
							"name": "selector",
							"type": "bytes4"
						},
						{
							"internalType": "uint256",
							"name": "value",
							"type": "uint256"
						}
					],
					"name": "callTestFunction",
					"outputs": [],
					"stateMutability": "nonpayable",
					"type": "function"
				},
				{
					"inputs": [],
					"name": "getSelector",
					"outputs": [
						{
							"internalType": "bytes4",
							"name": "",
							"type": "bytes4"
						}
					],
					"stateMutability": "pure",
					"type": "function"
				},
				{
					"inputs": [
						{
							"internalType": "uint256",
							"name": "value",
							"type": "uint256"
						}
					],
					"name": "ifdgekjhacb",
					"outputs": [],
					"stateMutability": "nonpayable",
					"type": "function"
				},
				{
					"inputs": [],
					"name": "storedValue",
					"outputs": [
						{
							"internalType": "uint256",
							"name": "",
							"type": "uint256"
						}
					],
					"stateMutability": "view",
					"type": "function"
				},
				{
					"inputs": [
						{
							"internalType": "uint256",
							"name": "value",
							"type": "uint256"
						}
					],
					"name": "test",
					"outputs": [],
					"stateMutability": "nonpayable",
					"type": "function"
				}
			],
			"devdoc": {
				"kind": "dev",
				"methods": {},
				"version": 1
			},
			"evm": {
				"assembly": "    /* \"test.sol\":25:1239  contract Example { ... */\n  mstore(0x40, 0x80)\n  callvalue\n  dup1\n  iszero\n  tag_1\n  jumpi\n  0x00\n  dup1\n  revert\ntag_1:\n  pop\n  dataSize(sub_0)\n  dup1\n  dataOffset(sub_0)\n  0x00\n  codecopy\n  0x00\n  return\nstop\n\nsub_0: assembly {\n        /* \"test.sol\":25:1239  contract Example { ... */\n      mstore(0x40, 0x80)\n      callvalue\n      dup1\n      iszero\n      tag_1\n      jumpi\n      0x00\n      dup1\n      revert\n    tag_1:\n      pop\n      jumpi(tag_2, lt(calldatasize, 0x04))\n      shr(0xe0, calldataload(0x00))\n      dup1\n      0x8b\n      eq\n      tag_3\n      jumpi\n      dup1\n      0x0254252f\n      eq\n      tag_4\n      jumpi\n      dup1\n      0x034899bc\n      eq\n      tag_5\n      jumpi\n      dup1\n      0x29e99f07\n      eq\n      tag_6\n      jumpi\n      dup1\n      0x6d619daa\n      eq\n      tag_7\n      jumpi\n    tag_2:\n      0x00\n      dup1\n      revert\n        /* \"test.sol\":98:349  function ifdgekjhacb(uint256 value) external {... */\n    tag_3:\n      tag_8\n      0x04\n      dup1\n      calldatasize\n      sub\n      dup2\n      add\n      swap1\n      tag_9\n      swap2\n      swap1\n      tag_10\n      jump\t// in\n    tag_9:\n      tag_11\n      jump\t// in\n    tag_8:\n      stop\n        /* \"test.sol\":902:1237  function callTestFunction(address target, bytes4 selector,uint256 value) external {... */\n    tag_4:\n      tag_12\n      0x04\n      dup1\n      calldatasize\n      sub\n      dup2\n      add\n      swap1\n      tag_13\n      swap2\n      swap1\n      tag_14\n      jump\t// in\n    tag_13:\n      tag_15\n      jump\t// in\n    tag_12:\n      stop\n        /* \"test.sol\":628:738  function getSelector() public pure returns (bytes4) {... */\n    tag_5:\n      tag_16\n      tag_17\n      jump\t// in\n    tag_16:\n      mload(0x40)\n      tag_18\n      swap2\n      swap1\n      tag_19\n      jump\t// in\n    tag_18:\n      mload(0x40)\n      dup1\n      swap2\n      sub\n      swap1\n      return\n        /* \"test.sol\":377:621  function test(uint256 value) external {... */\n    tag_6:\n      tag_20\n      0x04\n      dup1\n      calldatasize\n      sub\n      dup2\n      add\n      swap1\n      tag_21\n      swap2\n      swap1\n      tag_10\n      jump\t// in\n    tag_21:\n      tag_22\n      jump\t// in\n    tag_20:\n      stop\n        /* \"test.sol\":49:75  uint256 public storedValue */\n    tag_7:\n      tag_23\n      tag_24\n      jump\t// in\n    tag_23:\n      mload(0x40)\n      tag_25\n      swap2\n      swap1\n      tag_26\n      jump\t// in\n    tag_25:\n      mload(0x40)\n      dup1\n      swap2\n      sub\n      swap1\n      return\n        /* \"test.sol\":98:349  function ifdgekjhacb(uint256 value) external {... */\n    tag_11:\n        /* \"test.sol\":232:237  value */\n      dup1\n        /* \"test.sol\":218:229  storedValue */\n      0x00\n        /* \"test.sol\":218:237  storedValue = value */\n      dup2\n      swap1\n      sstore\n      pop\n        /* \"test.sol\":323:342  ValueUpdated(value) */\n      0x4273d0736f60e0dedfe745e86718093d8ec8646ebd2a60cd60643eeced565811\n        /* \"test.sol\":336:341  value */\n      dup2\n        /* \"test.sol\":323:342  ValueUpdated(value) */\n      mload(0x40)\n      tag_28\n      swap2\n      swap1\n      tag_26\n      jump\t// in\n    tag_28:\n      mload(0x40)\n      dup1\n      swap2\n      sub\n      swap1\n      log1\n        /* \"test.sol\":98:349  function ifdgekjhacb(uint256 value) external {... */\n      pop\n      jump\t// out\n        /* \"test.sol\":902:1237  function callTestFunction(address target, bytes4 selector,uint256 value) external {... */\n    tag_15:\n        /* \"test.sol\":1071:1083  bool success */\n      0x00\n        /* \"test.sol\":1089:1095  target */\n      dup4\n        /* \"test.sol\":1089:1100  target.call */\n      0xffffffffffffffffffffffffffffffffffffffff\n      and\n        /* \"test.sol\":1137:1145  selector */\n      dup4\n        /* \"test.sol\":1147:1152  value */\n      dup4\n        /* \"test.sol\":1114:1153  abi.encodeWithSelector(selector, value) */\n      add(0x24, mload(0x40))\n      tag_30\n      swap2\n      swap1\n      tag_26\n      jump\t// in\n    tag_30:\n      mload(0x40)\n      0x20\n      dup2\n      dup4\n      sub\n      sub\n      dup2\n      mstore\n      swap1\n      0x40\n      mstore\n      swap1\n      not(0xffffffffffffffffffffffffffffffffffffffffffffffffffffffff)\n      and\n      0x20\n      dup3\n      add\n      dup1\n      mload\n      0xffffffffffffffffffffffffffffffffffffffffffffffffffffffff\n      dup4\n      dup2\n      dup4\n      and\n      or\n      dup4\n      mstore\n      pop\n      pop\n      pop\n      pop\n        /* \"test.sol\":1089:1163  target.call(... */\n      mload(0x40)\n      tag_31\n      swap2\n      swap1\n      tag_32\n      jump\t// in\n    tag_31:\n      0x00\n      mload(0x40)\n      dup1\n      dup4\n      sub\n      dup2\n      0x00\n      dup7\n      gas\n      call\n      swap2\n      pop\n      pop\n      returndatasize\n      dup1\n      0x00\n      dup2\n      eq\n      tag_35\n      jumpi\n      mload(0x40)\n      swap2\n      pop\n      and(add(returndatasize, 0x3f), not(0x1f))\n      dup3\n      add\n      0x40\n      mstore\n      returndatasize\n      dup3\n      mstore\n      returndatasize\n      0x00\n      0x20\n      dup5\n      add\n      returndatacopy\n      jump(tag_34)\n    tag_35:\n      0x60\n      swap2\n      pop\n    tag_34:\n      pop\n        /* \"test.sol\":1070:1163  (bool success, ) = target.call(... */\n      pop\n      swap1\n      pop\n        /* \"test.sol\":1190:1197  success */\n      dup1\n        /* \"test.sol\":1182:1230  require(success, \"Call to test function failed\") */\n      tag_36\n      jumpi\n      mload(0x40)\n      0x08c379a000000000000000000000000000000000000000000000000000000000\n      dup2\n      mstore\n      0x04\n      add\n      tag_37\n      swap1\n      tag_38\n      jump\t// in\n    tag_37:\n      mload(0x40)\n      dup1\n      swap2\n      sub\n      swap1\n      revert\n    tag_36:\n        /* \"test.sol\":984:1237  {... */\n      pop\n        /* \"test.sol\":902:1237  function callTestFunction(address target, bytes4 selector,uint256 value) external {... */\n      pop\n      pop\n      pop\n      jump\t// out\n        /* \"test.sol\":628:738  function getSelector() public pure returns (bytes4) {... */\n    tag_17:\n        /* \"test.sol\":672:678  bytes4 */\n      0x00\n        /* \"test.sol\":704:730  keccak256(\"test(uint256)\") */\n      0x29e99f07d14aa8d30a12fa0b0789b43183ba1bf6b4a72b95459a3e397cca10d7\n        /* \"test.sol\":690:731  return bytes4(keccak256(\"test(uint256)\")) */\n      swap1\n      pop\n        /* \"test.sol\":628:738  function getSelector() public pure returns (bytes4) {... */\n      swap1\n      jump\t// out\n        /* \"test.sol\":377:621  function test(uint256 value) external {... */\n    tag_22:\n        /* \"test.sol\":504:509  value */\n      dup1\n        /* \"test.sol\":490:501  storedValue */\n      0x00\n        /* \"test.sol\":490:509  storedValue = value */\n      dup2\n      swap1\n      sstore\n      pop\n        /* \"test.sol\":595:614  ValueUpdated(value) */\n      0x4273d0736f60e0dedfe745e86718093d8ec8646ebd2a60cd60643eeced565811\n        /* \"test.sol\":608:613  value */\n      dup2\n        /* \"test.sol\":595:614  ValueUpdated(value) */\n      mload(0x40)\n      tag_41\n      swap2\n      swap1\n      tag_26\n      jump\t// in\n    tag_41:\n      mload(0x40)\n      dup1\n      swap2\n      sub\n      swap1\n      log1\n        /* \"test.sol\":377:621  function test(uint256 value) external {... */\n      pop\n      jump\t// out\n        /* \"test.sol\":49:75  uint256 public storedValue */\n    tag_24:\n      sload(0x00)\n      dup2\n      jump\t// out\n        /* \"#utility.yul\":88:205   */\n    tag_43:\n        /* \"#utility.yul\":197:198   */\n      0x00\n        /* \"#utility.yul\":194:195   */\n      dup1\n        /* \"#utility.yul\":187:199   */\n      revert\n        /* \"#utility.yul\":334:411   */\n    tag_45:\n        /* \"#utility.yul\":371:378   */\n      0x00\n        /* \"#utility.yul\":400:405   */\n      dup2\n        /* \"#utility.yul\":389:405   */\n      swap1\n      pop\n        /* \"#utility.yul\":334:411   */\n      swap2\n      swap1\n      pop\n      jump\t// out\n        /* \"#utility.yul\":417:539   */\n    tag_46:\n        /* \"#utility.yul\":490:514   */\n      tag_70\n        /* \"#utility.yul\":508:513   */\n      dup2\n        /* \"#utility.yul\":490:514   */\n      tag_45\n      jump\t// in\n    tag_70:\n        /* \"#utility.yul\":483:488   */\n      dup2\n        /* \"#utility.yul\":480:515   */\n      eq\n        /* \"#utility.yul\":470:533   */\n      tag_71\n      jumpi\n        /* \"#utility.yul\":529:530   */\n      0x00\n        /* \"#utility.yul\":526:527   */\n      dup1\n        /* \"#utility.yul\":519:531   */\n      revert\n        /* \"#utility.yul\":470:533   */\n    tag_71:\n        /* \"#utility.yul\":417:539   */\n      pop\n      jump\t// out\n        /* \"#utility.yul\":545:684   */\n    tag_47:\n        /* \"#utility.yul\":591:596   */\n      0x00\n        /* \"#utility.yul\":629:635   */\n      dup2\n        /* \"#utility.yul\":616:636   */\n      calldataload\n        /* \"#utility.yul\":607:636   */\n      swap1\n      pop\n        /* \"#utility.yul\":645:678   */\n      tag_73\n        /* \"#utility.yul\":672:677   */\n      dup2\n        /* \"#utility.yul\":645:678   */\n      tag_46\n      jump\t// in\n    tag_73:\n        /* \"#utility.yul\":545:684   */\n      swap3\n      swap2\n      pop\n      pop\n      jump\t// out\n        /* \"#utility.yul\":690:1019   */\n    tag_10:\n        /* \"#utility.yul\":749:755   */\n      0x00\n        /* \"#utility.yul\":798:800   */\n      0x20\n        /* \"#utility.yul\":786:795   */\n      dup3\n        /* \"#utility.yul\":777:784   */\n      dup5\n        /* \"#utility.yul\":773:796   */\n      sub\n        /* \"#utility.yul\":769:801   */\n      slt\n        /* \"#utility.yul\":766:885   */\n      iszero\n      tag_75\n      jumpi\n        /* \"#utility.yul\":804:883   */\n      tag_76\n      tag_43\n      jump\t// in\n    tag_76:\n        /* \"#utility.yul\":766:885   */\n    tag_75:\n        /* \"#utility.yul\":924:925   */\n      0x00\n        /* \"#utility.yul\":949:1002   */\n      tag_77\n        /* \"#utility.yul\":994:1001   */\n      dup5\n        /* \"#utility.yul\":985:991   */\n      dup3\n        /* \"#utility.yul\":974:983   */\n      dup6\n        /* \"#utility.yul\":970:992   */\n      add\n        /* \"#utility.yul\":949:1002   */\n      tag_47\n      jump\t// in\n    tag_77:\n        /* \"#utility.yul\":939:1002   */\n      swap2\n      pop\n        /* \"#utility.yul\":895:1012   */\n      pop\n        /* \"#utility.yul\":690:1019   */\n      swap3\n      swap2\n      pop\n      pop\n      jump\t// out\n        /* \"#utility.yul\":1025:1151   */\n    tag_48:\n        /* \"#utility.yul\":1062:1069   */\n      0x00\n        /* \"#utility.yul\":1102:1144   */\n      0xffffffffffffffffffffffffffffffffffffffff\n        /* \"#utility.yul\":1095:1100   */\n      dup3\n        /* \"#utility.yul\":1091:1145   */\n      and\n        /* \"#utility.yul\":1080:1145   */\n      swap1\n      pop\n        /* \"#utility.yul\":1025:1151   */\n      swap2\n      swap1\n      pop\n      jump\t// out\n        /* \"#utility.yul\":1157:1253   */\n    tag_49:\n        /* \"#utility.yul\":1194:1201   */\n      0x00\n        /* \"#utility.yul\":1223:1247   */\n      tag_80\n        /* \"#utility.yul\":1241:1246   */\n      dup3\n        /* \"#utility.yul\":1223:1247   */\n      tag_48\n      jump\t// in\n    tag_80:\n        /* \"#utility.yul\":1212:1247   */\n      swap1\n      pop\n        /* \"#utility.yul\":1157:1253   */\n      swap2\n      swap1\n      pop\n      jump\t// out\n        /* \"#utility.yul\":1259:1381   */\n    tag_50:\n        /* \"#utility.yul\":1332:1356   */\n      tag_82\n        /* \"#utility.yul\":1350:1355   */\n      dup2\n        /* \"#utility.yul\":1332:1356   */\n      tag_49\n      jump\t// in\n    tag_82:\n        /* \"#utility.yul\":1325:1330   */\n      dup2\n        /* \"#utility.yul\":1322:1357   */\n      eq\n        /* \"#utility.yul\":1312:1375   */\n      tag_83\n      jumpi\n        /* \"#utility.yul\":1371:1372   */\n      0x00\n        /* \"#utility.yul\":1368:1369   */\n      dup1\n        /* \"#utility.yul\":1361:1373   */\n      revert\n        /* \"#utility.yul\":1312:1375   */\n    tag_83:\n        /* \"#utility.yul\":1259:1381   */\n      pop\n      jump\t// out\n        /* \"#utility.yul\":1387:1526   */\n    tag_51:\n        /* \"#utility.yul\":1433:1438   */\n      0x00\n        /* \"#utility.yul\":1471:1477   */\n      dup2\n        /* \"#utility.yul\":1458:1478   */\n      calldataload\n        /* \"#utility.yul\":1449:1478   */\n      swap1\n      pop\n        /* \"#utility.yul\":1487:1520   */\n      tag_85\n        /* \"#utility.yul\":1514:1519   */\n      dup2\n        /* \"#utility.yul\":1487:1520   */\n      tag_50\n      jump\t// in\n    tag_85:\n        /* \"#utility.yul\":1387:1526   */\n      swap3\n      swap2\n      pop\n      pop\n      jump\t// out\n        /* \"#utility.yul\":1532:1681   */\n    tag_52:\n        /* \"#utility.yul\":1568:1575   */\n      0x00\n        /* \"#utility.yul\":1608:1674   */\n      0xffffffff00000000000000000000000000000000000000000000000000000000\n        /* \"#utility.yul\":1601:1606   */\n      dup3\n        /* \"#utility.yul\":1597:1675   */\n      and\n        /* \"#utility.yul\":1586:1675   */\n      swap1\n      pop\n        /* \"#utility.yul\":1532:1681   */\n      swap2\n      swap1\n      pop\n      jump\t// out\n        /* \"#utility.yul\":1687:1807   */\n    tag_53:\n        /* \"#utility.yul\":1759:1782   */\n      tag_88\n        /* \"#utility.yul\":1776:1781   */\n      dup2\n        /* \"#utility.yul\":1759:1782   */\n      tag_52\n      jump\t// in\n    tag_88:\n        /* \"#utility.yul\":1752:1757   */\n      dup2\n        /* \"#utility.yul\":1749:1783   */\n      eq\n        /* \"#utility.yul\":1739:1801   */\n      tag_89\n      jumpi\n        /* \"#utility.yul\":1797:1798   */\n      0x00\n        /* \"#utility.yul\":1794:1795   */\n      dup1\n        /* \"#utility.yul\":1787:1799   */\n      revert\n        /* \"#utility.yul\":1739:1801   */\n    tag_89:\n        /* \"#utility.yul\":1687:1807   */\n      pop\n      jump\t// out\n        /* \"#utility.yul\":1813:1950   */\n    tag_54:\n        /* \"#utility.yul\":1858:1863   */\n      0x00\n        /* \"#utility.yul\":1896:1902   */\n      dup2\n        /* \"#utility.yul\":1883:1903   */\n      calldataload\n        /* \"#utility.yul\":1874:1903   */\n      swap1\n      pop\n        /* \"#utility.yul\":1912:1944   */\n      tag_91\n        /* \"#utility.yul\":1938:1943   */\n      dup2\n        /* \"#utility.yul\":1912:1944   */\n      tag_53\n      jump\t// in\n    tag_91:\n        /* \"#utility.yul\":1813:1950   */\n      swap3\n      swap2\n      pop\n      pop\n      jump\t// out\n        /* \"#utility.yul\":1956:2573   */\n    tag_14:\n        /* \"#utility.yul\":2032:2038   */\n      0x00\n        /* \"#utility.yul\":2040:2046   */\n      dup1\n        /* \"#utility.yul\":2048:2054   */\n      0x00\n        /* \"#utility.yul\":2097:2099   */\n      0x60\n        /* \"#utility.yul\":2085:2094   */\n      dup5\n        /* \"#utility.yul\":2076:2083   */\n      dup7\n        /* \"#utility.yul\":2072:2095   */\n      sub\n        /* \"#utility.yul\":2068:2100   */\n      slt\n        /* \"#utility.yul\":2065:2184   */\n      iszero\n      tag_93\n      jumpi\n        /* \"#utility.yul\":2103:2182   */\n      tag_94\n      tag_43\n      jump\t// in\n    tag_94:\n        /* \"#utility.yul\":2065:2184   */\n    tag_93:\n        /* \"#utility.yul\":2223:2224   */\n      0x00\n        /* \"#utility.yul\":2248:2301   */\n      tag_95\n        /* \"#utility.yul\":2293:2300   */\n      dup7\n        /* \"#utility.yul\":2284:2290   */\n      dup3\n        /* \"#utility.yul\":2273:2282   */\n      dup8\n        /* \"#utility.yul\":2269:2291   */\n      add\n        /* \"#utility.yul\":2248:2301   */\n      tag_51\n      jump\t// in\n    tag_95:\n        /* \"#utility.yul\":2238:2301   */\n      swap4\n      pop\n        /* \"#utility.yul\":2194:2311   */\n      pop\n        /* \"#utility.yul\":2350:2352   */\n      0x20\n        /* \"#utility.yul\":2376:2428   */\n      tag_96\n        /* \"#utility.yul\":2420:2427   */\n      dup7\n        /* \"#utility.yul\":2411:2417   */\n      dup3\n        /* \"#utility.yul\":2400:2409   */\n      dup8\n        /* \"#utility.yul\":2396:2418   */\n      add\n        /* \"#utility.yul\":2376:2428   */\n      tag_54\n      jump\t// in\n    tag_96:\n        /* \"#utility.yul\":2366:2428   */\n      swap3\n      pop\n        /* \"#utility.yul\":2321:2438   */\n      pop\n        /* \"#utility.yul\":2477:2479   */\n      0x40\n        /* \"#utility.yul\":2503:2556   */\n      tag_97\n        /* \"#utility.yul\":2548:2555   */\n      dup7\n        /* \"#utility.yul\":2539:2545   */\n      dup3\n        /* \"#utility.yul\":2528:2537   */\n      dup8\n        /* \"#utility.yul\":2524:2546   */\n      add\n        /* \"#utility.yul\":2503:2556   */\n      tag_47\n      jump\t// in\n    tag_97:\n        /* \"#utility.yul\":2493:2556   */\n      swap2\n      pop\n        /* \"#utility.yul\":2448:2566   */\n      pop\n        /* \"#utility.yul\":1956:2573   */\n      swap3\n      pop\n      swap3\n      pop\n      swap3\n      jump\t// out\n        /* \"#utility.yul\":2579:2694   */\n    tag_55:\n        /* \"#utility.yul\":2664:2687   */\n      tag_99\n        /* \"#utility.yul\":2681:2686   */\n      dup2\n        /* \"#utility.yul\":2664:2687   */\n      tag_52\n      jump\t// in\n    tag_99:\n        /* \"#utility.yul\":2659:2662   */\n      dup3\n        /* \"#utility.yul\":2652:2688   */\n      mstore\n        /* \"#utility.yul\":2579:2694   */\n      pop\n      pop\n      jump\t// out\n        /* \"#utility.yul\":2700:2918   */\n    tag_19:\n        /* \"#utility.yul\":2791:2795   */\n      0x00\n        /* \"#utility.yul\":2829:2831   */\n      0x20\n        /* \"#utility.yul\":2818:2827   */\n      dup3\n        /* \"#utility.yul\":2814:2832   */\n      add\n        /* \"#utility.yul\":2806:2832   */\n      swap1\n      pop\n        /* \"#utility.yul\":2842:2911   */\n      tag_101\n        /* \"#utility.yul\":2908:2909   */\n      0x00\n        /* \"#utility.yul\":2897:2906   */\n      dup4\n        /* \"#utility.yul\":2893:2910   */\n      add\n        /* \"#utility.yul\":2884:2890   */\n      dup5\n        /* \"#utility.yul\":2842:2911   */\n      tag_55\n      jump\t// in\n    tag_101:\n        /* \"#utility.yul\":2700:2918   */\n      swap3\n      swap2\n      pop\n      pop\n      jump\t// out\n        /* \"#utility.yul\":2924:3042   */\n    tag_56:\n        /* \"#utility.yul\":3011:3035   */\n      tag_103\n        /* \"#utility.yul\":3029:3034   */\n      dup2\n        /* \"#utility.yul\":3011:3035   */\n      tag_45\n      jump\t// in\n    tag_103:\n        /* \"#utility.yul\":3006:3009   */\n      dup3\n        /* \"#utility.yul\":2999:3036   */\n      mstore\n        /* \"#utility.yul\":2924:3042   */\n      pop\n      pop\n      jump\t// out\n        /* \"#utility.yul\":3048:3270   */\n    tag_26:\n        /* \"#utility.yul\":3141:3145   */\n      0x00\n        /* \"#utility.yul\":3179:3181   */\n      0x20\n        /* \"#utility.yul\":3168:3177   */\n      dup3\n        /* \"#utility.yul\":3164:3182   */\n      add\n        /* \"#utility.yul\":3156:3182   */\n      swap1\n      pop\n        /* \"#utility.yul\":3192:3263   */\n      tag_105\n        /* \"#utility.yul\":3260:3261   */\n      0x00\n        /* \"#utility.yul\":3249:3258   */\n      dup4\n        /* \"#utility.yul\":3245:3262   */\n      add\n        /* \"#utility.yul\":3236:3242   */\n      dup5\n        /* \"#utility.yul\":3192:3263   */\n      tag_56\n      jump\t// in\n    tag_105:\n        /* \"#utility.yul\":3048:3270   */\n      swap3\n      swap2\n      pop\n      pop\n      jump\t// out\n        /* \"#utility.yul\":3276:3374   */\n    tag_57:\n        /* \"#utility.yul\":3327:3333   */\n      0x00\n        /* \"#utility.yul\":3361:3366   */\n      dup2\n        /* \"#utility.yul\":3355:3367   */\n      mload\n        /* \"#utility.yul\":3345:3367   */\n      swap1\n      pop\n        /* \"#utility.yul\":3276:3374   */\n      swap2\n      swap1\n      pop\n      jump\t// out\n        /* \"#utility.yul\":3380:3527   */\n    tag_58:\n        /* \"#utility.yul\":3481:3492   */\n      0x00\n        /* \"#utility.yul\":3518:3521   */\n      dup2\n        /* \"#utility.yul\":3503:3521   */\n      swap1\n      pop\n        /* \"#utility.yul\":3380:3527   */\n      swap3\n      swap2\n      pop\n      pop\n      jump\t// out\n        /* \"#utility.yul\":3533:3672   */\n    tag_59:\n        /* \"#utility.yul\":3622:3628   */\n      dup3\n        /* \"#utility.yul\":3617:3620   */\n      dup2\n        /* \"#utility.yul\":3612:3615   */\n      dup4\n        /* \"#utility.yul\":3606:3629   */\n      mcopy\n        /* \"#utility.yul\":3663:3664   */\n      0x00\n        /* \"#utility.yul\":3654:3660   */\n      dup4\n        /* \"#utility.yul\":3649:3652   */\n      dup4\n        /* \"#utility.yul\":3645:3661   */\n      add\n        /* \"#utility.yul\":3638:3665   */\n      mstore\n        /* \"#utility.yul\":3533:3672   */\n      pop\n      pop\n      pop\n      jump\t// out\n        /* \"#utility.yul\":3678:4064   */\n    tag_60:\n        /* \"#utility.yul\":3782:3785   */\n      0x00\n        /* \"#utility.yul\":3810:3848   */\n      tag_110\n        /* \"#utility.yul\":3842:3847   */\n      dup3\n        /* \"#utility.yul\":3810:3848   */\n      tag_57\n      jump\t// in\n    tag_110:\n        /* \"#utility.yul\":3864:3952   */\n      tag_111\n        /* \"#utility.yul\":3945:3951   */\n      dup2\n        /* \"#utility.yul\":3940:3943   */\n      dup6\n        /* \"#utility.yul\":3864:3952   */\n      tag_58\n      jump\t// in\n    tag_111:\n        /* \"#utility.yul\":3857:3952   */\n      swap4\n      pop\n        /* \"#utility.yul\":3961:4026   */\n      tag_112\n        /* \"#utility.yul\":4019:4025   */\n      dup2\n        /* \"#utility.yul\":4014:4017   */\n      dup6\n        /* \"#utility.yul\":4007:4011   */\n      0x20\n        /* \"#utility.yul\":4000:4005   */\n      dup7\n        /* \"#utility.yul\":3996:4012   */\n      add\n        /* \"#utility.yul\":3961:4026   */\n      tag_59\n      jump\t// in\n    tag_112:\n        /* \"#utility.yul\":4051:4057   */\n      dup1\n        /* \"#utility.yul\":4046:4049   */\n      dup5\n        /* \"#utility.yul\":4042:4058   */\n      add\n        /* \"#utility.yul\":4035:4058   */\n      swap2\n      pop\n        /* \"#utility.yul\":3786:4064   */\n      pop\n        /* \"#utility.yul\":3678:4064   */\n      swap3\n      swap2\n      pop\n      pop\n      jump\t// out\n        /* \"#utility.yul\":4070:4341   */\n    tag_32:\n        /* \"#utility.yul\":4200:4203   */\n      0x00\n        /* \"#utility.yul\":4222:4315   */\n      tag_114\n        /* \"#utility.yul\":4311:4314   */\n      dup3\n        /* \"#utility.yul\":4302:4308   */\n      dup5\n        /* \"#utility.yul\":4222:4315   */\n      tag_60\n      jump\t// in\n    tag_114:\n        /* \"#utility.yul\":4215:4315   */\n      swap2\n      pop\n        /* \"#utility.yul\":4332:4335   */\n      dup2\n        /* \"#utility.yul\":4325:4335   */\n      swap1\n      pop\n        /* \"#utility.yul\":4070:4341   */\n      swap3\n      swap2\n      pop\n      pop\n      jump\t// out\n        /* \"#utility.yul\":4347:4516   */\n    tag_61:\n        /* \"#utility.yul\":4431:4442   */\n      0x00\n        /* \"#utility.yul\":4465:4471   */\n      dup3\n        /* \"#utility.yul\":4460:4463   */\n      dup3\n        /* \"#utility.yul\":4453:4472   */\n      mstore\n        /* \"#utility.yul\":4505:4509   */\n      0x20\n        /* \"#utility.yul\":4500:4503   */\n      dup3\n        /* \"#utility.yul\":4496:4510   */\n      add\n        /* \"#utility.yul\":4481:4510   */\n      swap1\n      pop\n        /* \"#utility.yul\":4347:4516   */\n      swap3\n      swap2\n      pop\n      pop\n      jump\t// out\n        /* \"#utility.yul\":4522:4700   */\n    tag_62:\n        /* \"#utility.yul\":4662:4692   */\n      0x43616c6c20746f20746573742066756e6374696f6e206661696c656400000000\n        /* \"#utility.yul\":4658:4659   */\n      0x00\n        /* \"#utility.yul\":4650:4656   */\n      dup3\n        /* \"#utility.yul\":4646:4660   */\n      add\n        /* \"#utility.yul\":4639:4693   */\n      mstore\n        /* \"#utility.yul\":4522:4700   */\n      pop\n      jump\t// out\n        /* \"#utility.yul\":4706:5072   */\n    tag_63:\n        /* \"#utility.yul\":4848:4851   */\n      0x00\n        /* \"#utility.yul\":4869:4936   */\n      tag_118\n        /* \"#utility.yul\":4933:4935   */\n      0x1c\n        /* \"#utility.yul\":4928:4931   */\n      dup4\n        /* \"#utility.yul\":4869:4936   */\n      tag_61\n      jump\t// in\n    tag_118:\n        /* \"#utility.yul\":4862:4936   */\n      swap2\n      pop\n        /* \"#utility.yul\":4945:5038   */\n      tag_119\n        /* \"#utility.yul\":5034:5037   */\n      dup3\n        /* \"#utility.yul\":4945:5038   */\n      tag_62\n      jump\t// in\n    tag_119:\n        /* \"#utility.yul\":5063:5065   */\n      0x20\n        /* \"#utility.yul\":5058:5061   */\n      dup3\n        /* \"#utility.yul\":5054:5066   */\n      add\n        /* \"#utility.yul\":5047:5066   */\n      swap1\n      pop\n        /* \"#utility.yul\":4706:5072   */\n      swap2\n      swap1\n      pop\n      jump\t// out\n        /* \"#utility.yul\":5078:5497   */\n    tag_38:\n        /* \"#utility.yul\":5244:5248   */\n      0x00\n        /* \"#utility.yul\":5282:5284   */\n      0x20\n        /* \"#utility.yul\":5271:5280   */\n      dup3\n        /* \"#utility.yul\":5267:5285   */\n      add\n        /* \"#utility.yul\":5259:5285   */\n      swap1\n      pop\n        /* \"#utility.yul\":5331:5340   */\n      dup2\n        /* \"#utility.yul\":5325:5329   */\n      dup2\n        /* \"#utility.yul\":5321:5341   */\n      sub\n        /* \"#utility.yul\":5317:5318   */\n      0x00\n        /* \"#utility.yul\":5306:5315   */\n      dup4\n        /* \"#utility.yul\":5302:5319   */\n      add\n        /* \"#utility.yul\":5295:5342   */\n      mstore\n        /* \"#utility.yul\":5359:5490   */\n      tag_121\n        /* \"#utility.yul\":5485:5489   */\n      dup2\n        /* \"#utility.yul\":5359:5490   */\n      tag_63\n      jump\t// in\n    tag_121:\n        /* \"#utility.yul\":5351:5490   */\n      swap1\n      pop\n        /* \"#utility.yul\":5078:5497   */\n      swap2\n      swap1\n      pop\n      jump\t// out\n\n    auxdata: 0xa26469706673582212209502326133d8a3c62d2b1c548ead50bada37c2a366a29d0de2869c3810d79c1064736f6c634300081a0033\n}\n",
				"bytecode": {
					"linkReferences": {},
					"object": "6080604052348015600e575f80fd5b506105758061001c5f395ff3fe608060405234801561000f575f80fd5b5060043610610052575f3560e01c80608b146100565780630254252f14610072578063034899bc1461008e57806329e99f07146100ac5780636d619daa146100c8575b5f80fd5b610070600480360381019061006b91906102e5565b6100e6565b005b61008c600480360381019061008791906103bf565b610126565b005b610096610242565b6040516100a3919061041e565b60405180910390f35b6100c660048036038101906100c191906102e5565b610269565b005b6100d06102a9565b6040516100dd9190610446565b60405180910390f35b805f819055507f4273d0736f60e0dedfe745e86718093d8ec8646ebd2a60cd60643eeced5658118160405161011b9190610446565b60405180910390a150565b5f8373ffffffffffffffffffffffffffffffffffffffff1683836040516024016101509190610446565b604051602081830303815290604052907bffffffffffffffffffffffffffffffffffffffffffffffffffffffff19166020820180517bffffffffffffffffffffffffffffffffffffffffffffffffffffffff83818316178352505050506040516101ba91906104b1565b5f604051808303815f865af19150503d805f81146101f3576040519150601f19603f3d011682016040523d82523d5f602084013e6101f8565b606091505b505090508061023c576040517f08c379a000000000000000000000000000000000000000000000000000000000815260040161023390610521565b60405180910390fd5b50505050565b5f7f29e99f07d14aa8d30a12fa0b0789b43183ba1bf6b4a72b95459a3e397cca10d7905090565b805f819055507f4273d0736f60e0dedfe745e86718093d8ec8646ebd2a60cd60643eeced5658118160405161029e9190610446565b60405180910390a150565b5f5481565b5f80fd5b5f819050919050565b6102c4816102b2565b81146102ce575f80fd5b50565b5f813590506102df816102bb565b92915050565b5f602082840312156102fa576102f96102ae565b5b5f610307848285016102d1565b91505092915050565b5f73ffffffffffffffffffffffffffffffffffffffff82169050919050565b5f61033982610310565b9050919050565b6103498161032f565b8114610353575f80fd5b50565b5f8135905061036481610340565b92915050565b5f7fffffffff0000000000000000000000000000000000000000000000000000000082169050919050565b61039e8161036a565b81146103a8575f80fd5b50565b5f813590506103b981610395565b92915050565b5f805f606084860312156103d6576103d56102ae565b5b5f6103e386828701610356565b93505060206103f4868287016103ab565b9250506040610405868287016102d1565b9150509250925092565b6104188161036a565b82525050565b5f6020820190506104315f83018461040f565b92915050565b610440816102b2565b82525050565b5f6020820190506104595f830184610437565b92915050565b5f81519050919050565b5f81905092915050565b8281835e5f83830152505050565b5f61048b8261045f565b6104958185610469565b93506104a5818560208601610473565b80840191505092915050565b5f6104bc8284610481565b915081905092915050565b5f82825260208201905092915050565b7f43616c6c20746f20746573742066756e6374696f6e206661696c6564000000005f82015250565b5f61050b601c836104c7565b9150610516826104d7565b602082019050919050565b5f6020820190508181035f830152610538816104ff565b905091905056fea26469706673582212209502326133d8a3c62d2b1c548ead50bada37c2a366a29d0de2869c3810d79c1064736f6c634300081a0033",
					"opcodes": "PUSH1 0x80 PUSH1 0x40 MSTORE CALLVALUE DUP1 ISZERO PUSH1 0xE JUMPI PUSH0 DUP1 REVERT JUMPDEST POP PUSH2 0x575 DUP1 PUSH2 0x1C PUSH0 CODECOPY PUSH0 RETURN INVALID PUSH1 0x80 PUSH1 0x40 MSTORE CALLVALUE DUP1 ISZERO PUSH2 0xF JUMPI PUSH0 DUP1 REVERT JUMPDEST POP PUSH1 0x4 CALLDATASIZE LT PUSH2 0x52 JUMPI PUSH0 CALLDATALOAD PUSH1 0xE0 SHR DUP1 PUSH1 0x8B EQ PUSH2 0x56 JUMPI DUP1 PUSH4 0x254252F EQ PUSH2 0x72 JUMPI DUP1 PUSH4 0x34899BC EQ PUSH2 0x8E JUMPI DUP1 PUSH4 0x29E99F07 EQ PUSH2 0xAC JUMPI DUP1 PUSH4 0x6D619DAA EQ PUSH2 0xC8 JUMPI JUMPDEST PUSH0 DUP1 REVERT JUMPDEST PUSH2 0x70 PUSH1 0x4 DUP1 CALLDATASIZE SUB DUP2 ADD SWAP1 PUSH2 0x6B SWAP2 SWAP1 PUSH2 0x2E5 JUMP JUMPDEST PUSH2 0xE6 JUMP JUMPDEST STOP JUMPDEST PUSH2 0x8C PUSH1 0x4 DUP1 CALLDATASIZE SUB DUP2 ADD SWAP1 PUSH2 0x87 SWAP2 SWAP1 PUSH2 0x3BF JUMP JUMPDEST PUSH2 0x126 JUMP JUMPDEST STOP JUMPDEST PUSH2 0x96 PUSH2 0x242 JUMP JUMPDEST PUSH1 0x40 MLOAD PUSH2 0xA3 SWAP2 SWAP1 PUSH2 0x41E JUMP JUMPDEST PUSH1 0x40 MLOAD DUP1 SWAP2 SUB SWAP1 RETURN JUMPDEST PUSH2 0xC6 PUSH1 0x4 DUP1 CALLDATASIZE SUB DUP2 ADD SWAP1 PUSH2 0xC1 SWAP2 SWAP1 PUSH2 0x2E5 JUMP JUMPDEST PUSH2 0x269 JUMP JUMPDEST STOP JUMPDEST PUSH2 0xD0 PUSH2 0x2A9 JUMP JUMPDEST PUSH1 0x40 MLOAD PUSH2 0xDD SWAP2 SWAP1 PUSH2 0x446 JUMP JUMPDEST PUSH1 0x40 MLOAD DUP1 SWAP2 SUB SWAP1 RETURN JUMPDEST DUP1 PUSH0 DUP2 SWAP1 SSTORE POP PUSH32 0x4273D0736F60E0DEDFE745E86718093D8EC8646EBD2A60CD60643EECED565811 DUP2 PUSH1 0x40 MLOAD PUSH2 0x11B SWAP2 SWAP1 PUSH2 0x446 JUMP JUMPDEST PUSH1 0x40 MLOAD DUP1 SWAP2 SUB SWAP1 LOG1 POP JUMP JUMPDEST PUSH0 DUP4 PUSH20 0xFFFFFFFFFFFFFFFFFFFFFFFFFFFFFFFFFFFFFFFF AND DUP4 DUP4 PUSH1 0x40 MLOAD PUSH1 0x24 ADD PUSH2 0x150 SWAP2 SWAP1 PUSH2 0x446 JUMP JUMPDEST PUSH1 0x40 MLOAD PUSH1 0x20 DUP2 DUP4 SUB SUB DUP2 MSTORE SWAP1 PUSH1 0x40 MSTORE SWAP1 PUSH28 0xFFFFFFFFFFFFFFFFFFFFFFFFFFFFFFFFFFFFFFFFFFFFFFFFFFFFFFFF NOT AND PUSH1 0x20 DUP3 ADD DUP1 MLOAD PUSH28 0xFFFFFFFFFFFFFFFFFFFFFFFFFFFFFFFFFFFFFFFFFFFFFFFFFFFFFFFF DUP4 DUP2 DUP4 AND OR DUP4 MSTORE POP POP POP POP PUSH1 0x40 MLOAD PUSH2 0x1BA SWAP2 SWAP1 PUSH2 0x4B1 JUMP JUMPDEST PUSH0 PUSH1 0x40 MLOAD DUP1 DUP4 SUB DUP2 PUSH0 DUP7 GAS CALL SWAP2 POP POP RETURNDATASIZE DUP1 PUSH0 DUP2 EQ PUSH2 0x1F3 JUMPI PUSH1 0x40 MLOAD SWAP2 POP PUSH1 0x1F NOT PUSH1 0x3F RETURNDATASIZE ADD AND DUP3 ADD PUSH1 0x40 MSTORE RETURNDATASIZE DUP3 MSTORE RETURNDATASIZE PUSH0 PUSH1 0x20 DUP5 ADD RETURNDATACOPY PUSH2 0x1F8 JUMP JUMPDEST PUSH1 0x60 SWAP2 POP JUMPDEST POP POP SWAP1 POP DUP1 PUSH2 0x23C JUMPI PUSH1 0x40 MLOAD PUSH32 0x8C379A000000000000000000000000000000000000000000000000000000000 DUP2 MSTORE PUSH1 0x4 ADD PUSH2 0x233 SWAP1 PUSH2 0x521 JUMP JUMPDEST PUSH1 0x40 MLOAD DUP1 SWAP2 SUB SWAP1 REVERT JUMPDEST POP POP POP POP JUMP JUMPDEST PUSH0 PUSH32 0x29E99F07D14AA8D30A12FA0B0789B43183BA1BF6B4A72B95459A3E397CCA10D7 SWAP1 POP SWAP1 JUMP JUMPDEST DUP1 PUSH0 DUP2 SWAP1 SSTORE POP PUSH32 0x4273D0736F60E0DEDFE745E86718093D8EC8646EBD2A60CD60643EECED565811 DUP2 PUSH1 0x40 MLOAD PUSH2 0x29E SWAP2 SWAP1 PUSH2 0x446 JUMP JUMPDEST PUSH1 0x40 MLOAD DUP1 SWAP2 SUB SWAP1 LOG1 POP JUMP JUMPDEST PUSH0 SLOAD DUP2 JUMP JUMPDEST PUSH0 DUP1 REVERT JUMPDEST PUSH0 DUP2 SWAP1 POP SWAP2 SWAP1 POP JUMP JUMPDEST PUSH2 0x2C4 DUP2 PUSH2 0x2B2 JUMP JUMPDEST DUP2 EQ PUSH2 0x2CE JUMPI PUSH0 DUP1 REVERT JUMPDEST POP JUMP JUMPDEST PUSH0 DUP2 CALLDATALOAD SWAP1 POP PUSH2 0x2DF DUP2 PUSH2 0x2BB JUMP JUMPDEST SWAP3 SWAP2 POP POP JUMP JUMPDEST PUSH0 PUSH1 0x20 DUP3 DUP5 SUB SLT ISZERO PUSH2 0x2FA JUMPI PUSH2 0x2F9 PUSH2 0x2AE JUMP JUMPDEST JUMPDEST PUSH0 PUSH2 0x307 DUP5 DUP3 DUP6 ADD PUSH2 0x2D1 JUMP JUMPDEST SWAP2 POP POP SWAP3 SWAP2 POP POP JUMP JUMPDEST PUSH0 PUSH20 0xFFFFFFFFFFFFFFFFFFFFFFFFFFFFFFFFFFFFFFFF DUP3 AND SWAP1 POP SWAP2 SWAP1 POP JUMP JUMPDEST PUSH0 PUSH2 0x339 DUP3 PUSH2 0x310 JUMP JUMPDEST SWAP1 POP SWAP2 SWAP1 POP JUMP JUMPDEST PUSH2 0x349 DUP2 PUSH2 0x32F JUMP JUMPDEST DUP2 EQ PUSH2 0x353 JUMPI PUSH0 DUP1 REVERT JUMPDEST POP JUMP JUMPDEST PUSH0 DUP2 CALLDATALOAD SWAP1 POP PUSH2 0x364 DUP2 PUSH2 0x340 JUMP JUMPDEST SWAP3 SWAP2 POP POP JUMP JUMPDEST PUSH0 PUSH32 0xFFFFFFFF00000000000000000000000000000000000000000000000000000000 DUP3 AND SWAP1 POP SWAP2 SWAP1 POP JUMP JUMPDEST PUSH2 0x39E DUP2 PUSH2 0x36A JUMP JUMPDEST DUP2 EQ PUSH2 0x3A8 JUMPI PUSH0 DUP1 REVERT JUMPDEST POP JUMP JUMPDEST PUSH0 DUP2 CALLDATALOAD SWAP1 POP PUSH2 0x3B9 DUP2 PUSH2 0x395 JUMP JUMPDEST SWAP3 SWAP2 POP POP JUMP JUMPDEST PUSH0 DUP1 PUSH0 PUSH1 0x60 DUP5 DUP7 SUB SLT ISZERO PUSH2 0x3D6 JUMPI PUSH2 0x3D5 PUSH2 0x2AE JUMP JUMPDEST JUMPDEST PUSH0 PUSH2 0x3E3 DUP7 DUP3 DUP8 ADD PUSH2 0x356 JUMP JUMPDEST SWAP4 POP POP PUSH1 0x20 PUSH2 0x3F4 DUP7 DUP3 DUP8 ADD PUSH2 0x3AB JUMP JUMPDEST SWAP3 POP POP PUSH1 0x40 PUSH2 0x405 DUP7 DUP3 DUP8 ADD PUSH2 0x2D1 JUMP JUMPDEST SWAP2 POP POP SWAP3 POP SWAP3 POP SWAP3 JUMP JUMPDEST PUSH2 0x418 DUP2 PUSH2 0x36A JUMP JUMPDEST DUP3 MSTORE POP POP JUMP JUMPDEST PUSH0 PUSH1 0x20 DUP3 ADD SWAP1 POP PUSH2 0x431 PUSH0 DUP4 ADD DUP5 PUSH2 0x40F JUMP JUMPDEST SWAP3 SWAP2 POP POP JUMP JUMPDEST PUSH2 0x440 DUP2 PUSH2 0x2B2 JUMP JUMPDEST DUP3 MSTORE POP POP JUMP JUMPDEST PUSH0 PUSH1 0x20 DUP3 ADD SWAP1 POP PUSH2 0x459 PUSH0 DUP4 ADD DUP5 PUSH2 0x437 JUMP JUMPDEST SWAP3 SWAP2 POP POP JUMP JUMPDEST PUSH0 DUP2 MLOAD SWAP1 POP SWAP2 SWAP1 POP JUMP JUMPDEST PUSH0 DUP2 SWAP1 POP SWAP3 SWAP2 POP POP JUMP JUMPDEST DUP3 DUP2 DUP4 MCOPY PUSH0 DUP4 DUP4 ADD MSTORE POP POP POP JUMP JUMPDEST PUSH0 PUSH2 0x48B DUP3 PUSH2 0x45F JUMP JUMPDEST PUSH2 0x495 DUP2 DUP6 PUSH2 0x469 JUMP JUMPDEST SWAP4 POP PUSH2 0x4A5 DUP2 DUP6 PUSH1 0x20 DUP7 ADD PUSH2 0x473 JUMP JUMPDEST DUP1 DUP5 ADD SWAP2 POP POP SWAP3 SWAP2 POP POP JUMP JUMPDEST PUSH0 PUSH2 0x4BC DUP3 DUP5 PUSH2 0x481 JUMP JUMPDEST SWAP2 POP DUP2 SWAP1 POP SWAP3 SWAP2 POP POP JUMP JUMPDEST PUSH0 DUP3 DUP3 MSTORE PUSH1 0x20 DUP3 ADD SWAP1 POP SWAP3 SWAP2 POP POP JUMP JUMPDEST PUSH32 0x43616C6C20746F20746573742066756E6374696F6E206661696C656400000000 PUSH0 DUP3 ADD MSTORE POP JUMP JUMPDEST PUSH0 PUSH2 0x50B PUSH1 0x1C DUP4 PUSH2 0x4C7 JUMP JUMPDEST SWAP2 POP PUSH2 0x516 DUP3 PUSH2 0x4D7 JUMP JUMPDEST PUSH1 0x20 DUP3 ADD SWAP1 POP SWAP2 SWAP1 POP JUMP JUMPDEST PUSH0 PUSH1 0x20 DUP3 ADD SWAP1 POP DUP2 DUP2 SUB PUSH0 DUP4 ADD MSTORE PUSH2 0x538 DUP2 PUSH2 0x4FF JUMP JUMPDEST SWAP1 POP SWAP2 SWAP1 POP JUMP INVALID LOG2 PUSH5 0x6970667358 0x22 SLT KECCAK256 SWAP6 MUL ORIGIN PUSH2 0x33D8 LOG3 0xC6 0x2D 0x2B SHR SLOAD DUP15 0xAD POP 0xBA 0xDA CALLDATACOPY 0xC2 LOG3 PUSH7 0xA29D0DE2869C38 LT 0xD7 SWAP13 LT PUSH5 0x736F6C6343 STOP ADDMOD BYTE STOP CALLER "
				},
				"gasEstimates": {
					"creation": {
						"codeDepositCost": "279400",
						"executionCost": "316",
						"totalCost": "279716"
					},
					"external": {
						"callTestFunction(address,bytes4,uint256)": "infinite",
						"getSelector()": "360",
						"ifdgekjhacb(uint256)": "infinite",
						"storedValue()": "2490",
						"test(uint256)": "infinite"
					}
				},
				"methodIdentifiers": {
					"callTestFunction(address,bytes4,uint256)": "0254252f",
					"getSelector()": "034899bc",
					"ifdgekjhacb(uint256)": "0000008b",
					"storedValue()": "6d619daa",
					"test(uint256)": "29e99f07"
				}
			},
			"storageLayout": {
				"storage": [
					{
						"astId": 3,
						"contract": "test.sol:Example",
						"label": "storedValue",
						"offset": 0,
						"slot": "0",
						"type": "t_uint256"
					}
				],
				"types": {
					"t_uint256": {
						"encoding": "inplace",
						"label": "uint256",
						"numberOfBytes": "32"
					}
				}
			},
			"userdoc": {
				"kind": "user",
				"methods": {},
				"version": 1
			}
		}
	}
}