{
	"data": {
		"bytecode": {
			"linkReferences": {},
			"object": "6080604052348015600e575f80fd5b5060016004819055506158c1806100245f395ff3fe6080604052600436106101db575f3560e01c8063affed0e011610101578063e19a9dd911610094578063f08a032311610063578063f08a03231461078e578063f698da25146107b6578063f8dc5dd9146107e0578063ffa1ad741461080857610230565b8063e19a9dd9146106ec578063e318b52b14610714578063e75235b81461073c578063ed516d511461076657610230565b8063d4d9bdcd116100d0578063d4d9bdcd14610638578063d8d11f7814610660578063e009cfde1461069c578063e068df37146106c457610230565b8063affed0e014610581578063b4faba09146105ab578063b63e800d146105d3578063cc2f8452146105fb57610230565b80635624b25b116101795780636a761202116101485780636a761202146104c35780637d832974146104f3578063934f3a111461052f578063a0e67e2b1461055757610230565b80635624b25b146103fb5780635ae6bd3714610437578063610b592514610473578063694e80c31461049b57610230565b80632d9ad53d116101b55780632d9ad53d1461030a5780632f54bf6e14610346578063468721a7146103825780635229073f146103be57610230565b80630d582f131461029257806312fb68e0146102ba5780631fcac7f3146102e257610230565b36610230573373ffffffffffffffffffffffffffffffffffffffff167f3d0ce9bfc3ed7d6862dbb28b2dea94561fe714a1b4d019aa8af39730d1ad7c3d346040516102269190614114565b60405180910390a2005b34801561023b575f80fd5b507f6c9a6c4a39284e37ed1cf53d337577d14212a4870fb976a4366c693b939918d55480610267575f80f35b604051365f82373360601b368201525f8060143601835f865af13d5f833e8061028e573d82fd5b3d82f35b34801561029d575f80fd5b506102b860048036038101906102b391906141c2565b610832565b005b3480156102c5575f80fd5b506102e060048036038101906102db91906143cc565b610b83565b005b3480156102ed575f80fd5b506103086004803603810190610303919061446c565b610b96565b005b348015610315575f80fd5b50610330600480360381019061032b91906144ec565b610f58565b60405161033d9190614531565b60405180910390f35b348015610351575f80fd5b5061036c600480360381019061036791906144ec565b611025565b6040516103799190614531565b60405180910390f35b34801561038d575f80fd5b506103a860048036038101906103a3919061456d565b6110f0565b6040516103b59190614531565b60405180910390f35b3480156103c9575f80fd5b506103e460048036038101906103df919061456d565b611147565b6040516103f292919061464d565b60405180910390f35b348015610406575f80fd5b50610421600480360381019061041c919061467b565b6111b9565b60405161042e91906146b9565b60405180910390f35b348015610442575f80fd5b5061045d600480360381019061045891906146d9565b611249565b60405161046a9190614114565b60405180910390f35b34801561047e575f80fd5b50610499600480360381019061049491906144ec565b61125e565b005b3480156104a6575f80fd5b506104c160048036038101906104bc9190614704565b61154e565b005b6104dd60048036038101906104d8919061476a565b6115fe565b6040516104ea9190614531565b60405180910390f35b3480156104fe575f80fd5b506105196004803603810190610514919061487f565b61196a565b6040516105269190614114565b60405180910390f35b34801561053a575f80fd5b50610555600480360381019061055091906148bd565b61198a565b005b348015610562575f80fd5b5061056b61199a565b6040516105789190614a01565b60405180910390f35b34801561058c575f80fd5b50610595611b4a565b6040516105a29190614114565b60405180910390f35b3480156105b6575f80fd5b506105d160048036038101906105cc9190614a21565b611b50565b005b3480156105de575f80fd5b506105f960048036038101906105f49190614ad0565b611b75565b005b348015610606575f80fd5b50610621600480360381019061061c91906141c2565b611cc3565b60405161062f929190614bd0565b60405180910390f35b348015610643575f80fd5b5061065e600480360381019061065991906146d9565b611fb7565b005b34801561066b575f80fd5b5061068660048036038101906106819190614bfe565b612109565b6040516106939190614d06565b60405180910390f35b3480156106a7575f80fd5b506106c260048036038101906106bd9190614d1f565b612135565b005b3480156106cf575f80fd5b506106ea60048036038101906106e591906144ec565b612424565b005b3480156106f7575f80fd5b50610712600480360381019061070d91906144ec565b61259c565b005b34801561071f575f80fd5b5061073a60048036038101906107359190614d5d565b61270d565b005b348015610747575f80fd5b50610750612c3f565b60405161075d9190614114565b60405180910390f35b348015610771575f80fd5b5061078c60048036038101906107879190614dad565b612c48565b005b348015610799575f80fd5b506107b460048036038101906107af91906144ec565b612c90565b005b3480156107c1575f80fd5b506107ca612ce7565b6040516107d79190614d06565b60405180910390f35b3480156107eb575f80fd5b5061080660048036038101906108019190614e07565b612d3f565b005b348015610813575f80fd5b5061081c613099565b6040516108299190614ea9565b60405180910390f35b61083a6130d2565b5f73ffffffffffffffffffffffffffffffffffffffff168273ffffffffffffffffffffffffffffffffffffffff1614806108a05750600173ffffffffffffffffffffffffffffffffffffffff168273ffffffffffffffffffffffffffffffffffffffff16145b806108d657503073ffffffffffffffffffffffffffffffffffffffff168273ffffffffffffffffffffffffffffffffffffffff16145b15610905576109047f4753323033000000000000000000000000000000000000000000000000000000613131565b5b5f73ffffffffffffffffffffffffffffffffffffffff1660025f8473ffffffffffffffffffffffffffffffffffffffff1673ffffffffffffffffffffffffffffffffffffffff1681526020019081526020015f205f9054906101000a900473ffffffffffffffffffffffffffffffffffffffff1673ffffffffffffffffffffffffffffffffffffffff16146109be576109bd7f4753323034000000000000000000000000000000000000000000000000000000613131565b5b60025f600173ffffffffffffffffffffffffffffffffffffffff1673ffffffffffffffffffffffffffffffffffffffff1681526020019081526020015f205f9054906101000a900473ffffffffffffffffffffffffffffffffffffffff1660025f8473ffffffffffffffffffffffffffffffffffffffff1673ffffffffffffffffffffffffffffffffffffffff1681526020019081526020015f205f6101000a81548173ffffffffffffffffffffffffffffffffffffffff021916908373ffffffffffffffffffffffffffffffffffffffff1602179055508160025f600173ffffffffffffffffffffffffffffffffffffffff1673ffffffffffffffffffffffffffffffffffffffff1681526020019081526020015f205f6101000a81548173ffffffffffffffffffffffffffffffffffffffff021916908373ffffffffffffffffffffffffffffffffffffffff16021790555060035f815480929190610b2490614ef6565b91905055508173ffffffffffffffffffffffffffffffffffffffff167f9465fa0c962cc76958e6373a993326400c1c94f8be2fe3a952adfa7f60b2ea2660405160405180910390a28060045414610b7f57610b7e8161154e565b5b5050565b610b8f33868484610b96565b5050505050565b610baa60418261317090919063ffffffff16565b82511015610bdc57610bdb7f4753303230000000000000000000000000000000000000000000000000000000613131565b5b5f80805f805f5b86811015610f4c57610bf588826131b0565b8260ff1692508094508195508296505050505f8403610c6d57825f1c9450610c2760418861317090919063ffffffff16565b825f1c1015610c5a57610c597f4753303231000000000000000000000000000000000000000000000000000000613131565b5b610c68858a8a855f1c6131dc565b610e14565b60018403610d3557825f1c94508473ffffffffffffffffffffffffffffffffffffffff168a73ffffffffffffffffffffffffffffffffffffffff1614158015610d0157505f60085f8773ffffffffffffffffffffffffffffffffffffffff1673ffffffffffffffffffffffffffffffffffffffff1681526020019081526020015f205f8b81526020019081526020015f2054145b15610d3057610d2f7f4753303235000000000000000000000000000000000000000000000000000000613131565b5b610e13565b601e841115610dc357600189604051602001610d519190614fb1565b60405160208183030381529060405280519060200120600486610d749190614fd6565b85856040515f8152602001604052604051610d929493929190615024565b6020604051602081039080840390855afa158015610db2573d5f803e3d5ffd5b505050602060405103519450610e12565b6001898585856040515f8152602001604052604051610de59493929190615024565b6020604051602081039080840390855afa158015610e05573d5f803e3d5ffd5b5050506020604051035194505b5b5b8573ffffffffffffffffffffffffffffffffffffffff168573ffffffffffffffffffffffffffffffffffffffff16111580610ed657505f73ffffffffffffffffffffffffffffffffffffffff1660025f8773ffffffffffffffffffffffffffffffffffffffff1673ffffffffffffffffffffffffffffffffffffffff1681526020019081526020015f205f9054906101000a900473ffffffffffffffffffffffffffffffffffffffff1673ffffffffffffffffffffffffffffffffffffffff16145b80610f0d5750600173ffffffffffffffffffffffffffffffffffffffff168573ffffffffffffffffffffffffffffffffffffffff16145b15610f3c57610f3b7f4753303236000000000000000000000000000000000000000000000000000000613131565b5b8495508080600101915050610be3565b50505050505050505050565b5f8173ffffffffffffffffffffffffffffffffffffffff16600173ffffffffffffffffffffffffffffffffffffffff161415801561101e57505f73ffffffffffffffffffffffffffffffffffffffff1660015f8473ffffffffffffffffffffffffffffffffffffffff1673ffffffffffffffffffffffffffffffffffffffff1681526020019081526020015f205f9054906101000a900473ffffffffffffffffffffffffffffffffffffffff1673ffffffffffffffffffffffffffffffffffffffff1614155b9050919050565b5f600173ffffffffffffffffffffffffffffffffffffffff168273ffffffffffffffffffffffffffffffffffffffff1614806110e857505f73ffffffffffffffffffffffffffffffffffffffff1660025f8473ffffffffffffffffffffffffffffffffffffffff1673ffffffffffffffffffffffffffffffffffffffff1681526020019081526020015f205f9054906101000a900473ffffffffffffffffffffffffffffffffffffffff1673ffffffffffffffffffffffffffffffffffffffff16145b159050919050565b5f805f6110ff87878787613385565b91509150611130878787877fffffffffffffffffffffffffffffffffffffffffffffffffffffffffffffffff613561565b925061113d8282856135b7565b5050949350505050565b5f60605f8061115888888888613385565b91509150611189888888887fffffffffffffffffffffffffffffffffffffffffffffffffffffffffffffffff613561565b9350604051925060203d0183016040523d83523d5f602085013e6111ae8282866135b7565b505094509492505050565b60605f6020836111c99190615067565b67ffffffffffffffff8111156111e2576111e16142a8565b5b6040519080825280601f01601f1916602001820160405280156112145781602001600182028036833780820191505090505b5090505f5b8381101561123e57808501548060208302602085010152508080600101915050611219565b508091505092915050565b6007602052805f5260405f205f915090505481565b6112666130d2565b5f73ffffffffffffffffffffffffffffffffffffffff168173ffffffffffffffffffffffffffffffffffffffff1614806112cc5750600173ffffffffffffffffffffffffffffffffffffffff168173ffffffffffffffffffffffffffffffffffffffff16145b156112fb576112fa7f4753313031000000000000000000000000000000000000000000000000000000613131565b5b5f73ffffffffffffffffffffffffffffffffffffffff1660015f8373ffffffffffffffffffffffffffffffffffffffff1673ffffffffffffffffffffffffffffffffffffffff1681526020019081526020015f205f9054906101000a900473ffffffffffffffffffffffffffffffffffffffff1673ffffffffffffffffffffffffffffffffffffffff16146113b4576113b37f4753313032000000000000000000000000000000000000000000000000000000613131565b5b60015f600173ffffffffffffffffffffffffffffffffffffffff1673ffffffffffffffffffffffffffffffffffffffff1681526020019081526020015f205f9054906101000a900473ffffffffffffffffffffffffffffffffffffffff1660015f8373ffffffffffffffffffffffffffffffffffffffff1673ffffffffffffffffffffffffffffffffffffffff1681526020019081526020015f205f6101000a81548173ffffffffffffffffffffffffffffffffffffffff021916908373ffffffffffffffffffffffffffffffffffffffff1602179055508060015f600173ffffffffffffffffffffffffffffffffffffffff1673ffffffffffffffffffffffffffffffffffffffff1681526020019081526020015f205f6101000a81548173ffffffffffffffffffffffffffffffffffffffff021916908373ffffffffffffffffffffffffffffffffffffffff1602179055508073ffffffffffffffffffffffffffffffffffffffff167fecdf3a3effea5783a3c4c2140e677577666428d44ed9d474a0b3a4c9943f844060405160405180910390a250565b6115566130d2565b60035481111561158a576115897f4753323031000000000000000000000000000000000000000000000000000000613131565b5b5f81036115bb576115ba7f4753323032000000000000000000000000000000000000000000000000000000613131565b5b806004819055507f610f7ff2b304ae8903c3de74c60c6ab1f7d6226b3f52c5161905bb5ad4039c936004546040516115f39190614114565b60405180910390a150565b5f6116128c8c8c8c8c8c8c8c8c8c8c6136ea565b5f61163b8d8d8d8d8d8d8d8d8d8d60055f81548092919061163290614ef6565b91905055612109565b90506116478184612c48565b5f6116506136f7565b90505f73ffffffffffffffffffffffffffffffffffffffff168173ffffffffffffffffffffffffffffffffffffffff1614611702578073ffffffffffffffffffffffffffffffffffffffff166375f0bb528f8f8f8f8f8f8f8f8f8f8f336040518d63ffffffff1660e01b81526004016116d49c9b9a99989796959493929190615156565b5f604051808303815f87803b1580156116eb575f80fd5b505af11580156116fd573d5f803e3d5ffd5b505050505b6101f461173d6109c48b611716919061520f565b603f60408d6117259190615067565b61172f919061526f565b61371f90919063ffffffff16565b611747919061520f565b5a1015611778576117777f4753303130000000000000000000000000000000000000000000000000000000613131565b5b5f5a90506117e78f8f8f8f8080601f0160208091040260200160405190810160405280939291908181526020018383808284375f81840152601f19601f820116905080830192505050505050508e5f8d146117d3578e6117e2565b6109c45a6117e19190614fd6565b5b613561565b93506117fc5a8261373890919063ffffffff16565b90508315801561180b57505f8a145b801561181657505f88145b15611826576040513d5f823e3d81fd5b5f8089111561183f5761183c828b8b8b8b61375e565b90505b841561188257837f442e715f626346e8c54381002da614f62bee8d27386535b2521ec8540898556e826040516118759190614114565b60405180910390a26118bb565b837f23428b18acfb3ea64b08dc0c1d296ea9c09702c09083ca5272e64d115b687d23826040516118b29190614114565b60405180910390a25b50505f73ffffffffffffffffffffffffffffffffffffffff168173ffffffffffffffffffffffffffffffffffffffff1614611959578073ffffffffffffffffffffffffffffffffffffffff16639327136883856040518363ffffffff1660e01b815260040161192b92919061529f565b5f604051808303815f87803b158015611942575f80fd5b505af1158015611954573d5f803e3d5ffd5b505050505b50509b9a5050505050505050505050565b6008602052815f5260405f20602052805f5260405f205f91509150505481565b6119948482612c48565b50505050565b60605f60035467ffffffffffffffff8111156119b9576119b86142a8565b5b6040519080825280602002602001820160405280156119e75781602001602082028036833780820191505090505b5090505f8060025f600173ffffffffffffffffffffffffffffffffffffffff1673ffffffffffffffffffffffffffffffffffffffff1681526020019081526020015f205f9054906101000a900473ffffffffffffffffffffffffffffffffffffffff1690505b600173ffffffffffffffffffffffffffffffffffffffff168173ffffffffffffffffffffffffffffffffffffffff1614611b415780838381518110611a9557611a946152c6565b5b602002602001019073ffffffffffffffffffffffffffffffffffffffff16908173ffffffffffffffffffffffffffffffffffffffff168152505060025f8273ffffffffffffffffffffffffffffffffffffffff1673ffffffffffffffffffffffffffffffffffffffff1681526020019081526020015f205f9054906101000a900473ffffffffffffffffffffffffffffffffffffffff1690508180611b3990614ef6565b925050611a4d565b82935050505090565b60055481565b5f80825160208401855af46040518181523d60208201523d5f604083013e60403d0181fd5b611bbf8a8a808060200260200160405190810160405280939291908181526020018383602002808284375f81840152601f19601f820116905080830192505050505050508961390d565b5f73ffffffffffffffffffffffffffffffffffffffff168473ffffffffffffffffffffffffffffffffffffffff1614611bfc57611bfb84613caa565b5b611c498787878080601f0160208091040260200160405190810160405280939291908181526020018383808284375f81840152601f19601f82011690508083019250505050505050613d2d565b5f821115611c6157611c5f825f6001868561375e565b505b3373ffffffffffffffffffffffffffffffffffffffff167f141df868a6331af528e38c83b7aa03edc19be66e37ae67f9285bf4f8e3c6a1a88b8b8b8b89604051611caf959493929190615379565b60405180910390a250505050505050505050565b60605f600173ffffffffffffffffffffffffffffffffffffffff168473ffffffffffffffffffffffffffffffffffffffff1614158015611d095750611d0784610f58565b155b15611d3857611d377f4753313035000000000000000000000000000000000000000000000000000000613131565b5b5f8303611d6957611d687f4753313036000000000000000000000000000000000000000000000000000000613131565b5b8267ffffffffffffffff811115611d8357611d826142a8565b5b604051908082528060200260200182016040528015611db15781602001602082028036833780820191505090505b5091505f60015f8673ffffffffffffffffffffffffffffffffffffffff1673ffffffffffffffffffffffffffffffffffffffff1681526020019081526020015f205f9054906101000a900473ffffffffffffffffffffffffffffffffffffffff1691505b5f73ffffffffffffffffffffffffffffffffffffffff168273ffffffffffffffffffffffffffffffffffffffff1614158015611e7e5750600173ffffffffffffffffffffffffffffffffffffffff168273ffffffffffffffffffffffffffffffffffffffff1614155b8015611e8957508381105b15611f4e5781838281518110611ea257611ea16152c6565b5b602002602001019073ffffffffffffffffffffffffffffffffffffffff16908173ffffffffffffffffffffffffffffffffffffffff168152505060015f8373ffffffffffffffffffffffffffffffffffffffff1673ffffffffffffffffffffffffffffffffffffffff1681526020019081526020015f205f9054906101000a900473ffffffffffffffffffffffffffffffffffffffff1691508080611f4690614ef6565b915050611e15565b600173ffffffffffffffffffffffffffffffffffffffff168273ffffffffffffffffffffffffffffffffffffffff1614611fac5782600182611f909190614fd6565b81518110611fa157611fa06152c6565b5b602002602001015191505b808352509250929050565b5f73ffffffffffffffffffffffffffffffffffffffff1660025f3373ffffffffffffffffffffffffffffffffffffffff1673ffffffffffffffffffffffffffffffffffffffff1681526020019081526020015f205f9054906101000a900473ffffffffffffffffffffffffffffffffffffffff1673ffffffffffffffffffffffffffffffffffffffff16036120705761206f7f4753303330000000000000000000000000000000000000000000000000000000613131565b5b600160085f3373ffffffffffffffffffffffffffffffffffffffff1673ffffffffffffffffffffffffffffffffffffffff1681526020019081526020015f205f8381526020019081526020015f20819055503373ffffffffffffffffffffffffffffffffffffffff16817ff2a0eb156472d1440255b0d7c1e19cc07115d1051fe605b0dce69acfec884d9c60405160405180910390a350565b5f61211d8c8c8c8c8c8c8c8c8c8c8c613f2e565b8051906020012090509b9a5050505050505050505050565b61213d6130d2565b5f73ffffffffffffffffffffffffffffffffffffffff168173ffffffffffffffffffffffffffffffffffffffff1614806121a35750600173ffffffffffffffffffffffffffffffffffffffff168173ffffffffffffffffffffffffffffffffffffffff16145b156121d2576121d17f4753313031000000000000000000000000000000000000000000000000000000613131565b5b8073ffffffffffffffffffffffffffffffffffffffff1660015f8473ffffffffffffffffffffffffffffffffffffffff1673ffffffffffffffffffffffffffffffffffffffff1681526020019081526020015f205f9054906101000a900473ffffffffffffffffffffffffffffffffffffffff1673ffffffffffffffffffffffffffffffffffffffff161461228b5761228a7f4753313033000000000000000000000000000000000000000000000000000000613131565b5b60015f8273ffffffffffffffffffffffffffffffffffffffff1673ffffffffffffffffffffffffffffffffffffffff1681526020019081526020015f205f9054906101000a900473ffffffffffffffffffffffffffffffffffffffff1660015f8473ffffffffffffffffffffffffffffffffffffffff1673ffffffffffffffffffffffffffffffffffffffff1681526020019081526020015f205f6101000a81548173ffffffffffffffffffffffffffffffffffffffff021916908373ffffffffffffffffffffffffffffffffffffffff1602179055505f60015f8373ffffffffffffffffffffffffffffffffffffffff1673ffffffffffffffffffffffffffffffffffffffff1681526020019081526020015f205f6101000a81548173ffffffffffffffffffffffffffffffffffffffff021916908373ffffffffffffffffffffffffffffffffffffffff1602179055508073ffffffffffffffffffffffffffffffffffffffff167faab4fa2b463f581b2b32cb3b7e3b704b9ce37cc209b5fb4d77e593ace405427660405160405180910390a25050565b61242c6130d2565b5f73ffffffffffffffffffffffffffffffffffffffff168173ffffffffffffffffffffffffffffffffffffffff16141580156124fd57508073ffffffffffffffffffffffffffffffffffffffff166301ffc9a77f58401ed8000000000000000000000000000000000000000000000000000000006040518263ffffffff1660e01b81526004016124bc91906153ff565b602060405180830381865afa1580156124d7573d5f803e3d5ffd5b505050506040513d601f19601f820116820180604052508101906124fb9190615442565b155b1561252c5761252b7f4753333031000000000000000000000000000000000000000000000000000000613131565b5b5f7fb104e0b93118902c651344349b610029d694cfdec91c589c91ebafbcd02899475f1b90508181558173ffffffffffffffffffffffffffffffffffffffff167fcd1966d6be16bc0c030cc741a06c6e0efaf8d00de2c8b6a9e11827e125de8bb860405160405180910390a25050565b6125a46130d2565b5f73ffffffffffffffffffffffffffffffffffffffff168173ffffffffffffffffffffffffffffffffffffffff161415801561267557508073ffffffffffffffffffffffffffffffffffffffff166301ffc9a77fe6d7a83a000000000000000000000000000000000000000000000000000000006040518263ffffffff1660e01b815260040161263491906153ff565b602060405180830381865afa15801561264f573d5f803e3d5ffd5b505050506040513d601f19601f820116820180604052508101906126739190615442565b155b156126a4576126a37f4753333030000000000000000000000000000000000000000000000000000000613131565b5b807f4a204f620c8c5ccdca3fd54d003badd85ba500436a431f0cbda4f558c93c34c8558073ffffffffffffffffffffffffffffffffffffffff167f1151116914515bc0891ff9047a6cb32cf902546f83066499bcf8ba33d2353fa260405160405180910390a250565b6127156130d2565b5f73ffffffffffffffffffffffffffffffffffffffff168173ffffffffffffffffffffffffffffffffffffffff16148061277b5750600173ffffffffffffffffffffffffffffffffffffffff168173ffffffffffffffffffffffffffffffffffffffff16145b806127b157503073ffffffffffffffffffffffffffffffffffffffff168173ffffffffffffffffffffffffffffffffffffffff16145b156127e0576127df7f4753323033000000000000000000000000000000000000000000000000000000613131565b5b5f73ffffffffffffffffffffffffffffffffffffffff1660025f8373ffffffffffffffffffffffffffffffffffffffff1673ffffffffffffffffffffffffffffffffffffffff1681526020019081526020015f205f9054906101000a900473ffffffffffffffffffffffffffffffffffffffff1673ffffffffffffffffffffffffffffffffffffffff1614612899576128987f4753323034000000000000000000000000000000000000000000000000000000613131565b5b5f73ffffffffffffffffffffffffffffffffffffffff168273ffffffffffffffffffffffffffffffffffffffff1614806128ff5750600173ffffffffffffffffffffffffffffffffffffffff168273ffffffffffffffffffffffffffffffffffffffff16145b1561292e5761292d7f4753323033000000000000000000000000000000000000000000000000000000613131565b5b8173ffffffffffffffffffffffffffffffffffffffff1660025f8573ffffffffffffffffffffffffffffffffffffffff1673ffffffffffffffffffffffffffffffffffffffff1681526020019081526020015f205f9054906101000a900473ffffffffffffffffffffffffffffffffffffffff1673ffffffffffffffffffffffffffffffffffffffff16146129e7576129e67f4753323035000000000000000000000000000000000000000000000000000000613131565b5b60025f8373ffffffffffffffffffffffffffffffffffffffff1673ffffffffffffffffffffffffffffffffffffffff1681526020019081526020015f205f9054906101000a900473ffffffffffffffffffffffffffffffffffffffff1660025f8373ffffffffffffffffffffffffffffffffffffffff1673ffffffffffffffffffffffffffffffffffffffff1681526020019081526020015f205f6101000a81548173ffffffffffffffffffffffffffffffffffffffff021916908373ffffffffffffffffffffffffffffffffffffffff1602179055508060025f8573ffffffffffffffffffffffffffffffffffffffff1673ffffffffffffffffffffffffffffffffffffffff1681526020019081526020015f205f6101000a81548173ffffffffffffffffffffffffffffffffffffffff021916908373ffffffffffffffffffffffffffffffffffffffff1602179055505f60025f8473ffffffffffffffffffffffffffffffffffffffff1673ffffffffffffffffffffffffffffffffffffffff1681526020019081526020015f205f6101000a81548173ffffffffffffffffffffffffffffffffffffffff021916908373ffffffffffffffffffffffffffffffffffffffff1602179055508173ffffffffffffffffffffffffffffffffffffffff167ff8d49fc529812e9a7c5c50e69c20f0dccc0db8fa95c98bc58cc9a4f1c1299eaf60405160405180910390a28073ffffffffffffffffffffffffffffffffffffffff167f9465fa0c962cc76958e6373a993326400c1c94f8be2fe3a952adfa7f60b2ea2660405160405180910390a2505050565b5f600454905090565b5f60045490505f8103612c7f57612c7e7f4753303031000000000000000000000000000000000000000000000000000000613131565b5b612c8b33848484610b96565b505050565b612c986130d2565b612ca181613caa565b8073ffffffffffffffffffffffffffffffffffffffff167f5ac6c46c93c8d0e53714ba3b53db3e7c046da994313d7ed0d192028bc7c228b060405160405180910390a250565b5f804690507f47e79534a245952e8b16893a336b85a3d9ea9fa8c573f3d803afb92a794692185f1b8130604051602001612d23939291906154c8565b6040516020818303038152906040528051906020012091505090565b612d476130d2565b806001600354612d579190614fd6565b1015612d8757612d867f4753323031000000000000000000000000000000000000000000000000000000613131565b5b5f73ffffffffffffffffffffffffffffffffffffffff168273ffffffffffffffffffffffffffffffffffffffff161480612ded5750600173ffffffffffffffffffffffffffffffffffffffff168273ffffffffffffffffffffffffffffffffffffffff16145b15612e1c57612e1b7f4753323033000000000000000000000000000000000000000000000000000000613131565b5b8173ffffffffffffffffffffffffffffffffffffffff1660025f8573ffffffffffffffffffffffffffffffffffffffff1673ffffffffffffffffffffffffffffffffffffffff1681526020019081526020015f205f9054906101000a900473ffffffffffffffffffffffffffffffffffffffff1673ffffffffffffffffffffffffffffffffffffffff1614612ed557612ed47f4753323035000000000000000000000000000000000000000000000000000000613131565b5b60025f8373ffffffffffffffffffffffffffffffffffffffff1673ffffffffffffffffffffffffffffffffffffffff1681526020019081526020015f205f9054906101000a900473ffffffffffffffffffffffffffffffffffffffff1660025f8573ffffffffffffffffffffffffffffffffffffffff1673ffffffffffffffffffffffffffffffffffffffff1681526020019081526020015f205f6101000a81548173ffffffffffffffffffffffffffffffffffffffff021916908373ffffffffffffffffffffffffffffffffffffffff1602179055505f60025f8473ffffffffffffffffffffffffffffffffffffffff1673ffffffffffffffffffffffffffffffffffffffff1681526020019081526020015f205f6101000a81548173ffffffffffffffffffffffffffffffffffffffff021916908373ffffffffffffffffffffffffffffffffffffffff16021790555060035f815480929190613039906154fd565b91905055508173ffffffffffffffffffffffffffffffffffffffff167ff8d49fc529812e9a7c5c50e69c20f0dccc0db8fa95c98bc58cc9a4f1c1299eaf60405160405180910390a28060045414613094576130938161154e565b5b505050565b6040518060400160405280600581526020017f312e342e3100000000000000000000000000000000000000000000000000000081525081565b3073ffffffffffffffffffffffffffffffffffffffff163373ffffffffffffffffffffffffffffffffffffffff161461312f5761312e7f4753303331000000000000000000000000000000000000000000000000000000613131565b5b565b6040517f08c379a00000000000000000000000000000000000000000000000000000000081526020600482015260056024820152816044820152606481fd5b5f808303613180575f90506131aa565b5f828461318d9190615067565b905082848261319c919061526f565b146131a5575f80fd5b809150505b92915050565b5f805f83604102602081018601519250604081018601519150606081018601515f1a9350509250925092565b81516131f2602083613fee90919063ffffffff16565b1115613222576132217f4753303232000000000000000000000000000000000000000000000000000000613131565b5b5f602082840101519050825161325482613246602086613fee90919063ffffffff16565b613fee90919063ffffffff16565b1115613284576132837f4753303233000000000000000000000000000000000000000000000000000000613131565b5b60606020838501019050631626ba7e60e01b7bffffffffffffffffffffffffffffffffffffffffffffffffffffffff19168673ffffffffffffffffffffffffffffffffffffffff16631626ba7e87846040518363ffffffff1660e01b81526004016132f0929190615524565b602060405180830381865afa15801561330b573d5f803e3d5ffd5b505050506040513d601f19601f8201168201806040525081019061332f919061557c565b7bffffffffffffffffffffffffffffffffffffffffffffffffffffffff19161461337d5761337c7f4753303234000000000000000000000000000000000000000000000000000000613131565b5b505050505050565b5f8061339386868686614014565b61339b61401a565b9150600173ffffffffffffffffffffffffffffffffffffffff163373ffffffffffffffffffffffffffffffffffffffff161415801561346257505f73ffffffffffffffffffffffffffffffffffffffff1660015f3373ffffffffffffffffffffffffffffffffffffffff1673ffffffffffffffffffffffffffffffffffffffff1681526020019081526020015f205f9054906101000a900473ffffffffffffffffffffffffffffffffffffffff1673ffffffffffffffffffffffffffffffffffffffff1614155b6134a1576040517f08c379a0000000000000000000000000000000000000000000000000000000008152600401613498906155f1565b60405180910390fd5b5f73ffffffffffffffffffffffffffffffffffffffff168273ffffffffffffffffffffffffffffffffffffffff1614613558578173ffffffffffffffffffffffffffffffffffffffff1663728c297287878787336040518663ffffffff1660e01b815260040161351595949392919061560f565b6020604051808303815f875af1158015613531573d5f803e3d5ffd5b505050506040513d601f19601f82011682018060405250810190613555919061567b565b90505b94509492505050565b5f600180811115613575576135746150d4565b5b836001811115613588576135876150d4565b5b0361359f575f808551602087018986f490506135ae565b5f80855160208701888a87f190505b95945050505050565b5f73ffffffffffffffffffffffffffffffffffffffff168373ffffffffffffffffffffffffffffffffffffffff1614613653578273ffffffffffffffffffffffffffffffffffffffff16632acc37aa83836040518363ffffffff1660e01b815260040161362592919061529f565b5f604051808303815f87803b15801561363c575f80fd5b505af115801561364e573d5f803e3d5ffd5b505050505b80156136a1573373ffffffffffffffffffffffffffffffffffffffff167f6895c13664aa4f67288b25d7a21d7aaa34916e355fb9b6fae0a139a9085becb860405160405180910390a26136e5565b3373ffffffffffffffffffffffffffffffffffffffff167facd2c8702804128fdb0db2bb49f6d127dd0181c13fd45dbfe16de0930e2bd37560405160405180910390a25b505050565b5050505050505050505050565b5f7f4a204f620c8c5ccdca3fd54d003badd85ba500436a431f0cbda4f558c93c34c854905090565b5f8183101561372e5781613730565b825b905092915050565b5f82821115613745575f80fd5b5f82846137529190614fd6565b90508091505092915050565b5f805f73ffffffffffffffffffffffffffffffffffffffff168373ffffffffffffffffffffffffffffffffffffffff1614613799578261379b565b325b90505f73ffffffffffffffffffffffffffffffffffffffff168473ffffffffffffffffffffffffffffffffffffffff16036138a2576138033a86106137e0573a6137e2565b855b6137f5888a613fee90919063ffffffff16565b61317090919063ffffffff16565b91505f8173ffffffffffffffffffffffffffffffffffffffff168360405161382a906156d3565b5f6040518083038185875af1925050503d805f8114613864576040519150601f19603f3d011682016040523d82523d5f602084013e613869565b606091505b505090508061389c5761389b7f4753303131000000000000000000000000000000000000000000000000000000613131565b5b50613903565b6138c7856138b9888a613fee90919063ffffffff16565b61317090919063ffffffff16565b91506138d4848284614049565b613902576139017f4753303132000000000000000000000000000000000000000000000000000000613131565b5b5b5095945050505050565b5f6004541115613941576139407f4753323030000000000000000000000000000000000000000000000000000000613131565b5b8151811115613974576139737f4753323031000000000000000000000000000000000000000000000000000000613131565b5b5f81036139a5576139a47f4753323032000000000000000000000000000000000000000000000000000000613131565b5b5f600190505f5b8351811015613c19575f8482815181106139c9576139c86152c6565b5b602002602001015190505f73ffffffffffffffffffffffffffffffffffffffff168173ffffffffffffffffffffffffffffffffffffffff161480613a395750600173ffffffffffffffffffffffffffffffffffffffff168173ffffffffffffffffffffffffffffffffffffffff16145b80613a6f57503073ffffffffffffffffffffffffffffffffffffffff168173ffffffffffffffffffffffffffffffffffffffff16145b80613aa557508073ffffffffffffffffffffffffffffffffffffffff168373ffffffffffffffffffffffffffffffffffffffff16145b15613ad457613ad37f4753323033000000000000000000000000000000000000000000000000000000613131565b5b5f73ffffffffffffffffffffffffffffffffffffffff1660025f8373ffffffffffffffffffffffffffffffffffffffff1673ffffffffffffffffffffffffffffffffffffffff1681526020019081526020015f205f9054906101000a900473ffffffffffffffffffffffffffffffffffffffff1673ffffffffffffffffffffffffffffffffffffffff1614613b8d57613b8c7f4753323034000000000000000000000000000000000000000000000000000000613131565b5b8060025f8573ffffffffffffffffffffffffffffffffffffffff1673ffffffffffffffffffffffffffffffffffffffff1681526020019081526020015f205f6101000a81548173ffffffffffffffffffffffffffffffffffffffff021916908373ffffffffffffffffffffffffffffffffffffffff1602179055508092505080806001019150506139ac565b50600160025f8373ffffffffffffffffffffffffffffffffffffffff1673ffffffffffffffffffffffffffffffffffffffff1681526020019081526020015f205f6101000a81548173ffffffffffffffffffffffffffffffffffffffff021916908373ffffffffffffffffffffffffffffffffffffffff160217905550825160038190555081600481905550505050565b3073ffffffffffffffffffffffffffffffffffffffff168173ffffffffffffffffffffffffffffffffffffffff1603613d0757613d067f4753343030000000000000000000000000000000000000000000000000000000613131565b5b807f6c9a6c4a39284e37ed1cf53d337577d14212a4870fb976a4366c693b939918d55550565b5f73ffffffffffffffffffffffffffffffffffffffff1660015f600173ffffffffffffffffffffffffffffffffffffffff1673ffffffffffffffffffffffffffffffffffffffff1681526020019081526020015f205f9054906101000a900473ffffffffffffffffffffffffffffffffffffffff1673ffffffffffffffffffffffffffffffffffffffff1614613de757613de67f4753313030000000000000000000000000000000000000000000000000000000613131565b5b6001805f600173ffffffffffffffffffffffffffffffffffffffff1673ffffffffffffffffffffffffffffffffffffffff1681526020019081526020015f205f6101000a81548173ffffffffffffffffffffffffffffffffffffffff021916908373ffffffffffffffffffffffffffffffffffffffff1602179055505f73ffffffffffffffffffffffffffffffffffffffff168273ffffffffffffffffffffffffffffffffffffffff1614613f2a57613e9f826140eb565b613ecd57613ecc7f4753303032000000000000000000000000000000000000000000000000000000613131565b5b613efb825f8360017fffffffffffffffffffffffffffffffffffffffffffffffffffffffffffffffff613561565b613f2957613f287f4753303030000000000000000000000000000000000000000000000000000000613131565b5b5b5050565b60605f7fbb8310d486368db6bd6f849402fdd73ad53d316b5a4b2644ad6efe0f941286d85f1b8d8d8d8d604051613f6692919061570b565b60405180910390208c8c8c8c8c8c8c604051602001613f8f9b9a99989796959493929190615723565b604051602081830303815290604052805190602001209050601960f81b600160f81b613fb9612ce7565b83604051602001613fcd9493929190615817565b6040516020818303038152906040529150509b9a5050505050505050505050565b5f808284613ffc919061520f565b90508381101561400a575f80fd5b8091505092915050565b50505050565b5f807fb104e0b93118902c651344349b610029d694cfdec91c589c91ebafbcd02899475f1b9050805491505090565b5f8063a9059cbb8484604051602401614063929190615864565b6040516020818303038152906040529060e01b6020820180517bffffffffffffffffffffffffffffffffffffffffffffffffffffffff8381831617835250505050905060205f8251602084015f896127105a03f13d5f81146140cf57602081146140d7575f93506140e1565b8193506140e1565b5f51158215171593505b5050509392505050565b5f80823b90505f8111915050919050565b5f819050919050565b61410e816140fc565b82525050565b5f6020820190506141275f830184614105565b92915050565b5f604051905090565b5f80fd5b5f80fd5b5f73ffffffffffffffffffffffffffffffffffffffff82169050919050565b5f6141678261413e565b9050919050565b6141778161415d565b8114614181575f80fd5b50565b5f813590506141928161416e565b92915050565b6141a1816140fc565b81146141ab575f80fd5b50565b5f813590506141bc81614198565b92915050565b5f80604083850312156141d8576141d7614136565b5b5f6141e585828601614184565b92505060206141f6858286016141ae565b9150509250929050565b5f819050919050565b61421281614200565b811461421c575f80fd5b50565b5f8135905061422d81614209565b92915050565b5f80fd5b5f80fd5b5f80fd5b5f8083601f84011261425457614253614233565b5b8235905067ffffffffffffffff81111561427157614270614237565b5b60208301915083600182028301111561428d5761428c61423b565b5b9250929050565b5f80fd5b5f601f19601f8301169050919050565b7f4e487b71000000000000000000000000000000000000000000000000000000005f52604160045260245ffd5b6142de82614298565b810181811067ffffffffffffffff821117156142fd576142fc6142a8565b5b80604052505050565b5f61430f61412d565b905061431b82826142d5565b919050565b5f67ffffffffffffffff82111561433a576143396142a8565b5b61434382614298565b9050602081019050919050565b828183375f83830152505050565b5f61437061436b84614320565b614306565b90508281526020810184848401111561438c5761438b614294565b5b614397848285614350565b509392505050565b5f82601f8301126143b3576143b2614233565b5b81356143c384826020860161435e565b91505092915050565b5f805f805f608086880312156143e5576143e4614136565b5b5f6143f28882890161421f565b955050602086013567ffffffffffffffff8111156144135761441261413a565b5b61441f8882890161423f565b9450945050604086013567ffffffffffffffff8111156144425761444161413a565b5b61444e8882890161439f565b925050606061445f888289016141ae565b9150509295509295909350565b5f805f806080858703121561448457614483614136565b5b5f61449187828801614184565b94505060206144a28782880161421f565b935050604085013567ffffffffffffffff8111156144c3576144c261413a565b5b6144cf8782880161439f565b92505060606144e0878288016141ae565b91505092959194509250565b5f6020828403121561450157614500614136565b5b5f61450e84828501614184565b91505092915050565b5f8115159050919050565b61452b81614517565b82525050565b5f6020820190506145445f830184614522565b92915050565b60028110614556575f80fd5b50565b5f813590506145678161454a565b92915050565b5f805f806080858703121561458557614584614136565b5b5f61459287828801614184565b94505060206145a3878288016141ae565b935050604085013567ffffffffffffffff8111156145c4576145c361413a565b5b6145d08782880161439f565b92505060606145e187828801614559565b91505092959194509250565b5f81519050919050565b5f82825260208201905092915050565b8281835e5f83830152505050565b5f61461f826145ed565b61462981856145f7565b9350614639818560208601614607565b61464281614298565b840191505092915050565b5f6040820190506146605f830185614522565b81810360208301526146728184614615565b90509392505050565b5f806040838503121561469157614690614136565b5b5f61469e858286016141ae565b92505060206146af858286016141ae565b9150509250929050565b5f6020820190508181035f8301526146d18184614615565b905092915050565b5f602082840312156146ee576146ed614136565b5b5f6146fb8482850161421f565b91505092915050565b5f6020828403121561471957614718614136565b5b5f614726848285016141ae565b91505092915050565b5f6147398261413e565b9050919050565b6147498161472f565b8114614753575f80fd5b50565b5f8135905061476481614740565b92915050565b5f805f805f805f805f805f6101408c8e03121561478a57614789614136565b5b5f6147978e828f01614184565b9b505060206147a88e828f016141ae565b9a505060408c013567ffffffffffffffff8111156147c9576147c861413a565b5b6147d58e828f0161423f565b995099505060606147e88e828f01614559565b97505060806147f98e828f016141ae565b96505060a061480a8e828f016141ae565b95505060c061481b8e828f016141ae565b94505060e061482c8e828f01614184565b93505061010061483e8e828f01614756565b9250506101208c013567ffffffffffffffff8111156148605761485f61413a565b5b61486c8e828f0161439f565b9150509295989b509295989b9093969950565b5f806040838503121561489557614894614136565b5b5f6148a285828601614184565b92505060206148b38582860161421f565b9150509250929050565b5f805f80606085870312156148d5576148d4614136565b5b5f6148e28782880161421f565b945050602085013567ffffffffffffffff8111156149035761490261413a565b5b61490f8782880161423f565b9350935050604085013567ffffffffffffffff8111156149325761493161413a565b5b61493e8782880161439f565b91505092959194509250565b5f81519050919050565b5f82825260208201905092915050565b5f819050602082019050919050565b61497c8161415d565b82525050565b5f61498d8383614973565b60208301905092915050565b5f602082019050919050565b5f6149af8261494a565b6149b98185614954565b93506149c483614964565b805f5b838110156149f45781516149db8882614982565b97506149e683614999565b9250506001810190506149c7565b5085935050505092915050565b5f6020820190508181035f830152614a1981846149a5565b905092915050565b5f8060408385031215614a3757614a36614136565b5b5f614a4485828601614184565b925050602083013567ffffffffffffffff811115614a6557614a6461413a565b5b614a718582860161439f565b9150509250929050565b5f8083601f840112614a9057614a8f614233565b5b8235905067ffffffffffffffff811115614aad57614aac614237565b5b602083019150836020820283011115614ac957614ac861423b565b5b9250929050565b5f805f805f805f805f806101008b8d031215614aef57614aee614136565b5b5f8b013567ffffffffffffffff811115614b0c57614b0b61413a565b5b614b188d828e01614a7b565b9a509a50506020614b2b8d828e016141ae565b9850506040614b3c8d828e01614184565b97505060608b013567ffffffffffffffff811115614b5d57614b5c61413a565b5b614b698d828e0161423f565b96509650506080614b7c8d828e01614184565b94505060a0614b8d8d828e01614184565b93505060c0614b9e8d828e016141ae565b92505060e0614baf8d828e01614756565b9150509295989b9194979a5092959850565b614bca8161415d565b82525050565b5f6040820190508181035f830152614be881856149a5565b9050614bf76020830184614bc1565b9392505050565b5f805f805f805f805f805f6101408c8e031215614c1e57614c1d614136565b5b5f614c2b8e828f01614184565b9b50506020614c3c8e828f016141ae565b9a505060408c013567ffffffffffffffff811115614c5d57614c5c61413a565b5b614c698e828f0161423f565b99509950506060614c7c8e828f01614559565b9750506080614c8d8e828f016141ae565b96505060a0614c9e8e828f016141ae565b95505060c0614caf8e828f016141ae565b94505060e0614cc08e828f01614184565b935050610100614cd28e828f01614184565b925050610120614ce48e828f016141ae565b9150509295989b509295989b9093969950565b614d0081614200565b82525050565b5f602082019050614d195f830184614cf7565b92915050565b5f8060408385031215614d3557614d34614136565b5b5f614d4285828601614184565b9250506020614d5385828601614184565b9150509250929050565b5f805f60608486031215614d7457614d73614136565b5b5f614d8186828701614184565b9350506020614d9286828701614184565b9250506040614da386828701614184565b9150509250925092565b5f8060408385031215614dc357614dc2614136565b5b5f614dd08582860161421f565b925050602083013567ffffffffffffffff811115614df157614df061413a565b5b614dfd8582860161439f565b9150509250929050565b5f805f60608486031215614e1e57614e1d614136565b5b5f614e2b86828701614184565b9350506020614e3c86828701614184565b9250506040614e4d868287016141ae565b9150509250925092565b5f81519050919050565b5f82825260208201905092915050565b5f614e7b82614e57565b614e858185614e61565b9350614e95818560208601614607565b614e9e81614298565b840191505092915050565b5f6020820190508181035f830152614ec18184614e71565b905092915050565b7f4e487b71000000000000000000000000000000000000000000000000000000005f52601160045260245ffd5b5f614f00826140fc565b91507fffffffffffffffffffffffffffffffffffffffffffffffffffffffffffffffff8203614f3257614f31614ec9565b5b600182019050919050565b5f81905092915050565b7f19457468657265756d205369676e6564204d6573736167653a0a3332000000005f82015250565b5f614f7b601c83614f3d565b9150614f8682614f47565b601c82019050919050565b5f819050919050565b614fab614fa682614200565b614f91565b82525050565b5f614fbb82614f6f565b9150614fc78284614f9a565b60208201915081905092915050565b5f614fe0826140fc565b9150614feb836140fc565b925082820390508181111561500357615002614ec9565b5b92915050565b5f60ff82169050919050565b61501e81615009565b82525050565b5f6080820190506150375f830187614cf7565b6150446020830186615015565b6150516040830185614cf7565b61505e6060830184614cf7565b95945050505050565b5f615071826140fc565b915061507c836140fc565b925082820261508a816140fc565b915082820484148315176150a1576150a0614ec9565b5b5092915050565b5f6150b383856145f7565b93506150c0838584614350565b6150c983614298565b840190509392505050565b7f4e487b71000000000000000000000000000000000000000000000000000000005f52602160045260245ffd5b60028110615112576151116150d4565b5b50565b5f81905061512282615101565b919050565b5f61513182615115565b9050919050565b61514181615127565b82525050565b6151508161472f565b82525050565b5f6101608201905061516a5f83018f614bc1565b615177602083018e614105565b818103604083015261518a818c8e6150a8565b9050615199606083018b615138565b6151a6608083018a614105565b6151b360a0830189614105565b6151c060c0830188614105565b6151cd60e0830187614bc1565b6151db610100830186615147565b8181036101208301526151ee8185614615565b90506151fe610140830184614bc1565b9d9c50505050505050505050505050565b5f615219826140fc565b9150615224836140fc565b925082820190508082111561523c5761523b614ec9565b5b92915050565b7f4e487b71000000000000000000000000000000000000000000000000000000005f52601260045260245ffd5b5f615279826140fc565b9150615284836140fc565b92508261529457615293615242565b5b828204905092915050565b5f6040820190506152b25f830185614cf7565b6152bf6020830184614522565b9392505050565b7f4e487b71000000000000000000000000000000000000000000000000000000005f52603260045260245ffd5b5f819050919050565b5f61530a6020840184614184565b905092915050565b5f602082019050919050565b5f6153298385614954565b9350615334826152f3565b805f5b8581101561536c5761534982846152fc565b6153538882614982565b975061535e83615312565b925050600181019050615337565b5085925050509392505050565b5f6080820190508181035f83015261539281878961531e565b90506153a16020830186614105565b6153ae6040830185614bc1565b6153bb6060830184614bc1565b9695505050505050565b5f7fffffffff0000000000000000000000000000000000000000000000000000000082169050919050565b6153f9816153c5565b82525050565b5f6020820190506154125f8301846153f0565b92915050565b61542181614517565b811461542b575f80fd5b50565b5f8151905061543c81615418565b92915050565b5f6020828403121561545757615456614136565b5b5f6154648482850161542e565b91505092915050565b5f819050919050565b5f61549061548b6154868461413e565b61546d565b61413e565b9050919050565b5f6154a182615476565b9050919050565b5f6154b282615497565b9050919050565b6154c2816154a8565b82525050565b5f6060820190506154db5f830186614cf7565b6154e86020830185614105565b6154f560408301846154b9565b949350505050565b5f615507826140fc565b91505f820361551957615518614ec9565b5b600182039050919050565b5f6040820190506155375f830185614cf7565b81810360208301526155498184614615565b90509392505050565b61555b816153c5565b8114615565575f80fd5b50565b5f8151905061557681615552565b92915050565b5f6020828403121561559157615590614136565b5b5f61559e84828501615568565b91505092915050565b7f47533130340000000000000000000000000000000000000000000000000000005f82015250565b5f6155db600583614e61565b91506155e6826155a7565b602082019050919050565b5f6020820190508181035f830152615608816155cf565b9050919050565b5f60a0820190506156225f830188614bc1565b61562f6020830187614105565b81810360408301526156418186614615565b90506156506060830185615138565b61565d6080830184614bc1565b9695505050505050565b5f8151905061567581614209565b92915050565b5f602082840312156156905761568f614136565b5b5f61569d84828501615667565b91505092915050565b5f81905092915050565b50565b5f6156be5f836156a6565b91506156c9826156b0565b5f82019050919050565b5f6156dd826156b3565b9150819050919050565b5f6156f283856156a6565b93506156ff838584614350565b82840190509392505050565b5f6157178284866156e7565b91508190509392505050565b5f610160820190506157375f83018e614cf7565b615744602083018d614bc1565b615751604083018c614105565b61575e606083018b614cf7565b61576b608083018a615138565b61577860a0830189614105565b61578560c0830188614105565b61579260e0830187614105565b6157a0610100830186614bc1565b6157ae610120830185614bc1565b6157bc610140830184614105565b9c9b505050505050505050505050565b5f7fff0000000000000000000000000000000000000000000000000000000000000082169050919050565b5f819050919050565b61581161580c826157cc565b6157f7565b82525050565b5f6158228287615800565b6001820191506158328286615800565b6001820191506158428285614f9a565b6020820191506158528284614f9a565b60208201915081905095945050505050565b5f6040820190506158775f830185614bc1565b6158846020830184614105565b939250505056fea26469706673582212206305c717bfd57ab7ff7117d25b07924e61b833d862538c57a17af5eef964473564736f6c634300081a0033",
			"opcodes": "PUSH1 0x80 PUSH1 0x40 MSTORE CALLVALUE DUP1 ISZERO PUSH1 0xE JUMPI PUSH0 DUP1 REVERT JUMPDEST POP PUSH1 0x1 PUSH1 0x4 DUP2 SWAP1 SSTORE POP PUSH2 0x58C1 DUP1 PUSH2 0x24 PUSH0 CODECOPY PUSH0 RETURN INVALID PUSH1 0x80 PUSH1 0x40 MSTORE PUSH1 0x4 CALLDATASIZE LT PUSH2 0x1DB JUMPI PUSH0 CALLDATALOAD PUSH1 0xE0 SHR DUP1 PUSH4 0xAFFED0E0 GT PUSH2 0x101 JUMPI DUP1 PUSH4 0xE19A9DD9 GT PUSH2 0x94 JUMPI DUP1 PUSH4 0xF08A0323 GT PUSH2 0x63 JUMPI DUP1 PUSH4 0xF08A0323 EQ PUSH2 0x78E JUMPI DUP1 PUSH4 0xF698DA25 EQ PUSH2 0x7B6 JUMPI DUP1 PUSH4 0xF8DC5DD9 EQ PUSH2 0x7E0 JUMPI DUP1 PUSH4 0xFFA1AD74 EQ PUSH2 0x808 JUMPI PUSH2 0x230 JUMP JUMPDEST DUP1 PUSH4 0xE19A9DD9 EQ PUSH2 0x6EC JUMPI DUP1 PUSH4 0xE318B52B EQ PUSH2 0x714 JUMPI DUP1 PUSH4 0xE75235B8 EQ PUSH2 0x73C JUMPI DUP1 PUSH4 0xED516D51 EQ PUSH2 0x766 JUMPI PUSH2 0x230 JUMP JUMPDEST DUP1 PUSH4 0xD4D9BDCD GT PUSH2 0xD0 JUMPI DUP1 PUSH4 0xD4D9BDCD EQ PUSH2 0x638 JUMPI DUP1 PUSH4 0xD8D11F78 EQ PUSH2 0x660 JUMPI DUP1 PUSH4 0xE009CFDE EQ PUSH2 0x69C JUMPI DUP1 PUSH4 0xE068DF37 EQ PUSH2 0x6C4 JUMPI PUSH2 0x230 JUMP JUMPDEST DUP1 PUSH4 0xAFFED0E0 EQ PUSH2 0x581 JUMPI DUP1 PUSH4 0xB4FABA09 EQ PUSH2 0x5AB JUMPI DUP1 PUSH4 0xB63E800D EQ PUSH2 0x5D3 JUMPI DUP1 PUSH4 0xCC2F8452 EQ PUSH2 0x5FB JUMPI PUSH2 0x230 JUMP JUMPDEST DUP1 PUSH4 0x5624B25B GT PUSH2 0x179 JUMPI DUP1 PUSH4 0x6A761202 GT PUSH2 0x148 JUMPI DUP1 PUSH4 0x6A761202 EQ PUSH2 0x4C3 JUMPI DUP1 PUSH4 0x7D832974 EQ PUSH2 0x4F3 JUMPI DUP1 PUSH4 0x934F3A11 EQ PUSH2 0x52F JUMPI DUP1 PUSH4 0xA0E67E2B EQ PUSH2 0x557 JUMPI PUSH2 0x230 JUMP JUMPDEST DUP1 PUSH4 0x5624B25B EQ PUSH2 0x3FB JUMPI DUP1 PUSH4 0x5AE6BD37 EQ PUSH2 0x437 JUMPI DUP1 PUSH4 0x610B5925 EQ PUSH2 0x473 JUMPI DUP1 PUSH4 0x694E80C3 EQ PUSH2 0x49B JUMPI PUSH2 0x230 JUMP JUMPDEST DUP1 PUSH4 0x2D9AD53D GT PUSH2 0x1B5 JUMPI DUP1 PUSH4 0x2D9AD53D EQ PUSH2 0x30A JUMPI DUP1 PUSH4 0x2F54BF6E EQ PUSH2 0x346 JUMPI DUP1 PUSH4 0x468721A7 EQ PUSH2 0x382 JUMPI DUP1 PUSH4 0x5229073F EQ PUSH2 0x3BE JUMPI PUSH2 0x230 JUMP JUMPDEST DUP1 PUSH4 0xD582F13 EQ PUSH2 0x292 JUMPI DUP1 PUSH4 0x12FB68E0 EQ PUSH2 0x2BA JUMPI DUP1 PUSH4 0x1FCAC7F3 EQ PUSH2 0x2E2 JUMPI PUSH2 0x230 JUMP JUMPDEST CALLDATASIZE PUSH2 0x230 JUMPI CALLER PUSH20 0xFFFFFFFFFFFFFFFFFFFFFFFFFFFFFFFFFFFFFFFF AND PUSH32 0x3D0CE9BFC3ED7D6862DBB28B2DEA94561FE714A1B4D019AA8AF39730D1AD7C3D CALLVALUE PUSH1 0x40 MLOAD PUSH2 0x226 SWAP2 SWAP1 PUSH2 0x4114 JUMP JUMPDEST PUSH1 0x40 MLOAD DUP1 SWAP2 SUB SWAP1 LOG2 STOP JUMPDEST CALLVALUE DUP1 ISZERO PUSH2 0x23B JUMPI PUSH0 DUP1 REVERT JUMPDEST POP PUSH32 0x6C9A6C4A39284E37ED1CF53D337577D14212A4870FB976A4366C693B939918D5 SLOAD DUP1 PUSH2 0x267 JUMPI PUSH0 DUP1 RETURN JUMPDEST PUSH1 0x40 MLOAD CALLDATASIZE PUSH0 DUP3 CALLDATACOPY CALLER PUSH1 0x60 SHL CALLDATASIZE DUP3 ADD MSTORE PUSH0 DUP1 PUSH1 0x14 CALLDATASIZE ADD DUP4 PUSH0 DUP7 GAS CALL RETURNDATASIZE PUSH0 DUP4 RETURNDATACOPY DUP1 PUSH2 0x28E JUMPI RETURNDATASIZE DUP3 REVERT JUMPDEST RETURNDATASIZE DUP3 RETURN JUMPDEST CALLVALUE DUP1 ISZERO PUSH2 0x29D JUMPI PUSH0 DUP1 REVERT JUMPDEST POP PUSH2 0x2B8 PUSH1 0x4 DUP1 CALLDATASIZE SUB DUP2 ADD SWAP1 PUSH2 0x2B3 SWAP2 SWAP1 PUSH2 0x41C2 JUMP JUMPDEST PUSH2 0x832 JUMP JUMPDEST STOP JUMPDEST CALLVALUE DUP1 ISZERO PUSH2 0x2C5 JUMPI PUSH0 DUP1 REVERT JUMPDEST POP PUSH2 0x2E0 PUSH1 0x4 DUP1 CALLDATASIZE SUB DUP2 ADD SWAP1 PUSH2 0x2DB SWAP2 SWAP1 PUSH2 0x43CC JUMP JUMPDEST PUSH2 0xB83 JUMP JUMPDEST STOP JUMPDEST CALLVALUE DUP1 ISZERO PUSH2 0x2ED JUMPI PUSH0 DUP1 REVERT JUMPDEST POP PUSH2 0x308 PUSH1 0x4 DUP1 CALLDATASIZE SUB DUP2 ADD SWAP1 PUSH2 0x303 SWAP2 SWAP1 PUSH2 0x446C JUMP JUMPDEST PUSH2 0xB96 JUMP JUMPDEST STOP JUMPDEST CALLVALUE DUP1 ISZERO PUSH2 0x315 JUMPI PUSH0 DUP1 REVERT JUMPDEST POP PUSH2 0x330 PUSH1 0x4 DUP1 CALLDATASIZE SUB DUP2 ADD SWAP1 PUSH2 0x32B SWAP2 SWAP1 PUSH2 0x44EC JUMP JUMPDEST PUSH2 0xF58 JUMP JUMPDEST PUSH1 0x40 MLOAD PUSH2 0x33D SWAP2 SWAP1 PUSH2 0x4531 JUMP JUMPDEST PUSH1 0x40 MLOAD DUP1 SWAP2 SUB SWAP1 RETURN JUMPDEST CALLVALUE DUP1 ISZERO PUSH2 0x351 JUMPI PUSH0 DUP1 REVERT JUMPDEST POP PUSH2 0x36C PUSH1 0x4 DUP1 CALLDATASIZE SUB DUP2 ADD SWAP1 PUSH2 0x367 SWAP2 SWAP1 PUSH2 0x44EC JUMP JUMPDEST PUSH2 0x1025 JUMP JUMPDEST PUSH1 0x40 MLOAD PUSH2 0x379 SWAP2 SWAP1 PUSH2 0x4531 JUMP JUMPDEST PUSH1 0x40 MLOAD DUP1 SWAP2 SUB SWAP1 RETURN JUMPDEST CALLVALUE DUP1 ISZERO PUSH2 0x38D JUMPI PUSH0 DUP1 REVERT JUMPDEST POP PUSH2 0x3A8 PUSH1 0x4 DUP1 CALLDATASIZE SUB DUP2 ADD SWAP1 PUSH2 0x3A3 SWAP2 SWAP1 PUSH2 0x456D JUMP JUMPDEST PUSH2 0x10F0 JUMP JUMPDEST PUSH1 0x40 MLOAD PUSH2 0x3B5 SWAP2 SWAP1 PUSH2 0x4531 JUMP JUMPDEST PUSH1 0x40 MLOAD DUP1 SWAP2 SUB SWAP1 RETURN JUMPDEST CALLVALUE DUP1 ISZERO PUSH2 0x3C9 JUMPI PUSH0 DUP1 REVERT JUMPDEST POP PUSH2 0x3E4 PUSH1 0x4 DUP1 CALLDATASIZE SUB DUP2 ADD SWAP1 PUSH2 0x3DF SWAP2 SWAP1 PUSH2 0x456D JUMP JUMPDEST PUSH2 0x1147 JUMP JUMPDEST PUSH1 0x40 MLOAD PUSH2 0x3F2 SWAP3 SWAP2 SWAP1 PUSH2 0x464D JUMP JUMPDEST PUSH1 0x40 MLOAD DUP1 SWAP2 SUB SWAP1 RETURN JUMPDEST CALLVALUE DUP1 ISZERO PUSH2 0x406 JUMPI PUSH0 DUP1 REVERT JUMPDEST POP PUSH2 0x421 PUSH1 0x4 DUP1 CALLDATASIZE SUB DUP2 ADD SWAP1 PUSH2 0x41C SWAP2 SWAP1 PUSH2 0x467B JUMP JUMPDEST PUSH2 0x11B9 JUMP JUMPDEST PUSH1 0x40 MLOAD PUSH2 0x42E SWAP2 SWAP1 PUSH2 0x46B9 JUMP JUMPDEST PUSH1 0x40 MLOAD DUP1 SWAP2 SUB SWAP1 RETURN JUMPDEST CALLVALUE DUP1 ISZERO PUSH2 0x442 JUMPI PUSH0 DUP1 REVERT JUMPDEST POP PUSH2 0x45D PUSH1 0x4 DUP1 CALLDATASIZE SUB DUP2 ADD SWAP1 PUSH2 0x458 SWAP2 SWAP1 PUSH2 0x46D9 JUMP JUMPDEST PUSH2 0x1249 JUMP JUMPDEST PUSH1 0x40 MLOAD PUSH2 0x46A SWAP2 SWAP1 PUSH2 0x4114 JUMP JUMPDEST PUSH1 0x40 MLOAD DUP1 SWAP2 SUB SWAP1 RETURN JUMPDEST CALLVALUE DUP1 ISZERO PUSH2 0x47E JUMPI PUSH0 DUP1 REVERT JUMPDEST POP PUSH2 0x499 PUSH1 0x4 DUP1 CALLDATASIZE SUB DUP2 ADD SWAP1 PUSH2 0x494 SWAP2 SWAP1 PUSH2 0x44EC JUMP JUMPDEST PUSH2 0x125E JUMP JUMPDEST STOP JUMPDEST CALLVALUE DUP1 ISZERO PUSH2 0x4A6 JUMPI PUSH0 DUP1 REVERT JUMPDEST POP PUSH2 0x4C1 PUSH1 0x4 DUP1 CALLDATASIZE SUB DUP2 ADD SWAP1 PUSH2 0x4BC SWAP2 SWAP1 PUSH2 0x4704 JUMP JUMPDEST PUSH2 0x154E JUMP JUMPDEST STOP JUMPDEST PUSH2 0x4DD PUSH1 0x4 DUP1 CALLDATASIZE SUB DUP2 ADD SWAP1 PUSH2 0x4D8 SWAP2 SWAP1 PUSH2 0x476A JUMP JUMPDEST PUSH2 0x15FE JUMP JUMPDEST PUSH1 0x40 MLOAD PUSH2 0x4EA SWAP2 SWAP1 PUSH2 0x4531 JUMP JUMPDEST PUSH1 0x40 MLOAD DUP1 SWAP2 SUB SWAP1 RETURN JUMPDEST CALLVALUE DUP1 ISZERO PUSH2 0x4FE JUMPI PUSH0 DUP1 REVERT JUMPDEST POP PUSH2 0x519 PUSH1 0x4 DUP1 CALLDATASIZE SUB DUP2 ADD SWAP1 PUSH2 0x514 SWAP2 SWAP1 PUSH2 0x487F JUMP JUMPDEST PUSH2 0x196A JUMP JUMPDEST PUSH1 0x40 MLOAD PUSH2 0x526 SWAP2 SWAP1 PUSH2 0x4114 JUMP JUMPDEST PUSH1 0x40 MLOAD DUP1 SWAP2 SUB SWAP1 RETURN JUMPDEST CALLVALUE DUP1 ISZERO PUSH2 0x53A JUMPI PUSH0 DUP1 REVERT JUMPDEST POP PUSH2 0x555 PUSH1 0x4 DUP1 CALLDATASIZE SUB DUP2 ADD SWAP1 PUSH2 0x550 SWAP2 SWAP1 PUSH2 0x48BD JUMP JUMPDEST PUSH2 0x198A JUMP JUMPDEST STOP JUMPDEST CALLVALUE DUP1 ISZERO PUSH2 0x562 JUMPI PUSH0 DUP1 REVERT JUMPDEST POP PUSH2 0x56B PUSH2 0x199A JUMP JUMPDEST PUSH1 0x40 MLOAD PUSH2 0x578 SWAP2 SWAP1 PUSH2 0x4A01 JUMP JUMPDEST PUSH1 0x40 MLOAD DUP1 SWAP2 SUB SWAP1 RETURN JUMPDEST CALLVALUE DUP1 ISZERO PUSH2 0x58C JUMPI PUSH0 DUP1 REVERT JUMPDEST POP PUSH2 0x595 PUSH2 0x1B4A JUMP JUMPDEST PUSH1 0x40 MLOAD PUSH2 0x5A2 SWAP2 SWAP1 PUSH2 0x4114 JUMP JUMPDEST PUSH1 0x40 MLOAD DUP1 SWAP2 SUB SWAP1 RETURN JUMPDEST CALLVALUE DUP1 ISZERO PUSH2 0x5B6 JUMPI PUSH0 DUP1 REVERT JUMPDEST POP PUSH2 0x5D1 PUSH1 0x4 DUP1 CALLDATASIZE SUB DUP2 ADD SWAP1 PUSH2 0x5CC SWAP2 SWAP1 PUSH2 0x4A21 JUMP JUMPDEST PUSH2 0x1B50 JUMP JUMPDEST STOP JUMPDEST CALLVALUE DUP1 ISZERO PUSH2 0x5DE JUMPI PUSH0 DUP1 REVERT JUMPDEST POP PUSH2 0x5F9 PUSH1 0x4 DUP1 CALLDATASIZE SUB DUP2 ADD SWAP1 PUSH2 0x5F4 SWAP2 SWAP1 PUSH2 0x4AD0 JUMP JUMPDEST PUSH2 0x1B75 JUMP JUMPDEST STOP JUMPDEST CALLVALUE DUP1 ISZERO PUSH2 0x606 JUMPI PUSH0 DUP1 REVERT JUMPDEST POP PUSH2 0x621 PUSH1 0x4 DUP1 CALLDATASIZE SUB DUP2 ADD SWAP1 PUSH2 0x61C SWAP2 SWAP1 PUSH2 0x41C2 JUMP JUMPDEST PUSH2 0x1CC3 JUMP JUMPDEST PUSH1 0x40 MLOAD PUSH2 0x62F SWAP3 SWAP2 SWAP1 PUSH2 0x4BD0 JUMP JUMPDEST PUSH1 0x40 MLOAD DUP1 SWAP2 SUB SWAP1 RETURN JUMPDEST CALLVALUE DUP1 ISZERO PUSH2 0x643 JUMPI PUSH0 DUP1 REVERT JUMPDEST POP PUSH2 0x65E PUSH1 0x4 DUP1 CALLDATASIZE SUB DUP2 ADD SWAP1 PUSH2 0x659 SWAP2 SWAP1 PUSH2 0x46D9 JUMP JUMPDEST PUSH2 0x1FB7 JUMP JUMPDEST STOP JUMPDEST CALLVALUE DUP1 ISZERO PUSH2 0x66B JUMPI PUSH0 DUP1 REVERT JUMPDEST POP PUSH2 0x686 PUSH1 0x4 DUP1 CALLDATASIZE SUB DUP2 ADD SWAP1 PUSH2 0x681 SWAP2 SWAP1 PUSH2 0x4BFE JUMP JUMPDEST PUSH2 0x2109 JUMP JUMPDEST PUSH1 0x40 MLOAD PUSH2 0x693 SWAP2 SWAP1 PUSH2 0x4D06 JUMP JUMPDEST PUSH1 0x40 MLOAD DUP1 SWAP2 SUB SWAP1 RETURN JUMPDEST CALLVALUE DUP1 ISZERO PUSH2 0x6A7 JUMPI PUSH0 DUP1 REVERT JUMPDEST POP PUSH2 0x6C2 PUSH1 0x4 DUP1 CALLDATASIZE SUB DUP2 ADD SWAP1 PUSH2 0x6BD SWAP2 SWAP1 PUSH2 0x4D1F JUMP JUMPDEST PUSH2 0x2135 JUMP JUMPDEST STOP JUMPDEST CALLVALUE DUP1 ISZERO PUSH2 0x6CF JUMPI PUSH0 DUP1 REVERT JUMPDEST POP PUSH2 0x6EA PUSH1 0x4 DUP1 CALLDATASIZE SUB DUP2 ADD SWAP1 PUSH2 0x6E5 SWAP2 SWAP1 PUSH2 0x44EC JUMP JUMPDEST PUSH2 0x2424 JUMP JUMPDEST STOP JUMPDEST CALLVALUE DUP1 ISZERO PUSH2 0x6F7 JUMPI PUSH0 DUP1 REVERT JUMPDEST POP PUSH2 0x712 PUSH1 0x4 DUP1 CALLDATASIZE SUB DUP2 ADD SWAP1 PUSH2 0x70D SWAP2 SWAP1 PUSH2 0x44EC JUMP JUMPDEST PUSH2 0x259C JUMP JUMPDEST STOP JUMPDEST CALLVALUE DUP1 ISZERO PUSH2 0x71F JUMPI PUSH0 DUP1 REVERT JUMPDEST POP PUSH2 0x73A PUSH1 0x4 DUP1 CALLDATASIZE SUB DUP2 ADD SWAP1 PUSH2 0x735 SWAP2 SWAP1 PUSH2 0x4D5D JUMP JUMPDEST PUSH2 0x270D JUMP JUMPDEST STOP JUMPDEST CALLVALUE DUP1 ISZERO PUSH2 0x747 JUMPI PUSH0 DUP1 REVERT JUMPDEST POP PUSH2 0x750 PUSH2 0x2C3F JUMP JUMPDEST PUSH1 0x40 MLOAD PUSH2 0x75D SWAP2 SWAP1 PUSH2 0x4114 JUMP JUMPDEST PUSH1 0x40 MLOAD DUP1 SWAP2 SUB SWAP1 RETURN JUMPDEST CALLVALUE DUP1 ISZERO PUSH2 0x771 JUMPI PUSH0 DUP1 REVERT JUMPDEST POP PUSH2 0x78C PUSH1 0x4 DUP1 CALLDATASIZE SUB DUP2 ADD SWAP1 PUSH2 0x787 SWAP2 SWAP1 PUSH2 0x4DAD JUMP JUMPDEST PUSH2 0x2C48 JUMP JUMPDEST STOP JUMPDEST CALLVALUE DUP1 ISZERO PUSH2 0x799 JUMPI PUSH0 DUP1 REVERT JUMPDEST POP PUSH2 0x7B4 PUSH1 0x4 DUP1 CALLDATASIZE SUB DUP2 ADD SWAP1 PUSH2 0x7AF SWAP2 SWAP1 PUSH2 0x44EC JUMP JUMPDEST PUSH2 0x2C90 JUMP JUMPDEST STOP JUMPDEST CALLVALUE DUP1 ISZERO PUSH2 0x7C1 JUMPI PUSH0 DUP1 REVERT JUMPDEST POP PUSH2 0x7CA PUSH2 0x2CE7 JUMP JUMPDEST PUSH1 0x40 MLOAD PUSH2 0x7D7 SWAP2 SWAP1 PUSH2 0x4D06 JUMP JUMPDEST PUSH1 0x40 MLOAD DUP1 SWAP2 SUB SWAP1 RETURN JUMPDEST CALLVALUE DUP1 ISZERO PUSH2 0x7EB JUMPI PUSH0 DUP1 REVERT JUMPDEST POP PUSH2 0x806 PUSH1 0x4 DUP1 CALLDATASIZE SUB DUP2 ADD SWAP1 PUSH2 0x801 SWAP2 SWAP1 PUSH2 0x4E07 JUMP JUMPDEST PUSH2 0x2D3F JUMP JUMPDEST STOP JUMPDEST CALLVALUE DUP1 ISZERO PUSH2 0x813 JUMPI PUSH0 DUP1 REVERT JUMPDEST POP PUSH2 0x81C PUSH2 0x3099 JUMP JUMPDEST PUSH1 0x40 MLOAD PUSH2 0x829 SWAP2 SWAP1 PUSH2 0x4EA9 JUMP JUMPDEST PUSH1 0x40 MLOAD DUP1 SWAP2 SUB SWAP1 RETURN JUMPDEST PUSH2 0x83A PUSH2 0x30D2 JUMP JUMPDEST PUSH0 PUSH20 0xFFFFFFFFFFFFFFFFFFFFFFFFFFFFFFFFFFFFFFFF AND DUP3 PUSH20 0xFFFFFFFFFFFFFFFFFFFFFFFFFFFFFFFFFFFFFFFF AND EQ DUP1 PUSH2 0x8A0 JUMPI POP PUSH1 0x1 PUSH20 0xFFFFFFFFFFFFFFFFFFFFFFFFFFFFFFFFFFFFFFFF AND DUP3 PUSH20 0xFFFFFFFFFFFFFFFFFFFFFFFFFFFFFFFFFFFFFFFF AND EQ JUMPDEST DUP1 PUSH2 0x8D6 JUMPI POP ADDRESS PUSH20 0xFFFFFFFFFFFFFFFFFFFFFFFFFFFFFFFFFFFFFFFF AND DUP3 PUSH20 0xFFFFFFFFFFFFFFFFFFFFFFFFFFFFFFFFFFFFFFFF AND EQ JUMPDEST ISZERO PUSH2 0x905 JUMPI PUSH2 0x904 PUSH32 0x4753323033000000000000000000000000000000000000000000000000000000 PUSH2 0x3131 JUMP JUMPDEST JUMPDEST PUSH0 PUSH20 0xFFFFFFFFFFFFFFFFFFFFFFFFFFFFFFFFFFFFFFFF AND PUSH1 0x2 PUSH0 DUP5 PUSH20 0xFFFFFFFFFFFFFFFFFFFFFFFFFFFFFFFFFFFFFFFF AND PUSH20 0xFFFFFFFFFFFFFFFFFFFFFFFFFFFFFFFFFFFFFFFF AND DUP2 MSTORE PUSH1 0x20 ADD SWAP1 DUP2 MSTORE PUSH1 0x20 ADD PUSH0 KECCAK256 PUSH0 SWAP1 SLOAD SWAP1 PUSH2 0x100 EXP SWAP1 DIV PUSH20 0xFFFFFFFFFFFFFFFFFFFFFFFFFFFFFFFFFFFFFFFF AND PUSH20 0xFFFFFFFFFFFFFFFFFFFFFFFFFFFFFFFFFFFFFFFF AND EQ PUSH2 0x9BE JUMPI PUSH2 0x9BD PUSH32 0x4753323034000000000000000000000000000000000000000000000000000000 PUSH2 0x3131 JUMP JUMPDEST JUMPDEST PUSH1 0x2 PUSH0 PUSH1 0x1 PUSH20 0xFFFFFFFFFFFFFFFFFFFFFFFFFFFFFFFFFFFFFFFF AND PUSH20 0xFFFFFFFFFFFFFFFFFFFFFFFFFFFFFFFFFFFFFFFF AND DUP2 MSTORE PUSH1 0x20 ADD SWAP1 DUP2 MSTORE PUSH1 0x20 ADD PUSH0 KECCAK256 PUSH0 SWAP1 SLOAD SWAP1 PUSH2 0x100 EXP SWAP1 DIV PUSH20 0xFFFFFFFFFFFFFFFFFFFFFFFFFFFFFFFFFFFFFFFF AND PUSH1 0x2 PUSH0 DUP5 PUSH20 0xFFFFFFFFFFFFFFFFFFFFFFFFFFFFFFFFFFFFFFFF AND PUSH20 0xFFFFFFFFFFFFFFFFFFFFFFFFFFFFFFFFFFFFFFFF AND DUP2 MSTORE PUSH1 0x20 ADD SWAP1 DUP2 MSTORE PUSH1 0x20 ADD PUSH0 KECCAK256 PUSH0 PUSH2 0x100 EXP DUP2 SLOAD DUP2 PUSH20 0xFFFFFFFFFFFFFFFFFFFFFFFFFFFFFFFFFFFFFFFF MUL NOT AND SWAP1 DUP4 PUSH20 0xFFFFFFFFFFFFFFFFFFFFFFFFFFFFFFFFFFFFFFFF AND MUL OR SWAP1 SSTORE POP DUP2 PUSH1 0x2 PUSH0 PUSH1 0x1 PUSH20 0xFFFFFFFFFFFFFFFFFFFFFFFFFFFFFFFFFFFFFFFF AND PUSH20 0xFFFFFFFFFFFFFFFFFFFFFFFFFFFFFFFFFFFFFFFF AND DUP2 MSTORE PUSH1 0x20 ADD SWAP1 DUP2 MSTORE PUSH1 0x20 ADD PUSH0 KECCAK256 PUSH0 PUSH2 0x100 EXP DUP2 SLOAD DUP2 PUSH20 0xFFFFFFFFFFFFFFFFFFFFFFFFFFFFFFFFFFFFFFFF MUL NOT AND SWAP1 DUP4 PUSH20 0xFFFFFFFFFFFFFFFFFFFFFFFFFFFFFFFFFFFFFFFF AND MUL OR SWAP1 SSTORE POP PUSH1 0x3 PUSH0 DUP2 SLOAD DUP1 SWAP3 SWAP2 SWAP1 PUSH2 0xB24 SWAP1 PUSH2 0x4EF6 JUMP JUMPDEST SWAP2 SWAP1 POP SSTORE POP DUP2 PUSH20 0xFFFFFFFFFFFFFFFFFFFFFFFFFFFFFFFFFFFFFFFF AND PUSH32 0x9465FA0C962CC76958E6373A993326400C1C94F8BE2FE3A952ADFA7F60B2EA26 PUSH1 0x40 MLOAD PUSH1 0x40 MLOAD DUP1 SWAP2 SUB SWAP1 LOG2 DUP1 PUSH1 0x4 SLOAD EQ PUSH2 0xB7F JUMPI PUSH2 0xB7E DUP2 PUSH2 0x154E JUMP JUMPDEST JUMPDEST POP POP JUMP JUMPDEST PUSH2 0xB8F CALLER DUP7 DUP5 DUP5 PUSH2 0xB96 JUMP JUMPDEST POP POP POP POP POP JUMP JUMPDEST PUSH2 0xBAA PUSH1 0x41 DUP3 PUSH2 0x3170 SWAP1 SWAP2 SWAP1 PUSH4 0xFFFFFFFF AND JUMP JUMPDEST DUP3 MLOAD LT ISZERO PUSH2 0xBDC JUMPI PUSH2 0xBDB PUSH32 0x4753303230000000000000000000000000000000000000000000000000000000 PUSH2 0x3131 JUMP JUMPDEST JUMPDEST PUSH0 DUP1 DUP1 PUSH0 DUP1 PUSH0 JUMPDEST DUP7 DUP2 LT ISZERO PUSH2 0xF4C JUMPI PUSH2 0xBF5 DUP9 DUP3 PUSH2 0x31B0 JUMP JUMPDEST DUP3 PUSH1 0xFF AND SWAP3 POP DUP1 SWAP5 POP DUP2 SWAP6 POP DUP3 SWAP7 POP POP POP POP PUSH0 DUP5 SUB PUSH2 0xC6D JUMPI DUP3 PUSH0 SHR SWAP5 POP PUSH2 0xC27 PUSH1 0x41 DUP9 PUSH2 0x3170 SWAP1 SWAP2 SWAP1 PUSH4 0xFFFFFFFF AND JUMP JUMPDEST DUP3 PUSH0 SHR LT ISZERO PUSH2 0xC5A JUMPI PUSH2 0xC59 PUSH32 0x4753303231000000000000000000000000000000000000000000000000000000 PUSH2 0x3131 JUMP JUMPDEST JUMPDEST PUSH2 0xC68 DUP6 DUP11 DUP11 DUP6 PUSH0 SHR PUSH2 0x31DC JUMP JUMPDEST PUSH2 0xE14 JUMP JUMPDEST PUSH1 0x1 DUP5 SUB PUSH2 0xD35 JUMPI DUP3 PUSH0 SHR SWAP5 POP DUP5 PUSH20 0xFFFFFFFFFFFFFFFFFFFFFFFFFFFFFFFFFFFFFFFF AND DUP11 PUSH20 0xFFFFFFFFFFFFFFFFFFFFFFFFFFFFFFFFFFFFFFFF AND EQ ISZERO DUP1 ISZERO PUSH2 0xD01 JUMPI POP PUSH0 PUSH1 0x8 PUSH0 DUP8 PUSH20 0xFFFFFFFFFFFFFFFFFFFFFFFFFFFFFFFFFFFFFFFF AND PUSH20 0xFFFFFFFFFFFFFFFFFFFFFFFFFFFFFFFFFFFFFFFF AND DUP2 MSTORE PUSH1 0x20 ADD SWAP1 DUP2 MSTORE PUSH1 0x20 ADD PUSH0 KECCAK256 PUSH0 DUP12 DUP2 MSTORE PUSH1 0x20 ADD SWAP1 DUP2 MSTORE PUSH1 0x20 ADD PUSH0 KECCAK256 SLOAD EQ JUMPDEST ISZERO PUSH2 0xD30 JUMPI PUSH2 0xD2F PUSH32 0x4753303235000000000000000000000000000000000000000000000000000000 PUSH2 0x3131 JUMP JUMPDEST JUMPDEST PUSH2 0xE13 JUMP JUMPDEST PUSH1 0x1E DUP5 GT ISZERO PUSH2 0xDC3 JUMPI PUSH1 0x1 DUP10 PUSH1 0x40 MLOAD PUSH1 0x20 ADD PUSH2 0xD51 SWAP2 SWAP1 PUSH2 0x4FB1 JUMP JUMPDEST PUSH1 0x40 MLOAD PUSH1 0x20 DUP2 DUP4 SUB SUB DUP2 MSTORE SWAP1 PUSH1 0x40 MSTORE DUP1 MLOAD SWAP1 PUSH1 0x20 ADD KECCAK256 PUSH1 0x4 DUP7 PUSH2 0xD74 SWAP2 SWAP1 PUSH2 0x4FD6 JUMP JUMPDEST DUP6 DUP6 PUSH1 0x40 MLOAD PUSH0 DUP2 MSTORE PUSH1 0x20 ADD PUSH1 0x40 MSTORE PUSH1 0x40 MLOAD PUSH2 0xD92 SWAP5 SWAP4 SWAP3 SWAP2 SWAP1 PUSH2 0x5024 JUMP JUMPDEST PUSH1 0x20 PUSH1 0x40 MLOAD PUSH1 0x20 DUP2 SUB SWAP1 DUP1 DUP5 SUB SWAP1 DUP6 GAS STATICCALL ISZERO DUP1 ISZERO PUSH2 0xDB2 JUMPI RETURNDATASIZE PUSH0 DUP1 RETURNDATACOPY RETURNDATASIZE PUSH0 REVERT JUMPDEST POP POP POP PUSH1 0x20 PUSH1 0x40 MLOAD SUB MLOAD SWAP5 POP PUSH2 0xE12 JUMP JUMPDEST PUSH1 0x1 DUP10 DUP6 DUP6 DUP6 PUSH1 0x40 MLOAD PUSH0 DUP2 MSTORE PUSH1 0x20 ADD PUSH1 0x40 MSTORE PUSH1 0x40 MLOAD PUSH2 0xDE5 SWAP5 SWAP4 SWAP3 SWAP2 SWAP1 PUSH2 0x5024 JUMP JUMPDEST PUSH1 0x20 PUSH1 0x40 MLOAD PUSH1 0x20 DUP2 SUB SWAP1 DUP1 DUP5 SUB SWAP1 DUP6 GAS STATICCALL ISZERO DUP1 ISZERO PUSH2 0xE05 JUMPI RETURNDATASIZE PUSH0 DUP1 RETURNDATACOPY RETURNDATASIZE PUSH0 REVERT JUMPDEST POP POP POP PUSH1 0x20 PUSH1 0x40 MLOAD SUB MLOAD SWAP5 POP JUMPDEST JUMPDEST JUMPDEST DUP6 PUSH20 0xFFFFFFFFFFFFFFFFFFFFFFFFFFFFFFFFFFFFFFFF AND DUP6 PUSH20 0xFFFFFFFFFFFFFFFFFFFFFFFFFFFFFFFFFFFFFFFF AND GT ISZERO DUP1 PUSH2 0xED6 JUMPI POP PUSH0 PUSH20 0xFFFFFFFFFFFFFFFFFFFFFFFFFFFFFFFFFFFFFFFF AND PUSH1 0x2 PUSH0 DUP8 PUSH20 0xFFFFFFFFFFFFFFFFFFFFFFFFFFFFFFFFFFFFFFFF AND PUSH20 0xFFFFFFFFFFFFFFFFFFFFFFFFFFFFFFFFFFFFFFFF AND DUP2 MSTORE PUSH1 0x20 ADD SWAP1 DUP2 MSTORE PUSH1 0x20 ADD PUSH0 KECCAK256 PUSH0 SWAP1 SLOAD SWAP1 PUSH2 0x100 EXP SWAP1 DIV PUSH20 0xFFFFFFFFFFFFFFFFFFFFFFFFFFFFFFFFFFFFFFFF AND PUSH20 0xFFFFFFFFFFFFFFFFFFFFFFFFFFFFFFFFFFFFFFFF AND EQ JUMPDEST DUP1 PUSH2 0xF0D JUMPI POP PUSH1 0x1 PUSH20 0xFFFFFFFFFFFFFFFFFFFFFFFFFFFFFFFFFFFFFFFF AND DUP6 PUSH20 0xFFFFFFFFFFFFFFFFFFFFFFFFFFFFFFFFFFFFFFFF AND EQ JUMPDEST ISZERO PUSH2 0xF3C JUMPI PUSH2 0xF3B PUSH32 0x4753303236000000000000000000000000000000000000000000000000000000 PUSH2 0x3131 JUMP JUMPDEST JUMPDEST DUP5 SWAP6 POP DUP1 DUP1 PUSH1 0x1 ADD SWAP2 POP POP PUSH2 0xBE3 JUMP JUMPDEST POP POP POP POP POP POP POP POP POP POP JUMP JUMPDEST PUSH0 DUP2 PUSH20 0xFFFFFFFFFFFFFFFFFFFFFFFFFFFFFFFFFFFFFFFF AND PUSH1 0x1 PUSH20 0xFFFFFFFFFFFFFFFFFFFFFFFFFFFFFFFFFFFFFFFF AND EQ ISZERO DUP1 ISZERO PUSH2 0x101E JUMPI POP PUSH0 PUSH20 0xFFFFFFFFFFFFFFFFFFFFFFFFFFFFFFFFFFFFFFFF AND PUSH1 0x1 PUSH0 DUP5 PUSH20 0xFFFFFFFFFFFFFFFFFFFFFFFFFFFFFFFFFFFFFFFF AND PUSH20 0xFFFFFFFFFFFFFFFFFFFFFFFFFFFFFFFFFFFFFFFF AND DUP2 MSTORE PUSH1 0x20 ADD SWAP1 DUP2 MSTORE PUSH1 0x20 ADD PUSH0 KECCAK256 PUSH0 SWAP1 SLOAD SWAP1 PUSH2 0x100 EXP SWAP1 DIV PUSH20 0xFFFFFFFFFFFFFFFFFFFFFFFFFFFFFFFFFFFFFFFF AND PUSH20 0xFFFFFFFFFFFFFFFFFFFFFFFFFFFFFFFFFFFFFFFF AND EQ ISZERO JUMPDEST SWAP1 POP SWAP2 SWAP1 POP JUMP JUMPDEST PUSH0 PUSH1 0x1 PUSH20 0xFFFFFFFFFFFFFFFFFFFFFFFFFFFFFFFFFFFFFFFF AND DUP3 PUSH20 0xFFFFFFFFFFFFFFFFFFFFFFFFFFFFFFFFFFFFFFFF AND EQ DUP1 PUSH2 0x10E8 JUMPI POP PUSH0 PUSH20 0xFFFFFFFFFFFFFFFFFFFFFFFFFFFFFFFFFFFFFFFF AND PUSH1 0x2 PUSH0 DUP5 PUSH20 0xFFFFFFFFFFFFFFFFFFFFFFFFFFFFFFFFFFFFFFFF AND PUSH20 0xFFFFFFFFFFFFFFFFFFFFFFFFFFFFFFFFFFFFFFFF AND DUP2 MSTORE PUSH1 0x20 ADD SWAP1 DUP2 MSTORE PUSH1 0x20 ADD PUSH0 KECCAK256 PUSH0 SWAP1 SLOAD SWAP1 PUSH2 0x100 EXP SWAP1 DIV PUSH20 0xFFFFFFFFFFFFFFFFFFFFFFFFFFFFFFFFFFFFFFFF AND PUSH20 0xFFFFFFFFFFFFFFFFFFFFFFFFFFFFFFFFFFFFFFFF AND EQ JUMPDEST ISZERO SWAP1 POP SWAP2 SWAP1 POP JUMP JUMPDEST PUSH0 DUP1 PUSH0 PUSH2 0x10FF DUP8 DUP8 DUP8 DUP8 PUSH2 0x3385 JUMP JUMPDEST SWAP2 POP SWAP2 POP PUSH2 0x1130 DUP8 DUP8 DUP8 DUP8 PUSH32 0xFFFFFFFFFFFFFFFFFFFFFFFFFFFFFFFFFFFFFFFFFFFFFFFFFFFFFFFFFFFFFFFF PUSH2 0x3561 JUMP JUMPDEST SWAP3 POP PUSH2 0x113D DUP3 DUP3 DUP6 PUSH2 0x35B7 JUMP JUMPDEST POP POP SWAP5 SWAP4 POP POP POP POP JUMP JUMPDEST PUSH0 PUSH1 0x60 PUSH0 DUP1 PUSH2 0x1158 DUP9 DUP9 DUP9 DUP9 PUSH2 0x3385 JUMP JUMPDEST SWAP2 POP SWAP2 POP PUSH2 0x1189 DUP9 DUP9 DUP9 DUP9 PUSH32 0xFFFFFFFFFFFFFFFFFFFFFFFFFFFFFFFFFFFFFFFFFFFFFFFFFFFFFFFFFFFFFFFF PUSH2 0x3561 JUMP JUMPDEST SWAP4 POP PUSH1 0x40 MLOAD SWAP3 POP PUSH1 0x20 RETURNDATASIZE ADD DUP4 ADD PUSH1 0x40 MSTORE RETURNDATASIZE DUP4 MSTORE RETURNDATASIZE PUSH0 PUSH1 0x20 DUP6 ADD RETURNDATACOPY PUSH2 0x11AE DUP3 DUP3 DUP7 PUSH2 0x35B7 JUMP JUMPDEST POP POP SWAP5 POP SWAP5 SWAP3 POP POP POP JUMP JUMPDEST PUSH1 0x60 PUSH0 PUSH1 0x20 DUP4 PUSH2 0x11C9 SWAP2 SWAP1 PUSH2 0x5067 JUMP JUMPDEST PUSH8 0xFFFFFFFFFFFFFFFF DUP2 GT ISZERO PUSH2 0x11E2 JUMPI PUSH2 0x11E1 PUSH2 0x42A8 JUMP JUMPDEST JUMPDEST PUSH1 0x40 MLOAD SWAP1 DUP1 DUP3 MSTORE DUP1 PUSH1 0x1F ADD PUSH1 0x1F NOT AND PUSH1 0x20 ADD DUP3 ADD PUSH1 0x40 MSTORE DUP1 ISZERO PUSH2 0x1214 JUMPI DUP2 PUSH1 0x20 ADD PUSH1 0x1 DUP3 MUL DUP1 CALLDATASIZE DUP4 CALLDATACOPY DUP1 DUP3 ADD SWAP2 POP POP SWAP1 POP JUMPDEST POP SWAP1 POP PUSH0 JUMPDEST DUP4 DUP2 LT ISZERO PUSH2 0x123E JUMPI DUP1 DUP6 ADD SLOAD DUP1 PUSH1 0x20 DUP4 MUL PUSH1 0x20 DUP6 ADD ADD MSTORE POP DUP1 DUP1 PUSH1 0x1 ADD SWAP2 POP POP PUSH2 0x1219 JUMP JUMPDEST POP DUP1 SWAP2 POP POP SWAP3 SWAP2 POP POP JUMP JUMPDEST PUSH1 0x7 PUSH1 0x20 MSTORE DUP1 PUSH0 MSTORE PUSH1 0x40 PUSH0 KECCAK256 PUSH0 SWAP2 POP SWAP1 POP SLOAD DUP2 JUMP JUMPDEST PUSH2 0x1266 PUSH2 0x30D2 JUMP JUMPDEST PUSH0 PUSH20 0xFFFFFFFFFFFFFFFFFFFFFFFFFFFFFFFFFFFFFFFF AND DUP2 PUSH20 0xFFFFFFFFFFFFFFFFFFFFFFFFFFFFFFFFFFFFFFFF AND EQ DUP1 PUSH2 0x12CC JUMPI POP PUSH1 0x1 PUSH20 0xFFFFFFFFFFFFFFFFFFFFFFFFFFFFFFFFFFFFFFFF AND DUP2 PUSH20 0xFFFFFFFFFFFFFFFFFFFFFFFFFFFFFFFFFFFFFFFF AND EQ JUMPDEST ISZERO PUSH2 0x12FB JUMPI PUSH2 0x12FA PUSH32 0x4753313031000000000000000000000000000000000000000000000000000000 PUSH2 0x3131 JUMP JUMPDEST JUMPDEST PUSH0 PUSH20 0xFFFFFFFFFFFFFFFFFFFFFFFFFFFFFFFFFFFFFFFF AND PUSH1 0x1 PUSH0 DUP4 PUSH20 0xFFFFFFFFFFFFFFFFFFFFFFFFFFFFFFFFFFFFFFFF AND PUSH20 0xFFFFFFFFFFFFFFFFFFFFFFFFFFFFFFFFFFFFFFFF AND DUP2 MSTORE PUSH1 0x20 ADD SWAP1 DUP2 MSTORE PUSH1 0x20 ADD PUSH0 KECCAK256 PUSH0 SWAP1 SLOAD SWAP1 PUSH2 0x100 EXP SWAP1 DIV PUSH20 0xFFFFFFFFFFFFFFFFFFFFFFFFFFFFFFFFFFFFFFFF AND PUSH20 0xFFFFFFFFFFFFFFFFFFFFFFFFFFFFFFFFFFFFFFFF AND EQ PUSH2 0x13B4 JUMPI PUSH2 0x13B3 PUSH32 0x4753313032000000000000000000000000000000000000000000000000000000 PUSH2 0x3131 JUMP JUMPDEST JUMPDEST PUSH1 0x1 PUSH0 PUSH1 0x1 PUSH20 0xFFFFFFFFFFFFFFFFFFFFFFFFFFFFFFFFFFFFFFFF AND PUSH20 0xFFFFFFFFFFFFFFFFFFFFFFFFFFFFFFFFFFFFFFFF AND DUP2 MSTORE PUSH1 0x20 ADD SWAP1 DUP2 MSTORE PUSH1 0x20 ADD PUSH0 KECCAK256 PUSH0 SWAP1 SLOAD SWAP1 PUSH2 0x100 EXP SWAP1 DIV PUSH20 0xFFFFFFFFFFFFFFFFFFFFFFFFFFFFFFFFFFFFFFFF AND PUSH1 0x1 PUSH0 DUP4 PUSH20 0xFFFFFFFFFFFFFFFFFFFFFFFFFFFFFFFFFFFFFFFF AND PUSH20 0xFFFFFFFFFFFFFFFFFFFFFFFFFFFFFFFFFFFFFFFF AND DUP2 MSTORE PUSH1 0x20 ADD SWAP1 DUP2 MSTORE PUSH1 0x20 ADD PUSH0 KECCAK256 PUSH0 PUSH2 0x100 EXP DUP2 SLOAD DUP2 PUSH20 0xFFFFFFFFFFFFFFFFFFFFFFFFFFFFFFFFFFFFFFFF MUL NOT AND SWAP1 DUP4 PUSH20 0xFFFFFFFFFFFFFFFFFFFFFFFFFFFFFFFFFFFFFFFF AND MUL OR SWAP1 SSTORE POP DUP1 PUSH1 0x1 PUSH0 PUSH1 0x1 PUSH20 0xFFFFFFFFFFFFFFFFFFFFFFFFFFFFFFFFFFFFFFFF AND PUSH20 0xFFFFFFFFFFFFFFFFFFFFFFFFFFFFFFFFFFFFFFFF AND DUP2 MSTORE PUSH1 0x20 ADD SWAP1 DUP2 MSTORE PUSH1 0x20 ADD PUSH0 KECCAK256 PUSH0 PUSH2 0x100 EXP DUP2 SLOAD DUP2 PUSH20 0xFFFFFFFFFFFFFFFFFFFFFFFFFFFFFFFFFFFFFFFF MUL NOT AND SWAP1 DUP4 PUSH20 0xFFFFFFFFFFFFFFFFFFFFFFFFFFFFFFFFFFFFFFFF AND MUL OR SWAP1 SSTORE POP DUP1 PUSH20 0xFFFFFFFFFFFFFFFFFFFFFFFFFFFFFFFFFFFFFFFF AND PUSH32 0xECDF3A3EFFEA5783A3C4C2140E677577666428D44ED9D474A0B3A4C9943F8440 PUSH1 0x40 MLOAD PUSH1 0x40 MLOAD DUP1 SWAP2 SUB SWAP1 LOG2 POP JUMP JUMPDEST PUSH2 0x1556 PUSH2 0x30D2 JUMP JUMPDEST PUSH1 0x3 SLOAD DUP2 GT ISZERO PUSH2 0x158A JUMPI PUSH2 0x1589 PUSH32 0x4753323031000000000000000000000000000000000000000000000000000000 PUSH2 0x3131 JUMP JUMPDEST JUMPDEST PUSH0 DUP2 SUB PUSH2 0x15BB JUMPI PUSH2 0x15BA PUSH32 0x4753323032000000000000000000000000000000000000000000000000000000 PUSH2 0x3131 JUMP JUMPDEST JUMPDEST DUP1 PUSH1 0x4 DUP2 SWAP1 SSTORE POP PUSH32 0x610F7FF2B304AE8903C3DE74C60C6AB1F7D6226B3F52C5161905BB5AD4039C93 PUSH1 0x4 SLOAD PUSH1 0x40 MLOAD PUSH2 0x15F3 SWAP2 SWAP1 PUSH2 0x4114 JUMP JUMPDEST PUSH1 0x40 MLOAD DUP1 SWAP2 SUB SWAP1 LOG1 POP JUMP JUMPDEST PUSH0 PUSH2 0x1612 DUP13 DUP13 DUP13 DUP13 DUP13 DUP13 DUP13 DUP13 DUP13 DUP13 DUP13 PUSH2 0x36EA JUMP JUMPDEST PUSH0 PUSH2 0x163B DUP14 DUP14 DUP14 DUP14 DUP14 DUP14 DUP14 DUP14 DUP14 DUP14 PUSH1 0x5 PUSH0 DUP2 SLOAD DUP1 SWAP3 SWAP2 SWAP1 PUSH2 0x1632 SWAP1 PUSH2 0x4EF6 JUMP JUMPDEST SWAP2 SWAP1 POP SSTORE PUSH2 0x2109 JUMP JUMPDEST SWAP1 POP PUSH2 0x1647 DUP2 DUP5 PUSH2 0x2C48 JUMP JUMPDEST PUSH0 PUSH2 0x1650 PUSH2 0x36F7 JUMP JUMPDEST SWAP1 POP PUSH0 PUSH20 0xFFFFFFFFFFFFFFFFFFFFFFFFFFFFFFFFFFFFFFFF AND DUP2 PUSH20 0xFFFFFFFFFFFFFFFFFFFFFFFFFFFFFFFFFFFFFFFF AND EQ PUSH2 0x1702 JUMPI DUP1 PUSH20 0xFFFFFFFFFFFFFFFFFFFFFFFFFFFFFFFFFFFFFFFF AND PUSH4 0x75F0BB52 DUP16 DUP16 DUP16 DUP16 DUP16 DUP16 DUP16 DUP16 DUP16 DUP16 DUP16 CALLER PUSH1 0x40 MLOAD DUP14 PUSH4 0xFFFFFFFF AND PUSH1 0xE0 SHL DUP2 MSTORE PUSH1 0x4 ADD PUSH2 0x16D4 SWAP13 SWAP12 SWAP11 SWAP10 SWAP9 SWAP8 SWAP7 SWAP6 SWAP5 SWAP4 SWAP3 SWAP2 SWAP1 PUSH2 0x5156 JUMP JUMPDEST PUSH0 PUSH1 0x40 MLOAD DUP1 DUP4 SUB DUP2 PUSH0 DUP8 DUP1 EXTCODESIZE ISZERO DUP1 ISZERO PUSH2 0x16EB JUMPI PUSH0 DUP1 REVERT JUMPDEST POP GAS CALL ISZERO DUP1 ISZERO PUSH2 0x16FD JUMPI RETURNDATASIZE PUSH0 DUP1 RETURNDATACOPY RETURNDATASIZE PUSH0 REVERT JUMPDEST POP POP POP POP JUMPDEST PUSH2 0x1F4 PUSH2 0x173D PUSH2 0x9C4 DUP12 PUSH2 0x1716 SWAP2 SWAP1 PUSH2 0x520F JUMP JUMPDEST PUSH1 0x3F PUSH1 0x40 DUP14 PUSH2 0x1725 SWAP2 SWAP1 PUSH2 0x5067 JUMP JUMPDEST PUSH2 0x172F SWAP2 SWAP1 PUSH2 0x526F JUMP JUMPDEST PUSH2 0x371F SWAP1 SWAP2 SWAP1 PUSH4 0xFFFFFFFF AND JUMP JUMPDEST PUSH2 0x1747 SWAP2 SWAP1 PUSH2 0x520F JUMP JUMPDEST GAS LT ISZERO PUSH2 0x1778 JUMPI PUSH2 0x1777 PUSH32 0x4753303130000000000000000000000000000000000000000000000000000000 PUSH2 0x3131 JUMP JUMPDEST JUMPDEST PUSH0 GAS SWAP1 POP PUSH2 0x17E7 DUP16 DUP16 DUP16 DUP16 DUP1 DUP1 PUSH1 0x1F ADD PUSH1 0x20 DUP1 SWAP2 DIV MUL PUSH1 0x20 ADD PUSH1 0x40 MLOAD SWAP1 DUP2 ADD PUSH1 0x40 MSTORE DUP1 SWAP4 SWAP3 SWAP2 SWAP1 DUP2 DUP2 MSTORE PUSH1 0x20 ADD DUP4 DUP4 DUP1 DUP3 DUP5 CALLDATACOPY PUSH0 DUP2 DUP5 ADD MSTORE PUSH1 0x1F NOT PUSH1 0x1F DUP3 ADD AND SWAP1 POP DUP1 DUP4 ADD SWAP3 POP POP POP POP POP POP POP DUP15 PUSH0 DUP14 EQ PUSH2 0x17D3 JUMPI DUP15 PUSH2 0x17E2 JUMP JUMPDEST PUSH2 0x9C4 GAS PUSH2 0x17E1 SWAP2 SWAP1 PUSH2 0x4FD6 JUMP JUMPDEST JUMPDEST PUSH2 0x3561 JUMP JUMPDEST SWAP4 POP PUSH2 0x17FC GAS DUP3 PUSH2 0x3738 SWAP1 SWAP2 SWAP1 PUSH4 0xFFFFFFFF AND JUMP JUMPDEST SWAP1 POP DUP4 ISZERO DUP1 ISZERO PUSH2 0x180B JUMPI POP PUSH0 DUP11 EQ JUMPDEST DUP1 ISZERO PUSH2 0x1816 JUMPI POP PUSH0 DUP9 EQ JUMPDEST ISZERO PUSH2 0x1826 JUMPI PUSH1 0x40 MLOAD RETURNDATASIZE PUSH0 DUP3 RETURNDATACOPY RETURNDATASIZE DUP2 REVERT JUMPDEST PUSH0 DUP1 DUP10 GT ISZERO PUSH2 0x183F JUMPI PUSH2 0x183C DUP3 DUP12 DUP12 DUP12 DUP12 PUSH2 0x375E JUMP JUMPDEST SWAP1 POP JUMPDEST DUP5 ISZERO PUSH2 0x1882 JUMPI DUP4 PUSH32 0x442E715F626346E8C54381002DA614F62BEE8D27386535B2521EC8540898556E DUP3 PUSH1 0x40 MLOAD PUSH2 0x1875 SWAP2 SWAP1 PUSH2 0x4114 JUMP JUMPDEST PUSH1 0x40 MLOAD DUP1 SWAP2 SUB SWAP1 LOG2 PUSH2 0x18BB JUMP JUMPDEST DUP4 PUSH32 0x23428B18ACFB3EA64B08DC0C1D296EA9C09702C09083CA5272E64D115B687D23 DUP3 PUSH1 0x40 MLOAD PUSH2 0x18B2 SWAP2 SWAP1 PUSH2 0x4114 JUMP JUMPDEST PUSH1 0x40 MLOAD DUP1 SWAP2 SUB SWAP1 LOG2 JUMPDEST POP POP PUSH0 PUSH20 0xFFFFFFFFFFFFFFFFFFFFFFFFFFFFFFFFFFFFFFFF AND DUP2 PUSH20 0xFFFFFFFFFFFFFFFFFFFFFFFFFFFFFFFFFFFFFFFF AND EQ PUSH2 0x1959 JUMPI DUP1 PUSH20 0xFFFFFFFFFFFFFFFFFFFFFFFFFFFFFFFFFFFFFFFF AND PUSH4 0x93271368 DUP4 DUP6 PUSH1 0x40 MLOAD DUP4 PUSH4 0xFFFFFFFF AND PUSH1 0xE0 SHL DUP2 MSTORE PUSH1 0x4 ADD PUSH2 0x192B SWAP3 SWAP2 SWAP1 PUSH2 0x529F JUMP JUMPDEST PUSH0 PUSH1 0x40 MLOAD DUP1 DUP4 SUB DUP2 PUSH0 DUP8 DUP1 EXTCODESIZE ISZERO DUP1 ISZERO PUSH2 0x1942 JUMPI PUSH0 DUP1 REVERT JUMPDEST POP GAS CALL ISZERO DUP1 ISZERO PUSH2 0x1954 JUMPI RETURNDATASIZE PUSH0 DUP1 RETURNDATACOPY RETURNDATASIZE PUSH0 REVERT JUMPDEST POP POP POP POP JUMPDEST POP POP SWAP12 SWAP11 POP POP POP POP POP POP POP POP POP POP POP JUMP JUMPDEST PUSH1 0x8 PUSH1 0x20 MSTORE DUP2 PUSH0 MSTORE PUSH1 0x40 PUSH0 KECCAK256 PUSH1 0x20 MSTORE DUP1 PUSH0 MSTORE PUSH1 0x40 PUSH0 KECCAK256 PUSH0 SWAP2 POP SWAP2 POP POP SLOAD DUP2 JUMP JUMPDEST PUSH2 0x1994 DUP5 DUP3 PUSH2 0x2C48 JUMP JUMPDEST POP POP POP POP JUMP JUMPDEST PUSH1 0x60 PUSH0 PUSH1 0x3 SLOAD PUSH8 0xFFFFFFFFFFFFFFFF DUP2 GT ISZERO PUSH2 0x19B9 JUMPI PUSH2 0x19B8 PUSH2 0x42A8 JUMP JUMPDEST JUMPDEST PUSH1 0x40 MLOAD SWAP1 DUP1 DUP3 MSTORE DUP1 PUSH1 0x20 MUL PUSH1 0x20 ADD DUP3 ADD PUSH1 0x40 MSTORE DUP1 ISZERO PUSH2 0x19E7 JUMPI DUP2 PUSH1 0x20 ADD PUSH1 0x20 DUP3 MUL DUP1 CALLDATASIZE DUP4 CALLDATACOPY DUP1 DUP3 ADD SWAP2 POP POP SWAP1 POP JUMPDEST POP SWAP1 POP PUSH0 DUP1 PUSH1 0x2 PUSH0 PUSH1 0x1 PUSH20 0xFFFFFFFFFFFFFFFFFFFFFFFFFFFFFFFFFFFFFFFF AND PUSH20 0xFFFFFFFFFFFFFFFFFFFFFFFFFFFFFFFFFFFFFFFF AND DUP2 MSTORE PUSH1 0x20 ADD SWAP1 DUP2 MSTORE PUSH1 0x20 ADD PUSH0 KECCAK256 PUSH0 SWAP1 SLOAD SWAP1 PUSH2 0x100 EXP SWAP1 DIV PUSH20 0xFFFFFFFFFFFFFFFFFFFFFFFFFFFFFFFFFFFFFFFF AND SWAP1 POP JUMPDEST PUSH1 0x1 PUSH20 0xFFFFFFFFFFFFFFFFFFFFFFFFFFFFFFFFFFFFFFFF AND DUP2 PUSH20 0xFFFFFFFFFFFFFFFFFFFFFFFFFFFFFFFFFFFFFFFF AND EQ PUSH2 0x1B41 JUMPI DUP1 DUP4 DUP4 DUP2 MLOAD DUP2 LT PUSH2 0x1A95 JUMPI PUSH2 0x1A94 PUSH2 0x52C6 JUMP JUMPDEST JUMPDEST PUSH1 0x20 MUL PUSH1 0x20 ADD ADD SWAP1 PUSH20 0xFFFFFFFFFFFFFFFFFFFFFFFFFFFFFFFFFFFFFFFF AND SWAP1 DUP2 PUSH20 0xFFFFFFFFFFFFFFFFFFFFFFFFFFFFFFFFFFFFFFFF AND DUP2 MSTORE POP POP PUSH1 0x2 PUSH0 DUP3 PUSH20 0xFFFFFFFFFFFFFFFFFFFFFFFFFFFFFFFFFFFFFFFF AND PUSH20 0xFFFFFFFFFFFFFFFFFFFFFFFFFFFFFFFFFFFFFFFF AND DUP2 MSTORE PUSH1 0x20 ADD SWAP1 DUP2 MSTORE PUSH1 0x20 ADD PUSH0 KECCAK256 PUSH0 SWAP1 SLOAD SWAP1 PUSH2 0x100 EXP SWAP1 DIV PUSH20 0xFFFFFFFFFFFFFFFFFFFFFFFFFFFFFFFFFFFFFFFF AND SWAP1 POP DUP2 DUP1 PUSH2 0x1B39 SWAP1 PUSH2 0x4EF6 JUMP JUMPDEST SWAP3 POP POP PUSH2 0x1A4D JUMP JUMPDEST DUP3 SWAP4 POP POP POP POP SWAP1 JUMP JUMPDEST PUSH1 0x5 SLOAD DUP2 JUMP JUMPDEST PUSH0 DUP1 DUP3 MLOAD PUSH1 0x20 DUP5 ADD DUP6 GAS DELEGATECALL PUSH1 0x40 MLOAD DUP2 DUP2 MSTORE RETURNDATASIZE PUSH1 0x20 DUP3 ADD MSTORE RETURNDATASIZE PUSH0 PUSH1 0x40 DUP4 ADD RETURNDATACOPY PUSH1 0x40 RETURNDATASIZE ADD DUP2 REVERT JUMPDEST PUSH2 0x1BBF DUP11 DUP11 DUP1 DUP1 PUSH1 0x20 MUL PUSH1 0x20 ADD PUSH1 0x40 MLOAD SWAP1 DUP2 ADD PUSH1 0x40 MSTORE DUP1 SWAP4 SWAP3 SWAP2 SWAP1 DUP2 DUP2 MSTORE PUSH1 0x20 ADD DUP4 DUP4 PUSH1 0x20 MUL DUP1 DUP3 DUP5 CALLDATACOPY PUSH0 DUP2 DUP5 ADD MSTORE PUSH1 0x1F NOT PUSH1 0x1F DUP3 ADD AND SWAP1 POP DUP1 DUP4 ADD SWAP3 POP POP POP POP POP POP POP DUP10 PUSH2 0x390D JUMP JUMPDEST PUSH0 PUSH20 0xFFFFFFFFFFFFFFFFFFFFFFFFFFFFFFFFFFFFFFFF AND DUP5 PUSH20 0xFFFFFFFFFFFFFFFFFFFFFFFFFFFFFFFFFFFFFFFF AND EQ PUSH2 0x1BFC JUMPI PUSH2 0x1BFB DUP5 PUSH2 0x3CAA JUMP JUMPDEST JUMPDEST PUSH2 0x1C49 DUP8 DUP8 DUP8 DUP1 DUP1 PUSH1 0x1F ADD PUSH1 0x20 DUP1 SWAP2 DIV MUL PUSH1 0x20 ADD PUSH1 0x40 MLOAD SWAP1 DUP2 ADD PUSH1 0x40 MSTORE DUP1 SWAP4 SWAP3 SWAP2 SWAP1 DUP2 DUP2 MSTORE PUSH1 0x20 ADD DUP4 DUP4 DUP1 DUP3 DUP5 CALLDATACOPY PUSH0 DUP2 DUP5 ADD MSTORE PUSH1 0x1F NOT PUSH1 0x1F DUP3 ADD AND SWAP1 POP DUP1 DUP4 ADD SWAP3 POP POP POP POP POP POP POP PUSH2 0x3D2D JUMP JUMPDEST PUSH0 DUP3 GT ISZERO PUSH2 0x1C61 JUMPI PUSH2 0x1C5F DUP3 PUSH0 PUSH1 0x1 DUP7 DUP6 PUSH2 0x375E JUMP JUMPDEST POP JUMPDEST CALLER PUSH20 0xFFFFFFFFFFFFFFFFFFFFFFFFFFFFFFFFFFFFFFFF AND PUSH32 0x141DF868A6331AF528E38C83B7AA03EDC19BE66E37AE67F9285BF4F8E3C6A1A8 DUP12 DUP12 DUP12 DUP12 DUP10 PUSH1 0x40 MLOAD PUSH2 0x1CAF SWAP6 SWAP5 SWAP4 SWAP3 SWAP2 SWAP1 PUSH2 0x5379 JUMP JUMPDEST PUSH1 0x40 MLOAD DUP1 SWAP2 SUB SWAP1 LOG2 POP POP POP POP POP POP POP POP POP POP JUMP JUMPDEST PUSH1 0x60 PUSH0 PUSH1 0x1 PUSH20 0xFFFFFFFFFFFFFFFFFFFFFFFFFFFFFFFFFFFFFFFF AND DUP5 PUSH20 0xFFFFFFFFFFFFFFFFFFFFFFFFFFFFFFFFFFFFFFFF AND EQ ISZERO DUP1 ISZERO PUSH2 0x1D09 JUMPI POP PUSH2 0x1D07 DUP5 PUSH2 0xF58 JUMP JUMPDEST ISZERO JUMPDEST ISZERO PUSH2 0x1D38 JUMPI PUSH2 0x1D37 PUSH32 0x4753313035000000000000000000000000000000000000000000000000000000 PUSH2 0x3131 JUMP JUMPDEST JUMPDEST PUSH0 DUP4 SUB PUSH2 0x1D69 JUMPI PUSH2 0x1D68 PUSH32 0x4753313036000000000000000000000000000000000000000000000000000000 PUSH2 0x3131 JUMP JUMPDEST JUMPDEST DUP3 PUSH8 0xFFFFFFFFFFFFFFFF DUP2 GT ISZERO PUSH2 0x1D83 JUMPI PUSH2 0x1D82 PUSH2 0x42A8 JUMP JUMPDEST JUMPDEST PUSH1 0x40 MLOAD SWAP1 DUP1 DUP3 MSTORE DUP1 PUSH1 0x20 MUL PUSH1 0x20 ADD DUP3 ADD PUSH1 0x40 MSTORE DUP1 ISZERO PUSH2 0x1DB1 JUMPI DUP2 PUSH1 0x20 ADD PUSH1 0x20 DUP3 MUL DUP1 CALLDATASIZE DUP4 CALLDATACOPY DUP1 DUP3 ADD SWAP2 POP POP SWAP1 POP JUMPDEST POP SWAP2 POP PUSH0 PUSH1 0x1 PUSH0 DUP7 PUSH20 0xFFFFFFFFFFFFFFFFFFFFFFFFFFFFFFFFFFFFFFFF AND PUSH20 0xFFFFFFFFFFFFFFFFFFFFFFFFFFFFFFFFFFFFFFFF AND DUP2 MSTORE PUSH1 0x20 ADD SWAP1 DUP2 MSTORE PUSH1 0x20 ADD PUSH0 KECCAK256 PUSH0 SWAP1 SLOAD SWAP1 PUSH2 0x100 EXP SWAP1 DIV PUSH20 0xFFFFFFFFFFFFFFFFFFFFFFFFFFFFFFFFFFFFFFFF AND SWAP2 POP JUMPDEST PUSH0 PUSH20 0xFFFFFFFFFFFFFFFFFFFFFFFFFFFFFFFFFFFFFFFF AND DUP3 PUSH20 0xFFFFFFFFFFFFFFFFFFFFFFFFFFFFFFFFFFFFFFFF AND EQ ISZERO DUP1 ISZERO PUSH2 0x1E7E JUMPI POP PUSH1 0x1 PUSH20 0xFFFFFFFFFFFFFFFFFFFFFFFFFFFFFFFFFFFFFFFF AND DUP3 PUSH20 0xFFFFFFFFFFFFFFFFFFFFFFFFFFFFFFFFFFFFFFFF AND EQ ISZERO JUMPDEST DUP1 ISZERO PUSH2 0x1E89 JUMPI POP DUP4 DUP2 LT JUMPDEST ISZERO PUSH2 0x1F4E JUMPI DUP2 DUP4 DUP3 DUP2 MLOAD DUP2 LT PUSH2 0x1EA2 JUMPI PUSH2 0x1EA1 PUSH2 0x52C6 JUMP JUMPDEST JUMPDEST PUSH1 0x20 MUL PUSH1 0x20 ADD ADD SWAP1 PUSH20 0xFFFFFFFFFFFFFFFFFFFFFFFFFFFFFFFFFFFFFFFF AND SWAP1 DUP2 PUSH20 0xFFFFFFFFFFFFFFFFFFFFFFFFFFFFFFFFFFFFFFFF AND DUP2 MSTORE POP POP PUSH1 0x1 PUSH0 DUP4 PUSH20 0xFFFFFFFFFFFFFFFFFFFFFFFFFFFFFFFFFFFFFFFF AND PUSH20 0xFFFFFFFFFFFFFFFFFFFFFFFFFFFFFFFFFFFFFFFF AND DUP2 MSTORE PUSH1 0x20 ADD SWAP1 DUP2 MSTORE PUSH1 0x20 ADD PUSH0 KECCAK256 PUSH0 SWAP1 SLOAD SWAP1 PUSH2 0x100 EXP SWAP1 DIV PUSH20 0xFFFFFFFFFFFFFFFFFFFFFFFFFFFFFFFFFFFFFFFF AND SWAP2 POP DUP1 DUP1 PUSH2 0x1F46 SWAP1 PUSH2 0x4EF6 JUMP JUMPDEST SWAP2 POP POP PUSH2 0x1E15 JUMP JUMPDEST PUSH1 0x1 PUSH20 0xFFFFFFFFFFFFFFFFFFFFFFFFFFFFFFFFFFFFFFFF AND DUP3 PUSH20 0xFFFFFFFFFFFFFFFFFFFFFFFFFFFFFFFFFFFFFFFF AND EQ PUSH2 0x1FAC JUMPI DUP3 PUSH1 0x1 DUP3 PUSH2 0x1F90 SWAP2 SWAP1 PUSH2 0x4FD6 JUMP JUMPDEST DUP2 MLOAD DUP2 LT PUSH2 0x1FA1 JUMPI PUSH2 0x1FA0 PUSH2 0x52C6 JUMP JUMPDEST JUMPDEST PUSH1 0x20 MUL PUSH1 0x20 ADD ADD MLOAD SWAP2 POP JUMPDEST DUP1 DUP4 MSTORE POP SWAP3 POP SWAP3 SWAP1 POP JUMP JUMPDEST PUSH0 PUSH20 0xFFFFFFFFFFFFFFFFFFFFFFFFFFFFFFFFFFFFFFFF AND PUSH1 0x2 PUSH0 CALLER PUSH20 0xFFFFFFFFFFFFFFFFFFFFFFFFFFFFFFFFFFFFFFFF AND PUSH20 0xFFFFFFFFFFFFFFFFFFFFFFFFFFFFFFFFFFFFFFFF AND DUP2 MSTORE PUSH1 0x20 ADD SWAP1 DUP2 MSTORE PUSH1 0x20 ADD PUSH0 KECCAK256 PUSH0 SWAP1 SLOAD SWAP1 PUSH2 0x100 EXP SWAP1 DIV PUSH20 0xFFFFFFFFFFFFFFFFFFFFFFFFFFFFFFFFFFFFFFFF AND PUSH20 0xFFFFFFFFFFFFFFFFFFFFFFFFFFFFFFFFFFFFFFFF AND SUB PUSH2 0x2070 JUMPI PUSH2 0x206F PUSH32 0x4753303330000000000000000000000000000000000000000000000000000000 PUSH2 0x3131 JUMP JUMPDEST JUMPDEST PUSH1 0x1 PUSH1 0x8 PUSH0 CALLER PUSH20 0xFFFFFFFFFFFFFFFFFFFFFFFFFFFFFFFFFFFFFFFF AND PUSH20 0xFFFFFFFFFFFFFFFFFFFFFFFFFFFFFFFFFFFFFFFF AND DUP2 MSTORE PUSH1 0x20 ADD SWAP1 DUP2 MSTORE PUSH1 0x20 ADD PUSH0 KECCAK256 PUSH0 DUP4 DUP2 MSTORE PUSH1 0x20 ADD SWAP1 DUP2 MSTORE PUSH1 0x20 ADD PUSH0 KECCAK256 DUP2 SWAP1 SSTORE POP CALLER PUSH20 0xFFFFFFFFFFFFFFFFFFFFFFFFFFFFFFFFFFFFFFFF AND DUP2 PUSH32 0xF2A0EB156472D1440255B0D7C1E19CC07115D1051FE605B0DCE69ACFEC884D9C PUSH1 0x40 MLOAD PUSH1 0x40 MLOAD DUP1 SWAP2 SUB SWAP1 LOG3 POP JUMP JUMPDEST PUSH0 PUSH2 0x211D DUP13 DUP13 DUP13 DUP13 DUP13 DUP13 DUP13 DUP13 DUP13 DUP13 DUP13 PUSH2 0x3F2E JUMP JUMPDEST DUP1 MLOAD SWAP1 PUSH1 0x20 ADD KECCAK256 SWAP1 POP SWAP12 SWAP11 POP POP POP POP POP POP POP POP POP POP POP JUMP JUMPDEST PUSH2 0x213D PUSH2 0x30D2 JUMP JUMPDEST PUSH0 PUSH20 0xFFFFFFFFFFFFFFFFFFFFFFFFFFFFFFFFFFFFFFFF AND DUP2 PUSH20 0xFFFFFFFFFFFFFFFFFFFFFFFFFFFFFFFFFFFFFFFF AND EQ DUP1 PUSH2 0x21A3 JUMPI POP PUSH1 0x1 PUSH20 0xFFFFFFFFFFFFFFFFFFFFFFFFFFFFFFFFFFFFFFFF AND DUP2 PUSH20 0xFFFFFFFFFFFFFFFFFFFFFFFFFFFFFFFFFFFFFFFF AND EQ JUMPDEST ISZERO PUSH2 0x21D2 JUMPI PUSH2 0x21D1 PUSH32 0x4753313031000000000000000000000000000000000000000000000000000000 PUSH2 0x3131 JUMP JUMPDEST JUMPDEST DUP1 PUSH20 0xFFFFFFFFFFFFFFFFFFFFFFFFFFFFFFFFFFFFFFFF AND PUSH1 0x1 PUSH0 DUP5 PUSH20 0xFFFFFFFFFFFFFFFFFFFFFFFFFFFFFFFFFFFFFFFF AND PUSH20 0xFFFFFFFFFFFFFFFFFFFFFFFFFFFFFFFFFFFFFFFF AND DUP2 MSTORE PUSH1 0x20 ADD SWAP1 DUP2 MSTORE PUSH1 0x20 ADD PUSH0 KECCAK256 PUSH0 SWAP1 SLOAD SWAP1 PUSH2 0x100 EXP SWAP1 DIV PUSH20 0xFFFFFFFFFFFFFFFFFFFFFFFFFFFFFFFFFFFFFFFF AND PUSH20 0xFFFFFFFFFFFFFFFFFFFFFFFFFFFFFFFFFFFFFFFF AND EQ PUSH2 0x228B JUMPI PUSH2 0x228A PUSH32 0x4753313033000000000000000000000000000000000000000000000000000000 PUSH2 0x3131 JUMP JUMPDEST JUMPDEST PUSH1 0x1 PUSH0 DUP3 PUSH20 0xFFFFFFFFFFFFFFFFFFFFFFFFFFFFFFFFFFFFFFFF AND PUSH20 0xFFFFFFFFFFFFFFFFFFFFFFFFFFFFFFFFFFFFFFFF AND DUP2 MSTORE PUSH1 0x20 ADD SWAP1 DUP2 MSTORE PUSH1 0x20 ADD PUSH0 KECCAK256 PUSH0 SWAP1 SLOAD SWAP1 PUSH2 0x100 EXP SWAP1 DIV PUSH20 0xFFFFFFFFFFFFFFFFFFFFFFFFFFFFFFFFFFFFFFFF AND PUSH1 0x1 PUSH0 DUP5 PUSH20 0xFFFFFFFFFFFFFFFFFFFFFFFFFFFFFFFFFFFFFFFF AND PUSH20 0xFFFFFFFFFFFFFFFFFFFFFFFFFFFFFFFFFFFFFFFF AND DUP2 MSTORE PUSH1 0x20 ADD SWAP1 DUP2 MSTORE PUSH1 0x20 ADD PUSH0 KECCAK256 PUSH0 PUSH2 0x100 EXP DUP2 SLOAD DUP2 PUSH20 0xFFFFFFFFFFFFFFFFFFFFFFFFFFFFFFFFFFFFFFFF MUL NOT AND SWAP1 DUP4 PUSH20 0xFFFFFFFFFFFFFFFFFFFFFFFFFFFFFFFFFFFFFFFF AND MUL OR SWAP1 SSTORE POP PUSH0 PUSH1 0x1 PUSH0 DUP4 PUSH20 0xFFFFFFFFFFFFFFFFFFFFFFFFFFFFFFFFFFFFFFFF AND PUSH20 0xFFFFFFFFFFFFFFFFFFFFFFFFFFFFFFFFFFFFFFFF AND DUP2 MSTORE PUSH1 0x20 ADD SWAP1 DUP2 MSTORE PUSH1 0x20 ADD PUSH0 KECCAK256 PUSH0 PUSH2 0x100 EXP DUP2 SLOAD DUP2 PUSH20 0xFFFFFFFFFFFFFFFFFFFFFFFFFFFFFFFFFFFFFFFF MUL NOT AND SWAP1 DUP4 PUSH20 0xFFFFFFFFFFFFFFFFFFFFFFFFFFFFFFFFFFFFFFFF AND MUL OR SWAP1 SSTORE POP DUP1 PUSH20 0xFFFFFFFFFFFFFFFFFFFFFFFFFFFFFFFFFFFFFFFF AND PUSH32 0xAAB4FA2B463F581B2B32CB3B7E3B704B9CE37CC209B5FB4D77E593ACE4054276 PUSH1 0x40 MLOAD PUSH1 0x40 MLOAD DUP1 SWAP2 SUB SWAP1 LOG2 POP POP JUMP JUMPDEST PUSH2 0x242C PUSH2 0x30D2 JUMP JUMPDEST PUSH0 PUSH20 0xFFFFFFFFFFFFFFFFFFFFFFFFFFFFFFFFFFFFFFFF AND DUP2 PUSH20 0xFFFFFFFFFFFFFFFFFFFFFFFFFFFFFFFFFFFFFFFF AND EQ ISZERO DUP1 ISZERO PUSH2 0x24FD JUMPI POP DUP1 PUSH20 0xFFFFFFFFFFFFFFFFFFFFFFFFFFFFFFFFFFFFFFFF AND PUSH4 0x1FFC9A7 PUSH32 0x58401ED800000000000000000000000000000000000000000000000000000000 PUSH1 0x40 MLOAD DUP3 PUSH4 0xFFFFFFFF AND PUSH1 0xE0 SHL DUP2 MSTORE PUSH1 0x4 ADD PUSH2 0x24BC SWAP2 SWAP1 PUSH2 0x53FF JUMP JUMPDEST PUSH1 0x20 PUSH1 0x40 MLOAD DUP1 DUP4 SUB DUP2 DUP7 GAS STATICCALL ISZERO DUP1 ISZERO PUSH2 0x24D7 JUMPI RETURNDATASIZE PUSH0 DUP1 RETURNDATACOPY RETURNDATASIZE PUSH0 REVERT JUMPDEST POP POP POP POP PUSH1 0x40 MLOAD RETURNDATASIZE PUSH1 0x1F NOT PUSH1 0x1F DUP3 ADD AND DUP3 ADD DUP1 PUSH1 0x40 MSTORE POP DUP2 ADD SWAP1 PUSH2 0x24FB SWAP2 SWAP1 PUSH2 0x5442 JUMP JUMPDEST ISZERO JUMPDEST ISZERO PUSH2 0x252C JUMPI PUSH2 0x252B PUSH32 0x4753333031000000000000000000000000000000000000000000000000000000 PUSH2 0x3131 JUMP JUMPDEST JUMPDEST PUSH0 PUSH32 0xB104E0B93118902C651344349B610029D694CFDEC91C589C91EBAFBCD0289947 PUSH0 SHL SWAP1 POP DUP2 DUP2 SSTORE DUP2 PUSH20 0xFFFFFFFFFFFFFFFFFFFFFFFFFFFFFFFFFFFFFFFF AND PUSH32 0xCD1966D6BE16BC0C030CC741A06C6E0EFAF8D00DE2C8B6A9E11827E125DE8BB8 PUSH1 0x40 MLOAD PUSH1 0x40 MLOAD DUP1 SWAP2 SUB SWAP1 LOG2 POP POP JUMP JUMPDEST PUSH2 0x25A4 PUSH2 0x30D2 JUMP JUMPDEST PUSH0 PUSH20 0xFFFFFFFFFFFFFFFFFFFFFFFFFFFFFFFFFFFFFFFF AND DUP2 PUSH20 0xFFFFFFFFFFFFFFFFFFFFFFFFFFFFFFFFFFFFFFFF AND EQ ISZERO DUP1 ISZERO PUSH2 0x2675 JUMPI POP DUP1 PUSH20 0xFFFFFFFFFFFFFFFFFFFFFFFFFFFFFFFFFFFFFFFF AND PUSH4 0x1FFC9A7 PUSH32 0xE6D7A83A00000000000000000000000000000000000000000000000000000000 PUSH1 0x40 MLOAD DUP3 PUSH4 0xFFFFFFFF AND PUSH1 0xE0 SHL DUP2 MSTORE PUSH1 0x4 ADD PUSH2 0x2634 SWAP2 SWAP1 PUSH2 0x53FF JUMP JUMPDEST PUSH1 0x20 PUSH1 0x40 MLOAD DUP1 DUP4 SUB DUP2 DUP7 GAS STATICCALL ISZERO DUP1 ISZERO PUSH2 0x264F JUMPI RETURNDATASIZE PUSH0 DUP1 RETURNDATACOPY RETURNDATASIZE PUSH0 REVERT JUMPDEST POP POP POP POP PUSH1 0x40 MLOAD RETURNDATASIZE PUSH1 0x1F NOT PUSH1 0x1F DUP3 ADD AND DUP3 ADD DUP1 PUSH1 0x40 MSTORE POP DUP2 ADD SWAP1 PUSH2 0x2673 SWAP2 SWAP1 PUSH2 0x5442 JUMP JUMPDEST ISZERO JUMPDEST ISZERO PUSH2 0x26A4 JUMPI PUSH2 0x26A3 PUSH32 0x4753333030000000000000000000000000000000000000000000000000000000 PUSH2 0x3131 JUMP JUMPDEST JUMPDEST DUP1 PUSH32 0x4A204F620C8C5CCDCA3FD54D003BADD85BA500436A431F0CBDA4F558C93C34C8 SSTORE DUP1 PUSH20 0xFFFFFFFFFFFFFFFFFFFFFFFFFFFFFFFFFFFFFFFF AND PUSH32 0x1151116914515BC0891FF9047A6CB32CF902546F83066499BCF8BA33D2353FA2 PUSH1 0x40 MLOAD PUSH1 0x40 MLOAD DUP1 SWAP2 SUB SWAP1 LOG2 POP JUMP JUMPDEST PUSH2 0x2715 PUSH2 0x30D2 JUMP JUMPDEST PUSH0 PUSH20 0xFFFFFFFFFFFFFFFFFFFFFFFFFFFFFFFFFFFFFFFF AND DUP2 PUSH20 0xFFFFFFFFFFFFFFFFFFFFFFFFFFFFFFFFFFFFFFFF AND EQ DUP1 PUSH2 0x277B JUMPI POP PUSH1 0x1 PUSH20 0xFFFFFFFFFFFFFFFFFFFFFFFFFFFFFFFFFFFFFFFF AND DUP2 PUSH20 0xFFFFFFFFFFFFFFFFFFFFFFFFFFFFFFFFFFFFFFFF AND EQ JUMPDEST DUP1 PUSH2 0x27B1 JUMPI POP ADDRESS PUSH20 0xFFFFFFFFFFFFFFFFFFFFFFFFFFFFFFFFFFFFFFFF AND DUP2 PUSH20 0xFFFFFFFFFFFFFFFFFFFFFFFFFFFFFFFFFFFFFFFF AND EQ JUMPDEST ISZERO PUSH2 0x27E0 JUMPI PUSH2 0x27DF PUSH32 0x4753323033000000000000000000000000000000000000000000000000000000 PUSH2 0x3131 JUMP JUMPDEST JUMPDEST PUSH0 PUSH20 0xFFFFFFFFFFFFFFFFFFFFFFFFFFFFFFFFFFFFFFFF AND PUSH1 0x2 PUSH0 DUP4 PUSH20 0xFFFFFFFFFFFFFFFFFFFFFFFFFFFFFFFFFFFFFFFF AND PUSH20 0xFFFFFFFFFFFFFFFFFFFFFFFFFFFFFFFFFFFFFFFF AND DUP2 MSTORE PUSH1 0x20 ADD SWAP1 DUP2 MSTORE PUSH1 0x20 ADD PUSH0 KECCAK256 PUSH0 SWAP1 SLOAD SWAP1 PUSH2 0x100 EXP SWAP1 DIV PUSH20 0xFFFFFFFFFFFFFFFFFFFFFFFFFFFFFFFFFFFFFFFF AND PUSH20 0xFFFFFFFFFFFFFFFFFFFFFFFFFFFFFFFFFFFFFFFF AND EQ PUSH2 0x2899 JUMPI PUSH2 0x2898 PUSH32 0x4753323034000000000000000000000000000000000000000000000000000000 PUSH2 0x3131 JUMP JUMPDEST JUMPDEST PUSH0 PUSH20 0xFFFFFFFFFFFFFFFFFFFFFFFFFFFFFFFFFFFFFFFF AND DUP3 PUSH20 0xFFFFFFFFFFFFFFFFFFFFFFFFFFFFFFFFFFFFFFFF AND EQ DUP1 PUSH2 0x28FF JUMPI POP PUSH1 0x1 PUSH20 0xFFFFFFFFFFFFFFFFFFFFFFFFFFFFFFFFFFFFFFFF AND DUP3 PUSH20 0xFFFFFFFFFFFFFFFFFFFFFFFFFFFFFFFFFFFFFFFF AND EQ JUMPDEST ISZERO PUSH2 0x292E JUMPI PUSH2 0x292D PUSH32 0x4753323033000000000000000000000000000000000000000000000000000000 PUSH2 0x3131 JUMP JUMPDEST JUMPDEST DUP2 PUSH20 0xFFFFFFFFFFFFFFFFFFFFFFFFFFFFFFFFFFFFFFFF AND PUSH1 0x2 PUSH0 DUP6 PUSH20 0xFFFFFFFFFFFFFFFFFFFFFFFFFFFFFFFFFFFFFFFF AND PUSH20 0xFFFFFFFFFFFFFFFFFFFFFFFFFFFFFFFFFFFFFFFF AND DUP2 MSTORE PUSH1 0x20 ADD SWAP1 DUP2 MSTORE PUSH1 0x20 ADD PUSH0 KECCAK256 PUSH0 SWAP1 SLOAD SWAP1 PUSH2 0x100 EXP SWAP1 DIV PUSH20 0xFFFFFFFFFFFFFFFFFFFFFFFFFFFFFFFFFFFFFFFF AND PUSH20 0xFFFFFFFFFFFFFFFFFFFFFFFFFFFFFFFFFFFFFFFF AND EQ PUSH2 0x29E7 JUMPI PUSH2 0x29E6 PUSH32 0x4753323035000000000000000000000000000000000000000000000000000000 PUSH2 0x3131 JUMP JUMPDEST JUMPDEST PUSH1 0x2 PUSH0 DUP4 PUSH20 0xFFFFFFFFFFFFFFFFFFFFFFFFFFFFFFFFFFFFFFFF AND PUSH20 0xFFFFFFFFFFFFFFFFFFFFFFFFFFFFFFFFFFFFFFFF AND DUP2 MSTORE PUSH1 0x20 ADD SWAP1 DUP2 MSTORE PUSH1 0x20 ADD PUSH0 KECCAK256 PUSH0 SWAP1 SLOAD SWAP1 PUSH2 0x100 EXP SWAP1 DIV PUSH20 0xFFFFFFFFFFFFFFFFFFFFFFFFFFFFFFFFFFFFFFFF AND PUSH1 0x2 PUSH0 DUP4 PUSH20 0xFFFFFFFFFFFFFFFFFFFFFFFFFFFFFFFFFFFFFFFF AND PUSH20 0xFFFFFFFFFFFFFFFFFFFFFFFFFFFFFFFFFFFFFFFF AND DUP2 MSTORE PUSH1 0x20 ADD SWAP1 DUP2 MSTORE PUSH1 0x20 ADD PUSH0 KECCAK256 PUSH0 PUSH2 0x100 EXP DUP2 SLOAD DUP2 PUSH20 0xFFFFFFFFFFFFFFFFFFFFFFFFFFFFFFFFFFFFFFFF MUL NOT AND SWAP1 DUP4 PUSH20 0xFFFFFFFFFFFFFFFFFFFFFFFFFFFFFFFFFFFFFFFF AND MUL OR SWAP1 SSTORE POP DUP1 PUSH1 0x2 PUSH0 DUP6 PUSH20 0xFFFFFFFFFFFFFFFFFFFFFFFFFFFFFFFFFFFFFFFF AND PUSH20 0xFFFFFFFFFFFFFFFFFFFFFFFFFFFFFFFFFFFFFFFF AND DUP2 MSTORE PUSH1 0x20 ADD SWAP1 DUP2 MSTORE PUSH1 0x20 ADD PUSH0 KECCAK256 PUSH0 PUSH2 0x100 EXP DUP2 SLOAD DUP2 PUSH20 0xFFFFFFFFFFFFFFFFFFFFFFFFFFFFFFFFFFFFFFFF MUL NOT AND SWAP1 DUP4 PUSH20 0xFFFFFFFFFFFFFFFFFFFFFFFFFFFFFFFFFFFFFFFF AND MUL OR SWAP1 SSTORE POP PUSH0 PUSH1 0x2 PUSH0 DUP5 PUSH20 0xFFFFFFFFFFFFFFFFFFFFFFFFFFFFFFFFFFFFFFFF AND PUSH20 0xFFFFFFFFFFFFFFFFFFFFFFFFFFFFFFFFFFFFFFFF AND DUP2 MSTORE PUSH1 0x20 ADD SWAP1 DUP2 MSTORE PUSH1 0x20 ADD PUSH0 KECCAK256 PUSH0 PUSH2 0x100 EXP DUP2 SLOAD DUP2 PUSH20 0xFFFFFFFFFFFFFFFFFFFFFFFFFFFFFFFFFFFFFFFF MUL NOT AND SWAP1 DUP4 PUSH20 0xFFFFFFFFFFFFFFFFFFFFFFFFFFFFFFFFFFFFFFFF AND MUL OR SWAP1 SSTORE POP DUP2 PUSH20 0xFFFFFFFFFFFFFFFFFFFFFFFFFFFFFFFFFFFFFFFF AND PUSH32 0xF8D49FC529812E9A7C5C50E69C20F0DCCC0DB8FA95C98BC58CC9A4F1C1299EAF PUSH1 0x40 MLOAD PUSH1 0x40 MLOAD DUP1 SWAP2 SUB SWAP1 LOG2 DUP1 PUSH20 0xFFFFFFFFFFFFFFFFFFFFFFFFFFFFFFFFFFFFFFFF AND PUSH32 0x9465FA0C962CC76958E6373A993326400C1C94F8BE2FE3A952ADFA7F60B2EA26 PUSH1 0x40 MLOAD PUSH1 0x40 MLOAD DUP1 SWAP2 SUB SWAP1 LOG2 POP POP POP JUMP JUMPDEST PUSH0 PUSH1 0x4 SLOAD SWAP1 POP SWAP1 JUMP JUMPDEST PUSH0 PUSH1 0x4 SLOAD SWAP1 POP PUSH0 DUP2 SUB PUSH2 0x2C7F JUMPI PUSH2 0x2C7E PUSH32 0x4753303031000000000000000000000000000000000000000000000000000000 PUSH2 0x3131 JUMP JUMPDEST JUMPDEST PUSH2 0x2C8B CALLER DUP5 DUP5 DUP5 PUSH2 0xB96 JUMP JUMPDEST POP POP POP JUMP JUMPDEST PUSH2 0x2C98 PUSH2 0x30D2 JUMP JUMPDEST PUSH2 0x2CA1 DUP2 PUSH2 0x3CAA JUMP JUMPDEST DUP1 PUSH20 0xFFFFFFFFFFFFFFFFFFFFFFFFFFFFFFFFFFFFFFFF AND PUSH32 0x5AC6C46C93C8D0E53714BA3B53DB3E7C046DA994313D7ED0D192028BC7C228B0 PUSH1 0x40 MLOAD PUSH1 0x40 MLOAD DUP1 SWAP2 SUB SWAP1 LOG2 POP JUMP JUMPDEST PUSH0 DUP1 CHAINID SWAP1 POP PUSH32 0x47E79534A245952E8B16893A336B85A3D9EA9FA8C573F3D803AFB92A79469218 PUSH0 SHL DUP2 ADDRESS PUSH1 0x40 MLOAD PUSH1 0x20 ADD PUSH2 0x2D23 SWAP4 SWAP3 SWAP2 SWAP1 PUSH2 0x54C8 JUMP JUMPDEST PUSH1 0x40 MLOAD PUSH1 0x20 DUP2 DUP4 SUB SUB DUP2 MSTORE SWAP1 PUSH1 0x40 MSTORE DUP1 MLOAD SWAP1 PUSH1 0x20 ADD KECCAK256 SWAP2 POP POP SWAP1 JUMP JUMPDEST PUSH2 0x2D47 PUSH2 0x30D2 JUMP JUMPDEST DUP1 PUSH1 0x1 PUSH1 0x3 SLOAD PUSH2 0x2D57 SWAP2 SWAP1 PUSH2 0x4FD6 JUMP JUMPDEST LT ISZERO PUSH2 0x2D87 JUMPI PUSH2 0x2D86 PUSH32 0x4753323031000000000000000000000000000000000000000000000000000000 PUSH2 0x3131 JUMP JUMPDEST JUMPDEST PUSH0 PUSH20 0xFFFFFFFFFFFFFFFFFFFFFFFFFFFFFFFFFFFFFFFF AND DUP3 PUSH20 0xFFFFFFFFFFFFFFFFFFFFFFFFFFFFFFFFFFFFFFFF AND EQ DUP1 PUSH2 0x2DED JUMPI POP PUSH1 0x1 PUSH20 0xFFFFFFFFFFFFFFFFFFFFFFFFFFFFFFFFFFFFFFFF AND DUP3 PUSH20 0xFFFFFFFFFFFFFFFFFFFFFFFFFFFFFFFFFFFFFFFF AND EQ JUMPDEST ISZERO PUSH2 0x2E1C JUMPI PUSH2 0x2E1B PUSH32 0x4753323033000000000000000000000000000000000000000000000000000000 PUSH2 0x3131 JUMP JUMPDEST JUMPDEST DUP2 PUSH20 0xFFFFFFFFFFFFFFFFFFFFFFFFFFFFFFFFFFFFFFFF AND PUSH1 0x2 PUSH0 DUP6 PUSH20 0xFFFFFFFFFFFFFFFFFFFFFFFFFFFFFFFFFFFFFFFF AND PUSH20 0xFFFFFFFFFFFFFFFFFFFFFFFFFFFFFFFFFFFFFFFF AND DUP2 MSTORE PUSH1 0x20 ADD SWAP1 DUP2 MSTORE PUSH1 0x20 ADD PUSH0 KECCAK256 PUSH0 SWAP1 SLOAD SWAP1 PUSH2 0x100 EXP SWAP1 DIV PUSH20 0xFFFFFFFFFFFFFFFFFFFFFFFFFFFFFFFFFFFFFFFF AND PUSH20 0xFFFFFFFFFFFFFFFFFFFFFFFFFFFFFFFFFFFFFFFF AND EQ PUSH2 0x2ED5 JUMPI PUSH2 0x2ED4 PUSH32 0x4753323035000000000000000000000000000000000000000000000000000000 PUSH2 0x3131 JUMP JUMPDEST JUMPDEST PUSH1 0x2 PUSH0 DUP4 PUSH20 0xFFFFFFFFFFFFFFFFFFFFFFFFFFFFFFFFFFFFFFFF AND PUSH20 0xFFFFFFFFFFFFFFFFFFFFFFFFFFFFFFFFFFFFFFFF AND DUP2 MSTORE PUSH1 0x20 ADD SWAP1 DUP2 MSTORE PUSH1 0x20 ADD PUSH0 KECCAK256 PUSH0 SWAP1 SLOAD SWAP1 PUSH2 0x100 EXP SWAP1 DIV PUSH20 0xFFFFFFFFFFFFFFFFFFFFFFFFFFFFFFFFFFFFFFFF AND PUSH1 0x2 PUSH0 DUP6 PUSH20 0xFFFFFFFFFFFFFFFFFFFFFFFFFFFFFFFFFFFFFFFF AND PUSH20 0xFFFFFFFFFFFFFFFFFFFFFFFFFFFFFFFFFFFFFFFF AND DUP2 MSTORE PUSH1 0x20 ADD SWAP1 DUP2 MSTORE PUSH1 0x20 ADD PUSH0 KECCAK256 PUSH0 PUSH2 0x100 EXP DUP2 SLOAD DUP2 PUSH20 0xFFFFFFFFFFFFFFFFFFFFFFFFFFFFFFFFFFFFFFFF MUL NOT AND SWAP1 DUP4 PUSH20 0xFFFFFFFFFFFFFFFFFFFFFFFFFFFFFFFFFFFFFFFF AND MUL OR SWAP1 SSTORE POP PUSH0 PUSH1 0x2 PUSH0 DUP5 PUSH20 0xFFFFFFFFFFFFFFFFFFFFFFFFFFFFFFFFFFFFFFFF AND PUSH20 0xFFFFFFFFFFFFFFFFFFFFFFFFFFFFFFFFFFFFFFFF AND DUP2 MSTORE PUSH1 0x20 ADD SWAP1 DUP2 MSTORE PUSH1 0x20 ADD PUSH0 KECCAK256 PUSH0 PUSH2 0x100 EXP DUP2 SLOAD DUP2 PUSH20 0xFFFFFFFFFFFFFFFFFFFFFFFFFFFFFFFFFFFFFFFF MUL NOT AND SWAP1 DUP4 PUSH20 0xFFFFFFFFFFFFFFFFFFFFFFFFFFFFFFFFFFFFFFFF AND MUL OR SWAP1 SSTORE POP PUSH1 0x3 PUSH0 DUP2 SLOAD DUP1 SWAP3 SWAP2 SWAP1 PUSH2 0x3039 SWAP1 PUSH2 0x54FD JUMP JUMPDEST SWAP2 SWAP1 POP SSTORE POP DUP2 PUSH20 0xFFFFFFFFFFFFFFFFFFFFFFFFFFFFFFFFFFFFFFFF AND PUSH32 0xF8D49FC529812E9A7C5C50E69C20F0DCCC0DB8FA95C98BC58CC9A4F1C1299EAF PUSH1 0x40 MLOAD PUSH1 0x40 MLOAD DUP1 SWAP2 SUB SWAP1 LOG2 DUP1 PUSH1 0x4 SLOAD EQ PUSH2 0x3094 JUMPI PUSH2 0x3093 DUP2 PUSH2 0x154E JUMP JUMPDEST JUMPDEST POP POP POP JUMP JUMPDEST PUSH1 0x40 MLOAD DUP1 PUSH1 0x40 ADD PUSH1 0x40 MSTORE DUP1 PUSH1 0x5 DUP2 MSTORE PUSH1 0x20 ADD PUSH32 0x312E342E31000000000000000000000000000000000000000000000000000000 DUP2 MSTORE POP DUP2 JUMP JUMPDEST ADDRESS PUSH20 0xFFFFFFFFFFFFFFFFFFFFFFFFFFFFFFFFFFFFFFFF AND CALLER PUSH20 0xFFFFFFFFFFFFFFFFFFFFFFFFFFFFFFFFFFFFFFFF AND EQ PUSH2 0x312F JUMPI PUSH2 0x312E PUSH32 0x4753303331000000000000000000000000000000000000000000000000000000 PUSH2 0x3131 JUMP JUMPDEST JUMPDEST JUMP JUMPDEST PUSH1 0x40 MLOAD PUSH32 0x8C379A000000000000000000000000000000000000000000000000000000000 DUP2 MSTORE PUSH1 0x20 PUSH1 0x4 DUP3 ADD MSTORE PUSH1 0x5 PUSH1 0x24 DUP3 ADD MSTORE DUP2 PUSH1 0x44 DUP3 ADD MSTORE PUSH1 0x64 DUP2 REVERT JUMPDEST PUSH0 DUP1 DUP4 SUB PUSH2 0x3180 JUMPI PUSH0 SWAP1 POP PUSH2 0x31AA JUMP JUMPDEST PUSH0 DUP3 DUP5 PUSH2 0x318D SWAP2 SWAP1 PUSH2 0x5067 JUMP JUMPDEST SWAP1 POP DUP3 DUP5 DUP3 PUSH2 0x319C SWAP2 SWAP1 PUSH2 0x526F JUMP JUMPDEST EQ PUSH2 0x31A5 JUMPI PUSH0 DUP1 REVERT JUMPDEST DUP1 SWAP2 POP POP JUMPDEST SWAP3 SWAP2 POP POP JUMP JUMPDEST PUSH0 DUP1 PUSH0 DUP4 PUSH1 0x41 MUL PUSH1 0x20 DUP2 ADD DUP7 ADD MLOAD SWAP3 POP PUSH1 0x40 DUP2 ADD DUP7 ADD MLOAD SWAP2 POP PUSH1 0x60 DUP2 ADD DUP7 ADD MLOAD PUSH0 BYTE SWAP4 POP POP SWAP3 POP SWAP3 POP SWAP3 JUMP JUMPDEST DUP2 MLOAD PUSH2 0x31F2 PUSH1 0x20 DUP4 PUSH2 0x3FEE SWAP1 SWAP2 SWAP1 PUSH4 0xFFFFFFFF AND JUMP JUMPDEST GT ISZERO PUSH2 0x3222 JUMPI PUSH2 0x3221 PUSH32 0x4753303232000000000000000000000000000000000000000000000000000000 PUSH2 0x3131 JUMP JUMPDEST JUMPDEST PUSH0 PUSH1 0x20 DUP3 DUP5 ADD ADD MLOAD SWAP1 POP DUP3 MLOAD PUSH2 0x3254 DUP3 PUSH2 0x3246 PUSH1 0x20 DUP7 PUSH2 0x3FEE SWAP1 SWAP2 SWAP1 PUSH4 0xFFFFFFFF AND JUMP JUMPDEST PUSH2 0x3FEE SWAP1 SWAP2 SWAP1 PUSH4 0xFFFFFFFF AND JUMP JUMPDEST GT ISZERO PUSH2 0x3284 JUMPI PUSH2 0x3283 PUSH32 0x4753303233000000000000000000000000000000000000000000000000000000 PUSH2 0x3131 JUMP JUMPDEST JUMPDEST PUSH1 0x60 PUSH1 0x20 DUP4 DUP6 ADD ADD SWAP1 POP PUSH4 0x1626BA7E PUSH1 0xE0 SHL PUSH28 0xFFFFFFFFFFFFFFFFFFFFFFFFFFFFFFFFFFFFFFFFFFFFFFFFFFFFFFFF NOT AND DUP7 PUSH20 0xFFFFFFFFFFFFFFFFFFFFFFFFFFFFFFFFFFFFFFFF AND PUSH4 0x1626BA7E DUP8 DUP5 PUSH1 0x40 MLOAD DUP4 PUSH4 0xFFFFFFFF AND PUSH1 0xE0 SHL DUP2 MSTORE PUSH1 0x4 ADD PUSH2 0x32F0 SWAP3 SWAP2 SWAP1 PUSH2 0x5524 JUMP JUMPDEST PUSH1 0x20 PUSH1 0x40 MLOAD DUP1 DUP4 SUB DUP2 DUP7 GAS STATICCALL ISZERO DUP1 ISZERO PUSH2 0x330B JUMPI RETURNDATASIZE PUSH0 DUP1 RETURNDATACOPY RETURNDATASIZE PUSH0 REVERT JUMPDEST POP POP POP POP PUSH1 0x40 MLOAD RETURNDATASIZE PUSH1 0x1F NOT PUSH1 0x1F DUP3 ADD AND DUP3 ADD DUP1 PUSH1 0x40 MSTORE POP DUP2 ADD SWAP1 PUSH2 0x332F SWAP2 SWAP1 PUSH2 0x557C JUMP JUMPDEST PUSH28 0xFFFFFFFFFFFFFFFFFFFFFFFFFFFFFFFFFFFFFFFFFFFFFFFFFFFFFFFF NOT AND EQ PUSH2 0x337D JUMPI PUSH2 0x337C PUSH32 0x4753303234000000000000000000000000000000000000000000000000000000 PUSH2 0x3131 JUMP JUMPDEST JUMPDEST POP POP POP POP POP POP JUMP JUMPDEST PUSH0 DUP1 PUSH2 0x3393 DUP7 DUP7 DUP7 DUP7 PUSH2 0x4014 JUMP JUMPDEST PUSH2 0x339B PUSH2 0x401A JUMP JUMPDEST SWAP2 POP PUSH1 0x1 PUSH20 0xFFFFFFFFFFFFFFFFFFFFFFFFFFFFFFFFFFFFFFFF AND CALLER PUSH20 0xFFFFFFFFFFFFFFFFFFFFFFFFFFFFFFFFFFFFFFFF AND EQ ISZERO DUP1 ISZERO PUSH2 0x3462 JUMPI POP PUSH0 PUSH20 0xFFFFFFFFFFFFFFFFFFFFFFFFFFFFFFFFFFFFFFFF AND PUSH1 0x1 PUSH0 CALLER PUSH20 0xFFFFFFFFFFFFFFFFFFFFFFFFFFFFFFFFFFFFFFFF AND PUSH20 0xFFFFFFFFFFFFFFFFFFFFFFFFFFFFFFFFFFFFFFFF AND DUP2 MSTORE PUSH1 0x20 ADD SWAP1 DUP2 MSTORE PUSH1 0x20 ADD PUSH0 KECCAK256 PUSH0 SWAP1 SLOAD SWAP1 PUSH2 0x100 EXP SWAP1 DIV PUSH20 0xFFFFFFFFFFFFFFFFFFFFFFFFFFFFFFFFFFFFFFFF AND PUSH20 0xFFFFFFFFFFFFFFFFFFFFFFFFFFFFFFFFFFFFFFFF AND EQ ISZERO JUMPDEST PUSH2 0x34A1 JUMPI PUSH1 0x40 MLOAD PUSH32 0x8C379A000000000000000000000000000000000000000000000000000000000 DUP2 MSTORE PUSH1 0x4 ADD PUSH2 0x3498 SWAP1 PUSH2 0x55F1 JUMP JUMPDEST PUSH1 0x40 MLOAD DUP1 SWAP2 SUB SWAP1 REVERT JUMPDEST PUSH0 PUSH20 0xFFFFFFFFFFFFFFFFFFFFFFFFFFFFFFFFFFFFFFFF AND DUP3 PUSH20 0xFFFFFFFFFFFFFFFFFFFFFFFFFFFFFFFFFFFFFFFF AND EQ PUSH2 0x3558 JUMPI DUP2 PUSH20 0xFFFFFFFFFFFFFFFFFFFFFFFFFFFFFFFFFFFFFFFF AND PUSH4 0x728C2972 DUP8 DUP8 DUP8 DUP8 CALLER PUSH1 0x40 MLOAD DUP7 PUSH4 0xFFFFFFFF AND PUSH1 0xE0 SHL DUP2 MSTORE PUSH1 0x4 ADD PUSH2 0x3515 SWAP6 SWAP5 SWAP4 SWAP3 SWAP2 SWAP1 PUSH2 0x560F JUMP JUMPDEST PUSH1 0x20 PUSH1 0x40 MLOAD DUP1 DUP4 SUB DUP2 PUSH0 DUP8 GAS CALL ISZERO DUP1 ISZERO PUSH2 0x3531 JUMPI RETURNDATASIZE PUSH0 DUP1 RETURNDATACOPY RETURNDATASIZE PUSH0 REVERT JUMPDEST POP POP POP POP PUSH1 0x40 MLOAD RETURNDATASIZE PUSH1 0x1F NOT PUSH1 0x1F DUP3 ADD AND DUP3 ADD DUP1 PUSH1 0x40 MSTORE POP DUP2 ADD SWAP1 PUSH2 0x3555 SWAP2 SWAP1 PUSH2 0x567B JUMP JUMPDEST SWAP1 POP JUMPDEST SWAP5 POP SWAP5 SWAP3 POP POP POP JUMP JUMPDEST PUSH0 PUSH1 0x1 DUP1 DUP2 GT ISZERO PUSH2 0x3575 JUMPI PUSH2 0x3574 PUSH2 0x50D4 JUMP JUMPDEST JUMPDEST DUP4 PUSH1 0x1 DUP2 GT ISZERO PUSH2 0x3588 JUMPI PUSH2 0x3587 PUSH2 0x50D4 JUMP JUMPDEST JUMPDEST SUB PUSH2 0x359F JUMPI PUSH0 DUP1 DUP6 MLOAD PUSH1 0x20 DUP8 ADD DUP10 DUP7 DELEGATECALL SWAP1 POP PUSH2 0x35AE JUMP JUMPDEST PUSH0 DUP1 DUP6 MLOAD PUSH1 0x20 DUP8 ADD DUP9 DUP11 DUP8 CALL SWAP1 POP JUMPDEST SWAP6 SWAP5 POP POP POP POP POP JUMP JUMPDEST PUSH0 PUSH20 0xFFFFFFFFFFFFFFFFFFFFFFFFFFFFFFFFFFFFFFFF AND DUP4 PUSH20 0xFFFFFFFFFFFFFFFFFFFFFFFFFFFFFFFFFFFFFFFF AND EQ PUSH2 0x3653 JUMPI DUP3 PUSH20 0xFFFFFFFFFFFFFFFFFFFFFFFFFFFFFFFFFFFFFFFF AND PUSH4 0x2ACC37AA DUP4 DUP4 PUSH1 0x40 MLOAD DUP4 PUSH4 0xFFFFFFFF AND PUSH1 0xE0 SHL DUP2 MSTORE PUSH1 0x4 ADD PUSH2 0x3625 SWAP3 SWAP2 SWAP1 PUSH2 0x529F JUMP JUMPDEST PUSH0 PUSH1 0x40 MLOAD DUP1 DUP4 SUB DUP2 PUSH0 DUP8 DUP1 EXTCODESIZE ISZERO DUP1 ISZERO PUSH2 0x363C JUMPI PUSH0 DUP1 REVERT JUMPDEST POP GAS CALL ISZERO DUP1 ISZERO PUSH2 0x364E JUMPI RETURNDATASIZE PUSH0 DUP1 RETURNDATACOPY RETURNDATASIZE PUSH0 REVERT JUMPDEST POP POP POP POP JUMPDEST DUP1 ISZERO PUSH2 0x36A1 JUMPI CALLER PUSH20 0xFFFFFFFFFFFFFFFFFFFFFFFFFFFFFFFFFFFFFFFF AND PUSH32 0x6895C13664AA4F67288B25D7A21D7AAA34916E355FB9B6FAE0A139A9085BECB8 PUSH1 0x40 MLOAD PUSH1 0x40 MLOAD DUP1 SWAP2 SUB SWAP1 LOG2 PUSH2 0x36E5 JUMP JUMPDEST CALLER PUSH20 0xFFFFFFFFFFFFFFFFFFFFFFFFFFFFFFFFFFFFFFFF AND PUSH32 0xACD2C8702804128FDB0DB2BB49F6D127DD0181C13FD45DBFE16DE0930E2BD375 PUSH1 0x40 MLOAD PUSH1 0x40 MLOAD DUP1 SWAP2 SUB SWAP1 LOG2 JUMPDEST POP POP POP JUMP JUMPDEST POP POP POP POP POP POP POP POP POP POP POP JUMP JUMPDEST PUSH0 PUSH32 0x4A204F620C8C5CCDCA3FD54D003BADD85BA500436A431F0CBDA4F558C93C34C8 SLOAD SWAP1 POP SWAP1 JUMP JUMPDEST PUSH0 DUP2 DUP4 LT ISZERO PUSH2 0x372E JUMPI DUP2 PUSH2 0x3730 JUMP JUMPDEST DUP3 JUMPDEST SWAP1 POP SWAP3 SWAP2 POP POP JUMP JUMPDEST PUSH0 DUP3 DUP3 GT ISZERO PUSH2 0x3745 JUMPI PUSH0 DUP1 REVERT JUMPDEST PUSH0 DUP3 DUP5 PUSH2 0x3752 SWAP2 SWAP1 PUSH2 0x4FD6 JUMP JUMPDEST SWAP1 POP DUP1 SWAP2 POP POP SWAP3 SWAP2 POP POP JUMP JUMPDEST PUSH0 DUP1 PUSH0 PUSH20 0xFFFFFFFFFFFFFFFFFFFFFFFFFFFFFFFFFFFFFFFF AND DUP4 PUSH20 0xFFFFFFFFFFFFFFFFFFFFFFFFFFFFFFFFFFFFFFFF AND EQ PUSH2 0x3799 JUMPI DUP3 PUSH2 0x379B JUMP JUMPDEST ORIGIN JUMPDEST SWAP1 POP PUSH0 PUSH20 0xFFFFFFFFFFFFFFFFFFFFFFFFFFFFFFFFFFFFFFFF AND DUP5 PUSH20 0xFFFFFFFFFFFFFFFFFFFFFFFFFFFFFFFFFFFFFFFF AND SUB PUSH2 0x38A2 JUMPI PUSH2 0x3803 GASPRICE DUP7 LT PUSH2 0x37E0 JUMPI GASPRICE PUSH2 0x37E2 JUMP JUMPDEST DUP6 JUMPDEST PUSH2 0x37F5 DUP9 DUP11 PUSH2 0x3FEE SWAP1 SWAP2 SWAP1 PUSH4 0xFFFFFFFF AND JUMP JUMPDEST PUSH2 0x3170 SWAP1 SWAP2 SWAP1 PUSH4 0xFFFFFFFF AND JUMP JUMPDEST SWAP2 POP PUSH0 DUP2 PUSH20 0xFFFFFFFFFFFFFFFFFFFFFFFFFFFFFFFFFFFFFFFF AND DUP4 PUSH1 0x40 MLOAD PUSH2 0x382A SWAP1 PUSH2 0x56D3 JUMP JUMPDEST PUSH0 PUSH1 0x40 MLOAD DUP1 DUP4 SUB DUP2 DUP6 DUP8 GAS CALL SWAP3 POP POP POP RETURNDATASIZE DUP1 PUSH0 DUP2 EQ PUSH2 0x3864 JUMPI PUSH1 0x40 MLOAD SWAP2 POP PUSH1 0x1F NOT PUSH1 0x3F RETURNDATASIZE ADD AND DUP3 ADD PUSH1 0x40 MSTORE RETURNDATASIZE DUP3 MSTORE RETURNDATASIZE PUSH0 PUSH1 0x20 DUP5 ADD RETURNDATACOPY PUSH2 0x3869 JUMP JUMPDEST PUSH1 0x60 SWAP2 POP JUMPDEST POP POP SWAP1 POP DUP1 PUSH2 0x389C JUMPI PUSH2 0x389B PUSH32 0x4753303131000000000000000000000000000000000000000000000000000000 PUSH2 0x3131 JUMP JUMPDEST JUMPDEST POP PUSH2 0x3903 JUMP JUMPDEST PUSH2 0x38C7 DUP6 PUSH2 0x38B9 DUP9 DUP11 PUSH2 0x3FEE SWAP1 SWAP2 SWAP1 PUSH4 0xFFFFFFFF AND JUMP JUMPDEST PUSH2 0x3170 SWAP1 SWAP2 SWAP1 PUSH4 0xFFFFFFFF AND JUMP JUMPDEST SWAP2 POP PUSH2 0x38D4 DUP5 DUP3 DUP5 PUSH2 0x4049 JUMP JUMPDEST PUSH2 0x3902 JUMPI PUSH2 0x3901 PUSH32 0x4753303132000000000000000000000000000000000000000000000000000000 PUSH2 0x3131 JUMP JUMPDEST JUMPDEST JUMPDEST POP SWAP6 SWAP5 POP POP POP POP POP JUMP JUMPDEST PUSH0 PUSH1 0x4 SLOAD GT ISZERO PUSH2 0x3941 JUMPI PUSH2 0x3940 PUSH32 0x4753323030000000000000000000000000000000000000000000000000000000 PUSH2 0x3131 JUMP JUMPDEST JUMPDEST DUP2 MLOAD DUP2 GT ISZERO PUSH2 0x3974 JUMPI PUSH2 0x3973 PUSH32 0x4753323031000000000000000000000000000000000000000000000000000000 PUSH2 0x3131 JUMP JUMPDEST JUMPDEST PUSH0 DUP2 SUB PUSH2 0x39A5 JUMPI PUSH2 0x39A4 PUSH32 0x4753323032000000000000000000000000000000000000000000000000000000 PUSH2 0x3131 JUMP JUMPDEST JUMPDEST PUSH0 PUSH1 0x1 SWAP1 POP PUSH0 JUMPDEST DUP4 MLOAD DUP2 LT ISZERO PUSH2 0x3C19 JUMPI PUSH0 DUP5 DUP3 DUP2 MLOAD DUP2 LT PUSH2 0x39C9 JUMPI PUSH2 0x39C8 PUSH2 0x52C6 JUMP JUMPDEST JUMPDEST PUSH1 0x20 MUL PUSH1 0x20 ADD ADD MLOAD SWAP1 POP PUSH0 PUSH20 0xFFFFFFFFFFFFFFFFFFFFFFFFFFFFFFFFFFFFFFFF AND DUP2 PUSH20 0xFFFFFFFFFFFFFFFFFFFFFFFFFFFFFFFFFFFFFFFF AND EQ DUP1 PUSH2 0x3A39 JUMPI POP PUSH1 0x1 PUSH20 0xFFFFFFFFFFFFFFFFFFFFFFFFFFFFFFFFFFFFFFFF AND DUP2 PUSH20 0xFFFFFFFFFFFFFFFFFFFFFFFFFFFFFFFFFFFFFFFF AND EQ JUMPDEST DUP1 PUSH2 0x3A6F JUMPI POP ADDRESS PUSH20 0xFFFFFFFFFFFFFFFFFFFFFFFFFFFFFFFFFFFFFFFF AND DUP2 PUSH20 0xFFFFFFFFFFFFFFFFFFFFFFFFFFFFFFFFFFFFFFFF AND EQ JUMPDEST DUP1 PUSH2 0x3AA5 JUMPI POP DUP1 PUSH20 0xFFFFFFFFFFFFFFFFFFFFFFFFFFFFFFFFFFFFFFFF AND DUP4 PUSH20 0xFFFFFFFFFFFFFFFFFFFFFFFFFFFFFFFFFFFFFFFF AND EQ JUMPDEST ISZERO PUSH2 0x3AD4 JUMPI PUSH2 0x3AD3 PUSH32 0x4753323033000000000000000000000000000000000000000000000000000000 PUSH2 0x3131 JUMP JUMPDEST JUMPDEST PUSH0 PUSH20 0xFFFFFFFFFFFFFFFFFFFFFFFFFFFFFFFFFFFFFFFF AND PUSH1 0x2 PUSH0 DUP4 PUSH20 0xFFFFFFFFFFFFFFFFFFFFFFFFFFFFFFFFFFFFFFFF AND PUSH20 0xFFFFFFFFFFFFFFFFFFFFFFFFFFFFFFFFFFFFFFFF AND DUP2 MSTORE PUSH1 0x20 ADD SWAP1 DUP2 MSTORE PUSH1 0x20 ADD PUSH0 KECCAK256 PUSH0 SWAP1 SLOAD SWAP1 PUSH2 0x100 EXP SWAP1 DIV PUSH20 0xFFFFFFFFFFFFFFFFFFFFFFFFFFFFFFFFFFFFFFFF AND PUSH20 0xFFFFFFFFFFFFFFFFFFFFFFFFFFFFFFFFFFFFFFFF AND EQ PUSH2 0x3B8D JUMPI PUSH2 0x3B8C PUSH32 0x4753323034000000000000000000000000000000000000000000000000000000 PUSH2 0x3131 JUMP JUMPDEST JUMPDEST DUP1 PUSH1 0x2 PUSH0 DUP6 PUSH20 0xFFFFFFFFFFFFFFFFFFFFFFFFFFFFFFFFFFFFFFFF AND PUSH20 0xFFFFFFFFFFFFFFFFFFFFFFFFFFFFFFFFFFFFFFFF AND DUP2 MSTORE PUSH1 0x20 ADD SWAP1 DUP2 MSTORE PUSH1 0x20 ADD PUSH0 KECCAK256 PUSH0 PUSH2 0x100 EXP DUP2 SLOAD DUP2 PUSH20 0xFFFFFFFFFFFFFFFFFFFFFFFFFFFFFFFFFFFFFFFF MUL NOT AND SWAP1 DUP4 PUSH20 0xFFFFFFFFFFFFFFFFFFFFFFFFFFFFFFFFFFFFFFFF AND MUL OR SWAP1 SSTORE POP DUP1 SWAP3 POP POP DUP1 DUP1 PUSH1 0x1 ADD SWAP2 POP POP PUSH2 0x39AC JUMP JUMPDEST POP PUSH1 0x1 PUSH1 0x2 PUSH0 DUP4 PUSH20 0xFFFFFFFFFFFFFFFFFFFFFFFFFFFFFFFFFFFFFFFF AND PUSH20 0xFFFFFFFFFFFFFFFFFFFFFFFFFFFFFFFFFFFFFFFF AND DUP2 MSTORE PUSH1 0x20 ADD SWAP1 DUP2 MSTORE PUSH1 0x20 ADD PUSH0 KECCAK256 PUSH0 PUSH2 0x100 EXP DUP2 SLOAD DUP2 PUSH20 0xFFFFFFFFFFFFFFFFFFFFFFFFFFFFFFFFFFFFFFFF MUL NOT AND SWAP1 DUP4 PUSH20 0xFFFFFFFFFFFFFFFFFFFFFFFFFFFFFFFFFFFFFFFF AND MUL OR SWAP1 SSTORE POP DUP3 MLOAD PUSH1 0x3 DUP2 SWAP1 SSTORE POP DUP2 PUSH1 0x4 DUP2 SWAP1 SSTORE POP POP POP POP JUMP JUMPDEST ADDRESS PUSH20 0xFFFFFFFFFFFFFFFFFFFFFFFFFFFFFFFFFFFFFFFF AND DUP2 PUSH20 0xFFFFFFFFFFFFFFFFFFFFFFFFFFFFFFFFFFFFFFFF AND SUB PUSH2 0x3D07 JUMPI PUSH2 0x3D06 PUSH32 0x4753343030000000000000000000000000000000000000000000000000000000 PUSH2 0x3131 JUMP JUMPDEST JUMPDEST DUP1 PUSH32 0x6C9A6C4A39284E37ED1CF53D337577D14212A4870FB976A4366C693B939918D5 SSTORE POP JUMP JUMPDEST PUSH0 PUSH20 0xFFFFFFFFFFFFFFFFFFFFFFFFFFFFFFFFFFFFFFFF AND PUSH1 0x1 PUSH0 PUSH1 0x1 PUSH20 0xFFFFFFFFFFFFFFFFFFFFFFFFFFFFFFFFFFFFFFFF AND PUSH20 0xFFFFFFFFFFFFFFFFFFFFFFFFFFFFFFFFFFFFFFFF AND DUP2 MSTORE PUSH1 0x20 ADD SWAP1 DUP2 MSTORE PUSH1 0x20 ADD PUSH0 KECCAK256 PUSH0 SWAP1 SLOAD SWAP1 PUSH2 0x100 EXP SWAP1 DIV PUSH20 0xFFFFFFFFFFFFFFFFFFFFFFFFFFFFFFFFFFFFFFFF AND PUSH20 0xFFFFFFFFFFFFFFFFFFFFFFFFFFFFFFFFFFFFFFFF AND EQ PUSH2 0x3DE7 JUMPI PUSH2 0x3DE6 PUSH32 0x4753313030000000000000000000000000000000000000000000000000000000 PUSH2 0x3131 JUMP JUMPDEST JUMPDEST PUSH1 0x1 DUP1 PUSH0 PUSH1 0x1 PUSH20 0xFFFFFFFFFFFFFFFFFFFFFFFFFFFFFFFFFFFFFFFF AND PUSH20 0xFFFFFFFFFFFFFFFFFFFFFFFFFFFFFFFFFFFFFFFF AND DUP2 MSTORE PUSH1 0x20 ADD SWAP1 DUP2 MSTORE PUSH1 0x20 ADD PUSH0 KECCAK256 PUSH0 PUSH2 0x100 EXP DUP2 SLOAD DUP2 PUSH20 0xFFFFFFFFFFFFFFFFFFFFFFFFFFFFFFFFFFFFFFFF MUL NOT AND SWAP1 DUP4 PUSH20 0xFFFFFFFFFFFFFFFFFFFFFFFFFFFFFFFFFFFFFFFF AND MUL OR SWAP1 SSTORE POP PUSH0 PUSH20 0xFFFFFFFFFFFFFFFFFFFFFFFFFFFFFFFFFFFFFFFF AND DUP3 PUSH20 0xFFFFFFFFFFFFFFFFFFFFFFFFFFFFFFFFFFFFFFFF AND EQ PUSH2 0x3F2A JUMPI PUSH2 0x3E9F DUP3 PUSH2 0x40EB JUMP JUMPDEST PUSH2 0x3ECD JUMPI PUSH2 0x3ECC PUSH32 0x4753303032000000000000000000000000000000000000000000000000000000 PUSH2 0x3131 JUMP JUMPDEST JUMPDEST PUSH2 0x3EFB DUP3 PUSH0 DUP4 PUSH1 0x1 PUSH32 0xFFFFFFFFFFFFFFFFFFFFFFFFFFFFFFFFFFFFFFFFFFFFFFFFFFFFFFFFFFFFFFFF PUSH2 0x3561 JUMP JUMPDEST PUSH2 0x3F29 JUMPI PUSH2 0x3F28 PUSH32 0x4753303030000000000000000000000000000000000000000000000000000000 PUSH2 0x3131 JUMP JUMPDEST JUMPDEST JUMPDEST POP POP JUMP JUMPDEST PUSH1 0x60 PUSH0 PUSH32 0xBB8310D486368DB6BD6F849402FDD73AD53D316B5A4B2644AD6EFE0F941286D8 PUSH0 SHL DUP14 DUP14 DUP14 DUP14 PUSH1 0x40 MLOAD PUSH2 0x3F66 SWAP3 SWAP2 SWAP1 PUSH2 0x570B JUMP JUMPDEST PUSH1 0x40 MLOAD DUP1 SWAP2 SUB SWAP1 KECCAK256 DUP13 DUP13 DUP13 DUP13 DUP13 DUP13 DUP13 PUSH1 0x40 MLOAD PUSH1 0x20 ADD PUSH2 0x3F8F SWAP12 SWAP11 SWAP10 SWAP9 SWAP8 SWAP7 SWAP6 SWAP5 SWAP4 SWAP3 SWAP2 SWAP1 PUSH2 0x5723 JUMP JUMPDEST PUSH1 0x40 MLOAD PUSH1 0x20 DUP2 DUP4 SUB SUB DUP2 MSTORE SWAP1 PUSH1 0x40 MSTORE DUP1 MLOAD SWAP1 PUSH1 0x20 ADD KECCAK256 SWAP1 POP PUSH1 0x19 PUSH1 0xF8 SHL PUSH1 0x1 PUSH1 0xF8 SHL PUSH2 0x3FB9 PUSH2 0x2CE7 JUMP JUMPDEST DUP4 PUSH1 0x40 MLOAD PUSH1 0x20 ADD PUSH2 0x3FCD SWAP5 SWAP4 SWAP3 SWAP2 SWAP1 PUSH2 0x5817 JUMP JUMPDEST PUSH1 0x40 MLOAD PUSH1 0x20 DUP2 DUP4 SUB SUB DUP2 MSTORE SWAP1 PUSH1 0x40 MSTORE SWAP2 POP POP SWAP12 SWAP11 POP POP POP POP POP POP POP POP POP POP POP JUMP JUMPDEST PUSH0 DUP1 DUP3 DUP5 PUSH2 0x3FFC SWAP2 SWAP1 PUSH2 0x520F JUMP JUMPDEST SWAP1 POP DUP4 DUP2 LT ISZERO PUSH2 0x400A JUMPI PUSH0 DUP1 REVERT JUMPDEST DUP1 SWAP2 POP POP SWAP3 SWAP2 POP POP JUMP JUMPDEST POP POP POP POP JUMP JUMPDEST PUSH0 DUP1 PUSH32 0xB104E0B93118902C651344349B610029D694CFDEC91C589C91EBAFBCD0289947 PUSH0 SHL SWAP1 POP DUP1 SLOAD SWAP2 POP POP SWAP1 JUMP JUMPDEST PUSH0 DUP1 PUSH4 0xA9059CBB DUP5 DUP5 PUSH1 0x40 MLOAD PUSH1 0x24 ADD PUSH2 0x4063 SWAP3 SWAP2 SWAP1 PUSH2 0x5864 JUMP JUMPDEST PUSH1 0x40 MLOAD PUSH1 0x20 DUP2 DUP4 SUB SUB DUP2 MSTORE SWAP1 PUSH1 0x40 MSTORE SWAP1 PUSH1 0xE0 SHL PUSH1 0x20 DUP3 ADD DUP1 MLOAD PUSH28 0xFFFFFFFFFFFFFFFFFFFFFFFFFFFFFFFFFFFFFFFFFFFFFFFFFFFFFFFF DUP4 DUP2 DUP4 AND OR DUP4 MSTORE POP POP POP POP SWAP1 POP PUSH1 0x20 PUSH0 DUP3 MLOAD PUSH1 0x20 DUP5 ADD PUSH0 DUP10 PUSH2 0x2710 GAS SUB CALL RETURNDATASIZE PUSH0 DUP2 EQ PUSH2 0x40CF JUMPI PUSH1 0x20 DUP2 EQ PUSH2 0x40D7 JUMPI PUSH0 SWAP4 POP PUSH2 0x40E1 JUMP JUMPDEST DUP2 SWAP4 POP PUSH2 0x40E1 JUMP JUMPDEST PUSH0 MLOAD ISZERO DUP3 ISZERO OR ISZERO SWAP4 POP JUMPDEST POP POP POP SWAP4 SWAP3 POP POP POP JUMP JUMPDEST PUSH0 DUP1 DUP3 EXTCODESIZE SWAP1 POP PUSH0 DUP2 GT SWAP2 POP POP SWAP2 SWAP1 POP JUMP JUMPDEST PUSH0 DUP2 SWAP1 POP SWAP2 SWAP1 POP JUMP JUMPDEST PUSH2 0x410E DUP2 PUSH2 0x40FC JUMP JUMPDEST DUP3 MSTORE POP POP JUMP JUMPDEST PUSH0 PUSH1 0x20 DUP3 ADD SWAP1 POP PUSH2 0x4127 PUSH0 DUP4 ADD DUP5 PUSH2 0x4105 JUMP JUMPDEST SWAP3 SWAP2 POP POP JUMP JUMPDEST PUSH0 PUSH1 0x40 MLOAD SWAP1 POP SWAP1 JUMP JUMPDEST PUSH0 DUP1 REVERT JUMPDEST PUSH0 DUP1 REVERT JUMPDEST PUSH0 PUSH20 0xFFFFFFFFFFFFFFFFFFFFFFFFFFFFFFFFFFFFFFFF DUP3 AND SWAP1 POP SWAP2 SWAP1 POP JUMP JUMPDEST PUSH0 PUSH2 0x4167 DUP3 PUSH2 0x413E JUMP JUMPDEST SWAP1 POP SWAP2 SWAP1 POP JUMP JUMPDEST PUSH2 0x4177 DUP2 PUSH2 0x415D JUMP JUMPDEST DUP2 EQ PUSH2 0x4181 JUMPI PUSH0 DUP1 REVERT JUMPDEST POP JUMP JUMPDEST PUSH0 DUP2 CALLDATALOAD SWAP1 POP PUSH2 0x4192 DUP2 PUSH2 0x416E JUMP JUMPDEST SWAP3 SWAP2 POP POP JUMP JUMPDEST PUSH2 0x41A1 DUP2 PUSH2 0x40FC JUMP JUMPDEST DUP2 EQ PUSH2 0x41AB JUMPI PUSH0 DUP1 REVERT JUMPDEST POP JUMP JUMPDEST PUSH0 DUP2 CALLDATALOAD SWAP1 POP PUSH2 0x41BC DUP2 PUSH2 0x4198 JUMP JUMPDEST SWAP3 SWAP2 POP POP JUMP JUMPDEST PUSH0 DUP1 PUSH1 0x40 DUP4 DUP6 SUB SLT ISZERO PUSH2 0x41D8 JUMPI PUSH2 0x41D7 PUSH2 0x4136 JUMP JUMPDEST JUMPDEST PUSH0 PUSH2 0x41E5 DUP6 DUP3 DUP7 ADD PUSH2 0x4184 JUMP JUMPDEST SWAP3 POP POP PUSH1 0x20 PUSH2 0x41F6 DUP6 DUP3 DUP7 ADD PUSH2 0x41AE JUMP JUMPDEST SWAP2 POP POP SWAP3 POP SWAP3 SWAP1 POP JUMP JUMPDEST PUSH0 DUP2 SWAP1 POP SWAP2 SWAP1 POP JUMP JUMPDEST PUSH2 0x4212 DUP2 PUSH2 0x4200 JUMP JUMPDEST DUP2 EQ PUSH2 0x421C JUMPI PUSH0 DUP1 REVERT JUMPDEST POP JUMP JUMPDEST PUSH0 DUP2 CALLDATALOAD SWAP1 POP PUSH2 0x422D DUP2 PUSH2 0x4209 JUMP JUMPDEST SWAP3 SWAP2 POP POP JUMP JUMPDEST PUSH0 DUP1 REVERT JUMPDEST PUSH0 DUP1 REVERT JUMPDEST PUSH0 DUP1 REVERT JUMPDEST PUSH0 DUP1 DUP4 PUSH1 0x1F DUP5 ADD SLT PUSH2 0x4254 JUMPI PUSH2 0x4253 PUSH2 0x4233 JUMP JUMPDEST JUMPDEST DUP3 CALLDATALOAD SWAP1 POP PUSH8 0xFFFFFFFFFFFFFFFF DUP2 GT ISZERO PUSH2 0x4271 JUMPI PUSH2 0x4270 PUSH2 0x4237 JUMP JUMPDEST JUMPDEST PUSH1 0x20 DUP4 ADD SWAP2 POP DUP4 PUSH1 0x1 DUP3 MUL DUP4 ADD GT ISZERO PUSH2 0x428D JUMPI PUSH2 0x428C PUSH2 0x423B JUMP JUMPDEST JUMPDEST SWAP3 POP SWAP3 SWAP1 POP JUMP JUMPDEST PUSH0 DUP1 REVERT JUMPDEST PUSH0 PUSH1 0x1F NOT PUSH1 0x1F DUP4 ADD AND SWAP1 POP SWAP2 SWAP1 POP JUMP JUMPDEST PUSH32 0x4E487B7100000000000000000000000000000000000000000000000000000000 PUSH0 MSTORE PUSH1 0x41 PUSH1 0x4 MSTORE PUSH1 0x24 PUSH0 REVERT JUMPDEST PUSH2 0x42DE DUP3 PUSH2 0x4298 JUMP JUMPDEST DUP2 ADD DUP2 DUP2 LT PUSH8 0xFFFFFFFFFFFFFFFF DUP3 GT OR ISZERO PUSH2 0x42FD JUMPI PUSH2 0x42FC PUSH2 0x42A8 JUMP JUMPDEST JUMPDEST DUP1 PUSH1 0x40 MSTORE POP POP POP JUMP JUMPDEST PUSH0 PUSH2 0x430F PUSH2 0x412D JUMP JUMPDEST SWAP1 POP PUSH2 0x431B DUP3 DUP3 PUSH2 0x42D5 JUMP JUMPDEST SWAP2 SWAP1 POP JUMP JUMPDEST PUSH0 PUSH8 0xFFFFFFFFFFFFFFFF DUP3 GT ISZERO PUSH2 0x433A JUMPI PUSH2 0x4339 PUSH2 0x42A8 JUMP JUMPDEST JUMPDEST PUSH2 0x4343 DUP3 PUSH2 0x4298 JUMP JUMPDEST SWAP1 POP PUSH1 0x20 DUP2 ADD SWAP1 POP SWAP2 SWAP1 POP JUMP JUMPDEST DUP3 DUP2 DUP4 CALLDATACOPY PUSH0 DUP4 DUP4 ADD MSTORE POP POP POP JUMP JUMPDEST PUSH0 PUSH2 0x4370 PUSH2 0x436B DUP5 PUSH2 0x4320 JUMP JUMPDEST PUSH2 0x4306 JUMP JUMPDEST SWAP1 POP DUP3 DUP2 MSTORE PUSH1 0x20 DUP2 ADD DUP5 DUP5 DUP5 ADD GT ISZERO PUSH2 0x438C JUMPI PUSH2 0x438B PUSH2 0x4294 JUMP JUMPDEST JUMPDEST PUSH2 0x4397 DUP5 DUP3 DUP6 PUSH2 0x4350 JUMP JUMPDEST POP SWAP4 SWAP3 POP POP POP JUMP JUMPDEST PUSH0 DUP3 PUSH1 0x1F DUP4 ADD SLT PUSH2 0x43B3 JUMPI PUSH2 0x43B2 PUSH2 0x4233 JUMP JUMPDEST JUMPDEST DUP2 CALLDATALOAD PUSH2 0x43C3 DUP5 DUP3 PUSH1 0x20 DUP7 ADD PUSH2 0x435E JUMP JUMPDEST SWAP2 POP POP SWAP3 SWAP2 POP POP JUMP JUMPDEST PUSH0 DUP1 PUSH0 DUP1 PUSH0 PUSH1 0x80 DUP7 DUP9 SUB SLT ISZERO PUSH2 0x43E5 JUMPI PUSH2 0x43E4 PUSH2 0x4136 JUMP JUMPDEST JUMPDEST PUSH0 PUSH2 0x43F2 DUP9 DUP3 DUP10 ADD PUSH2 0x421F JUMP JUMPDEST SWAP6 POP POP PUSH1 0x20 DUP7 ADD CALLDATALOAD PUSH8 0xFFFFFFFFFFFFFFFF DUP2 GT ISZERO PUSH2 0x4413 JUMPI PUSH2 0x4412 PUSH2 0x413A JUMP JUMPDEST JUMPDEST PUSH2 0x441F DUP9 DUP3 DUP10 ADD PUSH2 0x423F JUMP JUMPDEST SWAP5 POP SWAP5 POP POP PUSH1 0x40 DUP7 ADD CALLDATALOAD PUSH8 0xFFFFFFFFFFFFFFFF DUP2 GT ISZERO PUSH2 0x4442 JUMPI PUSH2 0x4441 PUSH2 0x413A JUMP JUMPDEST JUMPDEST PUSH2 0x444E DUP9 DUP3 DUP10 ADD PUSH2 0x439F JUMP JUMPDEST SWAP3 POP POP PUSH1 0x60 PUSH2 0x445F DUP9 DUP3 DUP10 ADD PUSH2 0x41AE JUMP JUMPDEST SWAP2 POP POP SWAP3 SWAP6 POP SWAP3 SWAP6 SWAP1 SWAP4 POP JUMP JUMPDEST PUSH0 DUP1 PUSH0 DUP1 PUSH1 0x80 DUP6 DUP8 SUB SLT ISZERO PUSH2 0x4484 JUMPI PUSH2 0x4483 PUSH2 0x4136 JUMP JUMPDEST JUMPDEST PUSH0 PUSH2 0x4491 DUP8 DUP3 DUP9 ADD PUSH2 0x4184 JUMP JUMPDEST SWAP5 POP POP PUSH1 0x20 PUSH2 0x44A2 DUP8 DUP3 DUP9 ADD PUSH2 0x421F JUMP JUMPDEST SWAP4 POP POP PUSH1 0x40 DUP6 ADD CALLDATALOAD PUSH8 0xFFFFFFFFFFFFFFFF DUP2 GT ISZERO PUSH2 0x44C3 JUMPI PUSH2 0x44C2 PUSH2 0x413A JUMP JUMPDEST JUMPDEST PUSH2 0x44CF DUP8 DUP3 DUP9 ADD PUSH2 0x439F JUMP JUMPDEST SWAP3 POP POP PUSH1 0x60 PUSH2 0x44E0 DUP8 DUP3 DUP9 ADD PUSH2 0x41AE JUMP JUMPDEST SWAP2 POP POP SWAP3 SWAP6 SWAP2 SWAP5 POP SWAP3 POP JUMP JUMPDEST PUSH0 PUSH1 0x20 DUP3 DUP5 SUB SLT ISZERO PUSH2 0x4501 JUMPI PUSH2 0x4500 PUSH2 0x4136 JUMP JUMPDEST JUMPDEST PUSH0 PUSH2 0x450E DUP5 DUP3 DUP6 ADD PUSH2 0x4184 JUMP JUMPDEST SWAP2 POP POP SWAP3 SWAP2 POP POP JUMP JUMPDEST PUSH0 DUP2 ISZERO ISZERO SWAP1 POP SWAP2 SWAP1 POP JUMP JUMPDEST PUSH2 0x452B DUP2 PUSH2 0x4517 JUMP JUMPDEST DUP3 MSTORE POP POP JUMP JUMPDEST PUSH0 PUSH1 0x20 DUP3 ADD SWAP1 POP PUSH2 0x4544 PUSH0 DUP4 ADD DUP5 PUSH2 0x4522 JUMP JUMPDEST SWAP3 SWAP2 POP POP JUMP JUMPDEST PUSH1 0x2 DUP2 LT PUSH2 0x4556 JUMPI PUSH0 DUP1 REVERT JUMPDEST POP JUMP JUMPDEST PUSH0 DUP2 CALLDATALOAD SWAP1 POP PUSH2 0x4567 DUP2 PUSH2 0x454A JUMP JUMPDEST SWAP3 SWAP2 POP POP JUMP JUMPDEST PUSH0 DUP1 PUSH0 DUP1 PUSH1 0x80 DUP6 DUP8 SUB SLT ISZERO PUSH2 0x4585 JUMPI PUSH2 0x4584 PUSH2 0x4136 JUMP JUMPDEST JUMPDEST PUSH0 PUSH2 0x4592 DUP8 DUP3 DUP9 ADD PUSH2 0x4184 JUMP JUMPDEST SWAP5 POP POP PUSH1 0x20 PUSH2 0x45A3 DUP8 DUP3 DUP9 ADD PUSH2 0x41AE JUMP JUMPDEST SWAP4 POP POP PUSH1 0x40 DUP6 ADD CALLDATALOAD PUSH8 0xFFFFFFFFFFFFFFFF DUP2 GT ISZERO PUSH2 0x45C4 JUMPI PUSH2 0x45C3 PUSH2 0x413A JUMP JUMPDEST JUMPDEST PUSH2 0x45D0 DUP8 DUP3 DUP9 ADD PUSH2 0x439F JUMP JUMPDEST SWAP3 POP POP PUSH1 0x60 PUSH2 0x45E1 DUP8 DUP3 DUP9 ADD PUSH2 0x4559 JUMP JUMPDEST SWAP2 POP POP SWAP3 SWAP6 SWAP2 SWAP5 POP SWAP3 POP JUMP JUMPDEST PUSH0 DUP2 MLOAD SWAP1 POP SWAP2 SWAP1 POP JUMP JUMPDEST PUSH0 DUP3 DUP3 MSTORE PUSH1 0x20 DUP3 ADD SWAP1 POP SWAP3 SWAP2 POP POP JUMP JUMPDEST DUP3 DUP2 DUP4 MCOPY PUSH0 DUP4 DUP4 ADD MSTORE POP POP POP JUMP JUMPDEST PUSH0 PUSH2 0x461F DUP3 PUSH2 0x45ED JUMP JUMPDEST PUSH2 0x4629 DUP2 DUP6 PUSH2 0x45F7 JUMP JUMPDEST SWAP4 POP PUSH2 0x4639 DUP2 DUP6 PUSH1 0x20 DUP7 ADD PUSH2 0x4607 JUMP JUMPDEST PUSH2 0x4642 DUP2 PUSH2 0x4298 JUMP JUMPDEST DUP5 ADD SWAP2 POP POP SWAP3 SWAP2 POP POP JUMP JUMPDEST PUSH0 PUSH1 0x40 DUP3 ADD SWAP1 POP PUSH2 0x4660 PUSH0 DUP4 ADD DUP6 PUSH2 0x4522 JUMP JUMPDEST DUP2 DUP2 SUB PUSH1 0x20 DUP4 ADD MSTORE PUSH2 0x4672 DUP2 DUP5 PUSH2 0x4615 JUMP JUMPDEST SWAP1 POP SWAP4 SWAP3 POP POP POP JUMP JUMPDEST PUSH0 DUP1 PUSH1 0x40 DUP4 DUP6 SUB SLT ISZERO PUSH2 0x4691 JUMPI PUSH2 0x4690 PUSH2 0x4136 JUMP JUMPDEST JUMPDEST PUSH0 PUSH2 0x469E DUP6 DUP3 DUP7 ADD PUSH2 0x41AE JUMP JUMPDEST SWAP3 POP POP PUSH1 0x20 PUSH2 0x46AF DUP6 DUP3 DUP7 ADD PUSH2 0x41AE JUMP JUMPDEST SWAP2 POP POP SWAP3 POP SWAP3 SWAP1 POP JUMP JUMPDEST PUSH0 PUSH1 0x20 DUP3 ADD SWAP1 POP DUP2 DUP2 SUB PUSH0 DUP4 ADD MSTORE PUSH2 0x46D1 DUP2 DUP5 PUSH2 0x4615 JUMP JUMPDEST SWAP1 POP SWAP3 SWAP2 POP POP JUMP JUMPDEST PUSH0 PUSH1 0x20 DUP3 DUP5 SUB SLT ISZERO PUSH2 0x46EE JUMPI PUSH2 0x46ED PUSH2 0x4136 JUMP JUMPDEST JUMPDEST PUSH0 PUSH2 0x46FB DUP5 DUP3 DUP6 ADD PUSH2 0x421F JUMP JUMPDEST SWAP2 POP POP SWAP3 SWAP2 POP POP JUMP JUMPDEST PUSH0 PUSH1 0x20 DUP3 DUP5 SUB SLT ISZERO PUSH2 0x4719 JUMPI PUSH2 0x4718 PUSH2 0x4136 JUMP JUMPDEST JUMPDEST PUSH0 PUSH2 0x4726 DUP5 DUP3 DUP6 ADD PUSH2 0x41AE JUMP JUMPDEST SWAP2 POP POP SWAP3 SWAP2 POP POP JUMP JUMPDEST PUSH0 PUSH2 0x4739 DUP3 PUSH2 0x413E JUMP JUMPDEST SWAP1 POP SWAP2 SWAP1 POP JUMP JUMPDEST PUSH2 0x4749 DUP2 PUSH2 0x472F JUMP JUMPDEST DUP2 EQ PUSH2 0x4753 JUMPI PUSH0 DUP1 REVERT JUMPDEST POP JUMP JUMPDEST PUSH0 DUP2 CALLDATALOAD SWAP1 POP PUSH2 0x4764 DUP2 PUSH2 0x4740 JUMP JUMPDEST SWAP3 SWAP2 POP POP JUMP JUMPDEST PUSH0 DUP1 PUSH0 DUP1 PUSH0 DUP1 PUSH0 DUP1 PUSH0 DUP1 PUSH0 PUSH2 0x140 DUP13 DUP15 SUB SLT ISZERO PUSH2 0x478A JUMPI PUSH2 0x4789 PUSH2 0x4136 JUMP JUMPDEST JUMPDEST PUSH0 PUSH2 0x4797 DUP15 DUP3 DUP16 ADD PUSH2 0x4184 JUMP JUMPDEST SWAP12 POP POP PUSH1 0x20 PUSH2 0x47A8 DUP15 DUP3 DUP16 ADD PUSH2 0x41AE JUMP JUMPDEST SWAP11 POP POP PUSH1 0x40 DUP13 ADD CALLDATALOAD PUSH8 0xFFFFFFFFFFFFFFFF DUP2 GT ISZERO PUSH2 0x47C9 JUMPI PUSH2 0x47C8 PUSH2 0x413A JUMP JUMPDEST JUMPDEST PUSH2 0x47D5 DUP15 DUP3 DUP16 ADD PUSH2 0x423F JUMP JUMPDEST SWAP10 POP SWAP10 POP POP PUSH1 0x60 PUSH2 0x47E8 DUP15 DUP3 DUP16 ADD PUSH2 0x4559 JUMP JUMPDEST SWAP8 POP POP PUSH1 0x80 PUSH2 0x47F9 DUP15 DUP3 DUP16 ADD PUSH2 0x41AE JUMP JUMPDEST SWAP7 POP POP PUSH1 0xA0 PUSH2 0x480A DUP15 DUP3 DUP16 ADD PUSH2 0x41AE JUMP JUMPDEST SWAP6 POP POP PUSH1 0xC0 PUSH2 0x481B DUP15 DUP3 DUP16 ADD PUSH2 0x41AE JUMP JUMPDEST SWAP5 POP POP PUSH1 0xE0 PUSH2 0x482C DUP15 DUP3 DUP16 ADD PUSH2 0x4184 JUMP JUMPDEST SWAP4 POP POP PUSH2 0x100 PUSH2 0x483E DUP15 DUP3 DUP16 ADD PUSH2 0x4756 JUMP JUMPDEST SWAP3 POP POP PUSH2 0x120 DUP13 ADD CALLDATALOAD PUSH8 0xFFFFFFFFFFFFFFFF DUP2 GT ISZERO PUSH2 0x4860 JUMPI PUSH2 0x485F PUSH2 0x413A JUMP JUMPDEST JUMPDEST PUSH2 0x486C DUP15 DUP3 DUP16 ADD PUSH2 0x439F JUMP JUMPDEST SWAP2 POP POP SWAP3 SWAP6 SWAP9 SWAP12 POP SWAP3 SWAP6 SWAP9 SWAP12 SWAP1 SWAP4 SWAP7 SWAP10 POP JUMP JUMPDEST PUSH0 DUP1 PUSH1 0x40 DUP4 DUP6 SUB SLT ISZERO PUSH2 0x4895 JUMPI PUSH2 0x4894 PUSH2 0x4136 JUMP JUMPDEST JUMPDEST PUSH0 PUSH2 0x48A2 DUP6 DUP3 DUP7 ADD PUSH2 0x4184 JUMP JUMPDEST SWAP3 POP POP PUSH1 0x20 PUSH2 0x48B3 DUP6 DUP3 DUP7 ADD PUSH2 0x421F JUMP JUMPDEST SWAP2 POP POP SWAP3 POP SWAP3 SWAP1 POP JUMP JUMPDEST PUSH0 DUP1 PUSH0 DUP1 PUSH1 0x60 DUP6 DUP8 SUB SLT ISZERO PUSH2 0x48D5 JUMPI PUSH2 0x48D4 PUSH2 0x4136 JUMP JUMPDEST JUMPDEST PUSH0 PUSH2 0x48E2 DUP8 DUP3 DUP9 ADD PUSH2 0x421F JUMP JUMPDEST SWAP5 POP POP PUSH1 0x20 DUP6 ADD CALLDATALOAD PUSH8 0xFFFFFFFFFFFFFFFF DUP2 GT ISZERO PUSH2 0x4903 JUMPI PUSH2 0x4902 PUSH2 0x413A JUMP JUMPDEST JUMPDEST PUSH2 0x490F DUP8 DUP3 DUP9 ADD PUSH2 0x423F JUMP JUMPDEST SWAP4 POP SWAP4 POP POP PUSH1 0x40 DUP6 ADD CALLDATALOAD PUSH8 0xFFFFFFFFFFFFFFFF DUP2 GT ISZERO PUSH2 0x4932 JUMPI PUSH2 0x4931 PUSH2 0x413A JUMP JUMPDEST JUMPDEST PUSH2 0x493E DUP8 DUP3 DUP9 ADD PUSH2 0x439F JUMP JUMPDEST SWAP2 POP POP SWAP3 SWAP6 SWAP2 SWAP5 POP SWAP3 POP JUMP JUMPDEST PUSH0 DUP2 MLOAD SWAP1 POP SWAP2 SWAP1 POP JUMP JUMPDEST PUSH0 DUP3 DUP3 MSTORE PUSH1 0x20 DUP3 ADD SWAP1 POP SWAP3 SWAP2 POP POP JUMP JUMPDEST PUSH0 DUP2 SWAP1 POP PUSH1 0x20 DUP3 ADD SWAP1 POP SWAP2 SWAP1 POP JUMP JUMPDEST PUSH2 0x497C DUP2 PUSH2 0x415D JUMP JUMPDEST DUP3 MSTORE POP POP JUMP JUMPDEST PUSH0 PUSH2 0x498D DUP4 DUP4 PUSH2 0x4973 JUMP JUMPDEST PUSH1 0x20 DUP4 ADD SWAP1 POP SWAP3 SWAP2 POP POP JUMP JUMPDEST PUSH0 PUSH1 0x20 DUP3 ADD SWAP1 POP SWAP2 SWAP1 POP JUMP JUMPDEST PUSH0 PUSH2 0x49AF DUP3 PUSH2 0x494A JUMP JUMPDEST PUSH2 0x49B9 DUP2 DUP6 PUSH2 0x4954 JUMP JUMPDEST SWAP4 POP PUSH2 0x49C4 DUP4 PUSH2 0x4964 JUMP JUMPDEST DUP1 PUSH0 JUMPDEST DUP4 DUP2 LT ISZERO PUSH2 0x49F4 JUMPI DUP2 MLOAD PUSH2 0x49DB DUP9 DUP3 PUSH2 0x4982 JUMP JUMPDEST SWAP8 POP PUSH2 0x49E6 DUP4 PUSH2 0x4999 JUMP JUMPDEST SWAP3 POP POP PUSH1 0x1 DUP2 ADD SWAP1 POP PUSH2 0x49C7 JUMP JUMPDEST POP DUP6 SWAP4 POP POP POP POP SWAP3 SWAP2 POP POP JUMP JUMPDEST PUSH0 PUSH1 0x20 DUP3 ADD SWAP1 POP DUP2 DUP2 SUB PUSH0 DUP4 ADD MSTORE PUSH2 0x4A19 DUP2 DUP5 PUSH2 0x49A5 JUMP JUMPDEST SWAP1 POP SWAP3 SWAP2 POP POP JUMP JUMPDEST PUSH0 DUP1 PUSH1 0x40 DUP4 DUP6 SUB SLT ISZERO PUSH2 0x4A37 JUMPI PUSH2 0x4A36 PUSH2 0x4136 JUMP JUMPDEST JUMPDEST PUSH0 PUSH2 0x4A44 DUP6 DUP3 DUP7 ADD PUSH2 0x4184 JUMP JUMPDEST SWAP3 POP POP PUSH1 0x20 DUP4 ADD CALLDATALOAD PUSH8 0xFFFFFFFFFFFFFFFF DUP2 GT ISZERO PUSH2 0x4A65 JUMPI PUSH2 0x4A64 PUSH2 0x413A JUMP JUMPDEST JUMPDEST PUSH2 0x4A71 DUP6 DUP3 DUP7 ADD PUSH2 0x439F JUMP JUMPDEST SWAP2 POP POP SWAP3 POP SWAP3 SWAP1 POP JUMP JUMPDEST PUSH0 DUP1 DUP4 PUSH1 0x1F DUP5 ADD SLT PUSH2 0x4A90 JUMPI PUSH2 0x4A8F PUSH2 0x4233 JUMP JUMPDEST JUMPDEST DUP3 CALLDATALOAD SWAP1 POP PUSH8 0xFFFFFFFFFFFFFFFF DUP2 GT ISZERO PUSH2 0x4AAD JUMPI PUSH2 0x4AAC PUSH2 0x4237 JUMP JUMPDEST JUMPDEST PUSH1 0x20 DUP4 ADD SWAP2 POP DUP4 PUSH1 0x20 DUP3 MUL DUP4 ADD GT ISZERO PUSH2 0x4AC9 JUMPI PUSH2 0x4AC8 PUSH2 0x423B JUMP JUMPDEST JUMPDEST SWAP3 POP SWAP3 SWAP1 POP JUMP JUMPDEST PUSH0 DUP1 PUSH0 DUP1 PUSH0 DUP1 PUSH0 DUP1 PUSH0 DUP1 PUSH2 0x100 DUP12 DUP14 SUB SLT ISZERO PUSH2 0x4AEF JUMPI PUSH2 0x4AEE PUSH2 0x4136 JUMP JUMPDEST JUMPDEST PUSH0 DUP12 ADD CALLDATALOAD PUSH8 0xFFFFFFFFFFFFFFFF DUP2 GT ISZERO PUSH2 0x4B0C JUMPI PUSH2 0x4B0B PUSH2 0x413A JUMP JUMPDEST JUMPDEST PUSH2 0x4B18 DUP14 DUP3 DUP15 ADD PUSH2 0x4A7B JUMP JUMPDEST SWAP11 POP SWAP11 POP POP PUSH1 0x20 PUSH2 0x4B2B DUP14 DUP3 DUP15 ADD PUSH2 0x41AE JUMP JUMPDEST SWAP9 POP POP PUSH1 0x40 PUSH2 0x4B3C DUP14 DUP3 DUP15 ADD PUSH2 0x4184 JUMP JUMPDEST SWAP8 POP POP PUSH1 0x60 DUP12 ADD CALLDATALOAD PUSH8 0xFFFFFFFFFFFFFFFF DUP2 GT ISZERO PUSH2 0x4B5D JUMPI PUSH2 0x4B5C PUSH2 0x413A JUMP JUMPDEST JUMPDEST PUSH2 0x4B69 DUP14 DUP3 DUP15 ADD PUSH2 0x423F JUMP JUMPDEST SWAP7 POP SWAP7 POP POP PUSH1 0x80 PUSH2 0x4B7C DUP14 DUP3 DUP15 ADD PUSH2 0x4184 JUMP JUMPDEST SWAP5 POP POP PUSH1 0xA0 PUSH2 0x4B8D DUP14 DUP3 DUP15 ADD PUSH2 0x4184 JUMP JUMPDEST SWAP4 POP POP PUSH1 0xC0 PUSH2 0x4B9E DUP14 DUP3 DUP15 ADD PUSH2 0x41AE JUMP JUMPDEST SWAP3 POP POP PUSH1 0xE0 PUSH2 0x4BAF DUP14 DUP3 DUP15 ADD PUSH2 0x4756 JUMP JUMPDEST SWAP2 POP POP SWAP3 SWAP6 SWAP9 SWAP12 SWAP2 SWAP5 SWAP8 SWAP11 POP SWAP3 SWAP6 SWAP9 POP JUMP JUMPDEST PUSH2 0x4BCA DUP2 PUSH2 0x415D JUMP JUMPDEST DUP3 MSTORE POP POP JUMP JUMPDEST PUSH0 PUSH1 0x40 DUP3 ADD SWAP1 POP DUP2 DUP2 SUB PUSH0 DUP4 ADD MSTORE PUSH2 0x4BE8 DUP2 DUP6 PUSH2 0x49A5 JUMP JUMPDEST SWAP1 POP PUSH2 0x4BF7 PUSH1 0x20 DUP4 ADD DUP5 PUSH2 0x4BC1 JUMP JUMPDEST SWAP4 SWAP3 POP POP POP JUMP JUMPDEST PUSH0 DUP1 PUSH0 DUP1 PUSH0 DUP1 PUSH0 DUP1 PUSH0 DUP1 PUSH0 PUSH2 0x140 DUP13 DUP15 SUB SLT ISZERO PUSH2 0x4C1E JUMPI PUSH2 0x4C1D PUSH2 0x4136 JUMP JUMPDEST JUMPDEST PUSH0 PUSH2 0x4C2B DUP15 DUP3 DUP16 ADD PUSH2 0x4184 JUMP JUMPDEST SWAP12 POP POP PUSH1 0x20 PUSH2 0x4C3C DUP15 DUP3 DUP16 ADD PUSH2 0x41AE JUMP JUMPDEST SWAP11 POP POP PUSH1 0x40 DUP13 ADD CALLDATALOAD PUSH8 0xFFFFFFFFFFFFFFFF DUP2 GT ISZERO PUSH2 0x4C5D JUMPI PUSH2 0x4C5C PUSH2 0x413A JUMP JUMPDEST JUMPDEST PUSH2 0x4C69 DUP15 DUP3 DUP16 ADD PUSH2 0x423F JUMP JUMPDEST SWAP10 POP SWAP10 POP POP PUSH1 0x60 PUSH2 0x4C7C DUP15 DUP3 DUP16 ADD PUSH2 0x4559 JUMP JUMPDEST SWAP8 POP POP PUSH1 0x80 PUSH2 0x4C8D DUP15 DUP3 DUP16 ADD PUSH2 0x41AE JUMP JUMPDEST SWAP7 POP POP PUSH1 0xA0 PUSH2 0x4C9E DUP15 DUP3 DUP16 ADD PUSH2 0x41AE JUMP JUMPDEST SWAP6 POP POP PUSH1 0xC0 PUSH2 0x4CAF DUP15 DUP3 DUP16 ADD PUSH2 0x41AE JUMP JUMPDEST SWAP5 POP POP PUSH1 0xE0 PUSH2 0x4CC0 DUP15 DUP3 DUP16 ADD PUSH2 0x4184 JUMP JUMPDEST SWAP4 POP POP PUSH2 0x100 PUSH2 0x4CD2 DUP15 DUP3 DUP16 ADD PUSH2 0x4184 JUMP JUMPDEST SWAP3 POP POP PUSH2 0x120 PUSH2 0x4CE4 DUP15 DUP3 DUP16 ADD PUSH2 0x41AE JUMP JUMPDEST SWAP2 POP POP SWAP3 SWAP6 SWAP9 SWAP12 POP SWAP3 SWAP6 SWAP9 SWAP12 SWAP1 SWAP4 SWAP7 SWAP10 POP JUMP JUMPDEST PUSH2 0x4D00 DUP2 PUSH2 0x4200 JUMP JUMPDEST DUP3 MSTORE POP POP JUMP JUMPDEST PUSH0 PUSH1 0x20 DUP3 ADD SWAP1 POP PUSH2 0x4D19 PUSH0 DUP4 ADD DUP5 PUSH2 0x4CF7 JUMP JUMPDEST SWAP3 SWAP2 POP POP JUMP JUMPDEST PUSH0 DUP1 PUSH1 0x40 DUP4 DUP6 SUB SLT ISZERO PUSH2 0x4D35 JUMPI PUSH2 0x4D34 PUSH2 0x4136 JUMP JUMPDEST JUMPDEST PUSH0 PUSH2 0x4D42 DUP6 DUP3 DUP7 ADD PUSH2 0x4184 JUMP JUMPDEST SWAP3 POP POP PUSH1 0x20 PUSH2 0x4D53 DUP6 DUP3 DUP7 ADD PUSH2 0x4184 JUMP JUMPDEST SWAP2 POP POP SWAP3 POP SWAP3 SWAP1 POP JUMP JUMPDEST PUSH0 DUP1 PUSH0 PUSH1 0x60 DUP5 DUP7 SUB SLT ISZERO PUSH2 0x4D74 JUMPI PUSH2 0x4D73 PUSH2 0x4136 JUMP JUMPDEST JUMPDEST PUSH0 PUSH2 0x4D81 DUP7 DUP3 DUP8 ADD PUSH2 0x4184 JUMP JUMPDEST SWAP4 POP POP PUSH1 0x20 PUSH2 0x4D92 DUP7 DUP3 DUP8 ADD PUSH2 0x4184 JUMP JUMPDEST SWAP3 POP POP PUSH1 0x40 PUSH2 0x4DA3 DUP7 DUP3 DUP8 ADD PUSH2 0x4184 JUMP JUMPDEST SWAP2 POP POP SWAP3 POP SWAP3 POP SWAP3 JUMP JUMPDEST PUSH0 DUP1 PUSH1 0x40 DUP4 DUP6 SUB SLT ISZERO PUSH2 0x4DC3 JUMPI PUSH2 0x4DC2 PUSH2 0x4136 JUMP JUMPDEST JUMPDEST PUSH0 PUSH2 0x4DD0 DUP6 DUP3 DUP7 ADD PUSH2 0x421F JUMP JUMPDEST SWAP3 POP POP PUSH1 0x20 DUP4 ADD CALLDATALOAD PUSH8 0xFFFFFFFFFFFFFFFF DUP2 GT ISZERO PUSH2 0x4DF1 JUMPI PUSH2 0x4DF0 PUSH2 0x413A JUMP JUMPDEST JUMPDEST PUSH2 0x4DFD DUP6 DUP3 DUP7 ADD PUSH2 0x439F JUMP JUMPDEST SWAP2 POP POP SWAP3 POP SWAP3 SWAP1 POP JUMP JUMPDEST PUSH0 DUP1 PUSH0 PUSH1 0x60 DUP5 DUP7 SUB SLT ISZERO PUSH2 0x4E1E JUMPI PUSH2 0x4E1D PUSH2 0x4136 JUMP JUMPDEST JUMPDEST PUSH0 PUSH2 0x4E2B DUP7 DUP3 DUP8 ADD PUSH2 0x4184 JUMP JUMPDEST SWAP4 POP POP PUSH1 0x20 PUSH2 0x4E3C DUP7 DUP3 DUP8 ADD PUSH2 0x4184 JUMP JUMPDEST SWAP3 POP POP PUSH1 0x40 PUSH2 0x4E4D DUP7 DUP3 DUP8 ADD PUSH2 0x41AE JUMP JUMPDEST SWAP2 POP POP SWAP3 POP SWAP3 POP SWAP3 JUMP JUMPDEST PUSH0 DUP2 MLOAD SWAP1 POP SWAP2 SWAP1 POP JUMP JUMPDEST PUSH0 DUP3 DUP3 MSTORE PUSH1 0x20 DUP3 ADD SWAP1 POP SWAP3 SWAP2 POP POP JUMP JUMPDEST PUSH0 PUSH2 0x4E7B DUP3 PUSH2 0x4E57 JUMP JUMPDEST PUSH2 0x4E85 DUP2 DUP6 PUSH2 0x4E61 JUMP JUMPDEST SWAP4 POP PUSH2 0x4E95 DUP2 DUP6 PUSH1 0x20 DUP7 ADD PUSH2 0x4607 JUMP JUMPDEST PUSH2 0x4E9E DUP2 PUSH2 0x4298 JUMP JUMPDEST DUP5 ADD SWAP2 POP POP SWAP3 SWAP2 POP POP JUMP JUMPDEST PUSH0 PUSH1 0x20 DUP3 ADD SWAP1 POP DUP2 DUP2 SUB PUSH0 DUP4 ADD MSTORE PUSH2 0x4EC1 DUP2 DUP5 PUSH2 0x4E71 JUMP JUMPDEST SWAP1 POP SWAP3 SWAP2 POP POP JUMP JUMPDEST PUSH32 0x4E487B7100000000000000000000000000000000000000000000000000000000 PUSH0 MSTORE PUSH1 0x11 PUSH1 0x4 MSTORE PUSH1 0x24 PUSH0 REVERT JUMPDEST PUSH0 PUSH2 0x4F00 DUP3 PUSH2 0x40FC JUMP JUMPDEST SWAP2 POP PUSH32 0xFFFFFFFFFFFFFFFFFFFFFFFFFFFFFFFFFFFFFFFFFFFFFFFFFFFFFFFFFFFFFFFF DUP3 SUB PUSH2 0x4F32 JUMPI PUSH2 0x4F31 PUSH2 0x4EC9 JUMP JUMPDEST JUMPDEST PUSH1 0x1 DUP3 ADD SWAP1 POP SWAP2 SWAP1 POP JUMP JUMPDEST PUSH0 DUP2 SWAP1 POP SWAP3 SWAP2 POP POP JUMP JUMPDEST PUSH32 0x19457468657265756D205369676E6564204D6573736167653A0A333200000000 PUSH0 DUP3 ADD MSTORE POP JUMP JUMPDEST PUSH0 PUSH2 0x4F7B PUSH1 0x1C DUP4 PUSH2 0x4F3D JUMP JUMPDEST SWAP2 POP PUSH2 0x4F86 DUP3 PUSH2 0x4F47 JUMP JUMPDEST PUSH1 0x1C DUP3 ADD SWAP1 POP SWAP2 SWAP1 POP JUMP JUMPDEST PUSH0 DUP2 SWAP1 POP SWAP2 SWAP1 POP JUMP JUMPDEST PUSH2 0x4FAB PUSH2 0x4FA6 DUP3 PUSH2 0x4200 JUMP JUMPDEST PUSH2 0x4F91 JUMP JUMPDEST DUP3 MSTORE POP POP JUMP JUMPDEST PUSH0 PUSH2 0x4FBB DUP3 PUSH2 0x4F6F JUMP JUMPDEST SWAP2 POP PUSH2 0x4FC7 DUP3 DUP5 PUSH2 0x4F9A JUMP JUMPDEST PUSH1 0x20 DUP3 ADD SWAP2 POP DUP2 SWAP1 POP SWAP3 SWAP2 POP POP JUMP JUMPDEST PUSH0 PUSH2 0x4FE0 DUP3 PUSH2 0x40FC JUMP JUMPDEST SWAP2 POP PUSH2 0x4FEB DUP4 PUSH2 0x40FC JUMP JUMPDEST SWAP3 POP DUP3 DUP3 SUB SWAP1 POP DUP2 DUP2 GT ISZERO PUSH2 0x5003 JUMPI PUSH2 0x5002 PUSH2 0x4EC9 JUMP JUMPDEST JUMPDEST SWAP3 SWAP2 POP POP JUMP JUMPDEST PUSH0 PUSH1 0xFF DUP3 AND SWAP1 POP SWAP2 SWAP1 POP JUMP JUMPDEST PUSH2 0x501E DUP2 PUSH2 0x5009 JUMP JUMPDEST DUP3 MSTORE POP POP JUMP JUMPDEST PUSH0 PUSH1 0x80 DUP3 ADD SWAP1 POP PUSH2 0x5037 PUSH0 DUP4 ADD DUP8 PUSH2 0x4CF7 JUMP JUMPDEST PUSH2 0x5044 PUSH1 0x20 DUP4 ADD DUP7 PUSH2 0x5015 JUMP JUMPDEST PUSH2 0x5051 PUSH1 0x40 DUP4 ADD DUP6 PUSH2 0x4CF7 JUMP JUMPDEST PUSH2 0x505E PUSH1 0x60 DUP4 ADD DUP5 PUSH2 0x4CF7 JUMP JUMPDEST SWAP6 SWAP5 POP POP POP POP POP JUMP JUMPDEST PUSH0 PUSH2 0x5071 DUP3 PUSH2 0x40FC JUMP JUMPDEST SWAP2 POP PUSH2 0x507C DUP4 PUSH2 0x40FC JUMP JUMPDEST SWAP3 POP DUP3 DUP3 MUL PUSH2 0x508A DUP2 PUSH2 0x40FC JUMP JUMPDEST SWAP2 POP DUP3 DUP3 DIV DUP5 EQ DUP4 ISZERO OR PUSH2 0x50A1 JUMPI PUSH2 0x50A0 PUSH2 0x4EC9 JUMP JUMPDEST JUMPDEST POP SWAP3 SWAP2 POP POP JUMP JUMPDEST PUSH0 PUSH2 0x50B3 DUP4 DUP6 PUSH2 0x45F7 JUMP JUMPDEST SWAP4 POP PUSH2 0x50C0 DUP4 DUP6 DUP5 PUSH2 0x4350 JUMP JUMPDEST PUSH2 0x50C9 DUP4 PUSH2 0x4298 JUMP JUMPDEST DUP5 ADD SWAP1 POP SWAP4 SWAP3 POP POP POP JUMP JUMPDEST PUSH32 0x4E487B7100000000000000000000000000000000000000000000000000000000 PUSH0 MSTORE PUSH1 0x21 PUSH1 0x4 MSTORE PUSH1 0x24 PUSH0 REVERT JUMPDEST PUSH1 0x2 DUP2 LT PUSH2 0x5112 JUMPI PUSH2 0x5111 PUSH2 0x50D4 JUMP JUMPDEST JUMPDEST POP JUMP JUMPDEST PUSH0 DUP2 SWAP1 POP PUSH2 0x5122 DUP3 PUSH2 0x5101 JUMP JUMPDEST SWAP2 SWAP1 POP JUMP JUMPDEST PUSH0 PUSH2 0x5131 DUP3 PUSH2 0x5115 JUMP JUMPDEST SWAP1 POP SWAP2 SWAP1 POP JUMP JUMPDEST PUSH2 0x5141 DUP2 PUSH2 0x5127 JUMP JUMPDEST DUP3 MSTORE POP POP JUMP JUMPDEST PUSH2 0x5150 DUP2 PUSH2 0x472F JUMP JUMPDEST DUP3 MSTORE POP POP JUMP JUMPDEST PUSH0 PUSH2 0x160 DUP3 ADD SWAP1 POP PUSH2 0x516A PUSH0 DUP4 ADD DUP16 PUSH2 0x4BC1 JUMP JUMPDEST PUSH2 0x5177 PUSH1 0x20 DUP4 ADD DUP15 PUSH2 0x4105 JUMP JUMPDEST DUP2 DUP2 SUB PUSH1 0x40 DUP4 ADD MSTORE PUSH2 0x518A DUP2 DUP13 DUP15 PUSH2 0x50A8 JUMP JUMPDEST SWAP1 POP PUSH2 0x5199 PUSH1 0x60 DUP4 ADD DUP12 PUSH2 0x5138 JUMP JUMPDEST PUSH2 0x51A6 PUSH1 0x80 DUP4 ADD DUP11 PUSH2 0x4105 JUMP JUMPDEST PUSH2 0x51B3 PUSH1 0xA0 DUP4 ADD DUP10 PUSH2 0x4105 JUMP JUMPDEST PUSH2 0x51C0 PUSH1 0xC0 DUP4 ADD DUP9 PUSH2 0x4105 JUMP JUMPDEST PUSH2 0x51CD PUSH1 0xE0 DUP4 ADD DUP8 PUSH2 0x4BC1 JUMP JUMPDEST PUSH2 0x51DB PUSH2 0x100 DUP4 ADD DUP7 PUSH2 0x5147 JUMP JUMPDEST DUP2 DUP2 SUB PUSH2 0x120 DUP4 ADD MSTORE PUSH2 0x51EE DUP2 DUP6 PUSH2 0x4615 JUMP JUMPDEST SWAP1 POP PUSH2 0x51FE PUSH2 0x140 DUP4 ADD DUP5 PUSH2 0x4BC1 JUMP JUMPDEST SWAP14 SWAP13 POP POP POP POP POP POP POP POP POP POP POP POP POP JUMP JUMPDEST PUSH0 PUSH2 0x5219 DUP3 PUSH2 0x40FC JUMP JUMPDEST SWAP2 POP PUSH2 0x5224 DUP4 PUSH2 0x40FC JUMP JUMPDEST SWAP3 POP DUP3 DUP3 ADD SWAP1 POP DUP1 DUP3 GT ISZERO PUSH2 0x523C JUMPI PUSH2 0x523B PUSH2 0x4EC9 JUMP JUMPDEST JUMPDEST SWAP3 SWAP2 POP POP JUMP JUMPDEST PUSH32 0x4E487B7100000000000000000000000000000000000000000000000000000000 PUSH0 MSTORE PUSH1 0x12 PUSH1 0x4 MSTORE PUSH1 0x24 PUSH0 REVERT JUMPDEST PUSH0 PUSH2 0x5279 DUP3 PUSH2 0x40FC JUMP JUMPDEST SWAP2 POP PUSH2 0x5284 DUP4 PUSH2 0x40FC JUMP JUMPDEST SWAP3 POP DUP3 PUSH2 0x5294 JUMPI PUSH2 0x5293 PUSH2 0x5242 JUMP JUMPDEST JUMPDEST DUP3 DUP3 DIV SWAP1 POP SWAP3 SWAP2 POP POP JUMP JUMPDEST PUSH0 PUSH1 0x40 DUP3 ADD SWAP1 POP PUSH2 0x52B2 PUSH0 DUP4 ADD DUP6 PUSH2 0x4CF7 JUMP JUMPDEST PUSH2 0x52BF PUSH1 0x20 DUP4 ADD DUP5 PUSH2 0x4522 JUMP JUMPDEST SWAP4 SWAP3 POP POP POP JUMP JUMPDEST PUSH32 0x4E487B7100000000000000000000000000000000000000000000000000000000 PUSH0 MSTORE PUSH1 0x32 PUSH1 0x4 MSTORE PUSH1 0x24 PUSH0 REVERT JUMPDEST PUSH0 DUP2 SWAP1 POP SWAP2 SWAP1 POP JUMP JUMPDEST PUSH0 PUSH2 0x530A PUSH1 0x20 DUP5 ADD DUP5 PUSH2 0x4184 JUMP JUMPDEST SWAP1 POP SWAP3 SWAP2 POP POP JUMP JUMPDEST PUSH0 PUSH1 0x20 DUP3 ADD SWAP1 POP SWAP2 SWAP1 POP JUMP JUMPDEST PUSH0 PUSH2 0x5329 DUP4 DUP6 PUSH2 0x4954 JUMP JUMPDEST SWAP4 POP PUSH2 0x5334 DUP3 PUSH2 0x52F3 JUMP JUMPDEST DUP1 PUSH0 JUMPDEST DUP6 DUP2 LT ISZERO PUSH2 0x536C JUMPI PUSH2 0x5349 DUP3 DUP5 PUSH2 0x52FC JUMP JUMPDEST PUSH2 0x5353 DUP9 DUP3 PUSH2 0x4982 JUMP JUMPDEST SWAP8 POP PUSH2 0x535E DUP4 PUSH2 0x5312 JUMP JUMPDEST SWAP3 POP POP PUSH1 0x1 DUP2 ADD SWAP1 POP PUSH2 0x5337 JUMP JUMPDEST POP DUP6 SWAP3 POP POP POP SWAP4 SWAP3 POP POP POP JUMP JUMPDEST PUSH0 PUSH1 0x80 DUP3 ADD SWAP1 POP DUP2 DUP2 SUB PUSH0 DUP4 ADD MSTORE PUSH2 0x5392 DUP2 DUP8 DUP10 PUSH2 0x531E JUMP JUMPDEST SWAP1 POP PUSH2 0x53A1 PUSH1 0x20 DUP4 ADD DUP7 PUSH2 0x4105 JUMP JUMPDEST PUSH2 0x53AE PUSH1 0x40 DUP4 ADD DUP6 PUSH2 0x4BC1 JUMP JUMPDEST PUSH2 0x53BB PUSH1 0x60 DUP4 ADD DUP5 PUSH2 0x4BC1 JUMP JUMPDEST SWAP7 SWAP6 POP POP POP POP POP POP JUMP JUMPDEST PUSH0 PUSH32 0xFFFFFFFF00000000000000000000000000000000000000000000000000000000 DUP3 AND SWAP1 POP SWAP2 SWAP1 POP JUMP JUMPDEST PUSH2 0x53F9 DUP2 PUSH2 0x53C5 JUMP JUMPDEST DUP3 MSTORE POP POP JUMP JUMPDEST PUSH0 PUSH1 0x20 DUP3 ADD SWAP1 POP PUSH2 0x5412 PUSH0 DUP4 ADD DUP5 PUSH2 0x53F0 JUMP JUMPDEST SWAP3 SWAP2 POP POP JUMP JUMPDEST PUSH2 0x5421 DUP2 PUSH2 0x4517 JUMP JUMPDEST DUP2 EQ PUSH2 0x542B JUMPI PUSH0 DUP1 REVERT JUMPDEST POP JUMP JUMPDEST PUSH0 DUP2 MLOAD SWAP1 POP PUSH2 0x543C DUP2 PUSH2 0x5418 JUMP JUMPDEST SWAP3 SWAP2 POP POP JUMP JUMPDEST PUSH0 PUSH1 0x20 DUP3 DUP5 SUB SLT ISZERO PUSH2 0x5457 JUMPI PUSH2 0x5456 PUSH2 0x4136 JUMP JUMPDEST JUMPDEST PUSH0 PUSH2 0x5464 DUP5 DUP3 DUP6 ADD PUSH2 0x542E JUMP JUMPDEST SWAP2 POP POP SWAP3 SWAP2 POP POP JUMP JUMPDEST PUSH0 DUP2 SWAP1 POP SWAP2 SWAP1 POP JUMP JUMPDEST PUSH0 PUSH2 0x5490 PUSH2 0x548B PUSH2 0x5486 DUP5 PUSH2 0x413E JUMP JUMPDEST PUSH2 0x546D JUMP JUMPDEST PUSH2 0x413E JUMP JUMPDEST SWAP1 POP SWAP2 SWAP1 POP JUMP JUMPDEST PUSH0 PUSH2 0x54A1 DUP3 PUSH2 0x5476 JUMP JUMPDEST SWAP1 POP SWAP2 SWAP1 POP JUMP JUMPDEST PUSH0 PUSH2 0x54B2 DUP3 PUSH2 0x5497 JUMP JUMPDEST SWAP1 POP SWAP2 SWAP1 POP JUMP JUMPDEST PUSH2 0x54C2 DUP2 PUSH2 0x54A8 JUMP JUMPDEST DUP3 MSTORE POP POP JUMP JUMPDEST PUSH0 PUSH1 0x60 DUP3 ADD SWAP1 POP PUSH2 0x54DB PUSH0 DUP4 ADD DUP7 PUSH2 0x4CF7 JUMP JUMPDEST PUSH2 0x54E8 PUSH1 0x20 DUP4 ADD DUP6 PUSH2 0x4105 JUMP JUMPDEST PUSH2 0x54F5 PUSH1 0x40 DUP4 ADD DUP5 PUSH2 0x54B9 JUMP JUMPDEST SWAP5 SWAP4 POP POP POP POP JUMP JUMPDEST PUSH0 PUSH2 0x5507 DUP3 PUSH2 0x40FC JUMP JUMPDEST SWAP2 POP PUSH0 DUP3 SUB PUSH2 0x5519 JUMPI PUSH2 0x5518 PUSH2 0x4EC9 JUMP JUMPDEST JUMPDEST PUSH1 0x1 DUP3 SUB SWAP1 POP SWAP2 SWAP1 POP JUMP JUMPDEST PUSH0 PUSH1 0x40 DUP3 ADD SWAP1 POP PUSH2 0x5537 PUSH0 DUP4 ADD DUP6 PUSH2 0x4CF7 JUMP JUMPDEST DUP2 DUP2 SUB PUSH1 0x20 DUP4 ADD MSTORE PUSH2 0x5549 DUP2 DUP5 PUSH2 0x4615 JUMP JUMPDEST SWAP1 POP SWAP4 SWAP3 POP POP POP JUMP JUMPDEST PUSH2 0x555B DUP2 PUSH2 0x53C5 JUMP JUMPDEST DUP2 EQ PUSH2 0x5565 JUMPI PUSH0 DUP1 REVERT JUMPDEST POP JUMP JUMPDEST PUSH0 DUP2 MLOAD SWAP1 POP PUSH2 0x5576 DUP2 PUSH2 0x5552 JUMP JUMPDEST SWAP3 SWAP2 POP POP JUMP JUMPDEST PUSH0 PUSH1 0x20 DUP3 DUP5 SUB SLT ISZERO PUSH2 0x5591 JUMPI PUSH2 0x5590 PUSH2 0x4136 JUMP JUMPDEST JUMPDEST PUSH0 PUSH2 0x559E DUP5 DUP3 DUP6 ADD PUSH2 0x5568 JUMP JUMPDEST SWAP2 POP POP SWAP3 SWAP2 POP POP JUMP JUMPDEST PUSH32 0x4753313034000000000000000000000000000000000000000000000000000000 PUSH0 DUP3 ADD MSTORE POP JUMP JUMPDEST PUSH0 PUSH2 0x55DB PUSH1 0x5 DUP4 PUSH2 0x4E61 JUMP JUMPDEST SWAP2 POP PUSH2 0x55E6 DUP3 PUSH2 0x55A7 JUMP JUMPDEST PUSH1 0x20 DUP3 ADD SWAP1 POP SWAP2 SWAP1 POP JUMP JUMPDEST PUSH0 PUSH1 0x20 DUP3 ADD SWAP1 POP DUP2 DUP2 SUB PUSH0 DUP4 ADD MSTORE PUSH2 0x5608 DUP2 PUSH2 0x55CF JUMP JUMPDEST SWAP1 POP SWAP2 SWAP1 POP JUMP JUMPDEST PUSH0 PUSH1 0xA0 DUP3 ADD SWAP1 POP PUSH2 0x5622 PUSH0 DUP4 ADD DUP9 PUSH2 0x4BC1 JUMP JUMPDEST PUSH2 0x562F PUSH1 0x20 DUP4 ADD DUP8 PUSH2 0x4105 JUMP JUMPDEST DUP2 DUP2 SUB PUSH1 0x40 DUP4 ADD MSTORE PUSH2 0x5641 DUP2 DUP7 PUSH2 0x4615 JUMP JUMPDEST SWAP1 POP PUSH2 0x5650 PUSH1 0x60 DUP4 ADD DUP6 PUSH2 0x5138 JUMP JUMPDEST PUSH2 0x565D PUSH1 0x80 DUP4 ADD DUP5 PUSH2 0x4BC1 JUMP JUMPDEST SWAP7 SWAP6 POP POP POP POP POP POP JUMP JUMPDEST PUSH0 DUP2 MLOAD SWAP1 POP PUSH2 0x5675 DUP2 PUSH2 0x4209 JUMP JUMPDEST SWAP3 SWAP2 POP POP JUMP JUMPDEST PUSH0 PUSH1 0x20 DUP3 DUP5 SUB SLT ISZERO PUSH2 0x5690 JUMPI PUSH2 0x568F PUSH2 0x4136 JUMP JUMPDEST JUMPDEST PUSH0 PUSH2 0x569D DUP5 DUP3 DUP6 ADD PUSH2 0x5667 JUMP JUMPDEST SWAP2 POP POP SWAP3 SWAP2 POP POP JUMP JUMPDEST PUSH0 DUP2 SWAP1 POP SWAP3 SWAP2 POP POP JUMP JUMPDEST POP JUMP JUMPDEST PUSH0 PUSH2 0x56BE PUSH0 DUP4 PUSH2 0x56A6 JUMP JUMPDEST SWAP2 POP PUSH2 0x56C9 DUP3 PUSH2 0x56B0 JUMP JUMPDEST PUSH0 DUP3 ADD SWAP1 POP SWAP2 SWAP1 POP JUMP JUMPDEST PUSH0 PUSH2 0x56DD DUP3 PUSH2 0x56B3 JUMP JUMPDEST SWAP2 POP DUP2 SWAP1 POP SWAP2 SWAP1 POP JUMP JUMPDEST PUSH0 PUSH2 0x56F2 DUP4 DUP6 PUSH2 0x56A6 JUMP JUMPDEST SWAP4 POP PUSH2 0x56FF DUP4 DUP6 DUP5 PUSH2 0x4350 JUMP JUMPDEST DUP3 DUP5 ADD SWAP1 POP SWAP4 SWAP3 POP POP POP JUMP JUMPDEST PUSH0 PUSH2 0x5717 DUP3 DUP5 DUP7 PUSH2 0x56E7 JUMP JUMPDEST SWAP2 POP DUP2 SWAP1 POP SWAP4 SWAP3 POP POP POP JUMP JUMPDEST PUSH0 PUSH2 0x160 DUP3 ADD SWAP1 POP PUSH2 0x5737 PUSH0 DUP4 ADD DUP15 PUSH2 0x4CF7 JUMP JUMPDEST PUSH2 0x5744 PUSH1 0x20 DUP4 ADD DUP14 PUSH2 0x4BC1 JUMP JUMPDEST PUSH2 0x5751 PUSH1 0x40 DUP4 ADD DUP13 PUSH2 0x4105 JUMP JUMPDEST PUSH2 0x575E PUSH1 0x60 DUP4 ADD DUP12 PUSH2 0x4CF7 JUMP JUMPDEST PUSH2 0x576B PUSH1 0x80 DUP4 ADD DUP11 PUSH2 0x5138 JUMP JUMPDEST PUSH2 0x5778 PUSH1 0xA0 DUP4 ADD DUP10 PUSH2 0x4105 JUMP JUMPDEST PUSH2 0x5785 PUSH1 0xC0 DUP4 ADD DUP9 PUSH2 0x4105 JUMP JUMPDEST PUSH2 0x5792 PUSH1 0xE0 DUP4 ADD DUP8 PUSH2 0x4105 JUMP JUMPDEST PUSH2 0x57A0 PUSH2 0x100 DUP4 ADD DUP7 PUSH2 0x4BC1 JUMP JUMPDEST PUSH2 0x57AE PUSH2 0x120 DUP4 ADD DUP6 PUSH2 0x4BC1 JUMP JUMPDEST PUSH2 0x57BC PUSH2 0x140 DUP4 ADD DUP5 PUSH2 0x4105 JUMP JUMPDEST SWAP13 SWAP12 POP POP POP POP POP POP POP POP POP POP POP POP JUMP JUMPDEST PUSH0 PUSH32 0xFF00000000000000000000000000000000000000000000000000000000000000 DUP3 AND SWAP1 POP SWAP2 SWAP1 POP JUMP JUMPDEST PUSH0 DUP2 SWAP1 POP SWAP2 SWAP1 POP JUMP JUMPDEST PUSH2 0x5811 PUSH2 0x580C DUP3 PUSH2 0x57CC JUMP JUMPDEST PUSH2 0x57F7 JUMP JUMPDEST DUP3 MSTORE POP POP JUMP JUMPDEST PUSH0 PUSH2 0x5822 DUP3 DUP8 PUSH2 0x5800 JUMP JUMPDEST PUSH1 0x1 DUP3 ADD SWAP2 POP PUSH2 0x5832 DUP3 DUP7 PUSH2 0x5800 JUMP JUMPDEST PUSH1 0x1 DUP3 ADD SWAP2 POP PUSH2 0x5842 DUP3 DUP6 PUSH2 0x4F9A JUMP JUMPDEST PUSH1 0x20 DUP3 ADD SWAP2 POP PUSH2 0x5852 DUP3 DUP5 PUSH2 0x4F9A JUMP JUMPDEST PUSH1 0x20 DUP3 ADD SWAP2 POP DUP2 SWAP1 POP SWAP6 SWAP5 POP POP POP POP POP JUMP JUMPDEST PUSH0 PUSH1 0x40 DUP3 ADD SWAP1 POP PUSH2 0x5877 PUSH0 DUP4 ADD DUP6 PUSH2 0x4BC1 JUMP JUMPDEST PUSH2 0x5884 PUSH1 0x20 DUP4 ADD DUP5 PUSH2 0x4105 JUMP JUMPDEST SWAP4 SWAP3 POP POP POP JUMP INVALID LOG2 PUSH5 0x6970667358 0x22 SLT KECCAK256 PUSH4 0x5C717BF 0xD5 PUSH27 0xB7FF7117D25B07924E61B833D862538C57A17AF5EEF96447356473 PUSH16 0x6C634300081A00330000000000000000 "
		},
		"gasEstimates": {
			"creation": {
				"codeDepositCost": "4544200",
				"executionCost": "27416",
				"totalCost": "4571616"
			},
			"external": {
				"": "infinite",
				"VERSION()": "infinite",
				"addOwnerWithThreshold(address,uint256)": "infinite",
				"approveHash(bytes32)": "26517",
				"approvedHashes(address,bytes32)": "3101",
				"changeThreshold(uint256)": "infinite",
				"checkNSignatures(address,bytes32,bytes,uint256)": "infinite",
				"checkNSignatures(bytes32,bytes,bytes,uint256)": "infinite",
				"checkSignatures(bytes32,bytes)": "infinite",
				"checkSignatures(bytes32,bytes,bytes)": "infinite",
				"disableModule(address,address)": "infinite",
				"domainSeparator()": "infinite",
				"enableModule(address)": "55022",
				"execTransaction(address,uint256,bytes,uint8,uint256,uint256,uint256,address,address,bytes)": "infinite",
				"execTransactionFromModule(address,uint256,bytes,uint8)": "infinite",
				"execTransactionFromModuleReturnData(address,uint256,bytes,uint8)": "infinite",
				"getModulesPaginated(address,uint256)": "infinite",
				"getOwners()": "infinite",
				"getStorageAt(uint256,uint256)": "infinite",
				"getThreshold()": "2521",
				"getTransactionHash(address,uint256,bytes,uint8,uint256,uint256,uint256,address,address,uint256)": "infinite",
				"isModuleEnabled(address)": "2982",
				"isOwner(address)": "2998",
				"nonce()": "2471",
				"removeOwner(address,address,uint256)": "infinite",
				"setFallbackHandler(address)": "23880",
				"setGuard(address)": "infinite",
				"setModuleGuard(address)": "infinite",
				"setup(address[],uint256,address,bytes,address,address,uint256,address)": "infinite",
				"signedMessages(bytes32)": "2822",
				"simulateAndRevert(address,bytes)": "infinite",
				"swapOwner(address,address,address)": "infinite"
			},
			"internal": {
				"checkContractSignature(address,bytes32,bytes memory,uint256)": "infinite",
				"encodeTransactionData(address,uint256,bytes calldata,enum Enum.Operation,uint256,uint256,uint256,address,address,uint256)": "infinite",
				"handlePayment(uint256,uint256,uint256,address,address payable)": "infinite",
				"onBeforeExecTransaction(address,uint256,bytes calldata,enum Enum.Operation,uint256,uint256,uint256,address,address payable,bytes memory)": "31"
			}
		},
		"methodIdentifiers": {
			"VERSION()": "ffa1ad74",
			"addOwnerWithThreshold(address,uint256)": "0d582f13",
			"approveHash(bytes32)": "d4d9bdcd",
			"approvedHashes(address,bytes32)": "7d832974",
			"changeThreshold(uint256)": "694e80c3",
			"checkNSignatures(address,bytes32,bytes,uint256)": "1fcac7f3",
			"checkNSignatures(bytes32,bytes,bytes,uint256)": "12fb68e0",
			"checkSignatures(bytes32,bytes)": "ed516d51",
			"checkSignatures(bytes32,bytes,bytes)": "934f3a11",
			"disableModule(address,address)": "e009cfde",
			"domainSeparator()": "f698da25",
			"enableModule(address)": "610b5925",
			"execTransaction(address,uint256,bytes,uint8,uint256,uint256,uint256,address,address,bytes)": "6a761202",
			"execTransactionFromModule(address,uint256,bytes,uint8)": "468721a7",
			"execTransactionFromModuleReturnData(address,uint256,bytes,uint8)": "5229073f",
			"getModulesPaginated(address,uint256)": "cc2f8452",
			"getOwners()": "a0e67e2b",
			"getStorageAt(uint256,uint256)": "5624b25b",
			"getThreshold()": "e75235b8",
			"getTransactionHash(address,uint256,bytes,uint8,uint256,uint256,uint256,address,address,uint256)": "d8d11f78",
			"isModuleEnabled(address)": "2d9ad53d",
			"isOwner(address)": "2f54bf6e",
			"nonce()": "affed0e0",
			"removeOwner(address,address,uint256)": "f8dc5dd9",
			"setFallbackHandler(address)": "f08a0323",
			"setGuard(address)": "e19a9dd9",
			"setModuleGuard(address)": "e068df37",
			"setup(address[],uint256,address,bytes,address,address,uint256,address)": "b63e800d",
			"signedMessages(bytes32)": "5ae6bd37",
			"simulateAndRevert(address,bytes)": "b4faba09",
			"swapOwner(address,address,address)": "e318b52b"
		}
	},
	"abi": [
		{
			"inputs": [],
			"stateMutability": "nonpayable",
			"type": "constructor"
		},
		{
			"anonymous": false,
			"inputs": [
				{
					"indexed": true,
					"internalType": "address",
					"name": "owner",
					"type": "address"
				}
			],
			"name": "AddedOwner",
			"type": "event"
		},
		{
			"anonymous": false,
			"inputs": [
				{
					"indexed": true,
					"internalType": "bytes32",
					"name": "approvedHash",
					"type": "bytes32"
				},
				{
					"indexed": true,
					"internalType": "address",
					"name": "owner",
					"type": "address"
				}
			],
			"name": "ApproveHash",
			"type": "event"
		},
		{
			"anonymous": false,
			"inputs": [
				{
					"indexed": true,
					"internalType": "address",
					"name": "handler",
					"type": "address"
				}
			],
			"name": "ChangedFallbackHandler",
			"type": "event"
		},
		{
			"anonymous": false,
			"inputs": [
				{
					"indexed": true,
					"internalType": "address",
					"name": "guard",
					"type": "address"
				}
			],
			"name": "ChangedGuard",
			"type": "event"
		},
		{
			"anonymous": false,
			"inputs": [
				{
					"indexed": true,
					"internalType": "address",
					"name": "moduleGuard",
					"type": "address"
				}
			],
			"name": "ChangedModuleGuard",
			"type": "event"
		},
		{
			"anonymous": false,
			"inputs": [
				{
					"indexed": false,
					"internalType": "uint256",
					"name": "threshold",
					"type": "uint256"
				}
			],
			"name": "ChangedThreshold",
			"type": "event"
		},
		{
			"anonymous": false,
			"inputs": [
				{
					"indexed": true,
					"internalType": "address",
					"name": "module",
					"type": "address"
				}
			],
			"name": "DisabledModule",
			"type": "event"
		},
		{
			"anonymous": false,
			"inputs": [
				{
					"indexed": true,
					"internalType": "address",
					"name": "module",
					"type": "address"
				}
			],
			"name": "EnabledModule",
			"type": "event"
		},
		{
			"anonymous": false,
			"inputs": [
				{
					"indexed": true,
					"internalType": "bytes32",
					"name": "txHash",
					"type": "bytes32"
				},
				{
					"indexed": false,
					"internalType": "uint256",
					"name": "payment",
					"type": "uint256"
				}
			],
			"name": "ExecutionFailure",
			"type": "event"
		},
		{
			"anonymous": false,
			"inputs": [
				{
					"indexed": true,
					"internalType": "address",
					"name": "module",
					"type": "address"
				}
			],
			"name": "ExecutionFromModuleFailure",
			"type": "event"
		},
		{
			"anonymous": false,
			"inputs": [
				{
					"indexed": true,
					"internalType": "address",
					"name": "module",
					"type": "address"
				}
			],
			"name": "ExecutionFromModuleSuccess",
			"type": "event"
		},
		{
			"anonymous": false,
			"inputs": [
				{
					"indexed": true,
					"internalType": "bytes32",
					"name": "txHash",
					"type": "bytes32"
				},
				{
					"indexed": false,
					"internalType": "uint256",
					"name": "payment",
					"type": "uint256"
				}
			],
			"name": "ExecutionSuccess",
			"type": "event"
		},
		{
			"anonymous": false,
			"inputs": [
				{
					"indexed": true,
					"internalType": "address",
					"name": "owner",
					"type": "address"
				}
			],
			"name": "RemovedOwner",
			"type": "event"
		},
		{
			"anonymous": false,
			"inputs": [
				{
					"indexed": true,
					"internalType": "address",
					"name": "sender",
					"type": "address"
				},
				{
					"indexed": false,
					"internalType": "uint256",
					"name": "value",
					"type": "uint256"
				}
			],
			"name": "SafeReceived",
			"type": "event"
		},
		{
			"anonymous": false,
			"inputs": [
				{
					"indexed": true,
					"internalType": "address",
					"name": "initiator",
					"type": "address"
				},
				{
					"indexed": false,
					"internalType": "address[]",
					"name": "owners",
					"type": "address[]"
				},
				{
					"indexed": false,
					"internalType": "uint256",
					"name": "threshold",
					"type": "uint256"
				},
				{
					"indexed": false,
					"internalType": "address",
					"name": "initializer",
					"type": "address"
				},
				{
					"indexed": false,
					"internalType": "address",
					"name": "fallbackHandler",
					"type": "address"
				}
			],
			"name": "SafeSetup",
			"type": "event"
		},
		{
			"anonymous": false,
			"inputs": [
				{
					"indexed": true,
					"internalType": "bytes32",
					"name": "msgHash",
					"type": "bytes32"
				}
			],
			"name": "SignMsg",
			"type": "event"
		},
		{
			"stateMutability": "nonpayable",
			"type": "fallback"
		},
		{
			"inputs": [],
			"name": "VERSION",
			"outputs": [
				{
					"internalType": "string",
					"name": "",
					"type": "string"
				}
			],
			"stateMutability": "view",
			"type": "function"
		},
		{
			"inputs": [
				{
					"internalType": "address",
					"name": "owner",
					"type": "address"
				},
				{
					"internalType": "uint256",
					"name": "_threshold",
					"type": "uint256"
				}
			],
			"name": "addOwnerWithThreshold",
			"outputs": [],
			"stateMutability": "nonpayable",
			"type": "function"
		},
		{
			"inputs": [
				{
					"internalType": "bytes32",
					"name": "hashToApprove",
					"type": "bytes32"
				}
			],
			"name": "approveHash",
			"outputs": [],
			"stateMutability": "nonpayable",
			"type": "function"
		},
		{
			"inputs": [
				{
					"internalType": "address",
					"name": "",
					"type": "address"
				},
				{
					"internalType": "bytes32",
					"name": "",
					"type": "bytes32"
				}
			],
			"name": "approvedHashes",
			"outputs": [
				{
					"internalType": "uint256",
					"name": "",
					"type": "uint256"
				}
			],
			"stateMutability": "view",
			"type": "function"
		},
		{
			"inputs": [
				{
					"internalType": "uint256",
					"name": "_threshold",
					"type": "uint256"
				}
			],
			"name": "changeThreshold",
			"outputs": [],
			"stateMutability": "nonpayable",
			"type": "function"
		},
		{
			"inputs": [
				{
					"internalType": "bytes32",
					"name": "dataHash",
					"type": "bytes32"
				},
				{
					"internalType": "bytes",
					"name": "data",
					"type": "bytes"
				},
				{
					"internalType": "bytes",
					"name": "signatures",
					"type": "bytes"
				},
				{
					"internalType": "uint256",
					"name": "requiredSignatures",
					"type": "uint256"
				}
			],
			"name": "checkNSignatures",
			"outputs": [],
			"stateMutability": "view",
			"type": "function"
		},
		{
			"inputs": [
				{
					"internalType": "address",
					"name": "executor",
					"type": "address"
				},
				{
					"internalType": "bytes32",
					"name": "dataHash",
					"type": "bytes32"
				},
				{
					"internalType": "bytes",
					"name": "signatures",
					"type": "bytes"
				},
				{
					"internalType": "uint256",
					"name": "requiredSignatures",
					"type": "uint256"
				}
			],
			"name": "checkNSignatures",
			"outputs": [],
			"stateMutability": "view",
			"type": "function"
		},
		{
			"inputs": [
				{
					"internalType": "bytes32",
					"name": "dataHash",
					"type": "bytes32"
				},
				{
					"internalType": "bytes",
					"name": "data",
					"type": "bytes"
				},
				{
					"internalType": "bytes",
					"name": "signatures",
					"type": "bytes"
				}
			],
			"name": "checkSignatures",
			"outputs": [],
			"stateMutability": "view",
			"type": "function"
		},
		{
			"inputs": [
				{
					"internalType": "bytes32",
					"name": "dataHash",
					"type": "bytes32"
				},
				{
					"internalType": "bytes",
					"name": "signatures",
					"type": "bytes"
				}
			],
			"name": "checkSignatures",
			"outputs": [],
			"stateMutability": "view",
			"type": "function"
		},
		{
			"inputs": [
				{
					"internalType": "address",
					"name": "prevModule",
					"type": "address"
				},
				{
					"internalType": "address",
					"name": "module",
					"type": "address"
				}
			],
			"name": "disableModule",
			"outputs": [],
			"stateMutability": "nonpayable",
			"type": "function"
		},
		{
			"inputs": [],
			"name": "domainSeparator",
			"outputs": [
				{
					"internalType": "bytes32",
					"name": "",
					"type": "bytes32"
				}
			],
			"stateMutability": "view",
			"type": "function"
		},
		{
			"inputs": [
				{
					"internalType": "address",
					"name": "module",
					"type": "address"
				}
			],
			"name": "enableModule",
			"outputs": [],
			"stateMutability": "nonpayable",
			"type": "function"
		},
		{
			"inputs": [
				{
					"internalType": "address",
					"name": "to",
					"type": "address"
				},
				{
					"internalType": "uint256",
					"name": "value",
					"type": "uint256"
				},
				{
					"internalType": "bytes",
					"name": "data",
					"type": "bytes"
				},
				{
					"internalType": "enum Enum.Operation",
					"name": "operation",
					"type": "uint8"
				},
				{
					"internalType": "uint256",
					"name": "safeTxGas",
					"type": "uint256"
				},
				{
					"internalType": "uint256",
					"name": "baseGas",
					"type": "uint256"
				},
				{
					"internalType": "uint256",
					"name": "gasPrice",
					"type": "uint256"
				},
				{
					"internalType": "address",
					"name": "gasToken",
					"type": "address"
				},
				{
					"internalType": "address payable",
					"name": "refundReceiver",
					"type": "address"
				},
				{
					"internalType": "bytes",
					"name": "signatures",
					"type": "bytes"
				}
			],
			"name": "execTransaction",
			"outputs": [
				{
					"internalType": "bool",
					"name": "success",
					"type": "bool"
				}
			],
			"stateMutability": "payable",
			"type": "function"
		},
		{
			"inputs": [
				{
					"internalType": "address",
					"name": "to",
					"type": "address"
				},
				{
					"internalType": "uint256",
					"name": "value",
					"type": "uint256"
				},
				{
					"internalType": "bytes",
					"name": "data",
					"type": "bytes"
				},
				{
					"internalType": "enum Enum.Operation",
					"name": "operation",
					"type": "uint8"
				}
			],
			"name": "execTransactionFromModule",
			"outputs": [
				{
					"internalType": "bool",
					"name": "success",
					"type": "bool"
				}
			],
			"stateMutability": "nonpayable",
			"type": "function"
		},
		{
			"inputs": [
				{
					"internalType": "address",
					"name": "to",
					"type": "address"
				},
				{
					"internalType": "uint256",
					"name": "value",
					"type": "uint256"
				},
				{
					"internalType": "bytes",
					"name": "data",
					"type": "bytes"
				},
				{
					"internalType": "enum Enum.Operation",
					"name": "operation",
					"type": "uint8"
				}
			],
			"name": "execTransactionFromModuleReturnData",
			"outputs": [
				{
					"internalType": "bool",
					"name": "success",
					"type": "bool"
				},
				{
					"internalType": "bytes",
					"name": "returnData",
					"type": "bytes"
				}
			],
			"stateMutability": "nonpayable",
			"type": "function"
		},
		{
			"inputs": [
				{
					"internalType": "address",
					"name": "start",
					"type": "address"
				},
				{
					"internalType": "uint256",
					"name": "pageSize",
					"type": "uint256"
				}
			],
			"name": "getModulesPaginated",
			"outputs": [
				{
					"internalType": "address[]",
					"name": "array",
					"type": "address[]"
				},
				{
					"internalType": "address",
					"name": "next",
					"type": "address"
				}
			],
			"stateMutability": "view",
			"type": "function"
		},
		{
			"inputs": [],
			"name": "getOwners",
			"outputs": [
				{
					"internalType": "address[]",
					"name": "",
					"type": "address[]"
				}
			],
			"stateMutability": "view",
			"type": "function"
		},
		{
			"inputs": [
				{
					"internalType": "uint256",
					"name": "offset",
					"type": "uint256"
				},
				{
					"internalType": "uint256",
					"name": "length",
					"type": "uint256"
				}
			],
			"name": "getStorageAt",
			"outputs": [
				{
					"internalType": "bytes",
					"name": "",
					"type": "bytes"
				}
			],
			"stateMutability": "view",
			"type": "function"
		},
		{
			"inputs": [],
			"name": "getThreshold",
			"outputs": [
				{
					"internalType": "uint256",
					"name": "",
					"type": "uint256"
				}
			],
			"stateMutability": "view",
			"type": "function"
		},
		{
			"inputs": [
				{
					"internalType": "address",
					"name": "to",
					"type": "address"
				},
				{
					"internalType": "uint256",
					"name": "value",
					"type": "uint256"
				},
				{
					"internalType": "bytes",
					"name": "data",
					"type": "bytes"
				},
				{
					"internalType": "enum Enum.Operation",
					"name": "operation",
					"type": "uint8"
				},
				{
					"internalType": "uint256",
					"name": "safeTxGas",
					"type": "uint256"
				},
				{
					"internalType": "uint256",
					"name": "baseGas",
					"type": "uint256"
				},
				{
					"internalType": "uint256",
					"name": "gasPrice",
					"type": "uint256"
				},
				{
					"internalType": "address",
					"name": "gasToken",
					"type": "address"
				},
				{
					"internalType": "address",
					"name": "refundReceiver",
					"type": "address"
				},
				{
					"internalType": "uint256",
					"name": "_nonce",
					"type": "uint256"
				}
			],
			"name": "getTransactionHash",
			"outputs": [
				{
					"internalType": "bytes32",
					"name": "",
					"type": "bytes32"
				}
			],
			"stateMutability": "view",
			"type": "function"
		},
		{
			"inputs": [
				{
					"internalType": "address",
					"name": "module",
					"type": "address"
				}
			],
			"name": "isModuleEnabled",
			"outputs": [
				{
					"internalType": "bool",
					"name": "",
					"type": "bool"
				}
			],
			"stateMutability": "view",
			"type": "function"
		},
		{
			"inputs": [
				{
					"internalType": "address",
					"name": "owner",
					"type": "address"
				}
			],
			"name": "isOwner",
			"outputs": [
				{
					"internalType": "bool",
					"name": "",
					"type": "bool"
				}
			],
			"stateMutability": "view",
			"type": "function"
		},
		{
			"inputs": [],
			"name": "nonce",
			"outputs": [
				{
					"internalType": "uint256",
					"name": "",
					"type": "uint256"
				}
			],
			"stateMutability": "view",
			"type": "function"
		},
		{
			"inputs": [
				{
					"internalType": "address",
					"name": "prevOwner",
					"type": "address"
				},
				{
					"internalType": "address",
					"name": "owner",
					"type": "address"
				},
				{
					"internalType": "uint256",
					"name": "_threshold",
					"type": "uint256"
				}
			],
			"name": "removeOwner",
			"outputs": [],
			"stateMutability": "nonpayable",
			"type": "function"
		},
		{
			"inputs": [
				{
					"internalType": "address",
					"name": "handler",
					"type": "address"
				}
			],
			"name": "setFallbackHandler",
			"outputs": [],
			"stateMutability": "nonpayable",
			"type": "function"
		},
		{
			"inputs": [
				{
					"internalType": "address",
					"name": "guard",
					"type": "address"
				}
			],
			"name": "setGuard",
			"outputs": [],
			"stateMutability": "nonpayable",
			"type": "function"
		},
		{
			"inputs": [
				{
					"internalType": "address",
					"name": "moduleGuard",
					"type": "address"
				}
			],
			"name": "setModuleGuard",
			"outputs": [],
			"stateMutability": "nonpayable",
			"type": "function"
		},
		{
			"inputs": [
				{
					"internalType": "address[]",
					"name": "_owners",
					"type": "address[]"
				},
				{
					"internalType": "uint256",
					"name": "_threshold",
					"type": "uint256"
				},
				{
					"internalType": "address",
					"name": "to",
					"type": "address"
				},
				{
					"internalType": "bytes",
					"name": "data",
					"type": "bytes"
				},
				{
					"internalType": "address",
					"name": "fallbackHandler",
					"type": "address"
				},
				{
					"internalType": "address",
					"name": "paymentToken",
					"type": "address"
				},
				{
					"internalType": "uint256",
					"name": "payment",
					"type": "uint256"
				},
				{
					"internalType": "address payable",
					"name": "paymentReceiver",
					"type": "address"
				}
			],
			"name": "setup",
			"outputs": [],
			"stateMutability": "nonpayable",
			"type": "function"
		},
		{
			"inputs": [
				{
					"internalType": "bytes32",
					"name": "",
					"type": "bytes32"
				}
			],
			"name": "signedMessages",
			"outputs": [
				{
					"internalType": "uint256",
					"name": "",
					"type": "uint256"
				}
			],
			"stateMutability": "view",
			"type": "function"
		},
		{
			"inputs": [
				{
					"internalType": "address",
					"name": "targetContract",
					"type": "address"
				},
				{
					"internalType": "bytes",
					"name": "calldataPayload",
					"type": "bytes"
				}
			],
			"name": "simulateAndRevert",
			"outputs": [],
			"stateMutability": "nonpayable",
			"type": "function"
		},
		{
			"inputs": [
				{
					"internalType": "address",
					"name": "prevOwner",
					"type": "address"
				},
				{
					"internalType": "address",
					"name": "oldOwner",
					"type": "address"
				},
				{
					"internalType": "address",
					"name": "newOwner",
					"type": "address"
				}
			],
			"name": "swapOwner",
			"outputs": [],
			"stateMutability": "nonpayable",
			"type": "function"
		},
		{
			"stateMutability": "payable",
			"type": "receive"
		}
	]
}