{
	"data": {
		"bytecode": {
			"linkReferences": {},
			"object": "6080604052348015600e575f80fd5b506104af8061001c5f395ff3fe608060405234801561000f575f80fd5b5060043610610049575f3560e01c80620e16c41461004d578063034899bc1461007d5780634de239cd1461009b5780637ffe9d8c146100cb575b5f80fd5b61006760048036038101906100629190610355565b6100fb565b60405161007491906103e0565b60405180910390f35b610085610113565b6040516100929190610433565b60405180910390f35b6100b560048036038101906100b09190610355565b610137565b6040516100c291906103e0565b60405180910390f35b6100e560048036038101906100e09190610355565b6101b1565b6040516100f291906103e0565b60405180910390f35b5f8261010886868561022b565b149050949350505050565b5f7c8c315df3bf5e4ec3a96e3b53902ff85f07cb983a0139233686ac7789f8905090565b5f808290505f8686905090505f5b818110156101a1575f8390505f8989848181106101655761016461044c565b5b9050602002013590508082106001811461018557815f528260205261018d565b825f52816020525b5060405f2094508260010192505050610145565b5084821492505050949350505050565b5f808290505f8686905090505f5b8181101561021b575f8390505f8989848181106101df576101de61044c565b5b905060200201359050808210600181146101ff57815f5282602052610207565b825f52816020525b5060405f20945082600101925050506101bf565b5084821492505050949350505050565b5f808290505f5b8585905081101561026f57610260828787848181106102545761025361044c565b5b9050602002013561027b565b91508080600101915050610232565b50809150509392505050565b5f8183106102925761028d82846102a5565b61029d565b61029c83836102a5565b5b905092915050565b5f825f528160205260405f20905092915050565b5f80fd5b5f80fd5b5f80fd5b5f80fd5b5f80fd5b5f8083601f8401126102e2576102e16102c1565b5b8235905067ffffffffffffffff8111156102ff576102fe6102c5565b5b60208301915083602082028301111561031b5761031a6102c9565b5b9250929050565b5f819050919050565b61033481610322565b811461033e575f80fd5b50565b5f8135905061034f8161032b565b92915050565b5f805f806060858703121561036d5761036c6102b9565b5b5f85013567ffffffffffffffff81111561038a576103896102bd565b5b610396878288016102cd565b945094505060206103a987828801610341565b92505060406103ba87828801610341565b91505092959194509250565b5f8115159050919050565b6103da816103c6565b82525050565b5f6020820190506103f35f8301846103d1565b92915050565b5f7fffffffff0000000000000000000000000000000000000000000000000000000082169050919050565b61042d816103f9565b82525050565b5f6020820190506104465f830184610424565b92915050565b7f4e487b71000000000000000000000000000000000000000000000000000000005f52603260045260245ffdfea26469706673582212200de82b889eb6f43b92f99787613cd1aa4031e8bfb138d345e02c3450097509ab64736f6c634300081a0033",
			"opcodes": "PUSH1 0x80 PUSH1 0x40 MSTORE CALLVALUE DUP1 ISZERO PUSH1 0xE JUMPI PUSH0 DUP1 REVERT JUMPDEST POP PUSH2 0x4AF DUP1 PUSH2 0x1C PUSH0 CODECOPY PUSH0 RETURN INVALID PUSH1 0x80 PUSH1 0x40 MSTORE CALLVALUE DUP1 ISZERO PUSH2 0xF JUMPI PUSH0 DUP1 REVERT JUMPDEST POP PUSH1 0x4 CALLDATASIZE LT PUSH2 0x49 JUMPI PUSH0 CALLDATALOAD PUSH1 0xE0 SHR DUP1 PUSH3 0xE16C4 EQ PUSH2 0x4D JUMPI DUP1 PUSH4 0x34899BC EQ PUSH2 0x7D JUMPI DUP1 PUSH4 0x4DE239CD EQ PUSH2 0x9B JUMPI DUP1 PUSH4 0x7FFE9D8C EQ PUSH2 0xCB JUMPI JUMPDEST PUSH0 DUP1 REVERT JUMPDEST PUSH2 0x67 PUSH1 0x4 DUP1 CALLDATASIZE SUB DUP2 ADD SWAP1 PUSH2 0x62 SWAP2 SWAP1 PUSH2 0x355 JUMP JUMPDEST PUSH2 0xFB JUMP JUMPDEST PUSH1 0x40 MLOAD PUSH2 0x74 SWAP2 SWAP1 PUSH2 0x3E0 JUMP JUMPDEST PUSH1 0x40 MLOAD DUP1 SWAP2 SUB SWAP1 RETURN JUMPDEST PUSH2 0x85 PUSH2 0x113 JUMP JUMPDEST PUSH1 0x40 MLOAD PUSH2 0x92 SWAP2 SWAP1 PUSH2 0x433 JUMP JUMPDEST PUSH1 0x40 MLOAD DUP1 SWAP2 SUB SWAP1 RETURN JUMPDEST PUSH2 0xB5 PUSH1 0x4 DUP1 CALLDATASIZE SUB DUP2 ADD SWAP1 PUSH2 0xB0 SWAP2 SWAP1 PUSH2 0x355 JUMP JUMPDEST PUSH2 0x137 JUMP JUMPDEST PUSH1 0x40 MLOAD PUSH2 0xC2 SWAP2 SWAP1 PUSH2 0x3E0 JUMP JUMPDEST PUSH1 0x40 MLOAD DUP1 SWAP2 SUB SWAP1 RETURN JUMPDEST PUSH2 0xE5 PUSH1 0x4 DUP1 CALLDATASIZE SUB DUP2 ADD SWAP1 PUSH2 0xE0 SWAP2 SWAP1 PUSH2 0x355 JUMP JUMPDEST PUSH2 0x1B1 JUMP JUMPDEST PUSH1 0x40 MLOAD PUSH2 0xF2 SWAP2 SWAP1 PUSH2 0x3E0 JUMP JUMPDEST PUSH1 0x40 MLOAD DUP1 SWAP2 SUB SWAP1 RETURN JUMPDEST PUSH0 DUP3 PUSH2 0x108 DUP7 DUP7 DUP6 PUSH2 0x22B JUMP JUMPDEST EQ SWAP1 POP SWAP5 SWAP4 POP POP POP POP JUMP JUMPDEST PUSH0 PUSH29 0x8C315DF3BF5E4EC3A96E3B53902FF85F07CB983A0139233686AC7789F8 SWAP1 POP SWAP1 JUMP JUMPDEST PUSH0 DUP1 DUP3 SWAP1 POP PUSH0 DUP7 DUP7 SWAP1 POP SWAP1 POP PUSH0 JUMPDEST DUP2 DUP2 LT ISZERO PUSH2 0x1A1 JUMPI PUSH0 DUP4 SWAP1 POP PUSH0 DUP10 DUP10 DUP5 DUP2 DUP2 LT PUSH2 0x165 JUMPI PUSH2 0x164 PUSH2 0x44C JUMP JUMPDEST JUMPDEST SWAP1 POP PUSH1 0x20 MUL ADD CALLDATALOAD SWAP1 POP DUP1 DUP3 LT PUSH1 0x1 DUP2 EQ PUSH2 0x185 JUMPI DUP2 PUSH0 MSTORE DUP3 PUSH1 0x20 MSTORE PUSH2 0x18D JUMP JUMPDEST DUP3 PUSH0 MSTORE DUP2 PUSH1 0x20 MSTORE JUMPDEST POP PUSH1 0x40 PUSH0 KECCAK256 SWAP5 POP DUP3 PUSH1 0x1 ADD SWAP3 POP POP POP PUSH2 0x145 JUMP JUMPDEST POP DUP5 DUP3 EQ SWAP3 POP POP POP SWAP5 SWAP4 POP POP POP POP JUMP JUMPDEST PUSH0 DUP1 DUP3 SWAP1 POP PUSH0 DUP7 DUP7 SWAP1 POP SWAP1 POP PUSH0 JUMPDEST DUP2 DUP2 LT ISZERO PUSH2 0x21B JUMPI PUSH0 DUP4 SWAP1 POP PUSH0 DUP10 DUP10 DUP5 DUP2 DUP2 LT PUSH2 0x1DF JUMPI PUSH2 0x1DE PUSH2 0x44C JUMP JUMPDEST JUMPDEST SWAP1 POP PUSH1 0x20 MUL ADD CALLDATALOAD SWAP1 POP DUP1 DUP3 LT PUSH1 0x1 DUP2 EQ PUSH2 0x1FF JUMPI DUP2 PUSH0 MSTORE DUP3 PUSH1 0x20 MSTORE PUSH2 0x207 JUMP JUMPDEST DUP3 PUSH0 MSTORE DUP2 PUSH1 0x20 MSTORE JUMPDEST POP PUSH1 0x40 PUSH0 KECCAK256 SWAP5 POP DUP3 PUSH1 0x1 ADD SWAP3 POP POP POP PUSH2 0x1BF JUMP JUMPDEST POP DUP5 DUP3 EQ SWAP3 POP POP POP SWAP5 SWAP4 POP POP POP POP JUMP JUMPDEST PUSH0 DUP1 DUP3 SWAP1 POP PUSH0 JUMPDEST DUP6 DUP6 SWAP1 POP DUP2 LT ISZERO PUSH2 0x26F JUMPI PUSH2 0x260 DUP3 DUP8 DUP8 DUP5 DUP2 DUP2 LT PUSH2 0x254 JUMPI PUSH2 0x253 PUSH2 0x44C JUMP JUMPDEST JUMPDEST SWAP1 POP PUSH1 0x20 MUL ADD CALLDATALOAD PUSH2 0x27B JUMP JUMPDEST SWAP2 POP DUP1 DUP1 PUSH1 0x1 ADD SWAP2 POP POP PUSH2 0x232 JUMP JUMPDEST POP DUP1 SWAP2 POP POP SWAP4 SWAP3 POP POP POP JUMP JUMPDEST PUSH0 DUP2 DUP4 LT PUSH2 0x292 JUMPI PUSH2 0x28D DUP3 DUP5 PUSH2 0x2A5 JUMP JUMPDEST PUSH2 0x29D JUMP JUMPDEST PUSH2 0x29C DUP4 DUP4 PUSH2 0x2A5 JUMP JUMPDEST JUMPDEST SWAP1 POP SWAP3 SWAP2 POP POP JUMP JUMPDEST PUSH0 DUP3 PUSH0 MSTORE DUP2 PUSH1 0x20 MSTORE PUSH1 0x40 PUSH0 KECCAK256 SWAP1 POP SWAP3 SWAP2 POP POP JUMP JUMPDEST PUSH0 DUP1 REVERT JUMPDEST PUSH0 DUP1 REVERT JUMPDEST PUSH0 DUP1 REVERT JUMPDEST PUSH0 DUP1 REVERT JUMPDEST PUSH0 DUP1 REVERT JUMPDEST PUSH0 DUP1 DUP4 PUSH1 0x1F DUP5 ADD SLT PUSH2 0x2E2 JUMPI PUSH2 0x2E1 PUSH2 0x2C1 JUMP JUMPDEST JUMPDEST DUP3 CALLDATALOAD SWAP1 POP PUSH8 0xFFFFFFFFFFFFFFFF DUP2 GT ISZERO PUSH2 0x2FF JUMPI PUSH2 0x2FE PUSH2 0x2C5 JUMP JUMPDEST JUMPDEST PUSH1 0x20 DUP4 ADD SWAP2 POP DUP4 PUSH1 0x20 DUP3 MUL DUP4 ADD GT ISZERO PUSH2 0x31B JUMPI PUSH2 0x31A PUSH2 0x2C9 JUMP JUMPDEST JUMPDEST SWAP3 POP SWAP3 SWAP1 POP JUMP JUMPDEST PUSH0 DUP2 SWAP1 POP SWAP2 SWAP1 POP JUMP JUMPDEST PUSH2 0x334 DUP2 PUSH2 0x322 JUMP JUMPDEST DUP2 EQ PUSH2 0x33E JUMPI PUSH0 DUP1 REVERT JUMPDEST POP JUMP JUMPDEST PUSH0 DUP2 CALLDATALOAD SWAP1 POP PUSH2 0x34F DUP2 PUSH2 0x32B JUMP JUMPDEST SWAP3 SWAP2 POP POP JUMP JUMPDEST PUSH0 DUP1 PUSH0 DUP1 PUSH1 0x60 DUP6 DUP8 SUB SLT ISZERO PUSH2 0x36D JUMPI PUSH2 0x36C PUSH2 0x2B9 JUMP JUMPDEST JUMPDEST PUSH0 DUP6 ADD CALLDATALOAD PUSH8 0xFFFFFFFFFFFFFFFF DUP2 GT ISZERO PUSH2 0x38A JUMPI PUSH2 0x389 PUSH2 0x2BD JUMP JUMPDEST JUMPDEST PUSH2 0x396 DUP8 DUP3 DUP9 ADD PUSH2 0x2CD JUMP JUMPDEST SWAP5 POP SWAP5 POP POP PUSH1 0x20 PUSH2 0x3A9 DUP8 DUP3 DUP9 ADD PUSH2 0x341 JUMP JUMPDEST SWAP3 POP POP PUSH1 0x40 PUSH2 0x3BA DUP8 DUP3 DUP9 ADD PUSH2 0x341 JUMP JUMPDEST SWAP2 POP POP SWAP3 SWAP6 SWAP2 SWAP5 POP SWAP3 POP JUMP JUMPDEST PUSH0 DUP2 ISZERO ISZERO SWAP1 POP SWAP2 SWAP1 POP JUMP JUMPDEST PUSH2 0x3DA DUP2 PUSH2 0x3C6 JUMP JUMPDEST DUP3 MSTORE POP POP JUMP JUMPDEST PUSH0 PUSH1 0x20 DUP3 ADD SWAP1 POP PUSH2 0x3F3 PUSH0 DUP4 ADD DUP5 PUSH2 0x3D1 JUMP JUMPDEST SWAP3 SWAP2 POP POP JUMP JUMPDEST PUSH0 PUSH32 0xFFFFFFFF00000000000000000000000000000000000000000000000000000000 DUP3 AND SWAP1 POP SWAP2 SWAP1 POP JUMP JUMPDEST PUSH2 0x42D DUP2 PUSH2 0x3F9 JUMP JUMPDEST DUP3 MSTORE POP POP JUMP JUMPDEST PUSH0 PUSH1 0x20 DUP3 ADD SWAP1 POP PUSH2 0x446 PUSH0 DUP4 ADD DUP5 PUSH2 0x424 JUMP JUMPDEST SWAP3 SWAP2 POP POP JUMP JUMPDEST PUSH32 0x4E487B7100000000000000000000000000000000000000000000000000000000 PUSH0 MSTORE PUSH1 0x32 PUSH1 0x4 MSTORE PUSH1 0x24 PUSH0 REVERT INVALID LOG2 PUSH5 0x6970667358 0x22 SLT KECCAK256 0xD 0xE8 0x2B DUP9 SWAP15 0xB6 DELEGATECALL EXTCODESIZE SWAP3 0xF9 SWAP8 DUP8 PUSH2 0x3CD1 0xAA BLOCKHASH BALANCE 0xE8 0xBF 0xB1 CODESIZE 0xD3 GASLIMIT 0xE0 0x2C CALLVALUE POP MULMOD PUSH22 0x9AB64736F6C634300081A0033000000000000000000 "
		},
		"gasEstimates": {
			"creation": {
				"codeDepositCost": "239800",
				"executionCost": "279",
				"totalCost": "240079"
			},
			"external": {
				"getSelector()": "338",
				"giakjecdfhb(bytes32[],bytes32,bytes32)": "infinite",
				"verifyCalldata(bytes32[],bytes32,bytes32)": "infinite",
				"verifyCalldataOld(bytes32[],bytes32,bytes32)": "infinite"
			},
			"internal": {
				"_efficientHash(bytes32,bytes32)": "96",
				"_hashPair(bytes32,bytes32)": "177",
				"processProofCalldata(bytes32[] calldata,bytes32)": "infinite"
			}
		},
		"methodIdentifiers": {
			"getSelector()": "034899bc",
			"giakjecdfhb(bytes32[],bytes32,bytes32)": "4de239cd",
			"verifyCalldata(bytes32[],bytes32,bytes32)": "7ffe9d8c",
			"verifyCalldataOld(bytes32[],bytes32,bytes32)": "000e16c4"
		}
	},
	"abi": [
		{
			"inputs": [],
			"name": "getSelector",
			"outputs": [
				{
					"internalType": "bytes4",
					"name": "",
					"type": "bytes4"
				}
			],
			"stateMutability": "pure",
			"type": "function"
		},
		{
			"inputs": [
				{
					"internalType": "bytes32[]",
					"name": "proof",
					"type": "bytes32[]"
				},
				{
					"internalType": "bytes32",
					"name": "root",
					"type": "bytes32"
				},
				{
					"internalType": "bytes32",
					"name": "leaf",
					"type": "bytes32"
				}
			],
			"name": "giakjecdfhb",
			"outputs": [
				{
					"internalType": "bool",
					"name": "",
					"type": "bool"
				}
			],
			"stateMutability": "pure",
			"type": "function"
		},
		{
			"inputs": [
				{
					"internalType": "bytes32[]",
					"name": "proof",
					"type": "bytes32[]"
				},
				{
					"internalType": "bytes32",
					"name": "root",
					"type": "bytes32"
				},
				{
					"internalType": "bytes32",
					"name": "leaf",
					"type": "bytes32"
				}
			],
			"name": "verifyCalldata",
			"outputs": [
				{
					"internalType": "bool",
					"name": "",
					"type": "bool"
				}
			],
			"stateMutability": "pure",
			"type": "function"
		},
		{
			"inputs": [
				{
					"internalType": "bytes32[]",
					"name": "proof",
					"type": "bytes32[]"
				},
				{
					"internalType": "bytes32",
					"name": "root",
					"type": "bytes32"
				},
				{
					"internalType": "bytes32",
					"name": "leaf",
					"type": "bytes32"
				}
			],
			"name": "verifyCalldataOld",
			"outputs": [
				{
					"internalType": "bool",
					"name": "",
					"type": "bool"
				}
			],
			"stateMutability": "pure",
			"type": "function"
		}
	]
}