{
	"data": {
		"bytecode": {
			"linkReferences": {},
			"object": "6080604052348015600e575f80fd5b506104f08061001c5f395ff3fe608060405234801561000f575f80fd5b5060043610610029575f3560e01c8063b504fcd51461002d575b5f80fd5b61004760048036038101906100429190610302565b61005d565b604051610054919061039c565b60405180910390f35b5f808490505f5b845181101561012c575f60028561007b91906103e2565b036100ca578185828151811061009457610093610412565b5b60200260200101516040516020016100ad92919061045f565b604051602081830303815290604052805190602001209150610110565b8481815181106100dd576100dc610412565b5b6020026020010151826040516020016100f792919061045f565b6040516020818303038152906040528051906020012091505b60028461011d919061048a565b93508080600101915050610064565b50858114915050949350505050565b5f604051905090565b5f80fd5b5f80fd5b5f819050919050565b61015e8161014c565b8114610168575f80fd5b50565b5f8135905061017981610155565b92915050565b5f80fd5b5f601f19601f8301169050919050565b7f4e487b71000000000000000000000000000000000000000000000000000000005f52604160045260245ffd5b6101c982610183565b810181811067ffffffffffffffff821117156101e8576101e7610193565b5b80604052505050565b5f6101fa61013b565b905061020682826101c0565b919050565b5f67ffffffffffffffff82111561022557610224610193565b5b602082029050602081019050919050565b5f80fd5b5f61024c6102478461020b565b6101f1565b9050808382526020820190506020840283018581111561026f5761026e610236565b5b835b818110156102985780610284888261016b565b845260208401935050602081019050610271565b5050509392505050565b5f82601f8301126102b6576102b561017f565b5b81356102c684826020860161023a565b91505092915050565b5f819050919050565b6102e1816102cf565b81146102eb575f80fd5b50565b5f813590506102fc816102d8565b92915050565b5f805f806080858703121561031a57610319610144565b5b5f6103278782880161016b565b94505060206103388782880161016b565b935050604085013567ffffffffffffffff81111561035957610358610148565b5b610365878288016102a2565b9250506060610376878288016102ee565b91505092959194509250565b5f8115159050919050565b61039681610382565b82525050565b5f6020820190506103af5f83018461038d565b92915050565b7f4e487b71000000000000000000000000000000000000000000000000000000005f52601260045260245ffd5b5f6103ec826102cf565b91506103f7836102cf565b925082610407576104066103b5565b5b828206905092915050565b7f4e487b71000000000000000000000000000000000000000000000000000000005f52603260045260245ffd5b5f819050919050565b6104596104548261014c565b61043f565b82525050565b5f61046a8285610448565b60208201915061047a8284610448565b6020820191508190509392505050565b5f610494826102cf565b915061049f836102cf565b9250826104af576104ae6103b5565b5b82820490509291505056fea2646970667358221220a454d41cff936b9a3e656a85900c3075d5508129e8f541d17656fc4c87d75cdf64736f6c634300081a0033",
			"opcodes": "PUSH1 0x80 PUSH1 0x40 MSTORE CALLVALUE DUP1 ISZERO PUSH1 0xE JUMPI PUSH0 DUP1 REVERT JUMPDEST POP PUSH2 0x4F0 DUP1 PUSH2 0x1C PUSH0 CODECOPY PUSH0 RETURN INVALID PUSH1 0x80 PUSH1 0x40 MSTORE CALLVALUE DUP1 ISZERO PUSH2 0xF JUMPI PUSH0 DUP1 REVERT JUMPDEST POP PUSH1 0x4 CALLDATASIZE LT PUSH2 0x29 JUMPI PUSH0 CALLDATALOAD PUSH1 0xE0 SHR DUP1 PUSH4 0xB504FCD5 EQ PUSH2 0x2D JUMPI JUMPDEST PUSH0 DUP1 REVERT JUMPDEST PUSH2 0x47 PUSH1 0x4 DUP1 CALLDATASIZE SUB DUP2 ADD SWAP1 PUSH2 0x42 SWAP2 SWAP1 PUSH2 0x302 JUMP JUMPDEST PUSH2 0x5D JUMP JUMPDEST PUSH1 0x40 MLOAD PUSH2 0x54 SWAP2 SWAP1 PUSH2 0x39C JUMP JUMPDEST PUSH1 0x40 MLOAD DUP1 SWAP2 SUB SWAP1 RETURN JUMPDEST PUSH0 DUP1 DUP5 SWAP1 POP PUSH0 JUMPDEST DUP5 MLOAD DUP2 LT ISZERO PUSH2 0x12C JUMPI PUSH0 PUSH1 0x2 DUP6 PUSH2 0x7B SWAP2 SWAP1 PUSH2 0x3E2 JUMP JUMPDEST SUB PUSH2 0xCA JUMPI DUP2 DUP6 DUP3 DUP2 MLOAD DUP2 LT PUSH2 0x94 JUMPI PUSH2 0x93 PUSH2 0x412 JUMP JUMPDEST JUMPDEST PUSH1 0x20 MUL PUSH1 0x20 ADD ADD MLOAD PUSH1 0x40 MLOAD PUSH1 0x20 ADD PUSH2 0xAD SWAP3 SWAP2 SWAP1 PUSH2 0x45F JUMP JUMPDEST PUSH1 0x40 MLOAD PUSH1 0x20 DUP2 DUP4 SUB SUB DUP2 MSTORE SWAP1 PUSH1 0x40 MSTORE DUP1 MLOAD SWAP1 PUSH1 0x20 ADD KECCAK256 SWAP2 POP PUSH2 0x110 JUMP JUMPDEST DUP5 DUP2 DUP2 MLOAD DUP2 LT PUSH2 0xDD JUMPI PUSH2 0xDC PUSH2 0x412 JUMP JUMPDEST JUMPDEST PUSH1 0x20 MUL PUSH1 0x20 ADD ADD MLOAD DUP3 PUSH1 0x40 MLOAD PUSH1 0x20 ADD PUSH2 0xF7 SWAP3 SWAP2 SWAP1 PUSH2 0x45F JUMP JUMPDEST PUSH1 0x40 MLOAD PUSH1 0x20 DUP2 DUP4 SUB SUB DUP2 MSTORE SWAP1 PUSH1 0x40 MSTORE DUP1 MLOAD SWAP1 PUSH1 0x20 ADD KECCAK256 SWAP2 POP JUMPDEST PUSH1 0x2 DUP5 PUSH2 0x11D SWAP2 SWAP1 PUSH2 0x48A JUMP JUMPDEST SWAP4 POP DUP1 DUP1 PUSH1 0x1 ADD SWAP2 POP POP PUSH2 0x64 JUMP JUMPDEST POP DUP6 DUP2 EQ SWAP2 POP POP SWAP5 SWAP4 POP POP POP POP JUMP JUMPDEST PUSH0 PUSH1 0x40 MLOAD SWAP1 POP SWAP1 JUMP JUMPDEST PUSH0 DUP1 REVERT JUMPDEST PUSH0 DUP1 REVERT JUMPDEST PUSH0 DUP2 SWAP1 POP SWAP2 SWAP1 POP JUMP JUMPDEST PUSH2 0x15E DUP2 PUSH2 0x14C JUMP JUMPDEST DUP2 EQ PUSH2 0x168 JUMPI PUSH0 DUP1 REVERT JUMPDEST POP JUMP JUMPDEST PUSH0 DUP2 CALLDATALOAD SWAP1 POP PUSH2 0x179 DUP2 PUSH2 0x155 JUMP JUMPDEST SWAP3 SWAP2 POP POP JUMP JUMPDEST PUSH0 DUP1 REVERT JUMPDEST PUSH0 PUSH1 0x1F NOT PUSH1 0x1F DUP4 ADD AND SWAP1 POP SWAP2 SWAP1 POP JUMP JUMPDEST PUSH32 0x4E487B7100000000000000000000000000000000000000000000000000000000 PUSH0 MSTORE PUSH1 0x41 PUSH1 0x4 MSTORE PUSH1 0x24 PUSH0 REVERT JUMPDEST PUSH2 0x1C9 DUP3 PUSH2 0x183 JUMP JUMPDEST DUP2 ADD DUP2 DUP2 LT PUSH8 0xFFFFFFFFFFFFFFFF DUP3 GT OR ISZERO PUSH2 0x1E8 JUMPI PUSH2 0x1E7 PUSH2 0x193 JUMP JUMPDEST JUMPDEST DUP1 PUSH1 0x40 MSTORE POP POP POP JUMP JUMPDEST PUSH0 PUSH2 0x1FA PUSH2 0x13B JUMP JUMPDEST SWAP1 POP PUSH2 0x206 DUP3 DUP3 PUSH2 0x1C0 JUMP JUMPDEST SWAP2 SWAP1 POP JUMP JUMPDEST PUSH0 PUSH8 0xFFFFFFFFFFFFFFFF DUP3 GT ISZERO PUSH2 0x225 JUMPI PUSH2 0x224 PUSH2 0x193 JUMP JUMPDEST JUMPDEST PUSH1 0x20 DUP3 MUL SWAP1 POP PUSH1 0x20 DUP2 ADD SWAP1 POP SWAP2 SWAP1 POP JUMP JUMPDEST PUSH0 DUP1 REVERT JUMPDEST PUSH0 PUSH2 0x24C PUSH2 0x247 DUP5 PUSH2 0x20B JUMP JUMPDEST PUSH2 0x1F1 JUMP JUMPDEST SWAP1 POP DUP1 DUP4 DUP3 MSTORE PUSH1 0x20 DUP3 ADD SWAP1 POP PUSH1 0x20 DUP5 MUL DUP4 ADD DUP6 DUP2 GT ISZERO PUSH2 0x26F JUMPI PUSH2 0x26E PUSH2 0x236 JUMP JUMPDEST JUMPDEST DUP4 JUMPDEST DUP2 DUP2 LT ISZERO PUSH2 0x298 JUMPI DUP1 PUSH2 0x284 DUP9 DUP3 PUSH2 0x16B JUMP JUMPDEST DUP5 MSTORE PUSH1 0x20 DUP5 ADD SWAP4 POP POP PUSH1 0x20 DUP2 ADD SWAP1 POP PUSH2 0x271 JUMP JUMPDEST POP POP POP SWAP4 SWAP3 POP POP POP JUMP JUMPDEST PUSH0 DUP3 PUSH1 0x1F DUP4 ADD SLT PUSH2 0x2B6 JUMPI PUSH2 0x2B5 PUSH2 0x17F JUMP JUMPDEST JUMPDEST DUP2 CALLDATALOAD PUSH2 0x2C6 DUP5 DUP3 PUSH1 0x20 DUP7 ADD PUSH2 0x23A JUMP JUMPDEST SWAP2 POP POP SWAP3 SWAP2 POP POP JUMP JUMPDEST PUSH0 DUP2 SWAP1 POP SWAP2 SWAP1 POP JUMP JUMPDEST PUSH2 0x2E1 DUP2 PUSH2 0x2CF JUMP JUMPDEST DUP2 EQ PUSH2 0x2EB JUMPI PUSH0 DUP1 REVERT JUMPDEST POP JUMP JUMPDEST PUSH0 DUP2 CALLDATALOAD SWAP1 POP PUSH2 0x2FC DUP2 PUSH2 0x2D8 JUMP JUMPDEST SWAP3 SWAP2 POP POP JUMP JUMPDEST PUSH0 DUP1 PUSH0 DUP1 PUSH1 0x80 DUP6 DUP8 SUB SLT ISZERO PUSH2 0x31A JUMPI PUSH2 0x319 PUSH2 0x144 JUMP JUMPDEST JUMPDEST PUSH0 PUSH2 0x327 DUP8 DUP3 DUP9 ADD PUSH2 0x16B JUMP JUMPDEST SWAP5 POP POP PUSH1 0x20 PUSH2 0x338 DUP8 DUP3 DUP9 ADD PUSH2 0x16B JUMP JUMPDEST SWAP4 POP POP PUSH1 0x40 DUP6 ADD CALLDATALOAD PUSH8 0xFFFFFFFFFFFFFFFF DUP2 GT ISZERO PUSH2 0x359 JUMPI PUSH2 0x358 PUSH2 0x148 JUMP JUMPDEST JUMPDEST PUSH2 0x365 DUP8 DUP3 DUP9 ADD PUSH2 0x2A2 JUMP JUMPDEST SWAP3 POP POP PUSH1 0x60 PUSH2 0x376 DUP8 DUP3 DUP9 ADD PUSH2 0x2EE JUMP JUMPDEST SWAP2 POP POP SWAP3 SWAP6 SWAP2 SWAP5 POP SWAP3 POP JUMP JUMPDEST PUSH0 DUP2 ISZERO ISZERO SWAP1 POP SWAP2 SWAP1 POP JUMP JUMPDEST PUSH2 0x396 DUP2 PUSH2 0x382 JUMP JUMPDEST DUP3 MSTORE POP POP JUMP JUMPDEST PUSH0 PUSH1 0x20 DUP3 ADD SWAP1 POP PUSH2 0x3AF PUSH0 DUP4 ADD DUP5 PUSH2 0x38D JUMP JUMPDEST SWAP3 SWAP2 POP POP JUMP JUMPDEST PUSH32 0x4E487B7100000000000000000000000000000000000000000000000000000000 PUSH0 MSTORE PUSH1 0x12 PUSH1 0x4 MSTORE PUSH1 0x24 PUSH0 REVERT JUMPDEST PUSH0 PUSH2 0x3EC DUP3 PUSH2 0x2CF JUMP JUMPDEST SWAP2 POP PUSH2 0x3F7 DUP4 PUSH2 0x2CF JUMP JUMPDEST SWAP3 POP DUP3 PUSH2 0x407 JUMPI PUSH2 0x406 PUSH2 0x3B5 JUMP JUMPDEST JUMPDEST DUP3 DUP3 MOD SWAP1 POP SWAP3 SWAP2 POP POP JUMP JUMPDEST PUSH32 0x4E487B7100000000000000000000000000000000000000000000000000000000 PUSH0 MSTORE PUSH1 0x32 PUSH1 0x4 MSTORE PUSH1 0x24 PUSH0 REVERT JUMPDEST PUSH0 DUP2 SWAP1 POP SWAP2 SWAP1 POP JUMP JUMPDEST PUSH2 0x459 PUSH2 0x454 DUP3 PUSH2 0x14C JUMP JUMPDEST PUSH2 0x43F JUMP JUMPDEST DUP3 MSTORE POP POP JUMP JUMPDEST PUSH0 PUSH2 0x46A DUP3 DUP6 PUSH2 0x448 JUMP JUMPDEST PUSH1 0x20 DUP3 ADD SWAP2 POP PUSH2 0x47A DUP3 DUP5 PUSH2 0x448 JUMP JUMPDEST PUSH1 0x20 DUP3 ADD SWAP2 POP DUP2 SWAP1 POP SWAP4 SWAP3 POP POP POP JUMP JUMPDEST PUSH0 PUSH2 0x494 DUP3 PUSH2 0x2CF JUMP JUMPDEST SWAP2 POP PUSH2 0x49F DUP4 PUSH2 0x2CF JUMP JUMPDEST SWAP3 POP DUP3 PUSH2 0x4AF JUMPI PUSH2 0x4AE PUSH2 0x3B5 JUMP JUMPDEST JUMPDEST DUP3 DUP3 DIV SWAP1 POP SWAP3 SWAP2 POP POP JUMP INVALID LOG2 PUSH5 0x6970667358 0x22 SLT KECCAK256 LOG4 SLOAD 0xD4 SHR SELFDESTRUCT SWAP4 PUSH12 0x9A3E656A85900C3075D55081 0x29 0xE8 CREATE2 COINBASE 0xD1 PUSH23 0x56FC4C87D75CDF64736F6C634300081A00330000000000 "
		},
		"gasEstimates": {
			"creation": {
				"codeDepositCost": "252800",
				"executionCost": "292",
				"totalCost": "253092"
			},
			"external": {
				"verifyProof(bytes32,bytes32,bytes32[],uint256)": "infinite"
			}
		},
		"methodIdentifiers": {
			"verifyProof(bytes32,bytes32,bytes32[],uint256)": "b504fcd5"
		}
	},
	"abi": [
		{
			"inputs": [
				{
					"internalType": "bytes32",
					"name": "root",
					"type": "bytes32"
				},
				{
					"internalType": "bytes32",
					"name": "leaf",
					"type": "bytes32"
				},
				{
					"internalType": "bytes32[]",
					"name": "proof",
					"type": "bytes32[]"
				},
				{
					"internalType": "uint256",
					"name": "index",
					"type": "uint256"
				}
			],
			"name": "verifyProof",
			"outputs": [
				{
					"internalType": "bool",
					"name": "",
					"type": "bool"
				}
			],
			"stateMutability": "pure",
			"type": "function"
		}
	]
}