{
	"data": {
		"bytecode": {
			"linkReferences": {},
			"object": "6080604052348015600e575f80fd5b5061035a8061001c5f395ff3fe608060405234801561000f575f80fd5b5060043610610033575f3560e01c80620e16c4146100375780637ffe9d8c14610067575b5f80fd5b610051600480360381019061004c9190610253565b610097565b60405161005e91906102de565b60405180910390f35b610081600480360381019061007c9190610253565b6100af565b60405161008e91906102de565b60405180910390f35b5f826100a4868685610129565b149050949350505050565b5f808290505f8686905090505f5b81811015610119575f8390505f8989848181106100dd576100dc6102f7565b5b905060200201359050808210600181146100fd57815f5282602052610105565b825f52816020525b5060405f20945082600101925050506100bd565b5084821492505050949350505050565b5f808290505f5b8585905081101561016d5761015e82878784818110610152576101516102f7565b5b90506020020135610179565b91508080600101915050610130565b50809150509392505050565b5f8183106101905761018b82846101a3565b61019b565b61019a83836101a3565b5b905092915050565b5f825f528160205260405f20905092915050565b5f80fd5b5f80fd5b5f80fd5b5f80fd5b5f80fd5b5f8083601f8401126101e0576101df6101bf565b5b8235905067ffffffffffffffff8111156101fd576101fc6101c3565b5b602083019150836020820283011115610219576102186101c7565b5b9250929050565b5f819050919050565b61023281610220565b811461023c575f80fd5b50565b5f8135905061024d81610229565b92915050565b5f805f806060858703121561026b5761026a6101b7565b5b5f85013567ffffffffffffffff811115610288576102876101bb565b5b610294878288016101cb565b945094505060206102a78782880161023f565b92505060406102b88782880161023f565b91505092959194509250565b5f8115159050919050565b6102d8816102c4565b82525050565b5f6020820190506102f15f8301846102cf565b92915050565b7f4e487b71000000000000000000000000000000000000000000000000000000005f52603260045260245ffdfea264697066735822122043fb0f87f0fe801f68f0331fabb15a859381a644bc2d721121c6ced181d4ca0a64736f6c634300081a0033",
			"opcodes": "PUSH1 0x80 PUSH1 0x40 MSTORE CALLVALUE DUP1 ISZERO PUSH1 0xE JUMPI PUSH0 DUP1 REVERT JUMPDEST POP PUSH2 0x35A DUP1 PUSH2 0x1C PUSH0 CODECOPY PUSH0 RETURN INVALID PUSH1 0x80 PUSH1 0x40 MSTORE CALLVALUE DUP1 ISZERO PUSH2 0xF JUMPI PUSH0 DUP1 REVERT JUMPDEST POP PUSH1 0x4 CALLDATASIZE LT PUSH2 0x33 JUMPI PUSH0 CALLDATALOAD PUSH1 0xE0 SHR DUP1 PUSH3 0xE16C4 EQ PUSH2 0x37 JUMPI DUP1 PUSH4 0x7FFE9D8C EQ PUSH2 0x67 JUMPI JUMPDEST PUSH0 DUP1 REVERT JUMPDEST PUSH2 0x51 PUSH1 0x4 DUP1 CALLDATASIZE SUB DUP2 ADD SWAP1 PUSH2 0x4C SWAP2 SWAP1 PUSH2 0x253 JUMP JUMPDEST PUSH2 0x97 JUMP JUMPDEST PUSH1 0x40 MLOAD PUSH2 0x5E SWAP2 SWAP1 PUSH2 0x2DE JUMP JUMPDEST PUSH1 0x40 MLOAD DUP1 SWAP2 SUB SWAP1 RETURN JUMPDEST PUSH2 0x81 PUSH1 0x4 DUP1 CALLDATASIZE SUB DUP2 ADD SWAP1 PUSH2 0x7C SWAP2 SWAP1 PUSH2 0x253 JUMP JUMPDEST PUSH2 0xAF JUMP JUMPDEST PUSH1 0x40 MLOAD PUSH2 0x8E SWAP2 SWAP1 PUSH2 0x2DE JUMP JUMPDEST PUSH1 0x40 MLOAD DUP1 SWAP2 SUB SWAP1 RETURN JUMPDEST PUSH0 DUP3 PUSH2 0xA4 DUP7 DUP7 DUP6 PUSH2 0x129 JUMP JUMPDEST EQ SWAP1 POP SWAP5 SWAP4 POP POP POP POP JUMP JUMPDEST PUSH0 DUP1 DUP3 SWAP1 POP PUSH0 DUP7 DUP7 SWAP1 POP SWAP1 POP PUSH0 JUMPDEST DUP2 DUP2 LT ISZERO PUSH2 0x119 JUMPI PUSH0 DUP4 SWAP1 POP PUSH0 DUP10 DUP10 DUP5 DUP2 DUP2 LT PUSH2 0xDD JUMPI PUSH2 0xDC PUSH2 0x2F7 JUMP JUMPDEST JUMPDEST SWAP1 POP PUSH1 0x20 MUL ADD CALLDATALOAD SWAP1 POP DUP1 DUP3 LT PUSH1 0x1 DUP2 EQ PUSH2 0xFD JUMPI DUP2 PUSH0 MSTORE DUP3 PUSH1 0x20 MSTORE PUSH2 0x105 JUMP JUMPDEST DUP3 PUSH0 MSTORE DUP2 PUSH1 0x20 MSTORE JUMPDEST POP PUSH1 0x40 PUSH0 KECCAK256 SWAP5 POP DUP3 PUSH1 0x1 ADD SWAP3 POP POP POP PUSH2 0xBD JUMP JUMPDEST POP DUP5 DUP3 EQ SWAP3 POP POP POP SWAP5 SWAP4 POP POP POP POP JUMP JUMPDEST PUSH0 DUP1 DUP3 SWAP1 POP PUSH0 JUMPDEST DUP6 DUP6 SWAP1 POP DUP2 LT ISZERO PUSH2 0x16D JUMPI PUSH2 0x15E DUP3 DUP8 DUP8 DUP5 DUP2 DUP2 LT PUSH2 0x152 JUMPI PUSH2 0x151 PUSH2 0x2F7 JUMP JUMPDEST JUMPDEST SWAP1 POP PUSH1 0x20 MUL ADD CALLDATALOAD PUSH2 0x179 JUMP JUMPDEST SWAP2 POP DUP1 DUP1 PUSH1 0x1 ADD SWAP2 POP POP PUSH2 0x130 JUMP JUMPDEST POP DUP1 SWAP2 POP POP SWAP4 SWAP3 POP POP POP JUMP JUMPDEST PUSH0 DUP2 DUP4 LT PUSH2 0x190 JUMPI PUSH2 0x18B DUP3 DUP5 PUSH2 0x1A3 JUMP JUMPDEST PUSH2 0x19B JUMP JUMPDEST PUSH2 0x19A DUP4 DUP4 PUSH2 0x1A3 JUMP JUMPDEST JUMPDEST SWAP1 POP SWAP3 SWAP2 POP POP JUMP JUMPDEST PUSH0 DUP3 PUSH0 MSTORE DUP2 PUSH1 0x20 MSTORE PUSH1 0x40 PUSH0 KECCAK256 SWAP1 POP SWAP3 SWAP2 POP POP JUMP JUMPDEST PUSH0 DUP1 REVERT JUMPDEST PUSH0 DUP1 REVERT JUMPDEST PUSH0 DUP1 REVERT JUMPDEST PUSH0 DUP1 REVERT JUMPDEST PUSH0 DUP1 REVERT JUMPDEST PUSH0 DUP1 DUP4 PUSH1 0x1F DUP5 ADD SLT PUSH2 0x1E0 JUMPI PUSH2 0x1DF PUSH2 0x1BF JUMP JUMPDEST JUMPDEST DUP3 CALLDATALOAD SWAP1 POP PUSH8 0xFFFFFFFFFFFFFFFF DUP2 GT ISZERO PUSH2 0x1FD JUMPI PUSH2 0x1FC PUSH2 0x1C3 JUMP JUMPDEST JUMPDEST PUSH1 0x20 DUP4 ADD SWAP2 POP DUP4 PUSH1 0x20 DUP3 MUL DUP4 ADD GT ISZERO PUSH2 0x219 JUMPI PUSH2 0x218 PUSH2 0x1C7 JUMP JUMPDEST JUMPDEST SWAP3 POP SWAP3 SWAP1 POP JUMP JUMPDEST PUSH0 DUP2 SWAP1 POP SWAP2 SWAP1 POP JUMP JUMPDEST PUSH2 0x232 DUP2 PUSH2 0x220 JUMP JUMPDEST DUP2 EQ PUSH2 0x23C JUMPI PUSH0 DUP1 REVERT JUMPDEST POP JUMP JUMPDEST PUSH0 DUP2 CALLDATALOAD SWAP1 POP PUSH2 0x24D DUP2 PUSH2 0x229 JUMP JUMPDEST SWAP3 SWAP2 POP POP JUMP JUMPDEST PUSH0 DUP1 PUSH0 DUP1 PUSH1 0x60 DUP6 DUP8 SUB SLT ISZERO PUSH2 0x26B JUMPI PUSH2 0x26A PUSH2 0x1B7 JUMP JUMPDEST JUMPDEST PUSH0 DUP6 ADD CALLDATALOAD PUSH8 0xFFFFFFFFFFFFFFFF DUP2 GT ISZERO PUSH2 0x288 JUMPI PUSH2 0x287 PUSH2 0x1BB JUMP JUMPDEST JUMPDEST PUSH2 0x294 DUP8 DUP3 DUP9 ADD PUSH2 0x1CB JUMP JUMPDEST SWAP5 POP SWAP5 POP POP PUSH1 0x20 PUSH2 0x2A7 DUP8 DUP3 DUP9 ADD PUSH2 0x23F JUMP JUMPDEST SWAP3 POP POP PUSH1 0x40 PUSH2 0x2B8 DUP8 DUP3 DUP9 ADD PUSH2 0x23F JUMP JUMPDEST SWAP2 POP POP SWAP3 SWAP6 SWAP2 SWAP5 POP SWAP3 POP JUMP JUMPDEST PUSH0 DUP2 ISZERO ISZERO SWAP1 POP SWAP2 SWAP1 POP JUMP JUMPDEST PUSH2 0x2D8 DUP2 PUSH2 0x2C4 JUMP JUMPDEST DUP3 MSTORE POP POP JUMP JUMPDEST PUSH0 PUSH1 0x20 DUP3 ADD SWAP1 POP PUSH2 0x2F1 PUSH0 DUP4 ADD DUP5 PUSH2 0x2CF JUMP JUMPDEST SWAP3 SWAP2 POP POP JUMP JUMPDEST PUSH32 0x4E487B7100000000000000000000000000000000000000000000000000000000 PUSH0 MSTORE PUSH1 0x32 PUSH1 0x4 MSTORE PUSH1 0x24 PUSH0 REVERT INVALID LOG2 PUSH5 0x6970667358 0x22 SLT KECCAK256 NUMBER 0xFB 0xF DUP8 CREATE INVALID DUP1 0x1F PUSH9 0xF0331FABB15A859381 0xA6 PREVRANDAO 0xBC 0x2D PUSH19 0x1121C6CED181D4CA0A64736F6C634300081A00 CALLER "
		},
		"gasEstimates": {
			"creation": {
				"codeDepositCost": "171600",
				"executionCost": "212",
				"totalCost": "171812"
			},
			"external": {
				"verifyCalldata(bytes32[],bytes32,bytes32)": "infinite",
				"verifyCalldataOld(bytes32[],bytes32,bytes32)": "infinite"
			},
			"internal": {
				"_efficientHash(bytes32,bytes32)": "96",
				"_hashPair(bytes32,bytes32)": "177",
				"processProofCalldata(bytes32[] calldata,bytes32)": "infinite"
			}
		},
		"methodIdentifiers": {
			"verifyCalldata(bytes32[],bytes32,bytes32)": "7ffe9d8c",
			"verifyCalldataOld(bytes32[],bytes32,bytes32)": "000e16c4"
		}
	},
	"abi": [
		{
			"inputs": [
				{
					"internalType": "bytes32[]",
					"name": "proof",
					"type": "bytes32[]"
				},
				{
					"internalType": "bytes32",
					"name": "root",
					"type": "bytes32"
				},
				{
					"internalType": "bytes32",
					"name": "leaf",
					"type": "bytes32"
				}
			],
			"name": "verifyCalldata",
			"outputs": [
				{
					"internalType": "bool",
					"name": "",
					"type": "bool"
				}
			],
			"stateMutability": "pure",
			"type": "function"
		},
		{
			"inputs": [
				{
					"internalType": "bytes32[]",
					"name": "proof",
					"type": "bytes32[]"
				},
				{
					"internalType": "bytes32",
					"name": "root",
					"type": "bytes32"
				},
				{
					"internalType": "bytes32",
					"name": "leaf",
					"type": "bytes32"
				}
			],
			"name": "verifyCalldataOld",
			"outputs": [
				{
					"internalType": "bool",
					"name": "",
					"type": "bool"
				}
			],
			"stateMutability": "pure",
			"type": "function"
		}
	]
}