{
	"merkleTree/merkleTree.sol": {
		"MerkleProof": {
			"abi": [
				{
					"inputs": [
						{
							"internalType": "bytes32[]",
							"name": "proof",
							"type": "bytes32[]"
						},
						{
							"internalType": "bytes32",
							"name": "root",
							"type": "bytes32"
						},
						{
							"internalType": "bytes32",
							"name": "leaf",
							"type": "bytes32"
						}
					],
					"name": "verifyCalldata",
					"outputs": [
						{
							"internalType": "bool",
							"name": "",
							"type": "bool"
						}
					],
					"stateMutability": "pure",
					"type": "function"
				},
				{
					"inputs": [
						{
							"internalType": "bytes32[]",
							"name": "proof",
							"type": "bytes32[]"
						},
						{
							"internalType": "bytes32",
							"name": "root",
							"type": "bytes32"
						},
						{
							"internalType": "bytes32",
							"name": "leaf",
							"type": "bytes32"
						}
					],
					"name": "verifyCalldataOld",
					"outputs": [
						{
							"internalType": "bool",
							"name": "",
							"type": "bool"
						}
					],
					"stateMutability": "pure",
					"type": "function"
				}
			],
			"devdoc": {
				"kind": "dev",
				"methods": {},
				"version": 1
			},
			"evm": {
				"assembly": "    /* \"merkleTree/merkleTree.sol\":58:2055  contract MerkleProof {... */\n  mstore(0x40, 0x80)\n  callvalue\n  dup1\n  iszero\n  tag_1\n  jumpi\n  0x00\n  dup1\n  revert\ntag_1:\n  pop\n  dataSize(sub_0)\n  dup1\n  dataOffset(sub_0)\n  0x00\n  codecopy\n  0x00\n  return\nstop\n\nsub_0: assembly {\n        /* \"merkleTree/merkleTree.sol\":58:2055  contract MerkleProof {... */\n      mstore(0x40, 0x80)\n      callvalue\n      dup1\n      iszero\n      tag_1\n      jumpi\n      0x00\n      dup1\n      revert\n    tag_1:\n      pop\n      jumpi(tag_2, lt(calldatasize, 0x04))\n      shr(0xe0, calldataload(0x00))\n      dup1\n      0x0e16c4\n      eq\n      tag_3\n      jumpi\n      dup1\n      0x7ffe9d8c\n      eq\n      tag_4\n      jumpi\n    tag_2:\n      0x00\n      dup1\n      revert\n        /* \"merkleTree/merkleTree.sol\":1083:1293  function verifyCalldataOld(... */\n    tag_3:\n      tag_5\n      0x04\n      dup1\n      calldatasize\n      sub\n      dup2\n      add\n      swap1\n      tag_6\n      swap2\n      swap1\n      tag_7\n      jump\t// in\n    tag_6:\n      tag_8\n      jump\t// in\n    tag_5:\n      mload(0x40)\n      tag_9\n      swap2\n      swap1\n      tag_10\n      jump\t// in\n    tag_9:\n      mload(0x40)\n      dup1\n      swap2\n      sub\n      swap1\n      return\n        /* \"merkleTree/merkleTree.sol\":85:1059  function verifyCalldata(... */\n    tag_4:\n      tag_11\n      0x04\n      dup1\n      calldatasize\n      sub\n      dup2\n      add\n      swap1\n      tag_12\n      swap2\n      swap1\n      tag_7\n      jump\t// in\n    tag_12:\n      tag_13\n      jump\t// in\n    tag_11:\n      mload(0x40)\n      tag_14\n      swap2\n      swap1\n      tag_10\n      jump\t// in\n    tag_14:\n      mload(0x40)\n      dup1\n      swap2\n      sub\n      swap1\n      return\n        /* \"merkleTree/merkleTree.sol\":1083:1293  function verifyCalldataOld(... */\n    tag_8:\n        /* \"merkleTree/merkleTree.sol\":1218:1222  bool */\n      0x00\n        /* \"merkleTree/merkleTree.sol\":1282:1286  root */\n      dup3\n        /* \"merkleTree/merkleTree.sol\":1245:1278  processProofCalldata(proof, leaf) */\n      tag_16\n        /* \"merkleTree/merkleTree.sol\":1266:1271  proof */\n      dup7\n      dup7\n        /* \"merkleTree/merkleTree.sol\":1273:1277  leaf */\n      dup6\n        /* \"merkleTree/merkleTree.sol\":1245:1265  processProofCalldata */\n      tag_17\n        /* \"merkleTree/merkleTree.sol\":1245:1278  processProofCalldata(proof, leaf) */\n      jump\t// in\n    tag_16:\n        /* \"merkleTree/merkleTree.sol\":1245:1286  processProofCalldata(proof, leaf) == root */\n      eq\n        /* \"merkleTree/merkleTree.sol\":1238:1286  return processProofCalldata(proof, leaf) == root */\n      swap1\n      pop\n        /* \"merkleTree/merkleTree.sol\":1083:1293  function verifyCalldataOld(... */\n      swap5\n      swap4\n      pop\n      pop\n      pop\n      pop\n      jump\t// out\n        /* \"merkleTree/merkleTree.sol\":85:1059  function verifyCalldata(... */\n    tag_13:\n        /* \"merkleTree/merkleTree.sol\":216:220  bool */\n      0x00\n        /* \"merkleTree/merkleTree.sol\":232:252  bytes32 computedHash */\n      dup1\n        /* \"merkleTree/merkleTree.sol\":255:259  leaf */\n      dup3\n        /* \"merkleTree/merkleTree.sol\":232:259  bytes32 computedHash = leaf */\n      swap1\n      pop\n        /* \"merkleTree/merkleTree.sol\":269:283  uint256 length */\n      0x00\n        /* \"merkleTree/merkleTree.sol\":286:291  proof */\n      dup7\n      dup7\n        /* \"merkleTree/merkleTree.sol\":286:298  proof.length */\n      swap1\n      pop\n        /* \"merkleTree/merkleTree.sol\":269:298  uint256 length = proof.length */\n      swap1\n      pop\n        /* \"merkleTree/merkleTree.sol\":313:322  uint256 i */\n      0x00\n        /* \"merkleTree/merkleTree.sol\":308:1016  for (uint256 i = 0; i < length; ) {... */\n    tag_19:\n        /* \"merkleTree/merkleTree.sol\":332:338  length */\n      dup2\n        /* \"merkleTree/merkleTree.sol\":328:329  i */\n      dup2\n        /* \"merkleTree/merkleTree.sol\":328:338  i < length */\n      lt\n        /* \"merkleTree/merkleTree.sol\":308:1016  for (uint256 i = 0; i < length; ) {... */\n      iszero\n      tag_20\n      jumpi\n        /* \"merkleTree/merkleTree.sol\":356:365  bytes32 a */\n      0x00\n        /* \"merkleTree/merkleTree.sol\":368:380  computedHash */\n      dup4\n        /* \"merkleTree/merkleTree.sol\":356:380  bytes32 a = computedHash */\n      swap1\n      pop\n        /* \"merkleTree/merkleTree.sol\":394:403  bytes32 b */\n      0x00\n        /* \"merkleTree/merkleTree.sol\":406:411  proof */\n      dup10\n      dup10\n        /* \"merkleTree/merkleTree.sol\":412:413  i */\n      dup5\n        /* \"merkleTree/merkleTree.sol\":406:414  proof[i] */\n      dup2\n      dup2\n      lt\n      tag_22\n      jumpi\n      tag_23\n      tag_24\n      jump\t// in\n    tag_23:\n    tag_22:\n      swap1\n      pop\n      0x20\n      mul\n      add\n      calldataload\n        /* \"merkleTree/merkleTree.sol\":394:414  bytes32 b = proof[i] */\n      swap1\n      pop\n        /* \"merkleTree/merkleTree.sol\":513:514  b */\n      dup1\n        /* \"merkleTree/merkleTree.sol\":510:511  a */\n      dup3\n        /* \"merkleTree/merkleTree.sol\":507:515  lt(a, b) */\n      lt\n        /* \"merkleTree/merkleTree.sol\":537:538  1 */\n      0x01\n        /* \"merkleTree/merkleTree.sol\":532:677  case 1 {... */\n      dup2\n      eq\n      tag_26\n      jumpi\n        /* \"merkleTree/merkleTree.sol\":784:785  b */\n      dup2\n        /* \"merkleTree/merkleTree.sol\":778:782  0x00 */\n      0x00\n        /* \"merkleTree/merkleTree.sol\":771:786  mstore(0x00, b) */\n      mstore\n        /* \"merkleTree/merkleTree.sol\":820:821  a */\n      dup3\n        /* \"merkleTree/merkleTree.sol\":814:818  0x20 */\n      0x20\n        /* \"merkleTree/merkleTree.sol\":807:822  mstore(0x20, a) */\n      mstore\n        /* \"merkleTree/merkleTree.sol\":500:840  switch lt(a, b)... */\n      jump(tag_25)\n        /* \"merkleTree/merkleTree.sol\":532:677  case 1 {... */\n    tag_26:\n        /* \"merkleTree/merkleTree.sol\":621:622  a */\n      dup3\n        /* \"merkleTree/merkleTree.sol\":615:619  0x00 */\n      0x00\n        /* \"merkleTree/merkleTree.sol\":608:623  mstore(0x00, a) */\n      mstore\n        /* \"merkleTree/merkleTree.sol\":657:658  b */\n      dup2\n        /* \"merkleTree/merkleTree.sol\":651:655  0x20 */\n      0x20\n        /* \"merkleTree/merkleTree.sol\":644:659  mstore(0x20, b) */\n      mstore\n        /* \"merkleTree/merkleTree.sol\":500:840  switch lt(a, b)... */\n    tag_25:\n      pop\n        /* \"merkleTree/merkleTree.sol\":956:960  0x40 */\n      0x40\n        /* \"merkleTree/merkleTree.sol\":950:954  0x00 */\n      0x00\n        /* \"merkleTree/merkleTree.sol\":940:961  keccak256(0x00, 0x40) */\n      keccak256\n        /* \"merkleTree/merkleTree.sol\":924:961  computedHash := keccak256(0x00, 0x40) */\n      swap5\n      pop\n        /* \"merkleTree/merkleTree.sol\":1000:1003  ++i */\n      dup3\n      0x01\n      add\n      swap3\n      pop\n        /* \"merkleTree/merkleTree.sol\":342:1016  {... */\n      pop\n      pop\n        /* \"merkleTree/merkleTree.sol\":308:1016  for (uint256 i = 0; i < length; ) {... */\n      jump(tag_19)\n    tag_20:\n      pop\n        /* \"merkleTree/merkleTree.sol\":1048:1052  root */\n      dup5\n        /* \"merkleTree/merkleTree.sol\":1032:1044  computedHash */\n      dup3\n        /* \"merkleTree/merkleTree.sol\":1032:1052  computedHash == root */\n      eq\n        /* \"merkleTree/merkleTree.sol\":1025:1052  return computedHash == root */\n      swap3\n      pop\n      pop\n      pop\n        /* \"merkleTree/merkleTree.sol\":85:1059  function verifyCalldata(... */\n      swap5\n      swap4\n      pop\n      pop\n      pop\n      pop\n      jump\t// out\n        /* \"merkleTree/merkleTree.sol\":1299:1621  function processProofCalldata(... */\n    tag_17:\n        /* \"merkleTree/merkleTree.sol\":1414:1421  bytes32 */\n      0x00\n        /* \"merkleTree/merkleTree.sol\":1433:1453  bytes32 computedHash */\n      dup1\n        /* \"merkleTree/merkleTree.sol\":1456:1460  leaf */\n      dup3\n        /* \"merkleTree/merkleTree.sol\":1433:1460  bytes32 computedHash = leaf */\n      swap1\n      pop\n        /* \"merkleTree/merkleTree.sol\":1475:1484  uint256 i */\n      0x00\n        /* \"merkleTree/merkleTree.sol\":1470:1586  for (uint256 i = 0; i < proof.length; i++) {... */\n    tag_28:\n        /* \"merkleTree/merkleTree.sol\":1494:1499  proof */\n      dup6\n      dup6\n        /* \"merkleTree/merkleTree.sol\":1494:1506  proof.length */\n      swap1\n      pop\n        /* \"merkleTree/merkleTree.sol\":1490:1491  i */\n      dup2\n        /* \"merkleTree/merkleTree.sol\":1490:1506  i < proof.length */\n      lt\n        /* \"merkleTree/merkleTree.sol\":1470:1586  for (uint256 i = 0; i < proof.length; i++) {... */\n      iszero\n      tag_29\n      jumpi\n        /* \"merkleTree/merkleTree.sol\":1542:1575  _hashPair(computedHash, proof[i]) */\n      tag_31\n        /* \"merkleTree/merkleTree.sol\":1552:1564  computedHash */\n      dup3\n        /* \"merkleTree/merkleTree.sol\":1566:1571  proof */\n      dup8\n      dup8\n        /* \"merkleTree/merkleTree.sol\":1572:1573  i */\n      dup5\n        /* \"merkleTree/merkleTree.sol\":1566:1574  proof[i] */\n      dup2\n      dup2\n      lt\n      tag_32\n      jumpi\n      tag_33\n      tag_24\n      jump\t// in\n    tag_33:\n    tag_32:\n      swap1\n      pop\n      0x20\n      mul\n      add\n      calldataload\n        /* \"merkleTree/merkleTree.sol\":1542:1551  _hashPair */\n      tag_34\n        /* \"merkleTree/merkleTree.sol\":1542:1575  _hashPair(computedHash, proof[i]) */\n      jump\t// in\n    tag_31:\n        /* \"merkleTree/merkleTree.sol\":1527:1575  computedHash = _hashPair(computedHash, proof[i]) */\n      swap2\n      pop\n        /* \"merkleTree/merkleTree.sol\":1508:1511  i++ */\n      dup1\n      dup1\n      0x01\n      add\n      swap2\n      pop\n      pop\n        /* \"merkleTree/merkleTree.sol\":1470:1586  for (uint256 i = 0; i < proof.length; i++) {... */\n      jump(tag_28)\n    tag_29:\n      pop\n        /* \"merkleTree/merkleTree.sol\":1602:1614  computedHash */\n      dup1\n        /* \"merkleTree/merkleTree.sol\":1595:1614  return computedHash */\n      swap2\n      pop\n      pop\n        /* \"merkleTree/merkleTree.sol\":1299:1621  function processProofCalldata(... */\n      swap4\n      swap3\n      pop\n      pop\n      pop\n      jump\t// out\n        /* \"merkleTree/merkleTree.sol\":1627:1801  function _hashPair(bytes32 a, bytes32 b)... */\n    tag_34:\n        /* \"merkleTree/merkleTree.sol\":1713:1720  bytes32 */\n      0x00\n        /* \"merkleTree/merkleTree.sol\":1747:1748  b */\n      dup2\n        /* \"merkleTree/merkleTree.sol\":1743:1744  a */\n      dup4\n        /* \"merkleTree/merkleTree.sol\":1743:1748  a < b */\n      lt\n        /* \"merkleTree/merkleTree.sol\":1743:1794  a < b ? _efficientHash(a, b) : _efficientHash(b, a) */\n      tag_36\n      jumpi\n        /* \"merkleTree/merkleTree.sol\":1774:1794  _efficientHash(b, a) */\n      tag_37\n        /* \"merkleTree/merkleTree.sol\":1789:1790  b */\n      dup3\n        /* \"merkleTree/merkleTree.sol\":1792:1793  a */\n      dup5\n        /* \"merkleTree/merkleTree.sol\":1774:1788  _efficientHash */\n      tag_38\n        /* \"merkleTree/merkleTree.sol\":1774:1794  _efficientHash(b, a) */\n      jump\t// in\n    tag_37:\n        /* \"merkleTree/merkleTree.sol\":1743:1794  a < b ? _efficientHash(a, b) : _efficientHash(b, a) */\n      jump(tag_39)\n    tag_36:\n        /* \"merkleTree/merkleTree.sol\":1751:1771  _efficientHash(a, b) */\n      tag_40\n        /* \"merkleTree/merkleTree.sol\":1766:1767  a */\n      dup4\n        /* \"merkleTree/merkleTree.sol\":1769:1770  b */\n      dup4\n        /* \"merkleTree/merkleTree.sol\":1751:1765  _efficientHash */\n      tag_38\n        /* \"merkleTree/merkleTree.sol\":1751:1771  _efficientHash(a, b) */\n      jump\t// in\n    tag_40:\n        /* \"merkleTree/merkleTree.sol\":1743:1794  a < b ? _efficientHash(a, b) : _efficientHash(b, a) */\n    tag_39:\n        /* \"merkleTree/merkleTree.sol\":1736:1794  return a < b ? _efficientHash(a, b) : _efficientHash(b, a) */\n      swap1\n      pop\n        /* \"merkleTree/merkleTree.sol\":1627:1801  function _hashPair(bytes32 a, bytes32 b)... */\n      swap3\n      swap2\n      pop\n      pop\n      jump\t// out\n        /* \"merkleTree/merkleTree.sol\":1807:2053  function _efficientHash(bytes32 a, bytes32 b)... */\n    tag_38:\n        /* \"merkleTree/merkleTree.sol\":1899:1912  bytes32 value */\n      0x00\n        /* \"merkleTree/merkleTree.sol\":1964:1965  a */\n      dup3\n        /* \"merkleTree/merkleTree.sol\":1958:1962  0x00 */\n      0x00\n        /* \"merkleTree/merkleTree.sol\":1951:1966  mstore(0x00, a) */\n      mstore\n        /* \"merkleTree/merkleTree.sol\":1992:1993  b */\n      dup2\n        /* \"merkleTree/merkleTree.sol\":1986:1990  0x20 */\n      0x20\n        /* \"merkleTree/merkleTree.sol\":1979:1994  mstore(0x20, b) */\n      mstore\n        /* \"merkleTree/merkleTree.sol\":2032:2036  0x40 */\n      0x40\n        /* \"merkleTree/merkleTree.sol\":2026:2030  0x00 */\n      0x00\n        /* \"merkleTree/merkleTree.sol\":2016:2037  keccak256(0x00, 0x40) */\n      keccak256\n        /* \"merkleTree/merkleTree.sol\":2007:2037  value := keccak256(0x00, 0x40) */\n      swap1\n      pop\n        /* \"merkleTree/merkleTree.sol\":1807:2053  function _efficientHash(bytes32 a, bytes32 b)... */\n      swap3\n      swap2\n      pop\n      pop\n      jump\t// out\n        /* \"#utility.yul\":88:205   */\n    tag_43:\n        /* \"#utility.yul\":197:198   */\n      0x00\n        /* \"#utility.yul\":194:195   */\n      dup1\n        /* \"#utility.yul\":187:199   */\n      revert\n        /* \"#utility.yul\":211:328   */\n    tag_44:\n        /* \"#utility.yul\":320:321   */\n      0x00\n        /* \"#utility.yul\":317:318   */\n      dup1\n        /* \"#utility.yul\":310:322   */\n      revert\n        /* \"#utility.yul\":334:451   */\n    tag_45:\n        /* \"#utility.yul\":443:444   */\n      0x00\n        /* \"#utility.yul\":440:441   */\n      dup1\n        /* \"#utility.yul\":433:445   */\n      revert\n        /* \"#utility.yul\":457:574   */\n    tag_46:\n        /* \"#utility.yul\":566:567   */\n      0x00\n        /* \"#utility.yul\":563:564   */\n      dup1\n        /* \"#utility.yul\":556:568   */\n      revert\n        /* \"#utility.yul\":580:697   */\n    tag_47:\n        /* \"#utility.yul\":689:690   */\n      0x00\n        /* \"#utility.yul\":686:687   */\n      dup1\n        /* \"#utility.yul\":679:691   */\n      revert\n        /* \"#utility.yul\":720:1288   */\n    tag_48:\n        /* \"#utility.yul\":793:801   */\n      0x00\n        /* \"#utility.yul\":803:809   */\n      dup1\n        /* \"#utility.yul\":853:856   */\n      dup4\n        /* \"#utility.yul\":846:850   */\n      0x1f\n        /* \"#utility.yul\":838:844   */\n      dup5\n        /* \"#utility.yul\":834:851   */\n      add\n        /* \"#utility.yul\":830:857   */\n      slt\n        /* \"#utility.yul\":820:942   */\n      tag_62\n      jumpi\n        /* \"#utility.yul\":861:940   */\n      tag_63\n      tag_45\n      jump\t// in\n    tag_63:\n        /* \"#utility.yul\":820:942   */\n    tag_62:\n        /* \"#utility.yul\":974:980   */\n      dup3\n        /* \"#utility.yul\":961:981   */\n      calldataload\n        /* \"#utility.yul\":951:981   */\n      swap1\n      pop\n        /* \"#utility.yul\":1004:1022   */\n      0xffffffffffffffff\n        /* \"#utility.yul\":996:1002   */\n      dup2\n        /* \"#utility.yul\":993:1023   */\n      gt\n        /* \"#utility.yul\":990:1107   */\n      iszero\n      tag_64\n      jumpi\n        /* \"#utility.yul\":1026:1105   */\n      tag_65\n      tag_46\n      jump\t// in\n    tag_65:\n        /* \"#utility.yul\":990:1107   */\n    tag_64:\n        /* \"#utility.yul\":1140:1144   */\n      0x20\n        /* \"#utility.yul\":1132:1138   */\n      dup4\n        /* \"#utility.yul\":1128:1145   */\n      add\n        /* \"#utility.yul\":1116:1145   */\n      swap2\n      pop\n        /* \"#utility.yul\":1194:1197   */\n      dup4\n        /* \"#utility.yul\":1186:1190   */\n      0x20\n        /* \"#utility.yul\":1178:1184   */\n      dup3\n        /* \"#utility.yul\":1174:1191   */\n      mul\n        /* \"#utility.yul\":1164:1172   */\n      dup4\n        /* \"#utility.yul\":1160:1192   */\n      add\n        /* \"#utility.yul\":1157:1198   */\n      gt\n        /* \"#utility.yul\":1154:1282   */\n      iszero\n      tag_66\n      jumpi\n        /* \"#utility.yul\":1201:1280   */\n      tag_67\n      tag_47\n      jump\t// in\n    tag_67:\n        /* \"#utility.yul\":1154:1282   */\n    tag_66:\n        /* \"#utility.yul\":720:1288   */\n      swap3\n      pop\n      swap3\n      swap1\n      pop\n      jump\t// out\n        /* \"#utility.yul\":1294:1371   */\n    tag_49:\n        /* \"#utility.yul\":1331:1338   */\n      0x00\n        /* \"#utility.yul\":1360:1365   */\n      dup2\n        /* \"#utility.yul\":1349:1365   */\n      swap1\n      pop\n        /* \"#utility.yul\":1294:1371   */\n      swap2\n      swap1\n      pop\n      jump\t// out\n        /* \"#utility.yul\":1377:1499   */\n    tag_50:\n        /* \"#utility.yul\":1450:1474   */\n      tag_70\n        /* \"#utility.yul\":1468:1473   */\n      dup2\n        /* \"#utility.yul\":1450:1474   */\n      tag_49\n      jump\t// in\n    tag_70:\n        /* \"#utility.yul\":1443:1448   */\n      dup2\n        /* \"#utility.yul\":1440:1475   */\n      eq\n        /* \"#utility.yul\":1430:1493   */\n      tag_71\n      jumpi\n        /* \"#utility.yul\":1489:1490   */\n      0x00\n        /* \"#utility.yul\":1486:1487   */\n      dup1\n        /* \"#utility.yul\":1479:1491   */\n      revert\n        /* \"#utility.yul\":1430:1493   */\n    tag_71:\n        /* \"#utility.yul\":1377:1499   */\n      pop\n      jump\t// out\n        /* \"#utility.yul\":1505:1644   */\n    tag_51:\n        /* \"#utility.yul\":1551:1556   */\n      0x00\n        /* \"#utility.yul\":1589:1595   */\n      dup2\n        /* \"#utility.yul\":1576:1596   */\n      calldataload\n        /* \"#utility.yul\":1567:1596   */\n      swap1\n      pop\n        /* \"#utility.yul\":1605:1638   */\n      tag_73\n        /* \"#utility.yul\":1632:1637   */\n      dup2\n        /* \"#utility.yul\":1605:1638   */\n      tag_50\n      jump\t// in\n    tag_73:\n        /* \"#utility.yul\":1505:1644   */\n      swap3\n      swap2\n      pop\n      pop\n      jump\t// out\n        /* \"#utility.yul\":1650:2499   */\n    tag_7:\n        /* \"#utility.yul\":1754:1760   */\n      0x00\n        /* \"#utility.yul\":1762:1768   */\n      dup1\n        /* \"#utility.yul\":1770:1776   */\n      0x00\n        /* \"#utility.yul\":1778:1784   */\n      dup1\n        /* \"#utility.yul\":1827:1829   */\n      0x60\n        /* \"#utility.yul\":1815:1824   */\n      dup6\n        /* \"#utility.yul\":1806:1813   */\n      dup8\n        /* \"#utility.yul\":1802:1825   */\n      sub\n        /* \"#utility.yul\":1798:1830   */\n      slt\n        /* \"#utility.yul\":1795:1914   */\n      iszero\n      tag_75\n      jumpi\n        /* \"#utility.yul\":1833:1912   */\n      tag_76\n      tag_43\n      jump\t// in\n    tag_76:\n        /* \"#utility.yul\":1795:1914   */\n    tag_75:\n        /* \"#utility.yul\":1981:1982   */\n      0x00\n        /* \"#utility.yul\":1970:1979   */\n      dup6\n        /* \"#utility.yul\":1966:1983   */\n      add\n        /* \"#utility.yul\":1953:1984   */\n      calldataload\n        /* \"#utility.yul\":2011:2029   */\n      0xffffffffffffffff\n        /* \"#utility.yul\":2003:2009   */\n      dup2\n        /* \"#utility.yul\":2000:2030   */\n      gt\n        /* \"#utility.yul\":1997:2114   */\n      iszero\n      tag_77\n      jumpi\n        /* \"#utility.yul\":2033:2112   */\n      tag_78\n      tag_44\n      jump\t// in\n    tag_78:\n        /* \"#utility.yul\":1997:2114   */\n    tag_77:\n        /* \"#utility.yul\":2146:2226   */\n      tag_79\n        /* \"#utility.yul\":2218:2225   */\n      dup8\n        /* \"#utility.yul\":2209:2215   */\n      dup3\n        /* \"#utility.yul\":2198:2207   */\n      dup9\n        /* \"#utility.yul\":2194:2216   */\n      add\n        /* \"#utility.yul\":2146:2226   */\n      tag_48\n      jump\t// in\n    tag_79:\n        /* \"#utility.yul\":2128:2226   */\n      swap5\n      pop\n      swap5\n      pop\n        /* \"#utility.yul\":1924:2236   */\n      pop\n        /* \"#utility.yul\":2275:2277   */\n      0x20\n        /* \"#utility.yul\":2301:2354   */\n      tag_80\n        /* \"#utility.yul\":2346:2353   */\n      dup8\n        /* \"#utility.yul\":2337:2343   */\n      dup3\n        /* \"#utility.yul\":2326:2335   */\n      dup9\n        /* \"#utility.yul\":2322:2344   */\n      add\n        /* \"#utility.yul\":2301:2354   */\n      tag_51\n      jump\t// in\n    tag_80:\n        /* \"#utility.yul\":2291:2354   */\n      swap3\n      pop\n        /* \"#utility.yul\":2246:2364   */\n      pop\n        /* \"#utility.yul\":2403:2405   */\n      0x40\n        /* \"#utility.yul\":2429:2482   */\n      tag_81\n        /* \"#utility.yul\":2474:2481   */\n      dup8\n        /* \"#utility.yul\":2465:2471   */\n      dup3\n        /* \"#utility.yul\":2454:2463   */\n      dup9\n        /* \"#utility.yul\":2450:2472   */\n      add\n        /* \"#utility.yul\":2429:2482   */\n      tag_51\n      jump\t// in\n    tag_81:\n        /* \"#utility.yul\":2419:2482   */\n      swap2\n      pop\n        /* \"#utility.yul\":2374:2492   */\n      pop\n        /* \"#utility.yul\":1650:2499   */\n      swap3\n      swap6\n      swap2\n      swap5\n      pop\n      swap3\n      pop\n      jump\t// out\n        /* \"#utility.yul\":2505:2595   */\n    tag_52:\n        /* \"#utility.yul\":2539:2546   */\n      0x00\n        /* \"#utility.yul\":2582:2587   */\n      dup2\n        /* \"#utility.yul\":2575:2588   */\n      iszero\n        /* \"#utility.yul\":2568:2589   */\n      iszero\n        /* \"#utility.yul\":2557:2589   */\n      swap1\n      pop\n        /* \"#utility.yul\":2505:2595   */\n      swap2\n      swap1\n      pop\n      jump\t// out\n        /* \"#utility.yul\":2601:2710   */\n    tag_53:\n        /* \"#utility.yul\":2682:2703   */\n      tag_84\n        /* \"#utility.yul\":2697:2702   */\n      dup2\n        /* \"#utility.yul\":2682:2703   */\n      tag_52\n      jump\t// in\n    tag_84:\n        /* \"#utility.yul\":2677:2680   */\n      dup3\n        /* \"#utility.yul\":2670:2704   */\n      mstore\n        /* \"#utility.yul\":2601:2710   */\n      pop\n      pop\n      jump\t// out\n        /* \"#utility.yul\":2716:2926   */\n    tag_10:\n        /* \"#utility.yul\":2803:2807   */\n      0x00\n        /* \"#utility.yul\":2841:2843   */\n      0x20\n        /* \"#utility.yul\":2830:2839   */\n      dup3\n        /* \"#utility.yul\":2826:2844   */\n      add\n        /* \"#utility.yul\":2818:2844   */\n      swap1\n      pop\n        /* \"#utility.yul\":2854:2919   */\n      tag_86\n        /* \"#utility.yul\":2916:2917   */\n      0x00\n        /* \"#utility.yul\":2905:2914   */\n      dup4\n        /* \"#utility.yul\":2901:2918   */\n      add\n        /* \"#utility.yul\":2892:2898   */\n      dup5\n        /* \"#utility.yul\":2854:2919   */\n      tag_53\n      jump\t// in\n    tag_86:\n        /* \"#utility.yul\":2716:2926   */\n      swap3\n      swap2\n      pop\n      pop\n      jump\t// out\n        /* \"#utility.yul\":2932:3112   */\n    tag_24:\n        /* \"#utility.yul\":2980:3057   */\n      0x4e487b7100000000000000000000000000000000000000000000000000000000\n        /* \"#utility.yul\":2977:2978   */\n      0x00\n        /* \"#utility.yul\":2970:3058   */\n      mstore\n        /* \"#utility.yul\":3077:3081   */\n      0x32\n        /* \"#utility.yul\":3074:3075   */\n      0x04\n        /* \"#utility.yul\":3067:3082   */\n      mstore\n        /* \"#utility.yul\":3101:3105   */\n      0x24\n        /* \"#utility.yul\":3098:3099   */\n      0x00\n        /* \"#utility.yul\":3091:3106   */\n      revert\n\n    auxdata: 0xa264697066735822122043fb0f87f0fe801f68f0331fabb15a859381a644bc2d721121c6ced181d4ca0a64736f6c634300081a0033\n}\n",
				"bytecode": {
					"linkReferences": {},
					"object": "6080604052348015600e575f80fd5b5061035a8061001c5f395ff3fe608060405234801561000f575f80fd5b5060043610610033575f3560e01c80620e16c4146100375780637ffe9d8c14610067575b5f80fd5b610051600480360381019061004c9190610253565b610097565b60405161005e91906102de565b60405180910390f35b610081600480360381019061007c9190610253565b6100af565b60405161008e91906102de565b60405180910390f35b5f826100a4868685610129565b149050949350505050565b5f808290505f8686905090505f5b81811015610119575f8390505f8989848181106100dd576100dc6102f7565b5b905060200201359050808210600181146100fd57815f5282602052610105565b825f52816020525b5060405f20945082600101925050506100bd565b5084821492505050949350505050565b5f808290505f5b8585905081101561016d5761015e82878784818110610152576101516102f7565b5b90506020020135610179565b91508080600101915050610130565b50809150509392505050565b5f8183106101905761018b82846101a3565b61019b565b61019a83836101a3565b5b905092915050565b5f825f528160205260405f20905092915050565b5f80fd5b5f80fd5b5f80fd5b5f80fd5b5f80fd5b5f8083601f8401126101e0576101df6101bf565b5b8235905067ffffffffffffffff8111156101fd576101fc6101c3565b5b602083019150836020820283011115610219576102186101c7565b5b9250929050565b5f819050919050565b61023281610220565b811461023c575f80fd5b50565b5f8135905061024d81610229565b92915050565b5f805f806060858703121561026b5761026a6101b7565b5b5f85013567ffffffffffffffff811115610288576102876101bb565b5b610294878288016101cb565b945094505060206102a78782880161023f565b92505060406102b88782880161023f565b91505092959194509250565b5f8115159050919050565b6102d8816102c4565b82525050565b5f6020820190506102f15f8301846102cf565b92915050565b7f4e487b71000000000000000000000000000000000000000000000000000000005f52603260045260245ffdfea264697066735822122043fb0f87f0fe801f68f0331fabb15a859381a644bc2d721121c6ced181d4ca0a64736f6c634300081a0033",
					"opcodes": "PUSH1 0x80 PUSH1 0x40 MSTORE CALLVALUE DUP1 ISZERO PUSH1 0xE JUMPI PUSH0 DUP1 REVERT JUMPDEST POP PUSH2 0x35A DUP1 PUSH2 0x1C PUSH0 CODECOPY PUSH0 RETURN INVALID PUSH1 0x80 PUSH1 0x40 MSTORE CALLVALUE DUP1 ISZERO PUSH2 0xF JUMPI PUSH0 DUP1 REVERT JUMPDEST POP PUSH1 0x4 CALLDATASIZE LT PUSH2 0x33 JUMPI PUSH0 CALLDATALOAD PUSH1 0xE0 SHR DUP1 PUSH3 0xE16C4 EQ PUSH2 0x37 JUMPI DUP1 PUSH4 0x7FFE9D8C EQ PUSH2 0x67 JUMPI JUMPDEST PUSH0 DUP1 REVERT JUMPDEST PUSH2 0x51 PUSH1 0x4 DUP1 CALLDATASIZE SUB DUP2 ADD SWAP1 PUSH2 0x4C SWAP2 SWAP1 PUSH2 0x253 JUMP JUMPDEST PUSH2 0x97 JUMP JUMPDEST PUSH1 0x40 MLOAD PUSH2 0x5E SWAP2 SWAP1 PUSH2 0x2DE JUMP JUMPDEST PUSH1 0x40 MLOAD DUP1 SWAP2 SUB SWAP1 RETURN JUMPDEST PUSH2 0x81 PUSH1 0x4 DUP1 CALLDATASIZE SUB DUP2 ADD SWAP1 PUSH2 0x7C SWAP2 SWAP1 PUSH2 0x253 JUMP JUMPDEST PUSH2 0xAF JUMP JUMPDEST PUSH1 0x40 MLOAD PUSH2 0x8E SWAP2 SWAP1 PUSH2 0x2DE JUMP JUMPDEST PUSH1 0x40 MLOAD DUP1 SWAP2 SUB SWAP1 RETURN JUMPDEST PUSH0 DUP3 PUSH2 0xA4 DUP7 DUP7 DUP6 PUSH2 0x129 JUMP JUMPDEST EQ SWAP1 POP SWAP5 SWAP4 POP POP POP POP JUMP JUMPDEST PUSH0 DUP1 DUP3 SWAP1 POP PUSH0 DUP7 DUP7 SWAP1 POP SWAP1 POP PUSH0 JUMPDEST DUP2 DUP2 LT ISZERO PUSH2 0x119 JUMPI PUSH0 DUP4 SWAP1 POP PUSH0 DUP10 DUP10 DUP5 DUP2 DUP2 LT PUSH2 0xDD JUMPI PUSH2 0xDC PUSH2 0x2F7 JUMP JUMPDEST JUMPDEST SWAP1 POP PUSH1 0x20 MUL ADD CALLDATALOAD SWAP1 POP DUP1 DUP3 LT PUSH1 0x1 DUP2 EQ PUSH2 0xFD JUMPI DUP2 PUSH0 MSTORE DUP3 PUSH1 0x20 MSTORE PUSH2 0x105 JUMP JUMPDEST DUP3 PUSH0 MSTORE DUP2 PUSH1 0x20 MSTORE JUMPDEST POP PUSH1 0x40 PUSH0 KECCAK256 SWAP5 POP DUP3 PUSH1 0x1 ADD SWAP3 POP POP POP PUSH2 0xBD JUMP JUMPDEST POP DUP5 DUP3 EQ SWAP3 POP POP POP SWAP5 SWAP4 POP POP POP POP JUMP JUMPDEST PUSH0 DUP1 DUP3 SWAP1 POP PUSH0 JUMPDEST DUP6 DUP6 SWAP1 POP DUP2 LT ISZERO PUSH2 0x16D JUMPI PUSH2 0x15E DUP3 DUP8 DUP8 DUP5 DUP2 DUP2 LT PUSH2 0x152 JUMPI PUSH2 0x151 PUSH2 0x2F7 JUMP JUMPDEST JUMPDEST SWAP1 POP PUSH1 0x20 MUL ADD CALLDATALOAD PUSH2 0x179 JUMP JUMPDEST SWAP2 POP DUP1 DUP1 PUSH1 0x1 ADD SWAP2 POP POP PUSH2 0x130 JUMP JUMPDEST POP DUP1 SWAP2 POP POP SWAP4 SWAP3 POP POP POP JUMP JUMPDEST PUSH0 DUP2 DUP4 LT PUSH2 0x190 JUMPI PUSH2 0x18B DUP3 DUP5 PUSH2 0x1A3 JUMP JUMPDEST PUSH2 0x19B JUMP JUMPDEST PUSH2 0x19A DUP4 DUP4 PUSH2 0x1A3 JUMP JUMPDEST JUMPDEST SWAP1 POP SWAP3 SWAP2 POP POP JUMP JUMPDEST PUSH0 DUP3 PUSH0 MSTORE DUP2 PUSH1 0x20 MSTORE PUSH1 0x40 PUSH0 KECCAK256 SWAP1 POP SWAP3 SWAP2 POP POP JUMP JUMPDEST PUSH0 DUP1 REVERT JUMPDEST PUSH0 DUP1 REVERT JUMPDEST PUSH0 DUP1 REVERT JUMPDEST PUSH0 DUP1 REVERT JUMPDEST PUSH0 DUP1 REVERT JUMPDEST PUSH0 DUP1 DUP4 PUSH1 0x1F DUP5 ADD SLT PUSH2 0x1E0 JUMPI PUSH2 0x1DF PUSH2 0x1BF JUMP JUMPDEST JUMPDEST DUP3 CALLDATALOAD SWAP1 POP PUSH8 0xFFFFFFFFFFFFFFFF DUP2 GT ISZERO PUSH2 0x1FD JUMPI PUSH2 0x1FC PUSH2 0x1C3 JUMP JUMPDEST JUMPDEST PUSH1 0x20 DUP4 ADD SWAP2 POP DUP4 PUSH1 0x20 DUP3 MUL DUP4 ADD GT ISZERO PUSH2 0x219 JUMPI PUSH2 0x218 PUSH2 0x1C7 JUMP JUMPDEST JUMPDEST SWAP3 POP SWAP3 SWAP1 POP JUMP JUMPDEST PUSH0 DUP2 SWAP1 POP SWAP2 SWAP1 POP JUMP JUMPDEST PUSH2 0x232 DUP2 PUSH2 0x220 JUMP JUMPDEST DUP2 EQ PUSH2 0x23C JUMPI PUSH0 DUP1 REVERT JUMPDEST POP JUMP JUMPDEST PUSH0 DUP2 CALLDATALOAD SWAP1 POP PUSH2 0x24D DUP2 PUSH2 0x229 JUMP JUMPDEST SWAP3 SWAP2 POP POP JUMP JUMPDEST PUSH0 DUP1 PUSH0 DUP1 PUSH1 0x60 DUP6 DUP8 SUB SLT ISZERO PUSH2 0x26B JUMPI PUSH2 0x26A PUSH2 0x1B7 JUMP JUMPDEST JUMPDEST PUSH0 DUP6 ADD CALLDATALOAD PUSH8 0xFFFFFFFFFFFFFFFF DUP2 GT ISZERO PUSH2 0x288 JUMPI PUSH2 0x287 PUSH2 0x1BB JUMP JUMPDEST JUMPDEST PUSH2 0x294 DUP8 DUP3 DUP9 ADD PUSH2 0x1CB JUMP JUMPDEST SWAP5 POP SWAP5 POP POP PUSH1 0x20 PUSH2 0x2A7 DUP8 DUP3 DUP9 ADD PUSH2 0x23F JUMP JUMPDEST SWAP3 POP POP PUSH1 0x40 PUSH2 0x2B8 DUP8 DUP3 DUP9 ADD PUSH2 0x23F JUMP JUMPDEST SWAP2 POP POP SWAP3 SWAP6 SWAP2 SWAP5 POP SWAP3 POP JUMP JUMPDEST PUSH0 DUP2 ISZERO ISZERO SWAP1 POP SWAP2 SWAP1 POP JUMP JUMPDEST PUSH2 0x2D8 DUP2 PUSH2 0x2C4 JUMP JUMPDEST DUP3 MSTORE POP POP JUMP JUMPDEST PUSH0 PUSH1 0x20 DUP3 ADD SWAP1 POP PUSH2 0x2F1 PUSH0 DUP4 ADD DUP5 PUSH2 0x2CF JUMP JUMPDEST SWAP3 SWAP2 POP POP JUMP JUMPDEST PUSH32 0x4E487B7100000000000000000000000000000000000000000000000000000000 PUSH0 MSTORE PUSH1 0x32 PUSH1 0x4 MSTORE PUSH1 0x24 PUSH0 REVERT INVALID LOG2 PUSH5 0x6970667358 0x22 SLT KECCAK256 NUMBER 0xFB 0xF DUP8 CREATE INVALID DUP1 0x1F PUSH9 0xF0331FABB15A859381 0xA6 PREVRANDAO 0xBC 0x2D PUSH19 0x1121C6CED181D4CA0A64736F6C634300081A00 CALLER "
				},
				"gasEstimates": {
					"creation": {
						"codeDepositCost": "171600",
						"executionCost": "212",
						"totalCost": "171812"
					},
					"external": {
						"verifyCalldata(bytes32[],bytes32,bytes32)": "infinite",
						"verifyCalldataOld(bytes32[],bytes32,bytes32)": "infinite"
					},
					"internal": {
						"_efficientHash(bytes32,bytes32)": "96",
						"_hashPair(bytes32,bytes32)": "177",
						"processProofCalldata(bytes32[] calldata,bytes32)": "infinite"
					}
				},
				"methodIdentifiers": {
					"verifyCalldata(bytes32[],bytes32,bytes32)": "7ffe9d8c",
					"verifyCalldataOld(bytes32[],bytes32,bytes32)": "000e16c4"
				}
			},
			"storageLayout": {
				"storage": [],
				"types": null
			},
			"userdoc": {
				"kind": "user",
				"methods": {},
				"version": 1
			}
		}
	}
}