{
	"merkleTree/merkleTree.sol": {
		"MerkleProof": {
			"abi": [
				{
					"inputs": [],
					"name": "getSelector",
					"outputs": [
						{
							"internalType": "bytes4",
							"name": "",
							"type": "bytes4"
						}
					],
					"stateMutability": "pure",
					"type": "function"
				},
				{
					"inputs": [
						{
							"internalType": "bytes32[]",
							"name": "proof",
							"type": "bytes32[]"
						},
						{
							"internalType": "bytes32",
							"name": "root",
							"type": "bytes32"
						},
						{
							"internalType": "bytes32",
							"name": "leaf",
							"type": "bytes32"
						}
					],
					"name": "giakjecdfhb",
					"outputs": [
						{
							"internalType": "bool",
							"name": "",
							"type": "bool"
						}
					],
					"stateMutability": "pure",
					"type": "function"
				},
				{
					"inputs": [
						{
							"internalType": "bytes32[]",
							"name": "proof",
							"type": "bytes32[]"
						},
						{
							"internalType": "bytes32",
							"name": "root",
							"type": "bytes32"
						},
						{
							"internalType": "bytes32",
							"name": "leaf",
							"type": "bytes32"
						}
					],
					"name": "verifyCalldata",
					"outputs": [
						{
							"internalType": "bool",
							"name": "",
							"type": "bool"
						}
					],
					"stateMutability": "pure",
					"type": "function"
				},
				{
					"inputs": [
						{
							"internalType": "bytes32[]",
							"name": "proof",
							"type": "bytes32[]"
						},
						{
							"internalType": "bytes32",
							"name": "root",
							"type": "bytes32"
						},
						{
							"internalType": "bytes32",
							"name": "leaf",
							"type": "bytes32"
						}
					],
					"name": "verifyCalldataOld",
					"outputs": [
						{
							"internalType": "bool",
							"name": "",
							"type": "bool"
						}
					],
					"stateMutability": "pure",
					"type": "function"
				}
			],
			"devdoc": {
				"kind": "dev",
				"methods": {},
				"version": 1
			},
			"evm": {
				"assembly": "    /* \"merkleTree/merkleTree.sol\":58:3732  contract MerkleProof {... */\n  mstore(0x40, 0x80)\n  callvalue\n  dup1\n  iszero\n  tag_1\n  jumpi\n  0x00\n  dup1\n  revert\ntag_1:\n  pop\n  dataSize(sub_0)\n  dup1\n  dataOffset(sub_0)\n  0x00\n  codecopy\n  0x00\n  return\nstop\n\nsub_0: assembly {\n        /* \"merkleTree/merkleTree.sol\":58:3732  contract MerkleProof {... */\n      mstore(0x40, 0x80)\n      callvalue\n      dup1\n      iszero\n      tag_1\n      jumpi\n      0x00\n      dup1\n      revert\n    tag_1:\n      pop\n      jumpi(tag_2, lt(calldatasize, 0x04))\n      shr(0xe0, calldataload(0x00))\n      dup1\n      0x0e16c4\n      eq\n      tag_3\n      jumpi\n      dup1\n      0x034899bc\n      eq\n      tag_4\n      jumpi\n      dup1\n      0x4de239cd\n      eq\n      tag_5\n      jumpi\n      dup1\n      0x7ffe9d8c\n      eq\n      tag_6\n      jumpi\n    tag_2:\n      0x00\n      dup1\n      revert\n        /* \"merkleTree/merkleTree.sol\":2233:2443  function verifyCalldataOld(... */\n    tag_3:\n      tag_7\n      0x04\n      dup1\n      calldatasize\n      sub\n      dup2\n      add\n      swap1\n      tag_8\n      swap2\n      swap1\n      tag_9\n      jump\t// in\n    tag_8:\n      tag_10\n      jump\t// in\n    tag_7:\n      mload(0x40)\n      tag_11\n      swap2\n      swap1\n      tag_12\n      jump\t// in\n    tag_11:\n      mload(0x40)\n      dup1\n      swap2\n      sub\n      swap1\n      return\n        /* \"merkleTree/merkleTree.sol\":1082:1233  function getSelector() public pure returns (bytes4) {... */\n    tag_4:\n      tag_13\n      tag_14\n      jump\t// in\n    tag_13:\n      mload(0x40)\n      tag_15\n      swap2\n      swap1\n      tag_16\n      jump\t// in\n    tag_15:\n      mload(0x40)\n      dup1\n      swap2\n      sub\n      swap1\n      return\n        /* \"merkleTree/merkleTree.sol\":1238:2209  function giakjecdfhb(... */\n    tag_5:\n      tag_17\n      0x04\n      dup1\n      calldatasize\n      sub\n      dup2\n      add\n      swap1\n      tag_18\n      swap2\n      swap1\n      tag_9\n      jump\t// in\n    tag_18:\n      tag_19\n      jump\t// in\n    tag_17:\n      mload(0x40)\n      tag_20\n      swap2\n      swap1\n      tag_12\n      jump\t// in\n    tag_20:\n      mload(0x40)\n      dup1\n      swap2\n      sub\n      swap1\n      return\n        /* \"merkleTree/merkleTree.sol\":103:1077  function verifyCalldata(... */\n    tag_6:\n      tag_21\n      0x04\n      dup1\n      calldatasize\n      sub\n      dup2\n      add\n      swap1\n      tag_22\n      swap2\n      swap1\n      tag_9\n      jump\t// in\n    tag_22:\n      tag_23\n      jump\t// in\n    tag_21:\n      mload(0x40)\n      tag_24\n      swap2\n      swap1\n      tag_12\n      jump\t// in\n    tag_24:\n      mload(0x40)\n      dup1\n      swap2\n      sub\n      swap1\n      return\n        /* \"merkleTree/merkleTree.sol\":2233:2443  function verifyCalldataOld(... */\n    tag_10:\n        /* \"merkleTree/merkleTree.sol\":2368:2372  bool */\n      0x00\n        /* \"merkleTree/merkleTree.sol\":2432:2436  root */\n      dup3\n        /* \"merkleTree/merkleTree.sol\":2395:2428  processProofCalldata(proof, leaf) */\n      tag_26\n        /* \"merkleTree/merkleTree.sol\":2416:2421  proof */\n      dup7\n      dup7\n        /* \"merkleTree/merkleTree.sol\":2423:2427  leaf */\n      dup6\n        /* \"merkleTree/merkleTree.sol\":2395:2415  processProofCalldata */\n      tag_27\n        /* \"merkleTree/merkleTree.sol\":2395:2428  processProofCalldata(proof, leaf) */\n      jump\t// in\n    tag_26:\n        /* \"merkleTree/merkleTree.sol\":2395:2436  processProofCalldata(proof, leaf) == root */\n      eq\n        /* \"merkleTree/merkleTree.sol\":2388:2436  return processProofCalldata(proof, leaf) == root */\n      swap1\n      pop\n        /* \"merkleTree/merkleTree.sol\":2233:2443  function verifyCalldataOld(... */\n      swap5\n      swap4\n      pop\n      pop\n      pop\n      pop\n      jump\t// out\n        /* \"merkleTree/merkleTree.sol\":1082:1233  function getSelector() public pure returns (bytes4) {... */\n    tag_14:\n        /* \"merkleTree/merkleTree.sol\":1126:1132  bytes4 */\n      0x00\n        /* \"merkleTree/merkleTree.sol\":1158:1225  keccak256(\"giakjecdfhb(verifyCalldata(bytes32[],bytes32,bytes32))\") */\n      0x8c315df3bf5e4ec3a96e3b53902ff85f07cb983a0139233686ac7789f8\n        /* \"merkleTree/merkleTree.sol\":1144:1226  return bytes4(keccak256(\"giakjecdfhb(verifyCalldata(bytes32[],bytes32,bytes32))\")) */\n      swap1\n      pop\n        /* \"merkleTree/merkleTree.sol\":1082:1233  function getSelector() public pure returns (bytes4) {... */\n      swap1\n      jump\t// out\n        /* \"merkleTree/merkleTree.sol\":1238:2209  function giakjecdfhb(... */\n    tag_19:\n        /* \"merkleTree/merkleTree.sol\":1366:1370  bool */\n      0x00\n        /* \"merkleTree/merkleTree.sol\":1382:1402  bytes32 computedHash */\n      dup1\n        /* \"merkleTree/merkleTree.sol\":1405:1409  leaf */\n      dup3\n        /* \"merkleTree/merkleTree.sol\":1382:1409  bytes32 computedHash = leaf */\n      swap1\n      pop\n        /* \"merkleTree/merkleTree.sol\":1419:1433  uint256 length */\n      0x00\n        /* \"merkleTree/merkleTree.sol\":1436:1441  proof */\n      dup7\n      dup7\n        /* \"merkleTree/merkleTree.sol\":1436:1448  proof.length */\n      swap1\n      pop\n        /* \"merkleTree/merkleTree.sol\":1419:1448  uint256 length = proof.length */\n      swap1\n      pop\n        /* \"merkleTree/merkleTree.sol\":1463:1472  uint256 i */\n      0x00\n        /* \"merkleTree/merkleTree.sol\":1458:2166  for (uint256 i = 0; i < length; ) {... */\n    tag_30:\n        /* \"merkleTree/merkleTree.sol\":1482:1488  length */\n      dup2\n        /* \"merkleTree/merkleTree.sol\":1478:1479  i */\n      dup2\n        /* \"merkleTree/merkleTree.sol\":1478:1488  i < length */\n      lt\n        /* \"merkleTree/merkleTree.sol\":1458:2166  for (uint256 i = 0; i < length; ) {... */\n      iszero\n      tag_31\n      jumpi\n        /* \"merkleTree/merkleTree.sol\":1506:1515  bytes32 a */\n      0x00\n        /* \"merkleTree/merkleTree.sol\":1518:1530  computedHash */\n      dup4\n        /* \"merkleTree/merkleTree.sol\":1506:1530  bytes32 a = computedHash */\n      swap1\n      pop\n        /* \"merkleTree/merkleTree.sol\":1544:1553  bytes32 b */\n      0x00\n        /* \"merkleTree/merkleTree.sol\":1556:1561  proof */\n      dup10\n      dup10\n        /* \"merkleTree/merkleTree.sol\":1562:1563  i */\n      dup5\n        /* \"merkleTree/merkleTree.sol\":1556:1564  proof[i] */\n      dup2\n      dup2\n      lt\n      tag_33\n      jumpi\n      tag_34\n      tag_35\n      jump\t// in\n    tag_34:\n    tag_33:\n      swap1\n      pop\n      0x20\n      mul\n      add\n      calldataload\n        /* \"merkleTree/merkleTree.sol\":1544:1564  bytes32 b = proof[i] */\n      swap1\n      pop\n        /* \"merkleTree/merkleTree.sol\":1663:1664  b */\n      dup1\n        /* \"merkleTree/merkleTree.sol\":1660:1661  a */\n      dup3\n        /* \"merkleTree/merkleTree.sol\":1657:1665  lt(a, b) */\n      lt\n        /* \"merkleTree/merkleTree.sol\":1687:1688  1 */\n      0x01\n        /* \"merkleTree/merkleTree.sol\":1682:1827  case 1 {... */\n      dup2\n      eq\n      tag_37\n      jumpi\n        /* \"merkleTree/merkleTree.sol\":1934:1935  b */\n      dup2\n        /* \"merkleTree/merkleTree.sol\":1928:1932  0x00 */\n      0x00\n        /* \"merkleTree/merkleTree.sol\":1921:1936  mstore(0x00, b) */\n      mstore\n        /* \"merkleTree/merkleTree.sol\":1970:1971  a */\n      dup3\n        /* \"merkleTree/merkleTree.sol\":1964:1968  0x20 */\n      0x20\n        /* \"merkleTree/merkleTree.sol\":1957:1972  mstore(0x20, a) */\n      mstore\n        /* \"merkleTree/merkleTree.sol\":1650:1990  switch lt(a, b)... */\n      jump(tag_36)\n        /* \"merkleTree/merkleTree.sol\":1682:1827  case 1 {... */\n    tag_37:\n        /* \"merkleTree/merkleTree.sol\":1771:1772  a */\n      dup3\n        /* \"merkleTree/merkleTree.sol\":1765:1769  0x00 */\n      0x00\n        /* \"merkleTree/merkleTree.sol\":1758:1773  mstore(0x00, a) */\n      mstore\n        /* \"merkleTree/merkleTree.sol\":1807:1808  b */\n      dup2\n        /* \"merkleTree/merkleTree.sol\":1801:1805  0x20 */\n      0x20\n        /* \"merkleTree/merkleTree.sol\":1794:1809  mstore(0x20, b) */\n      mstore\n        /* \"merkleTree/merkleTree.sol\":1650:1990  switch lt(a, b)... */\n    tag_36:\n      pop\n        /* \"merkleTree/merkleTree.sol\":2106:2110  0x40 */\n      0x40\n        /* \"merkleTree/merkleTree.sol\":2100:2104  0x00 */\n      0x00\n        /* \"merkleTree/merkleTree.sol\":2090:2111  keccak256(0x00, 0x40) */\n      keccak256\n        /* \"merkleTree/merkleTree.sol\":2074:2111  computedHash := keccak256(0x00, 0x40) */\n      swap5\n      pop\n        /* \"merkleTree/merkleTree.sol\":2150:2153  ++i */\n      dup3\n      0x01\n      add\n      swap3\n      pop\n        /* \"merkleTree/merkleTree.sol\":1492:2166  {... */\n      pop\n      pop\n        /* \"merkleTree/merkleTree.sol\":1458:2166  for (uint256 i = 0; i < length; ) {... */\n      jump(tag_30)\n    tag_31:\n      pop\n        /* \"merkleTree/merkleTree.sol\":2198:2202  root */\n      dup5\n        /* \"merkleTree/merkleTree.sol\":2182:2194  computedHash */\n      dup3\n        /* \"merkleTree/merkleTree.sol\":2182:2202  computedHash == root */\n      eq\n        /* \"merkleTree/merkleTree.sol\":2175:2202  return computedHash == root */\n      swap3\n      pop\n      pop\n      pop\n        /* \"merkleTree/merkleTree.sol\":1238:2209  function giakjecdfhb(... */\n      swap5\n      swap4\n      pop\n      pop\n      pop\n      pop\n      jump\t// out\n        /* \"merkleTree/merkleTree.sol\":103:1077  function verifyCalldata(... */\n    tag_23:\n        /* \"merkleTree/merkleTree.sol\":234:238  bool */\n      0x00\n        /* \"merkleTree/merkleTree.sol\":250:270  bytes32 computedHash */\n      dup1\n        /* \"merkleTree/merkleTree.sol\":273:277  leaf */\n      dup3\n        /* \"merkleTree/merkleTree.sol\":250:277  bytes32 computedHash = leaf */\n      swap1\n      pop\n        /* \"merkleTree/merkleTree.sol\":287:301  uint256 length */\n      0x00\n        /* \"merkleTree/merkleTree.sol\":304:309  proof */\n      dup7\n      dup7\n        /* \"merkleTree/merkleTree.sol\":304:316  proof.length */\n      swap1\n      pop\n        /* \"merkleTree/merkleTree.sol\":287:316  uint256 length = proof.length */\n      swap1\n      pop\n        /* \"merkleTree/merkleTree.sol\":331:340  uint256 i */\n      0x00\n        /* \"merkleTree/merkleTree.sol\":326:1034  for (uint256 i = 0; i < length; ) {... */\n    tag_39:\n        /* \"merkleTree/merkleTree.sol\":350:356  length */\n      dup2\n        /* \"merkleTree/merkleTree.sol\":346:347  i */\n      dup2\n        /* \"merkleTree/merkleTree.sol\":346:356  i < length */\n      lt\n        /* \"merkleTree/merkleTree.sol\":326:1034  for (uint256 i = 0; i < length; ) {... */\n      iszero\n      tag_40\n      jumpi\n        /* \"merkleTree/merkleTree.sol\":374:383  bytes32 a */\n      0x00\n        /* \"merkleTree/merkleTree.sol\":386:398  computedHash */\n      dup4\n        /* \"merkleTree/merkleTree.sol\":374:398  bytes32 a = computedHash */\n      swap1\n      pop\n        /* \"merkleTree/merkleTree.sol\":412:421  bytes32 b */\n      0x00\n        /* \"merkleTree/merkleTree.sol\":424:429  proof */\n      dup10\n      dup10\n        /* \"merkleTree/merkleTree.sol\":430:431  i */\n      dup5\n        /* \"merkleTree/merkleTree.sol\":424:432  proof[i] */\n      dup2\n      dup2\n      lt\n      tag_42\n      jumpi\n      tag_43\n      tag_35\n      jump\t// in\n    tag_43:\n    tag_42:\n      swap1\n      pop\n      0x20\n      mul\n      add\n      calldataload\n        /* \"merkleTree/merkleTree.sol\":412:432  bytes32 b = proof[i] */\n      swap1\n      pop\n        /* \"merkleTree/merkleTree.sol\":531:532  b */\n      dup1\n        /* \"merkleTree/merkleTree.sol\":528:529  a */\n      dup3\n        /* \"merkleTree/merkleTree.sol\":525:533  lt(a, b) */\n      lt\n        /* \"merkleTree/merkleTree.sol\":555:556  1 */\n      0x01\n        /* \"merkleTree/merkleTree.sol\":550:695  case 1 {... */\n      dup2\n      eq\n      tag_45\n      jumpi\n        /* \"merkleTree/merkleTree.sol\":802:803  b */\n      dup2\n        /* \"merkleTree/merkleTree.sol\":796:800  0x00 */\n      0x00\n        /* \"merkleTree/merkleTree.sol\":789:804  mstore(0x00, b) */\n      mstore\n        /* \"merkleTree/merkleTree.sol\":838:839  a */\n      dup3\n        /* \"merkleTree/merkleTree.sol\":832:836  0x20 */\n      0x20\n        /* \"merkleTree/merkleTree.sol\":825:840  mstore(0x20, a) */\n      mstore\n        /* \"merkleTree/merkleTree.sol\":518:858  switch lt(a, b)... */\n      jump(tag_44)\n        /* \"merkleTree/merkleTree.sol\":550:695  case 1 {... */\n    tag_45:\n        /* \"merkleTree/merkleTree.sol\":639:640  a */\n      dup3\n        /* \"merkleTree/merkleTree.sol\":633:637  0x00 */\n      0x00\n        /* \"merkleTree/merkleTree.sol\":626:641  mstore(0x00, a) */\n      mstore\n        /* \"merkleTree/merkleTree.sol\":675:676  b */\n      dup2\n        /* \"merkleTree/merkleTree.sol\":669:673  0x20 */\n      0x20\n        /* \"merkleTree/merkleTree.sol\":662:677  mstore(0x20, b) */\n      mstore\n        /* \"merkleTree/merkleTree.sol\":518:858  switch lt(a, b)... */\n    tag_44:\n      pop\n        /* \"merkleTree/merkleTree.sol\":974:978  0x40 */\n      0x40\n        /* \"merkleTree/merkleTree.sol\":968:972  0x00 */\n      0x00\n        /* \"merkleTree/merkleTree.sol\":958:979  keccak256(0x00, 0x40) */\n      keccak256\n        /* \"merkleTree/merkleTree.sol\":942:979  computedHash := keccak256(0x00, 0x40) */\n      swap5\n      pop\n        /* \"merkleTree/merkleTree.sol\":1018:1021  ++i */\n      dup3\n      0x01\n      add\n      swap3\n      pop\n        /* \"merkleTree/merkleTree.sol\":360:1034  {... */\n      pop\n      pop\n        /* \"merkleTree/merkleTree.sol\":326:1034  for (uint256 i = 0; i < length; ) {... */\n      jump(tag_39)\n    tag_40:\n      pop\n        /* \"merkleTree/merkleTree.sol\":1066:1070  root */\n      dup5\n        /* \"merkleTree/merkleTree.sol\":1050:1062  computedHash */\n      dup3\n        /* \"merkleTree/merkleTree.sol\":1050:1070  computedHash == root */\n      eq\n        /* \"merkleTree/merkleTree.sol\":1043:1070  return computedHash == root */\n      swap3\n      pop\n      pop\n      pop\n        /* \"merkleTree/merkleTree.sol\":103:1077  function verifyCalldata(... */\n      swap5\n      swap4\n      pop\n      pop\n      pop\n      pop\n      jump\t// out\n        /* \"merkleTree/merkleTree.sol\":2449:2771  function processProofCalldata(... */\n    tag_27:\n        /* \"merkleTree/merkleTree.sol\":2564:2571  bytes32 */\n      0x00\n        /* \"merkleTree/merkleTree.sol\":2583:2603  bytes32 computedHash */\n      dup1\n        /* \"merkleTree/merkleTree.sol\":2606:2610  leaf */\n      dup3\n        /* \"merkleTree/merkleTree.sol\":2583:2610  bytes32 computedHash = leaf */\n      swap1\n      pop\n        /* \"merkleTree/merkleTree.sol\":2625:2634  uint256 i */\n      0x00\n        /* \"merkleTree/merkleTree.sol\":2620:2736  for (uint256 i = 0; i < proof.length; i++) {... */\n    tag_47:\n        /* \"merkleTree/merkleTree.sol\":2644:2649  proof */\n      dup6\n      dup6\n        /* \"merkleTree/merkleTree.sol\":2644:2656  proof.length */\n      swap1\n      pop\n        /* \"merkleTree/merkleTree.sol\":2640:2641  i */\n      dup2\n        /* \"merkleTree/merkleTree.sol\":2640:2656  i < proof.length */\n      lt\n        /* \"merkleTree/merkleTree.sol\":2620:2736  for (uint256 i = 0; i < proof.length; i++) {... */\n      iszero\n      tag_48\n      jumpi\n        /* \"merkleTree/merkleTree.sol\":2692:2725  _hashPair(computedHash, proof[i]) */\n      tag_50\n        /* \"merkleTree/merkleTree.sol\":2702:2714  computedHash */\n      dup3\n        /* \"merkleTree/merkleTree.sol\":2716:2721  proof */\n      dup8\n      dup8\n        /* \"merkleTree/merkleTree.sol\":2722:2723  i */\n      dup5\n        /* \"merkleTree/merkleTree.sol\":2716:2724  proof[i] */\n      dup2\n      dup2\n      lt\n      tag_51\n      jumpi\n      tag_52\n      tag_35\n      jump\t// in\n    tag_52:\n    tag_51:\n      swap1\n      pop\n      0x20\n      mul\n      add\n      calldataload\n        /* \"merkleTree/merkleTree.sol\":2692:2701  _hashPair */\n      tag_53\n        /* \"merkleTree/merkleTree.sol\":2692:2725  _hashPair(computedHash, proof[i]) */\n      jump\t// in\n    tag_50:\n        /* \"merkleTree/merkleTree.sol\":2677:2725  computedHash = _hashPair(computedHash, proof[i]) */\n      swap2\n      pop\n        /* \"merkleTree/merkleTree.sol\":2658:2661  i++ */\n      dup1\n      dup1\n      0x01\n      add\n      swap2\n      pop\n      pop\n        /* \"merkleTree/merkleTree.sol\":2620:2736  for (uint256 i = 0; i < proof.length; i++) {... */\n      jump(tag_47)\n    tag_48:\n      pop\n        /* \"merkleTree/merkleTree.sol\":2752:2764  computedHash */\n      dup1\n        /* \"merkleTree/merkleTree.sol\":2745:2764  return computedHash */\n      swap2\n      pop\n      pop\n        /* \"merkleTree/merkleTree.sol\":2449:2771  function processProofCalldata(... */\n      swap4\n      swap3\n      pop\n      pop\n      pop\n      jump\t// out\n        /* \"merkleTree/merkleTree.sol\":2777:2951  function _hashPair(bytes32 a, bytes32 b)... */\n    tag_53:\n        /* \"merkleTree/merkleTree.sol\":2863:2870  bytes32 */\n      0x00\n        /* \"merkleTree/merkleTree.sol\":2897:2898  b */\n      dup2\n        /* \"merkleTree/merkleTree.sol\":2893:2894  a */\n      dup4\n        /* \"merkleTree/merkleTree.sol\":2893:2898  a < b */\n      lt\n        /* \"merkleTree/merkleTree.sol\":2893:2944  a < b ? _efficientHash(a, b) : _efficientHash(b, a) */\n      tag_55\n      jumpi\n        /* \"merkleTree/merkleTree.sol\":2924:2944  _efficientHash(b, a) */\n      tag_56\n        /* \"merkleTree/merkleTree.sol\":2939:2940  b */\n      dup3\n        /* \"merkleTree/merkleTree.sol\":2942:2943  a */\n      dup5\n        /* \"merkleTree/merkleTree.sol\":2924:2938  _efficientHash */\n      tag_57\n        /* \"merkleTree/merkleTree.sol\":2924:2944  _efficientHash(b, a) */\n      jump\t// in\n    tag_56:\n        /* \"merkleTree/merkleTree.sol\":2893:2944  a < b ? _efficientHash(a, b) : _efficientHash(b, a) */\n      jump(tag_58)\n    tag_55:\n        /* \"merkleTree/merkleTree.sol\":2901:2921  _efficientHash(a, b) */\n      tag_59\n        /* \"merkleTree/merkleTree.sol\":2916:2917  a */\n      dup4\n        /* \"merkleTree/merkleTree.sol\":2919:2920  b */\n      dup4\n        /* \"merkleTree/merkleTree.sol\":2901:2915  _efficientHash */\n      tag_57\n        /* \"merkleTree/merkleTree.sol\":2901:2921  _efficientHash(a, b) */\n      jump\t// in\n    tag_59:\n        /* \"merkleTree/merkleTree.sol\":2893:2944  a < b ? _efficientHash(a, b) : _efficientHash(b, a) */\n    tag_58:\n        /* \"merkleTree/merkleTree.sol\":2886:2944  return a < b ? _efficientHash(a, b) : _efficientHash(b, a) */\n      swap1\n      pop\n        /* \"merkleTree/merkleTree.sol\":2777:2951  function _hashPair(bytes32 a, bytes32 b)... */\n      swap3\n      swap2\n      pop\n      pop\n      jump\t// out\n        /* \"merkleTree/merkleTree.sol\":2957:3203  function _efficientHash(bytes32 a, bytes32 b)... */\n    tag_57:\n        /* \"merkleTree/merkleTree.sol\":3049:3062  bytes32 value */\n      0x00\n        /* \"merkleTree/merkleTree.sol\":3114:3115  a */\n      dup3\n        /* \"merkleTree/merkleTree.sol\":3108:3112  0x00 */\n      0x00\n        /* \"merkleTree/merkleTree.sol\":3101:3116  mstore(0x00, a) */\n      mstore\n        /* \"merkleTree/merkleTree.sol\":3142:3143  b */\n      dup2\n        /* \"merkleTree/merkleTree.sol\":3136:3140  0x20 */\n      0x20\n        /* \"merkleTree/merkleTree.sol\":3129:3144  mstore(0x20, b) */\n      mstore\n        /* \"merkleTree/merkleTree.sol\":3182:3186  0x40 */\n      0x40\n        /* \"merkleTree/merkleTree.sol\":3176:3180  0x00 */\n      0x00\n        /* \"merkleTree/merkleTree.sol\":3166:3187  keccak256(0x00, 0x40) */\n      keccak256\n        /* \"merkleTree/merkleTree.sol\":3157:3187  value := keccak256(0x00, 0x40) */\n      swap1\n      pop\n        /* \"merkleTree/merkleTree.sol\":2957:3203  function _efficientHash(bytes32 a, bytes32 b)... */\n      swap3\n      swap2\n      pop\n      pop\n      jump\t// out\n        /* \"#utility.yul\":88:205   */\n    tag_62:\n        /* \"#utility.yul\":197:198   */\n      0x00\n        /* \"#utility.yul\":194:195   */\n      dup1\n        /* \"#utility.yul\":187:199   */\n      revert\n        /* \"#utility.yul\":211:328   */\n    tag_63:\n        /* \"#utility.yul\":320:321   */\n      0x00\n        /* \"#utility.yul\":317:318   */\n      dup1\n        /* \"#utility.yul\":310:322   */\n      revert\n        /* \"#utility.yul\":334:451   */\n    tag_64:\n        /* \"#utility.yul\":443:444   */\n      0x00\n        /* \"#utility.yul\":440:441   */\n      dup1\n        /* \"#utility.yul\":433:445   */\n      revert\n        /* \"#utility.yul\":457:574   */\n    tag_65:\n        /* \"#utility.yul\":566:567   */\n      0x00\n        /* \"#utility.yul\":563:564   */\n      dup1\n        /* \"#utility.yul\":556:568   */\n      revert\n        /* \"#utility.yul\":580:697   */\n    tag_66:\n        /* \"#utility.yul\":689:690   */\n      0x00\n        /* \"#utility.yul\":686:687   */\n      dup1\n        /* \"#utility.yul\":679:691   */\n      revert\n        /* \"#utility.yul\":720:1288   */\n    tag_67:\n        /* \"#utility.yul\":793:801   */\n      0x00\n        /* \"#utility.yul\":803:809   */\n      dup1\n        /* \"#utility.yul\":853:856   */\n      dup4\n        /* \"#utility.yul\":846:850   */\n      0x1f\n        /* \"#utility.yul\":838:844   */\n      dup5\n        /* \"#utility.yul\":834:851   */\n      add\n        /* \"#utility.yul\":830:857   */\n      slt\n        /* \"#utility.yul\":820:942   */\n      tag_83\n      jumpi\n        /* \"#utility.yul\":861:940   */\n      tag_84\n      tag_64\n      jump\t// in\n    tag_84:\n        /* \"#utility.yul\":820:942   */\n    tag_83:\n        /* \"#utility.yul\":974:980   */\n      dup3\n        /* \"#utility.yul\":961:981   */\n      calldataload\n        /* \"#utility.yul\":951:981   */\n      swap1\n      pop\n        /* \"#utility.yul\":1004:1022   */\n      0xffffffffffffffff\n        /* \"#utility.yul\":996:1002   */\n      dup2\n        /* \"#utility.yul\":993:1023   */\n      gt\n        /* \"#utility.yul\":990:1107   */\n      iszero\n      tag_85\n      jumpi\n        /* \"#utility.yul\":1026:1105   */\n      tag_86\n      tag_65\n      jump\t// in\n    tag_86:\n        /* \"#utility.yul\":990:1107   */\n    tag_85:\n        /* \"#utility.yul\":1140:1144   */\n      0x20\n        /* \"#utility.yul\":1132:1138   */\n      dup4\n        /* \"#utility.yul\":1128:1145   */\n      add\n        /* \"#utility.yul\":1116:1145   */\n      swap2\n      pop\n        /* \"#utility.yul\":1194:1197   */\n      dup4\n        /* \"#utility.yul\":1186:1190   */\n      0x20\n        /* \"#utility.yul\":1178:1184   */\n      dup3\n        /* \"#utility.yul\":1174:1191   */\n      mul\n        /* \"#utility.yul\":1164:1172   */\n      dup4\n        /* \"#utility.yul\":1160:1192   */\n      add\n        /* \"#utility.yul\":1157:1198   */\n      gt\n        /* \"#utility.yul\":1154:1282   */\n      iszero\n      tag_87\n      jumpi\n        /* \"#utility.yul\":1201:1280   */\n      tag_88\n      tag_66\n      jump\t// in\n    tag_88:\n        /* \"#utility.yul\":1154:1282   */\n    tag_87:\n        /* \"#utility.yul\":720:1288   */\n      swap3\n      pop\n      swap3\n      swap1\n      pop\n      jump\t// out\n        /* \"#utility.yul\":1294:1371   */\n    tag_68:\n        /* \"#utility.yul\":1331:1338   */\n      0x00\n        /* \"#utility.yul\":1360:1365   */\n      dup2\n        /* \"#utility.yul\":1349:1365   */\n      swap1\n      pop\n        /* \"#utility.yul\":1294:1371   */\n      swap2\n      swap1\n      pop\n      jump\t// out\n        /* \"#utility.yul\":1377:1499   */\n    tag_69:\n        /* \"#utility.yul\":1450:1474   */\n      tag_91\n        /* \"#utility.yul\":1468:1473   */\n      dup2\n        /* \"#utility.yul\":1450:1474   */\n      tag_68\n      jump\t// in\n    tag_91:\n        /* \"#utility.yul\":1443:1448   */\n      dup2\n        /* \"#utility.yul\":1440:1475   */\n      eq\n        /* \"#utility.yul\":1430:1493   */\n      tag_92\n      jumpi\n        /* \"#utility.yul\":1489:1490   */\n      0x00\n        /* \"#utility.yul\":1486:1487   */\n      dup1\n        /* \"#utility.yul\":1479:1491   */\n      revert\n        /* \"#utility.yul\":1430:1493   */\n    tag_92:\n        /* \"#utility.yul\":1377:1499   */\n      pop\n      jump\t// out\n        /* \"#utility.yul\":1505:1644   */\n    tag_70:\n        /* \"#utility.yul\":1551:1556   */\n      0x00\n        /* \"#utility.yul\":1589:1595   */\n      dup2\n        /* \"#utility.yul\":1576:1596   */\n      calldataload\n        /* \"#utility.yul\":1567:1596   */\n      swap1\n      pop\n        /* \"#utility.yul\":1605:1638   */\n      tag_94\n        /* \"#utility.yul\":1632:1637   */\n      dup2\n        /* \"#utility.yul\":1605:1638   */\n      tag_69\n      jump\t// in\n    tag_94:\n        /* \"#utility.yul\":1505:1644   */\n      swap3\n      swap2\n      pop\n      pop\n      jump\t// out\n        /* \"#utility.yul\":1650:2499   */\n    tag_9:\n        /* \"#utility.yul\":1754:1760   */\n      0x00\n        /* \"#utility.yul\":1762:1768   */\n      dup1\n        /* \"#utility.yul\":1770:1776   */\n      0x00\n        /* \"#utility.yul\":1778:1784   */\n      dup1\n        /* \"#utility.yul\":1827:1829   */\n      0x60\n        /* \"#utility.yul\":1815:1824   */\n      dup6\n        /* \"#utility.yul\":1806:1813   */\n      dup8\n        /* \"#utility.yul\":1802:1825   */\n      sub\n        /* \"#utility.yul\":1798:1830   */\n      slt\n        /* \"#utility.yul\":1795:1914   */\n      iszero\n      tag_96\n      jumpi\n        /* \"#utility.yul\":1833:1912   */\n      tag_97\n      tag_62\n      jump\t// in\n    tag_97:\n        /* \"#utility.yul\":1795:1914   */\n    tag_96:\n        /* \"#utility.yul\":1981:1982   */\n      0x00\n        /* \"#utility.yul\":1970:1979   */\n      dup6\n        /* \"#utility.yul\":1966:1983   */\n      add\n        /* \"#utility.yul\":1953:1984   */\n      calldataload\n        /* \"#utility.yul\":2011:2029   */\n      0xffffffffffffffff\n        /* \"#utility.yul\":2003:2009   */\n      dup2\n        /* \"#utility.yul\":2000:2030   */\n      gt\n        /* \"#utility.yul\":1997:2114   */\n      iszero\n      tag_98\n      jumpi\n        /* \"#utility.yul\":2033:2112   */\n      tag_99\n      tag_63\n      jump\t// in\n    tag_99:\n        /* \"#utility.yul\":1997:2114   */\n    tag_98:\n        /* \"#utility.yul\":2146:2226   */\n      tag_100\n        /* \"#utility.yul\":2218:2225   */\n      dup8\n        /* \"#utility.yul\":2209:2215   */\n      dup3\n        /* \"#utility.yul\":2198:2207   */\n      dup9\n        /* \"#utility.yul\":2194:2216   */\n      add\n        /* \"#utility.yul\":2146:2226   */\n      tag_67\n      jump\t// in\n    tag_100:\n        /* \"#utility.yul\":2128:2226   */\n      swap5\n      pop\n      swap5\n      pop\n        /* \"#utility.yul\":1924:2236   */\n      pop\n        /* \"#utility.yul\":2275:2277   */\n      0x20\n        /* \"#utility.yul\":2301:2354   */\n      tag_101\n        /* \"#utility.yul\":2346:2353   */\n      dup8\n        /* \"#utility.yul\":2337:2343   */\n      dup3\n        /* \"#utility.yul\":2326:2335   */\n      dup9\n        /* \"#utility.yul\":2322:2344   */\n      add\n        /* \"#utility.yul\":2301:2354   */\n      tag_70\n      jump\t// in\n    tag_101:\n        /* \"#utility.yul\":2291:2354   */\n      swap3\n      pop\n        /* \"#utility.yul\":2246:2364   */\n      pop\n        /* \"#utility.yul\":2403:2405   */\n      0x40\n        /* \"#utility.yul\":2429:2482   */\n      tag_102\n        /* \"#utility.yul\":2474:2481   */\n      dup8\n        /* \"#utility.yul\":2465:2471   */\n      dup3\n        /* \"#utility.yul\":2454:2463   */\n      dup9\n        /* \"#utility.yul\":2450:2472   */\n      add\n        /* \"#utility.yul\":2429:2482   */\n      tag_70\n      jump\t// in\n    tag_102:\n        /* \"#utility.yul\":2419:2482   */\n      swap2\n      pop\n        /* \"#utility.yul\":2374:2492   */\n      pop\n        /* \"#utility.yul\":1650:2499   */\n      swap3\n      swap6\n      swap2\n      swap5\n      pop\n      swap3\n      pop\n      jump\t// out\n        /* \"#utility.yul\":2505:2595   */\n    tag_71:\n        /* \"#utility.yul\":2539:2546   */\n      0x00\n        /* \"#utility.yul\":2582:2587   */\n      dup2\n        /* \"#utility.yul\":2575:2588   */\n      iszero\n        /* \"#utility.yul\":2568:2589   */\n      iszero\n        /* \"#utility.yul\":2557:2589   */\n      swap1\n      pop\n        /* \"#utility.yul\":2505:2595   */\n      swap2\n      swap1\n      pop\n      jump\t// out\n        /* \"#utility.yul\":2601:2710   */\n    tag_72:\n        /* \"#utility.yul\":2682:2703   */\n      tag_105\n        /* \"#utility.yul\":2697:2702   */\n      dup2\n        /* \"#utility.yul\":2682:2703   */\n      tag_71\n      jump\t// in\n    tag_105:\n        /* \"#utility.yul\":2677:2680   */\n      dup3\n        /* \"#utility.yul\":2670:2704   */\n      mstore\n        /* \"#utility.yul\":2601:2710   */\n      pop\n      pop\n      jump\t// out\n        /* \"#utility.yul\":2716:2926   */\n    tag_12:\n        /* \"#utility.yul\":2803:2807   */\n      0x00\n        /* \"#utility.yul\":2841:2843   */\n      0x20\n        /* \"#utility.yul\":2830:2839   */\n      dup3\n        /* \"#utility.yul\":2826:2844   */\n      add\n        /* \"#utility.yul\":2818:2844   */\n      swap1\n      pop\n        /* \"#utility.yul\":2854:2919   */\n      tag_107\n        /* \"#utility.yul\":2916:2917   */\n      0x00\n        /* \"#utility.yul\":2905:2914   */\n      dup4\n        /* \"#utility.yul\":2901:2918   */\n      add\n        /* \"#utility.yul\":2892:2898   */\n      dup5\n        /* \"#utility.yul\":2854:2919   */\n      tag_72\n      jump\t// in\n    tag_107:\n        /* \"#utility.yul\":2716:2926   */\n      swap3\n      swap2\n      pop\n      pop\n      jump\t// out\n        /* \"#utility.yul\":2932:3081   */\n    tag_73:\n        /* \"#utility.yul\":2968:2975   */\n      0x00\n        /* \"#utility.yul\":3008:3074   */\n      0xffffffff00000000000000000000000000000000000000000000000000000000\n        /* \"#utility.yul\":3001:3006   */\n      dup3\n        /* \"#utility.yul\":2997:3075   */\n      and\n        /* \"#utility.yul\":2986:3075   */\n      swap1\n      pop\n        /* \"#utility.yul\":2932:3081   */\n      swap2\n      swap1\n      pop\n      jump\t// out\n        /* \"#utility.yul\":3087:3202   */\n    tag_74:\n        /* \"#utility.yul\":3172:3195   */\n      tag_110\n        /* \"#utility.yul\":3189:3194   */\n      dup2\n        /* \"#utility.yul\":3172:3195   */\n      tag_73\n      jump\t// in\n    tag_110:\n        /* \"#utility.yul\":3167:3170   */\n      dup3\n        /* \"#utility.yul\":3160:3196   */\n      mstore\n        /* \"#utility.yul\":3087:3202   */\n      pop\n      pop\n      jump\t// out\n        /* \"#utility.yul\":3208:3426   */\n    tag_16:\n        /* \"#utility.yul\":3299:3303   */\n      0x00\n        /* \"#utility.yul\":3337:3339   */\n      0x20\n        /* \"#utility.yul\":3326:3335   */\n      dup3\n        /* \"#utility.yul\":3322:3340   */\n      add\n        /* \"#utility.yul\":3314:3340   */\n      swap1\n      pop\n        /* \"#utility.yul\":3350:3419   */\n      tag_112\n        /* \"#utility.yul\":3416:3417   */\n      0x00\n        /* \"#utility.yul\":3405:3414   */\n      dup4\n        /* \"#utility.yul\":3401:3418   */\n      add\n        /* \"#utility.yul\":3392:3398   */\n      dup5\n        /* \"#utility.yul\":3350:3419   */\n      tag_74\n      jump\t// in\n    tag_112:\n        /* \"#utility.yul\":3208:3426   */\n      swap3\n      swap2\n      pop\n      pop\n      jump\t// out\n        /* \"#utility.yul\":3432:3612   */\n    tag_35:\n        /* \"#utility.yul\":3480:3557   */\n      0x4e487b7100000000000000000000000000000000000000000000000000000000\n        /* \"#utility.yul\":3477:3478   */\n      0x00\n        /* \"#utility.yul\":3470:3558   */\n      mstore\n        /* \"#utility.yul\":3577:3581   */\n      0x32\n        /* \"#utility.yul\":3574:3575   */\n      0x04\n        /* \"#utility.yul\":3567:3582   */\n      mstore\n        /* \"#utility.yul\":3601:3605   */\n      0x24\n        /* \"#utility.yul\":3598:3599   */\n      0x00\n        /* \"#utility.yul\":3591:3606   */\n      revert\n\n    auxdata: 0xa26469706673582212200de82b889eb6f43b92f99787613cd1aa4031e8bfb138d345e02c3450097509ab64736f6c634300081a0033\n}\n",
				"bytecode": {
					"linkReferences": {},
					"object": "6080604052348015600e575f80fd5b506104af8061001c5f395ff3fe608060405234801561000f575f80fd5b5060043610610049575f3560e01c80620e16c41461004d578063034899bc1461007d5780634de239cd1461009b5780637ffe9d8c146100cb575b5f80fd5b61006760048036038101906100629190610355565b6100fb565b60405161007491906103e0565b60405180910390f35b610085610113565b6040516100929190610433565b60405180910390f35b6100b560048036038101906100b09190610355565b610137565b6040516100c291906103e0565b60405180910390f35b6100e560048036038101906100e09190610355565b6101b1565b6040516100f291906103e0565b60405180910390f35b5f8261010886868561022b565b149050949350505050565b5f7c8c315df3bf5e4ec3a96e3b53902ff85f07cb983a0139233686ac7789f8905090565b5f808290505f8686905090505f5b818110156101a1575f8390505f8989848181106101655761016461044c565b5b9050602002013590508082106001811461018557815f528260205261018d565b825f52816020525b5060405f2094508260010192505050610145565b5084821492505050949350505050565b5f808290505f8686905090505f5b8181101561021b575f8390505f8989848181106101df576101de61044c565b5b905060200201359050808210600181146101ff57815f5282602052610207565b825f52816020525b5060405f20945082600101925050506101bf565b5084821492505050949350505050565b5f808290505f5b8585905081101561026f57610260828787848181106102545761025361044c565b5b9050602002013561027b565b91508080600101915050610232565b50809150509392505050565b5f8183106102925761028d82846102a5565b61029d565b61029c83836102a5565b5b905092915050565b5f825f528160205260405f20905092915050565b5f80fd5b5f80fd5b5f80fd5b5f80fd5b5f80fd5b5f8083601f8401126102e2576102e16102c1565b5b8235905067ffffffffffffffff8111156102ff576102fe6102c5565b5b60208301915083602082028301111561031b5761031a6102c9565b5b9250929050565b5f819050919050565b61033481610322565b811461033e575f80fd5b50565b5f8135905061034f8161032b565b92915050565b5f805f806060858703121561036d5761036c6102b9565b5b5f85013567ffffffffffffffff81111561038a576103896102bd565b5b610396878288016102cd565b945094505060206103a987828801610341565b92505060406103ba87828801610341565b91505092959194509250565b5f8115159050919050565b6103da816103c6565b82525050565b5f6020820190506103f35f8301846103d1565b92915050565b5f7fffffffff0000000000000000000000000000000000000000000000000000000082169050919050565b61042d816103f9565b82525050565b5f6020820190506104465f830184610424565b92915050565b7f4e487b71000000000000000000000000000000000000000000000000000000005f52603260045260245ffdfea26469706673582212200de82b889eb6f43b92f99787613cd1aa4031e8bfb138d345e02c3450097509ab64736f6c634300081a0033",
					"opcodes": "PUSH1 0x80 PUSH1 0x40 MSTORE CALLVALUE DUP1 ISZERO PUSH1 0xE JUMPI PUSH0 DUP1 REVERT JUMPDEST POP PUSH2 0x4AF DUP1 PUSH2 0x1C PUSH0 CODECOPY PUSH0 RETURN INVALID PUSH1 0x80 PUSH1 0x40 MSTORE CALLVALUE DUP1 ISZERO PUSH2 0xF JUMPI PUSH0 DUP1 REVERT JUMPDEST POP PUSH1 0x4 CALLDATASIZE LT PUSH2 0x49 JUMPI PUSH0 CALLDATALOAD PUSH1 0xE0 SHR DUP1 PUSH3 0xE16C4 EQ PUSH2 0x4D JUMPI DUP1 PUSH4 0x34899BC EQ PUSH2 0x7D JUMPI DUP1 PUSH4 0x4DE239CD EQ PUSH2 0x9B JUMPI DUP1 PUSH4 0x7FFE9D8C EQ PUSH2 0xCB JUMPI JUMPDEST PUSH0 DUP1 REVERT JUMPDEST PUSH2 0x67 PUSH1 0x4 DUP1 CALLDATASIZE SUB DUP2 ADD SWAP1 PUSH2 0x62 SWAP2 SWAP1 PUSH2 0x355 JUMP JUMPDEST PUSH2 0xFB JUMP JUMPDEST PUSH1 0x40 MLOAD PUSH2 0x74 SWAP2 SWAP1 PUSH2 0x3E0 JUMP JUMPDEST PUSH1 0x40 MLOAD DUP1 SWAP2 SUB SWAP1 RETURN JUMPDEST PUSH2 0x85 PUSH2 0x113 JUMP JUMPDEST PUSH1 0x40 MLOAD PUSH2 0x92 SWAP2 SWAP1 PUSH2 0x433 JUMP JUMPDEST PUSH1 0x40 MLOAD DUP1 SWAP2 SUB SWAP1 RETURN JUMPDEST PUSH2 0xB5 PUSH1 0x4 DUP1 CALLDATASIZE SUB DUP2 ADD SWAP1 PUSH2 0xB0 SWAP2 SWAP1 PUSH2 0x355 JUMP JUMPDEST PUSH2 0x137 JUMP JUMPDEST PUSH1 0x40 MLOAD PUSH2 0xC2 SWAP2 SWAP1 PUSH2 0x3E0 JUMP JUMPDEST PUSH1 0x40 MLOAD DUP1 SWAP2 SUB SWAP1 RETURN JUMPDEST PUSH2 0xE5 PUSH1 0x4 DUP1 CALLDATASIZE SUB DUP2 ADD SWAP1 PUSH2 0xE0 SWAP2 SWAP1 PUSH2 0x355 JUMP JUMPDEST PUSH2 0x1B1 JUMP JUMPDEST PUSH1 0x40 MLOAD PUSH2 0xF2 SWAP2 SWAP1 PUSH2 0x3E0 JUMP JUMPDEST PUSH1 0x40 MLOAD DUP1 SWAP2 SUB SWAP1 RETURN JUMPDEST PUSH0 DUP3 PUSH2 0x108 DUP7 DUP7 DUP6 PUSH2 0x22B JUMP JUMPDEST EQ SWAP1 POP SWAP5 SWAP4 POP POP POP POP JUMP JUMPDEST PUSH0 PUSH29 0x8C315DF3BF5E4EC3A96E3B53902FF85F07CB983A0139233686AC7789F8 SWAP1 POP SWAP1 JUMP JUMPDEST PUSH0 DUP1 DUP3 SWAP1 POP PUSH0 DUP7 DUP7 SWAP1 POP SWAP1 POP PUSH0 JUMPDEST DUP2 DUP2 LT ISZERO PUSH2 0x1A1 JUMPI PUSH0 DUP4 SWAP1 POP PUSH0 DUP10 DUP10 DUP5 DUP2 DUP2 LT PUSH2 0x165 JUMPI PUSH2 0x164 PUSH2 0x44C JUMP JUMPDEST JUMPDEST SWAP1 POP PUSH1 0x20 MUL ADD CALLDATALOAD SWAP1 POP DUP1 DUP3 LT PUSH1 0x1 DUP2 EQ PUSH2 0x185 JUMPI DUP2 PUSH0 MSTORE DUP3 PUSH1 0x20 MSTORE PUSH2 0x18D JUMP JUMPDEST DUP3 PUSH0 MSTORE DUP2 PUSH1 0x20 MSTORE JUMPDEST POP PUSH1 0x40 PUSH0 KECCAK256 SWAP5 POP DUP3 PUSH1 0x1 ADD SWAP3 POP POP POP PUSH2 0x145 JUMP JUMPDEST POP DUP5 DUP3 EQ SWAP3 POP POP POP SWAP5 SWAP4 POP POP POP POP JUMP JUMPDEST PUSH0 DUP1 DUP3 SWAP1 POP PUSH0 DUP7 DUP7 SWAP1 POP SWAP1 POP PUSH0 JUMPDEST DUP2 DUP2 LT ISZERO PUSH2 0x21B JUMPI PUSH0 DUP4 SWAP1 POP PUSH0 DUP10 DUP10 DUP5 DUP2 DUP2 LT PUSH2 0x1DF JUMPI PUSH2 0x1DE PUSH2 0x44C JUMP JUMPDEST JUMPDEST SWAP1 POP PUSH1 0x20 MUL ADD CALLDATALOAD SWAP1 POP DUP1 DUP3 LT PUSH1 0x1 DUP2 EQ PUSH2 0x1FF JUMPI DUP2 PUSH0 MSTORE DUP3 PUSH1 0x20 MSTORE PUSH2 0x207 JUMP JUMPDEST DUP3 PUSH0 MSTORE DUP2 PUSH1 0x20 MSTORE JUMPDEST POP PUSH1 0x40 PUSH0 KECCAK256 SWAP5 POP DUP3 PUSH1 0x1 ADD SWAP3 POP POP POP PUSH2 0x1BF JUMP JUMPDEST POP DUP5 DUP3 EQ SWAP3 POP POP POP SWAP5 SWAP4 POP POP POP POP JUMP JUMPDEST PUSH0 DUP1 DUP3 SWAP1 POP PUSH0 JUMPDEST DUP6 DUP6 SWAP1 POP DUP2 LT ISZERO PUSH2 0x26F JUMPI PUSH2 0x260 DUP3 DUP8 DUP8 DUP5 DUP2 DUP2 LT PUSH2 0x254 JUMPI PUSH2 0x253 PUSH2 0x44C JUMP JUMPDEST JUMPDEST SWAP1 POP PUSH1 0x20 MUL ADD CALLDATALOAD PUSH2 0x27B JUMP JUMPDEST SWAP2 POP DUP1 DUP1 PUSH1 0x1 ADD SWAP2 POP POP PUSH2 0x232 JUMP JUMPDEST POP DUP1 SWAP2 POP POP SWAP4 SWAP3 POP POP POP JUMP JUMPDEST PUSH0 DUP2 DUP4 LT PUSH2 0x292 JUMPI PUSH2 0x28D DUP3 DUP5 PUSH2 0x2A5 JUMP JUMPDEST PUSH2 0x29D JUMP JUMPDEST PUSH2 0x29C DUP4 DUP4 PUSH2 0x2A5 JUMP JUMPDEST JUMPDEST SWAP1 POP SWAP3 SWAP2 POP POP JUMP JUMPDEST PUSH0 DUP3 PUSH0 MSTORE DUP2 PUSH1 0x20 MSTORE PUSH1 0x40 PUSH0 KECCAK256 SWAP1 POP SWAP3 SWAP2 POP POP JUMP JUMPDEST PUSH0 DUP1 REVERT JUMPDEST PUSH0 DUP1 REVERT JUMPDEST PUSH0 DUP1 REVERT JUMPDEST PUSH0 DUP1 REVERT JUMPDEST PUSH0 DUP1 REVERT JUMPDEST PUSH0 DUP1 DUP4 PUSH1 0x1F DUP5 ADD SLT PUSH2 0x2E2 JUMPI PUSH2 0x2E1 PUSH2 0x2C1 JUMP JUMPDEST JUMPDEST DUP3 CALLDATALOAD SWAP1 POP PUSH8 0xFFFFFFFFFFFFFFFF DUP2 GT ISZERO PUSH2 0x2FF JUMPI PUSH2 0x2FE PUSH2 0x2C5 JUMP JUMPDEST JUMPDEST PUSH1 0x20 DUP4 ADD SWAP2 POP DUP4 PUSH1 0x20 DUP3 MUL DUP4 ADD GT ISZERO PUSH2 0x31B JUMPI PUSH2 0x31A PUSH2 0x2C9 JUMP JUMPDEST JUMPDEST SWAP3 POP SWAP3 SWAP1 POP JUMP JUMPDEST PUSH0 DUP2 SWAP1 POP SWAP2 SWAP1 POP JUMP JUMPDEST PUSH2 0x334 DUP2 PUSH2 0x322 JUMP JUMPDEST DUP2 EQ PUSH2 0x33E JUMPI PUSH0 DUP1 REVERT JUMPDEST POP JUMP JUMPDEST PUSH0 DUP2 CALLDATALOAD SWAP1 POP PUSH2 0x34F DUP2 PUSH2 0x32B JUMP JUMPDEST SWAP3 SWAP2 POP POP JUMP JUMPDEST PUSH0 DUP1 PUSH0 DUP1 PUSH1 0x60 DUP6 DUP8 SUB SLT ISZERO PUSH2 0x36D JUMPI PUSH2 0x36C PUSH2 0x2B9 JUMP JUMPDEST JUMPDEST PUSH0 DUP6 ADD CALLDATALOAD PUSH8 0xFFFFFFFFFFFFFFFF DUP2 GT ISZERO PUSH2 0x38A JUMPI PUSH2 0x389 PUSH2 0x2BD JUMP JUMPDEST JUMPDEST PUSH2 0x396 DUP8 DUP3 DUP9 ADD PUSH2 0x2CD JUMP JUMPDEST SWAP5 POP SWAP5 POP POP PUSH1 0x20 PUSH2 0x3A9 DUP8 DUP3 DUP9 ADD PUSH2 0x341 JUMP JUMPDEST SWAP3 POP POP PUSH1 0x40 PUSH2 0x3BA DUP8 DUP3 DUP9 ADD PUSH2 0x341 JUMP JUMPDEST SWAP2 POP POP SWAP3 SWAP6 SWAP2 SWAP5 POP SWAP3 POP JUMP JUMPDEST PUSH0 DUP2 ISZERO ISZERO SWAP1 POP SWAP2 SWAP1 POP JUMP JUMPDEST PUSH2 0x3DA DUP2 PUSH2 0x3C6 JUMP JUMPDEST DUP3 MSTORE POP POP JUMP JUMPDEST PUSH0 PUSH1 0x20 DUP3 ADD SWAP1 POP PUSH2 0x3F3 PUSH0 DUP4 ADD DUP5 PUSH2 0x3D1 JUMP JUMPDEST SWAP3 SWAP2 POP POP JUMP JUMPDEST PUSH0 PUSH32 0xFFFFFFFF00000000000000000000000000000000000000000000000000000000 DUP3 AND SWAP1 POP SWAP2 SWAP1 POP JUMP JUMPDEST PUSH2 0x42D DUP2 PUSH2 0x3F9 JUMP JUMPDEST DUP3 MSTORE POP POP JUMP JUMPDEST PUSH0 PUSH1 0x20 DUP3 ADD SWAP1 POP PUSH2 0x446 PUSH0 DUP4 ADD DUP5 PUSH2 0x424 JUMP JUMPDEST SWAP3 SWAP2 POP POP JUMP JUMPDEST PUSH32 0x4E487B7100000000000000000000000000000000000000000000000000000000 PUSH0 MSTORE PUSH1 0x32 PUSH1 0x4 MSTORE PUSH1 0x24 PUSH0 REVERT INVALID LOG2 PUSH5 0x6970667358 0x22 SLT KECCAK256 0xD 0xE8 0x2B DUP9 SWAP15 0xB6 DELEGATECALL EXTCODESIZE SWAP3 0xF9 SWAP8 DUP8 PUSH2 0x3CD1 0xAA BLOCKHASH BALANCE 0xE8 0xBF 0xB1 CODESIZE 0xD3 GASLIMIT 0xE0 0x2C CALLVALUE POP MULMOD PUSH22 0x9AB64736F6C634300081A0033000000000000000000 "
				},
				"gasEstimates": {
					"creation": {
						"codeDepositCost": "239800",
						"executionCost": "279",
						"totalCost": "240079"
					},
					"external": {
						"getSelector()": "338",
						"giakjecdfhb(bytes32[],bytes32,bytes32)": "infinite",
						"verifyCalldata(bytes32[],bytes32,bytes32)": "infinite",
						"verifyCalldataOld(bytes32[],bytes32,bytes32)": "infinite"
					},
					"internal": {
						"_efficientHash(bytes32,bytes32)": "96",
						"_hashPair(bytes32,bytes32)": "177",
						"processProofCalldata(bytes32[] calldata,bytes32)": "infinite"
					}
				},
				"methodIdentifiers": {
					"getSelector()": "034899bc",
					"giakjecdfhb(bytes32[],bytes32,bytes32)": "4de239cd",
					"verifyCalldata(bytes32[],bytes32,bytes32)": "7ffe9d8c",
					"verifyCalldataOld(bytes32[],bytes32,bytes32)": "000e16c4"
				}
			},
			"storageLayout": {
				"storage": [],
				"types": null
			},
			"userdoc": {
				"kind": "user",
				"methods": {},
				"version": 1
			}
		}
	}
}